:1000000000000120F5000000F1000000F1000000F8
:10001000F1000000F1000000F1000000000000000D
:10002000000000000000000000000000811C000033
:10003000F100000000000000D91C00001D1D0000A0
:10004000F1000000F1000000F1000000F1000000EC
:10005000F1000000F1000000F1000000F1000000DC
:10006000F1000000F1000000F1000000F1000000CC
:10007000F1000000F1000000F1000000F1000000BC
:10008000F1000000F1000000F1000000F1000000AC
:10009000F1000000F1000000F1000000F10000009C
:1000A000F1000000F1000000F1000000F10000008C
:1000B000F1000000F1000000F1000000F10000007C
:1000C000F1000000F1000000F1000000F10000006C
:1000D000F1000000F1000000F1000000F10000005C
:1000E000F100000000000000F1000000F10000003D
:1000F000FEE7000008B50E4B0E48DA1C121AC11EAE
:1001000022F00302994288BF00220B4901F05EFFF2
:100110000A4B0B48DA1C121AC11E22F00302994244
:1001200088BF0022002101F001FF00F07BF8FEE70C
:1001300004000020000000202C27000000CA00203E
:1001400004000020094B07B51868002101F02BFDC1
:10015000430707D500220648009202231146006893
:1001600001F0F2FA03B05DF804FB00BF3800002094
:100170002C00002038B5114D04462B6801332B604C
:1001800000F06CFF14212B682060B3FBF1F201FB3F
:100190001232F03262600F22B3FBF2F2C2EB0212B3
:1001A0009A1A02F25122A2600A22B3FBF2F102FB78
:1001B000113303F57C73E36038BD00BF14000020E9
:1001C0001FB50A4B0021186801F0EDFCC30709D5E3
:1001D0006846FFF7CFFF002305481A4669460068C6
:1001E00000F04BFC05B05DF804FB00BF38000020B8
:1001F0003C000020024B9A699206FCD418607047BC
:1002000000C0004008B5411E11F8010F00B908BD3B
:10021000FFF7F0FFF8E700000148FFF7F3BF00BF6A
:10022000B820000083B56D48FFF7ECFFFFF7F4FF3F
:100230006B48FFF7E7FFFFF7EFFF6848FFF7E2FFC4
:100240006848FFF7DFFF6848FFF7DCFF6748FFF704
:10025000D9FF6748FFF7D6FF6648FFF7D3FF664828
:10026000FFF7D0FF5D48FFF7CDFF6448FFF7CAFFF7
:10027000002210210A2000F0DEFB614B186018B943
:100280006048FFF7BFFFFEE75F48FFF7BBFF5F482F
:10029000FFF7B8FF01F07AFC5D4B186018B95D48B4
:1002A000FFF7B0FFFEE75C48FFF7ACFF5B48FFF7E6
:1002B000A9FF5B4B012200934FF4FA7100235948C8
:1002C00001F024FC584E306018B95848FFF79AFFE7
:1002D000FEE75748FFF796FF564B012200934FF475
:1002E000FA610023544801F011FC544D286018B9FC
:1002F0005348FFF787FFFEE7002403275148FFF725
:1003000081FF5148FFF77EFF23464FF480724F492B
:10031000CDE900744E4800F077FD4E48FFF772FFBC
:1003200023464FF480724C49CDE900744B4800F0ED
:100330006BFD4B48FFF766FF4A4B4FF48072019309
:100340000423494900934948234600F05DFD48488D
:10035000FFF758FF05234FF4807246490093464843
:100360002346019400F050FD4448FFF74BFF022361
:100370004FF480724249009342482346019400F0B2
:1003800043FD4148FFF73EFF4048FFF73BFF404831
:10039000FFF738FF366800F061FE23460246012170
:1003A0003046009401F0D6FB3A48FFF72BFF2D684A
:1003B00000F054FE2346024601212846009401F035
:1003C000C9FB3548FFF71EFF3448FFF71BFF00F05D
:1003D000FBFD3348FFF716FFFEE700BFA124000036
:1003E000E5200000052100001C2100004A2100003A
:1003F000752100009F210000C4210000E1210000C0
:100400003C000020F62100001A22000035220000E6
:1004100038000020522200007722000093220000C2
:10042000C1010000B322000034000020BF22000000
:10043000DE22000045010000FC2200003000002008
:100440000923000029230000492300005F23000046
:100450006D0500006623000081230000A504000054
:100460008A2300002C000020AE23000011070000AA
:10047000B6230000D223000021060000DD23000087
:1004800001240000DD0500000824000023240000F2
:100490003A240000512400006C240000882400004D
:1004A000A4240000BFB5284D2848FFF7ABFE022169
:1004B000286801F085FB264E264C274F4FF0FF326F
:1004C000306802A900F056FB0128F7D10021286806
:1004D00001F069FB8307F1D523680399DFF87CE01D
:1004E0001944049A3B6805981A44DEF800302160EC
:1004F00000EB03081A483A600368CEF80080013325
:10050000042B0360DAD9B2FBF3F2DFF858C0B1FB79
:10051000F3F1CCF80820B8FBF3F2CCE90323002276
:10052000DDF8089002601048CCF80410CCF8009078
:10053000CEF80020009202231146006822603A6043
:1005400001F002F9B9E700BF38000020C52400001F
:100550003C000020100000200C00002008000020BB
:1005600004000020180000202C00002008B50648D8
:10057000FFF748FE054B0121186801F021FB4FF4FD
:100580007A7000F0D3FEFAE7E12400003800002082
:10059000F0B585B028B9302005B0BDE8F040FFF7D0
:1005A00029BE6A46002316460A24B0FBF4F5074626
:1005B00004FB1501092F01F1300102F8011B284647
:1005C000194603F1010302D90F2BEED10E21705C05
:1005D000FFF710FE0139FAD205B0F0BDF8B50D48AD
:1005E000FFF710FE002414250B4E0C4F0134B4FB12
:1005F000F5F305FB134343B93046FFF703FE2046EE
:10060000FFF7C6FF3846FFF7FDFD642000F08EFEC1
:10061000ECE700BFFB24000020250000A12400001F
:100620002DE9F0472E4E2F48FFF7ECFD0F213068E3
:1006300001F0C6FA0025DFF8B0802C4FDFF8B0904B
:1006400040460135FFF7DEFD2846FFF7A1FF05F024
:10065000030A3846FFF7D6FDBAF1020F346833D0EB
:10066000BAF1030F3AD0BAF1010F07D02148FFF7D2
:10067000C9FD0721204601F0A3FA06E01E48FFF756
:10068000C1FD0421204601F08EFA0021306801F0FE
:100690008AFA04461948FFF7B5FDE10702D5184864
:1006A000FFF7B0FDA20702D51648FFF7ABFD6307C1
:1006B00002D51548FFF7A6FD3846FFF7A3FD40F623
:1006C000B83000F033FEBBE74846FFF79BFD04213E
:1006D000204601F075FA51463068D4E70B48C6E76A
:1006E000380000203D2500005B250000A12400000B
:1006F000CC25000087250000AB2500002B2600003C
:100700004A260000522600005C2600000726000052
:10071000DFF8D8A02DE988483548FFF773FD04219C
:10072000DAF8000001F04CFADFF8C8B0324EDFF81A
:10073000CC904FF0FF320121002000F0B9FF0021E2
:10074000DAF8000001F02FFA4307F2D50A252C4C05
:10075000FFF762FD5846FFF755FDFFF75DFD29489D
:10076000FFF750FD2068FFF713FF3046FFF74AFD03
:100770002548FFF747FDD4F8048098FBF5F7384685
:10078000FFF706FF4846FFF73DFD05FB1780FFF723
:10079000FFFE1E48FFF736FD1D48FFF733FDD4F876
:1007A000088098FBF5F73846FFF7F2FE4846FFF75A
:1007B00029FD05FB1780FFF7EBFE1648FFF722FD2A
:1007C0001548FFF71FFDE068FFF7E2FE1348FFF74B
:1007D00019FD1348FFF716FD2069FFF7D9FE3046D3
:1007E000FFF710FDFFF718FDA3E700BF380000205A
:1007F000642600007F260000A1240000BE26000021
:1008000018000020A0260000AE260000C026000030
:10081000C5260000D2260000D7260000E4260000EE
:10082000EB2600000C4608B50448FFF7EBFC204619
:10083000FFF7E8FC0248FFF7E5FCFEE7F7260000BB
:10084000A12400004FF0FF3200F10803C0E90223A9
:100850004360036100230360704700230361704716
:1008600030B50C68631C0AD103695A684A6091600C
:100870008B605960036808610133036030BD00F18B
:100880000802134652681568A542FAD9EDE70369D4
:10089000D0E901128A6051605968814208BF5A60EC
:1008A00000220261186801381860704710B50446CC
:1008B00001F0F8F9A46B01F005FAB4FA84F04009EC
:1008C00010BD70B51646026C0446856B42B90668C9
:1008D0009EB9806800F0B2FEA6600135A56370BDC8
:1008E0006EB9406801F072FB6368226C1344A26821
:1008F0006360934224BF236863600020EDE7C06813
:1009000001F064FB226CE36851429B1A2268E360A9
:1009100093423EBFA3685B18E360022EEDD10DB198
:10092000013DEAE72846D8E703461A6C084610B4AA
:1009300062B1DC68996814448C4228BF1968DC6095
:1009400028BFD960D96810BC01F040BB10BC70470B
:1009500070B5044601F0A6F994F8455004F1240658
:100960006DB2002D01DD636AB3B9FF2384F8453011
:1009700001F0A8F901F096F994F8445004F110063A
:100980006DB2002D01DD23697BB9FF2384F844306B
:10099000BDE8704001F096B9304600F05FFD08B147
:1009A00000F036FE013D6DB2DBE7304600F056FD4B
:1009B00008B100F02DFE013D6DB2E2E770B50E46C4
:1009C000044610B3C06B00B3236CA3FB0035DDB944
:1009D00001F068F9D4E90F314B432268A563D018C0
:1009E0005B1A62601A44FF23A06084F84430E2601E
:1009F00084F8453056B104F11000FFF723FF04F1ED
:100A00002400FFF71FFF12E0002070BD236973B1BF
:100A100004F1100000F022FD48B14FF0E0234FF048
:100A20008052C3F8042DBFF34F8FBFF36F8F01F0D7
:100A300049F90120E9E770B50D46064610B90024D2
:100A4000204670BDA1FB0023002BF8D1484310F1D4
:100A5000490FF4D8483001F0A3F904460028EED03D
:100A60004DB100F1480301212046C4E90F65236020
:100A7000FFF7A4FFE4E70346F5E72DE9FF41002770
:100A800004460E461D46B846019201F00BF9A26BD2
:100A9000E36B9A421BD22A4631462046FFF711FFEC
:100AA000636A1BB104F1240000F0D8FC48B14FF098
:100AB000E0234FF08052C3F8042DBFF34F8FBFF3F4
:100AC0006F8F01F0FFF8012004B0BDE8F081022D26
:100AD000E1D0019B1BB901F0F5F80020F4E717B94C
:100AE00002A800F061FD01F0EDF800F0AFFA01F0AE
:100AF000D9F894F84430FF2B08BF84F8448094F868
:100B00004530FF2B08BF84F8458001F0DBF801A9D0
:100B100002A800F055FD38BB01F0C4F8A26BE36BEE
:100B20009A420ED101F0CEF8019904F1100000F0C4
:100B300063FC2046FFF70CFF00F052FB48B1012791
:100B4000A3E701F0BFF82046FFF702FF00F048FBE3
:100B5000F5E74FF0E0234FF08052C3F8042DBFF3C8
:100B60004F8FBFF36F8FEAE72046FFF7F1FE00F0EB
:100B700037FBB2E72DE9FF41002704460E46B84691
:100B8000019201F08FF8A56BE5B131462046FFF7E1
:100B9000CBFE2369013DA56373B104F1100000F0A1
:100BA0005DFC48B14FF0E0234FF08052C3F8042DB4
:100BB000BFF34F8FBFF36F8F01F084F8012004B0B3
:100BC000BDE8F081019B1BB901F07CF80020F6E73D
:100BD00017B902A800F0E8FC01F074F800F036FA4A
:100BE00001F060F894F84430FF2B08BF84F844808B
:100BF00094F84530FF2B08BF84F8458001F062F877
:100C000001A902A800F0DCFC00BB2046FFF74EFE65
:100C1000B0B1019904F1240000F0EEFB2046FFF78B
:100C200097FE00F0DDFA48B94FF0E0234FF0805214
:100C3000C3F8042DBFF34F8FBFF36F8F0127A0E7D9
:100C40002046FFF785FE00F0CBFAF7E72046FFF7D6
:100C50007FFE00F0C5FA2046FFF728FE0028EDD001
:100C6000B4E7000070B5B9B100230C4A1C46154624
:100C70005668864204D105EBC403C3E900100BE0BB
:100C80001BB91668002E08BF134601340A2C02F166
:100C90000802EDD1002BF0D170BD00BF4000002054
:100CA00070B504460D46164600F0FCFF94F844303B
:100CB000FF2B04BF002384F8443094F84530FF2B09
:100CC00004BF002384F8453000F0FCFFA36B2BB970
:100CD0003246294604F1240000F09EFB2046BDE880
:100CE0007040FFF735BE00002DE9F843224B234C3E
:100CF0001D68234B0646D3F80080224B0F46D3F8DD
:100D0000009020680430FFF7C2FD40B922681E49F8
:100D1000D06A01220B68824023EA02030B60731C35
:100D200014D19FB1194B21685A688A609068216874
:100D3000C8602168043141602168043191602268F3
:100D400053611A6801321A60BDE8F883236821688C
:100D5000AD195D6001F1040104D34846BDE8F843D4
:100D6000FFF77EBD4046FFF77BFD094B1A68AA429C
:100D700088BF1D60E8E700BFB4000020A401002088
:100D800000010020FC000020B0000020BC0000207A
:100D900098000020064A13681968064B19B94FF0ED
:100DA000FF321A6070471268D2681268F9E700BF14
:100DB0000001002098000020F8B50E4C0E4F0F4E99
:100DC000236803B9F8BD00F06DFFFB68DD68281DDE
:100DD000FFF75DFD3368013B33602368013B23600F
:100DE00000F070FF286B01F057F8284601F054F826
:100DF000E6E700BFD0000020D4000020B8000020AB
:100E000008B5FFF7D9FFFCE72DE9F0479600074644
:100E100030460D469846DDF8249000F0C1FF82462A
:100E200018B94FF0FF30BDE8F087502000F0B8FF50
:100E30000446002800F093805022002101F076F84B
:100E40003246A5215046C4F830A001F06FF8236B5C
:100E5000043E1E4426F007066DB16B1E04F13302FA
:100E60000B3513F8011F02F8011F09B1AB42F8D18D
:100E7000002384F83F30089D04F1040A052D28BFA3
:100E800005255046E5622564FFF7E7FCC5F1060538
:100E900004F11800FFF7E1FC424639463046246170
:100EA000A561646200F0DAFE2060B9F1000F01D0A4
:100EB000C9F8004000F0F6FE364B374E1A68374F3F
:100EC00001321A603568002D4DD134601B68012B4A
:100ED0001FD1B84640460135FFF7B4FC062D08F196
:100EE0001408F7D1DFF8B8802E4D4046FFF7AAFC72
:100EF0002846FFF7A7FC2C48FFF7A4FC2B48FFF778
:100F0000A1FC2B48FFF79EFC2A4BC3F800802A4B1C
:100F10001D602A4A2A4913680868013313600122B8
:100F2000E36A9A4002430A6014225343F9184A685C
:100F30009068A260E060C0F804A0C2F808A0FA5867
:100F400061610132FA5000F0BDFE1E4B1B6823B1F7
:100F50003368DA6AE36A9A4210D3012063E75046A5
:100F600000F09AFF5DE7174B1A68E36A002AD0D1B8
:100F70003268D26A9A4298BF3460CAE74FF0E023E1
:100F80004FF08052C3F8042DBFF34F8FBFF36F8F24
:100F9000E3E700BFB8000020A40100202C010020DE
:100FA0001801002004010020E8000020D4000020E7
:100FB000BC00002000010020FC0000209C0000205C
:100FC000B0000020AC000020002310B5184A86B005
:100FD000CDE90333059303AB12F8014B03F8014B42
:100FE000002CF9D1134B5A22CDE900431248234675
:100FF00003A9FFF709FF012815D100F06BFD0128B7
:1010000011D14FF0400383F31188BFF36F8FBFF30B
:101010004F8F4FF0FF32094B1A60094B1860094B94
:101020001C6000F09DFE084B1B6806B010BD00BFA1
:101030000E27000094000020010E00009800002000
:10104000AC000020B400002020270000024A1368F2
:1010500001331360704700BF90000020014B1868F7
:10106000704700BFB40000202DE9F84F514B1B68BA
:10107000002B40F09880504B1C6801341C605CB918
:101080004E4A4F4B1168186810604E4A1960136839
:1010900001331360FFF77EFE4B4D00202B684B4A57
:1010A0009C42DFF82CC10FD21421DCF80030DB6A3F
:1010B0004B43D358022B474B28BF01201B68002B02
:1010C00018BF0120BDE8F88F3C4F434E3B681B68BA
:1010D0001BB94FF0FF332B60E6E73B68DB68DB684A
:1010E00059688C4201D22960DEE7D3F81480D3E935
:1010F0000219C1F80890C9F80410D8F8041003F1D7
:10110000040E71454FF0000108BFC8F80490596102
:10111000D8F800100139C8F80010D3F82880B8F1C9
:10112000000F15D0D3E90719C1F80890C9F80410C9
:10113000D8F8041003F1180A51454FF0000108BF18
:10114000C8F804909962D8F800100139C8F8001066
:101150004FF00108D96AD6F8009008FA01F848EA79
:101160000908C6F800804FF0140808FB01F802EBEC
:10117000080ADAF80490D9F808B0C3F80890C3F860
:101180000CB0CBF804E0C9F808E0C3F814A052F89A
:101190000830013342F80830DCF80030DB6A99424D
:1011A00088BF012092E70D4A0020136801331360C5
:1011B00088E700BF90000020B4000020000100205C
:1011C000FC000020A0000020980000202C0100203E
:1011D000A4010020A4000020B0000020A8000020EE
:1011E0002DE9F84F00F05EFD484B1A68013A1A608D
:1011F0001B682BB1002400F065FD2046BDE8F88F88
:10120000434A1268002AF5D0012514264148424C71
:10121000424A434FDFF80CC153E0C368DB68D3F8A0
:1012200028E0D3E90718C1F80880C8F80410DEF8F0
:10123000041003F1180949454FF0000108BFCEF82A
:1012400004809962DEF800100139CEF80010D3F85E
:1012500014E0D3E90218C1F80880C8F80410DEF8D9
:10126000041003F104094945DEF8001008BFCEF868
:1012700004800139CEF80010D3F82CE0D4F80080B7
:1012800005FA0EF141EA080106FB0EF802EB080A26
:101290002160DAF80410D1F808B09960C3F80CB0F6
:1012A000CBF80490C1F8089052F80810C3F814A0C5
:1012B000013142F808103968C96A8E4501D9CCF865
:1012C000005001680029A8D10BB1FFF763FD164D4E
:1012D0002C6844B10127134EFFF7C6FE00B13760FA
:1012E000013CF9D12C600F4B1B68002B82D00C4BBA
:1012F0004FF080521B684FF0E023C3F8042DBFF37A
:101300004F8FBFF36F8F012475E700BF900000205F
:10131000B8000020E8000020B00000202C010020D0
:10132000A4010020A4000020A800002008B550B9A6
:101330004FF0E0234FF08052C3F8042DBFF34F8FDE
:10134000BFF36F8F08BD0021FFF780FEFFF7CCFCD5
:10135000FFF746FF0028EBD0F4E70000214B70B503
:101360001A68214B12B101221A6070BD1F4C1A601D
:101370002368216822680968126B1B6B91420FD9A0
:101380001A68B2F1A53F0BD15A68B2F1A53F07D157
:101390009A68B2F1A53F03D1DB68B3F1A53F04D051
:1013A000216820683431FFF73DFA114B1B68B3FA0E
:1013B00083F31425DBB2C3F11F0305FB03F20D49D0
:1013C00088184668083276680A44964205FB03117D
:1013D00008BFC268466008BF42604B68DB68236094
:1013E0002368C2E790000020A4000020A401002090
:1013F000B00000202C01002010B50C46054B1968E8
:101400001831FFF72DFA2046BDE810400121FFF703
:101410006BBC00BFA40100200F4B70B444681D6872
:10142000A668EC611D68002A2E621D6805F118058A
:1014300075601D681B6805F11805A5609862036852
:1014400070BC03F1010303600CBF08464FF0FF308E
:101450001146FFF749BC00BFA4010020C368F0B5E6
:10146000DB689A6AD3E9070181604860506803F13C
:101470001804A04208BF5160002199621168013927
:1014800011601E4AD96A1268002A2AD1D3E90240A3
:101490005A69A060446054681D1DAC4208BF50608A
:1014A000106801381060012215488A400468224300
:1014B000026014224A43134886187468A7689C6027
:1014C000DF607D60A5605E618358013383500E4B01
:1014D0001B68DB6A994285BF01200C4B0020186015
:1014E000F0BD0B4A50688568D8611D626C608460ED
:1014F0009A62136801331360E9E700BF900000208F
:10150000B00000202C010020A4010020A400002035
:10151000E800002041F00041F0B5D0E9033201605D
:10152000D0E90141A1604C6054680126844208BFA3
:1015300051600021016111681D1D013911605A6956
:10154000D3E90201816048605068A84208BF516039
:101550001168114801391160D96A046806FA01F26C
:101560002243026014224A430C4887187C68D4F84E
:1015700008C09C60C3F80CC0CCF80450A5605F6143
:10158000835833448350064B1B68DB6A994284BFFF
:10159000044B1E60F0BD00BFB00000202C010020F5
:1015A000A4010020A4000020034B1B680360034B30
:1015B0001B684360704700BFA0000020B4000020FB
:1015C00070B50D46044600F06DFB0F4B19682B6893
:1015D0005A1C17D00D48266800686268864208D0F9
:1015E0008A4206D8002301242B6000F06BFB2046C2
:1015F00070BD881A8342F5D95B1A134420462B60CC
:10160000FFF7D2FF0024F0E7B4000020A000002084
:101610000122014B1A607047A4000020054B1B6893
:1016200033B1054B1868B0FA80F0400940007047AC
:1016300001207047AC00002090000020F8B504465F
:1016400008B90020F8BD436CC16A026C013B9142AD
:101650004364F6D0002BF4D1051D2846FFF717F997
:10166000114A30B90121E06A1368814023EA01037D
:1016700013600120236C1668C3F10601A16100FA12
:1016800003F1314311601421E3624B43074AD6183A
:1016900071688F68A160E7607D608D60D158666178
:1016A0000144D150CEE700BFB00000202C01002043
:1016B0002DE9F843234D00F112072B68064653F835
:1016C000274089469046C4B9BAB1FFF7BFFC00F085
:1016D000E9FA2B6853F8273033B300F0F3FAFFF739
:1016E0007FFD54B148B94FF0E0234FF08052C3F86A
:1016F000042DBFF34F8FBFF36F8F00F0D3FA2B6829
:1017000053F8274034B12B68B9F1000F18D00022EC
:1017100043F8272000222B68334483F84C2000F044
:10172000D1FA2046BDE8F88301242B68334483F8BE
:101730004C4000F0C7FA21464046FFF7D5FACEE705
:10174000621EE5E7A40100202DE9F041DDF81880D4
:1017500005460C4617461E4600F0A4FAB8F1000FE5
:1017600005D004F1120355F82330C8F800300222E6
:101770002B1993F84C1083F84C20731EC9B2032B1D
:1017800008D8DFE803F00240474505EB8404A36C6A
:101790003B43A364012930D1D5E902126B698A6009
:1017A000516059682C1DA14208BF5A601A681C4933
:1017B000013A1A600123EA6A0868934003430B6008
:1017C000142353431749CE1870688768A860EF60E8
:1017D0007C608460C8586E610130C850124B1B6831
:1017E000DB6A9A4209D94FF0E0234FF08052C3F8E8
:1017F000042DBFF34F8FBFF36F8F012400F062FA07
:101800002046BDE8F08105EB8404A36C0133C0E7FA
:10181000022903D0123445F82470BBE70024EDE719
:10182000B00000202C010020A4010020914208B546
:10183000416000610AD8D21A83699A420DD2084BDE
:10184000011D1868FFF70CF8002008BD9A4201D26C
:10185000994202D2034B011DF3E70120F5E700BFD7
:10186000B4010020B801002070B504460D461646AC
:10187000A1692B46324620462944FFF7D7FF00B91D
:1018800070BDA36920461D44236A9847F0E7000015
:101890000E4B70B51B680546DB680E46DC68201DE4
:1018A000FEF7F5FF94F824305A0709D53246294649
:1018B0002046FFF7D9FF2046236ABDE8704018474D
:1018C00023F0010384F82430F5E700BFB8010020BD
:1018D000F8B50546FFF7C2FB0D4E04463368834258
:1018E00009D90C4F3B681A6852B90B4A116813604A
:1018F0003960012300E0002320462B603460F8BDEE
:10190000DB684FF0FF311868FFF7C2FFEAE700BF5E
:10191000A8010020B8010020B40100202DE9F04307
:101920000026DFF84C81534F85B0D8F80030D3F84B
:101930000090B9F1000F39D00024DB68D3F8009093
:10194000FFF784FB01A8FFF7C3FF019B0546002BAF
:1019500049D16CBB484531D3FFF742FC2946484684
:10196000FFF796FFCDE9016603960022386801A9CA
:10197000FFF700F90028D8D0019B002BF5DB039C72
:10198000002CF2D0636913B1201DFEF780FF68467A
:10199000FFF79EFF019B0546013B082BE5D8DFE8DA
:1019A00003F02525484F5E2525484F000124C7E751
:1019B000314B1B681C68B4FA84F464092246386809
:1019C000A9EB0501FFF76CF9FFF70AFC0028C9D164
:1019D0004FF0E0234FF08052C3F8042DBFF34F8F38
:1019E000BFF36F8FBEE7FFF7FBFBBBE794F8243034
:1019F000A16943F0010384F82430029B0246194494
:101A00002046FFF713FF0028AFD094F82430590781
:101A10000AD5A36902992A4620461944FFF724FFF4
:101A20002046236A9847A0E723F0010384F8243076
:101A3000F6E794F8243023F0010384F8243094E787
:101A400094F82430024643F0010384F824300299CC
:101A50000346A16101442046FFF7E8FE85E794F8BC
:101A600024309A07E7D4204600F016FA7DE700BF3D
:101A7000B8010020B0010020B4010020F8B50F4CDF
:101A800000F010F92568ADB90D4F0E4E3846FEF73F
:101A9000D9FE3046FEF7D6FE0B4B2A461F600B4B95
:101AA0000C210A201E60FEF7C6FF206010B1084915
:101AB000FFF7D8F8BDE8F84000F004B9B001002005
:101AC000D0010020BC010020B8010020B40100209A
:101AD0001327000007B5FFF7D1FF084B186848B17E
:101AE000074BB422019304230649009306480023C0
:101AF000FFF78AF903B05DF804FB00BFB0010020D6
:101B0000AC010020182700001D1900002DE9F0414C
:101B1000804628200F4615461E4600F041F904462F
:101B2000A0B1002380F82430FFF7A8FF069BC4E98A
:101B30000676C4F800802362201DFEF78EFE2DB1CC
:101B400094F8243043F0040384F824302046BDE8A0
:101B5000F08100001FB50C4C236813B9002004B0BD
:101B600010BD0028FAD00529CDE901120390F5DC5B
:101B7000FFF754FD0023022814BF1A46069A206876
:101B800001A9FEF77AFFEAE7B001002010B518209E
:101B900000F006F9044620B1002340F8043BFEF7AC
:101BA00051FE204610BD70B505460C4600F07AF88F
:101BB0002E6826EA04042C6000F084F8304670BDDC
:101BC0002DE9F04104460D4600F10C06FFF73EFA00
:101BD000236820692B4300252360B042216807D188
:101BE00021EA05052560FFF7FBFA2846BDE8F081EC
:101BF000D0E9002822F07F4312F0806F03EA01074A
:101C000002D11FB94046E8E7BB42FBD1D20141F007
:101C1000007148BF1D43FFF77DFCF3E7002382B04E
:101C200001934FF0400383F31188BFF36F8FBFF32D
:101C30004F8F019B002BFCD002B070470648006814
:101C4000006880F3088862B661B6BFF34F8FBFF3B8
:101C50006F8F00DF00BF000008ED00E04FF08073E1
:101C600040F8043C054B21F0010140F8081C40F805
:101C70000C3C40F8202C4038704700BF1D1C000071
:101C8000074B19680868B0E8F00F80F30988BFF3C4
:101C90006F8F4FF0000080F311884EF00D0E7047EB
:101CA000A40100204FF0400383F31188BFF36F8F2E
:101CB000BFF34F8F024A136801331360704700BFB0
:101CC00000000020034A1368013B13600BB983F343
:101CD0001188704700000020EFF30980BFF36F8F79
:101CE0000D4B1A6820E9F00F10602DE908404FF005
:101CF000400080F31188FFF731FB4FF0000080F3C4
:101D00001188BDE8084019680868B0E8F00F80F352
:101D10000988BFF36F8F7047A401002008B54FF00A
:101D2000400383F31188BFF36F8FBFF34F8FFFF72B
:101D30009BF928B14FF0E0234FF08052C3F8042DF7
:101D4000002383F3118808BD4FF0E02300221A61BD
:101D50009A614CF24F325A6107221A6170470000B3
:101D60004FF0E02310B50024D3F8202D42F47F0279
:101D7000C3F8202DD3F8202D42F07F42C3F8202D48
:101D8000C3F81C4DFFF7E0FF044B1C60FFF756FF44
:101D9000FFF7E4FAFFF742FF204610BD00000020E5
:101DA000F8B5431E0A3363D810F0070300F10804A6
:101DB00005D0A3F10902A2425AD31030C41A304D03
:101DC000FFF744F92B68F3B92E4A2F4853071FBF7A
:101DD000D11D21F0070102F54842531A0CBF4FF400
:101DE00048430A4600211344083B23F0070341609F
:101DF0000260C3E90011991AC2E900312B60234B3C
:101E00001960234B1960002C37DD214E3168A14247
:101E100033D31D4A13685868A04201D21F684FBBD4
:101E20002D689D4229D01568D3F800C0001B1028EA
:101E300005F10805C2F800C005D91F1978605C607B
:101E400043F804C0176058680A1A104932600C68D9
:101E500040F00040A24238BF0A6000221A600D4ADA
:101E60005860136801331360FFF7BAF92846F8BDCC
:101E70000024A4E71A463B46CDE70025F4E700BF5F
:101E8000F401002000020020F8010020EC010020F5
:101E9000F0010020E801002038B5054600283BD0BD
:101EA00050F8043C002B37DA50F8082C002A33D1C4
:101EB00023F0004340F8043CA0F10804FFF7C6F803
:101EC000164A55F8041C13680B441360144B1A4649
:101ED0001B689C42FBD850681518AC4202BF1446E0
:101EE00009185160606821188B4213D10D490968A7
:101EF0008B4203D05968014461601968A242216095
:101F000018BF1460084A136801331360BDE83840F5
:101F1000FFF766B91946F1E738BD00BFF0010020B0
:101F2000F8010020F4010020E401002070B58607CC
:101F300047D0541E002A3ED00346CAB201E0013CFD
:101F400039D303F8012B9D07F9D1032C2CD9CDB23D
:101F500005EB05250F2C1A4605EB054534D9A4F1F0
:101F6000100C2CF00F0603F1100EB6444FEA1C1CA7
:101F7000C2E90055C2E9025510327245F8D10CF1A0
:101F8000010214F00C0F03EB021204F00F0C13D03B
:101F9000ACF1040323F003030433134442F8045B5D
:101FA0009342FBD10CF003042CB1C9B21C4403F8DA
:101FB000011BA342FBD170BD64461346002CF4D133
:101FC000F9E703461446C0E7A446E1E7844641EA40
:101FD000000313F0030349D1403A23D30B68036095
:101FE0004B6843608B688360CB68C3600B69036197
:101FF0004B6943618B698361CB69C3610B6A03627F
:102000004B6A43628B6A8362CB6AC3620B6B036366
:102010004B6B43638B6B8363CB6BC363403040314B
:10202000403ADBD230320BD30B6803604B6843601D
:102030008B688360CB68C36010301031103AF3D2E4
:102040000C3205D351F8043B40F8043B043AF9D272
:10205000043208D0D2071CBF11F8013B00F8013B45
:1020600001D30B8803806046704700BF082A13D352
:102070008B07B1D010F00303AED0C3F10403D21A22
:10208000DB071CBF11F8013B00F8013BA4D331F87A
:10209000023B20F8023B9FE7043AD9D3013A11F8FA
:1020A000013B00F8013BF9D20B7803704B78437089
:1020B0008B788370604670470D0A3D3D3D3D3D3D48
:1020C0003D3D3D3D3D3D3D3D3D3D3D3D3D3D3D3D40
:1020D0003D3D3D3D3D3D3D3D3D3D3D3D3D3D3D3D30
:1020E0003D3D0D0A0020204672656552544F532035
:1020F000436F6D70726568656E73697665204465BF
:102100006D6F0D0A004C6561726E696E67206F62BB
:102110006A656374697665733A0D0A00312E20533F
:10212000656E736F72206461746120636F6C6C659F
:102130006374696F6E2028736F66747761726520AF
:1021400074696D657273290D0A00322E2044617422
:10215000612070726F63657373696E672028717593
:1021600065756520636F6D6D756E69636174696F08
:102170006E290D0A00332E20446973706C6179203A
:102180007570646174657320287461736B206E6F61
:1021900074696669636174696F6E73290D0A00342E
:1021A0002E20436F6D6D616E642068616E646C6992
:1021B0006E6720286576656E742067726F75707320
:1021C000290D0A00352E204D756C74692D746173CC
:1021D0006B20636F6F7264696E6174696F6E0D0A54
:1021E000004372656174696E67207175657565730A
:1021F0002E2E2E0D0A004572726F72206372656179
:1022000074696E672073656E736F722064617461A8
:10221000207175657565210D0A0020202D205365FC
:102220006E736F72206461746120717565756520CD
:102230004F4B0D0A000D0A4372656174696E672089
:102240006576656E742067726F7570732E2E2E0D15
:102250000A004572726F72206372656174696E67FD
:102260002073797374656D206576656E742067726E
:102270006F7570210D0A0020202D2053797374652D
:102280006D206576656E742067726F7570204F4B98
:102290000D0A000D0A4372656174696E6720736FE1
:1022A0006674776172652074696D6572732E2E2E67
:1022B0000D0A0053656E736F7254696D6572004547
:1022C00072726F72206372656174696E67207365E4
:1022D0006E736F722074696D6572210D0A00202083
:1022E0002D2053656E736F722074696D6572204F77
:1022F0004B20283530306D73290D0A004469737006
:102300006C617954696D6572004572726F722063F9
:1023100072656174696E6720646973706C6179209D
:1023200074696D6572210D0A0020202D20446973A7
:10233000706C61792074696D6572204F4B20283272
:102340003030306D73290D0A000D0A4372656174D7
:10235000696E67207461736B732E2E2E0D0A005305
:10236000656E736F720020202D2053656E736F723F
:10237000207461736B20287072696F2033290D0AF5
:10238000004461746150726F630020202D2044610D
:1023900074612070726F63657373696E6720746116
:1023A000736B20287072696F2033290D0A0044690D
:1023B00073706C61790020202D20446973706C610A
:1023C00079207461736B20287072696F2034290D35
:1023D0000A00436D6448616E646C65720020202DB4
:1023E00020436F6D6D616E642068616E646C657210
:1023F000207461736B20287072696F2035290D0A73
:1024000000576F726B65720020202D20576F726B22
:102410006572207461736B20287072696F20322995
:102420000D0A000D0A416C6C207461736B7320639C
:10243000726561746564210D0A000D0A537461723E
:1024400074696E672074696D6572732E2E2E0D0A85
:102450000020202D2053656E736F722074696D65A6
:102460007220737461727465640D0A0020202D203F
:10247000446973706C61792074696D65722073743E
:1024800061727465640D0A000D0A53746172746997
:102490006E67207363686564756C65722E2E2E0DF1
:1024A0000A0D0A004572726F723A207363686564A0
:1024B000756C6572207374617274206661696C65F5
:1024C00064210D0A0020205B4461746150726F63C7
:1024D0005D205461736B20737461727465640D0ABE
:1024E0000020205B53656E736F725D205461736BC7
:1024F00020737461727465640D0A0020205B576F4D
:10250000726B65725D204261636B67726F756E649A
:10251000207461736B20737461727465640D0A00BA
:1025200020205B576F726B65725D2052756E6E690D
:102530006E672E2E2E206C6F6F7020230020205B84
:10254000436D6448616E646C65725D205461736BA9
:1025500020737461727465640D0A000D0A20205B9B
:10256000436D6448616E646C65725D2050726F6388
:10257000657373696E6720636F6D6D616E64206350
:1025800079636C6520230020205B436D6448616E95
:10259000646C65725D20456E61626C696E67206176
:1025A0006C6C207461736B730D0A0020205B436DAB
:1025B0006448616E646C65725D2050617573696E0C
:1025C0006720646973706C61790D0A0020205B4399
:1025D0006D6448616E646C65725D20526573756DE3
:1025E000696E6720646973706C61792C2070617505
:1025F00073696E6720646174612070726F636573C4
:1026000073696E670D0A0020205B436D6448616E3C
:10261000646C65725D20526573756D696E672061CB
:102620006C6C207461736B730D0A0020205B436D2A
:102630006448616E646C65725D2043757272656E8C
:10264000742073746174653A200053454E534F52A1
:1026500020004441544150524F43200044495350BC
:102660004C41590020205B446973706C61795D2096
:102670005461736B20737461727465640D0A002079
:10268000205B446973706C61795D2053656E736F74
:10269000722044617461205570646174650D0A0094
:1026A000202054696D657374616D703A200020209C
:1026B00054656D70657261747572653A20002E0004
:1026C00020430D0A00202048756D69646974793AC9
:1026D000200020250D0A002020507265737375724A
:1026E000653A2000206850610D0A00202053616D7A
:1026F000706C65733A20000D0A212121205374610A
:10270000636B206F766572666C6F773A2000494480
:102710004C4500546D725100546D72205376630025
:0C27200005000000F8B500BFF8B500BFD0
:04272C00AAAAAAAA01
:00000001FF
