:1000000000000120F5000000F1000000F1000000F8
:10001000F1000000F1000000F1000000000000000D
:10002000000000000000000000000000090B0000BC
:10003000F100000000000000610B0000A50B0000B3
:10004000F1000000F1000000F1000000F1000000EC
:10005000F1000000F1000000F1000000F1000000DC
:10006000F1000000F1000000F1000000F1000000CC
:10007000F1000000F1000000F1000000F1000000BC
:10008000F1000000F1000000F1000000F1000000AC
:10009000F1000000F1000000F1000000F10000009C
:1000A000F1000000F1000000F1000000F10000008C
:1000B000F1000000F1000000F1000000F10000007C
:1000C000F1000000F1000000F1000000F10000006C
:1000D000F1000000F1000000F1000000F10000005C
:1000E000F100000000000000F1000000F10000003D
:1000F000FEE7000008B50E4B0E48DA1C121AC11EAE
:1001000022F00302994288BF00220B4900F06AFEE8
:100110000A4B0B48DA1C121AC11E22F00302994244
:1001200088BF0022002100F00DFE00F01DF8FEE760
:1001300008000020000000209011000034C90020B9
:1001400008000020024B9A699206FCD418607047A0
:1001500000C0004008B5411E11F8010F00B908BDEC
:10016000FFF7F0FFF8E7000073B53348FFF7F2FF41
:100170003248FFF7EFFF3248FFF7ECFF2F48FFF759
:10018000E9FF2D48FFF7E6FF2E48FFF7E3FF2E4873
:10019000FFF7E0FF2D48FFF7DDFF2D48FFF7DAFFFF
:1001A0002548FFF7D7FF2B48FFF7D4FF2A48FFF772
:1001B000D1FF2A48FFF7CEFF2948FFF7CBFF1E48A3
:1001C000FFF7C8FF2748FFF7C5FF0024012380225F
:1001D000CDE9003424492346244800F097F902234E
:1001E000064680222249009322482346019400F0CB
:1001F0008DF9032305460093802223461E491F489C
:10020000019400F083F9012E12D1012D10D10128A3
:100210000ED11B48FFF79EFF1A48FFF79BFF0648C9
:10022000FFF798FF00F04CFA1748FFF793FFFEE73F
:100230001648FFF78FFFFEE73C100000D00E0000CD
:10024000F70E0000160F0000280F0000520F0000EC
:10025000730F0000970F0000A90F0000D30F0000DC
:10026000FD0F0000271000003F1000004D030000AC
:10027000471000001503000052100000DD020000CE
:100280005B1000007910000096100000BA1000000A
:10029000F0B585B028B9302005B0BDE8F040FFF7D3
:1002A00051BF6A46002316460A24B0FBF4F5074600
:1002B00004FB1501092F01F1300102F8011B28464A
:1002C000194603F1010302D90F2BEED10E21705C08
:1002D000FFF738FF0139FAD205B0F0BD70B50A4812
:1002E000FFF738FF0024094E094D3046FFF732FF73
:1002F0002046FFF7CDFF2846FFF72CFFC82001342A
:1003000000F086FBF1E700BFDB10000000110000E9
:100310003C10000070B50A48FFF71CFF0024094E8E
:10032000094D3046FFF716FF2046FFF7B1FF28467C
:10033000FFF710FF4FF49670013400F069FBF0E70F
:1003400010110000371100003C10000070B50A4881
:10035000FFF700FF0024094E094D3046FFF7FAFE73
:100360002046FFF795FF2846FFF7F4FE4FF4FA709A
:10037000013400F04DFBF0E7491100006D11000061
:100380003C1000004FF0FF3200F10803C0E90223E7
:1003900043600361002303607047002303617047DB
:1003A00030B50C68631C0AD103695A684A609160D1
:1003B0008B605960036808610133036030BD00F150
:1003C0000802134652681568A542FAD9EDE7036999
:1003D000D0E901128A6051605968814208BF5A60B1
:1003E0000022026118680138186070472DE9F8434F
:1003F000224B234C1D68234B0646D3F80080224B2A
:100400000F46D3F8009020680430FFF7E0FF40B9B2
:1004100022681E49D06A01220B68824023EA020347
:100420000B60731C14D19FB1194B21685A688A6004
:1004300090682168C86021680431416021680431F6
:100440009160226853611A6801321A60BDE8F8832E
:1004500023682168AD195D6001F1040104D34846A9
:10046000BDE8F843FFF79CBF4046FFF799FF094BF3
:100470001A68AA4288BF1D60E8E700BF2C00002070
:100480001C010020780000207400002028000020BB
:100490003400002010000020064A13681968064B3B
:1004A00019B94FF0FF321A6070471268D2681268AB
:1004B000F9E700BF7800002010000020F8B50E4CCE
:1004C0000E4F0F4E236803B9F8BD00F02FFBFB68F9
:1004D000DD68281DFFF77BFF3368013B336023682D
:1004E000013B236000F032FB286B00F003FC284640
:1004F00000F000FCE6E700BF480000204C000020B0
:100500003000002008B5FFF7D9FFFCE72DE9F047E0
:100510004FEA820A074650460E469846DDF8249078
:1005200000F082FB054618B94FF0FF30BDE8F087B8
:10053000502000F079FB0446002800F08D80502206
:100540000021AAF1040A00F0FDFB2563554425F0C3
:1005500007056EB1731E04F133020B3613F8011F49
:1005600002F8011F09B1B342F8D1002384F83F30EB
:10057000089E04F1040A052E28BF05265046E662AF
:100580002664FFF70AFFC6F1060604F11800FFF71C
:1005900004FF4246394628462461A661646200F0A1
:1005A000A1FA2060B9F1000F01D0C9F8004000F0B5
:1005B000BDFA364B364E1A68364F01321A6035682E
:1005C000002D4DD134601B68012B1FD1B846404629
:1005D0000135FFF7D7FE062D08F11408F7D1DFF833
:1005E000B8802E4D4046FFF7CDFE2846FFF7CAFEE5
:1005F0002B48FFF7C7FE2B48FFF7C4FE2A48FFF73A
:10060000C1FE2A4BC3F80080294B1D60294A2A49A4
:1006100013680868013313600122E36A9A400243B9
:100620000A6014225343F9184A689068A260E06097
:10063000C0F804A0C2F808A0FA5861610132FA506B
:1006400000F084FA1D4B1B6823B13368DA6AE36A51
:100650009A4210D3012069E7284600F04BFB63E77C
:10066000164B1A68E36A002AD0D13268D26A9A42DD
:1006700098BF3460CAE74FF0E0234FF08052C3F8D0
:10068000042DBFF34F8FBFF36F8FE3E730000020DF
:100690001C010020A4000020900000207C0000200D
:1006A000600000204C000020340000207800002072
:1006B00074000020140000202800002024000020E6
:1006C000002310B5164A86B0CDE90333059303AB7A
:1006D00012F8014B03F8014B002CF9D1114B5A22AF
:1006E000CDE900431048234603A9FFF70FFF012877
:1006F00011D14FF0400383F31188BFF36F8FBFF325
:100700004F8F4FF0FF32094B1A60094B1860094BAD
:100710001C6000F069FA084B1B6806B010BD00BFF2
:100720007C1100000C0000200505000010000020D6
:10073000240000202C00002084110000024A1368CD
:1007400001331360704700BF080000202DE9F84F07
:10075000514B1B68002B40F09880504B1C680134B3
:100760001C605CB94E4A4F4B1168186810604E4AC5
:100770001960136801331360FFF78EFE4B4D0020A4
:100780002B684B4A9C42DFF82CC10FD21421DCF8B5
:100790000030DB6A4B43D358022B474B28BF012064
:1007A0001B68002B18BF0120BDE8F88F3C4F434E5B
:1007B0003B681B681BB94FF0FF332B60E6E73B68D3
:1007C000DB68DB6859688C4201D22960DEE7D3F828
:1007D0001480D3E90219C1F80890C9F80410D8F8B8
:1007E000041003F1040E71454FF0000108BFC8F872
:1007F00004905961D8F800100139C8F80010D3F8F6
:100800002880B8F1000F15D0D3E90719C1F8089076
:10081000C9F80410D8F8041003F1180A51454FF034
:10082000000108BFC8F804909962D8F80010013997
:10083000C8F800104FF00108D96AD6F8009008FAFD
:1008400001F848EA0908C6F800804FF0140808FBD0
:1008500001F802EB080ADAF80490D9F808B0C3F8F6
:100860000890C3F80CB0CBF804E0C9F808E0C3F86E
:1008700014A052F80830013342F80830DCF8003098
:10088000DB6A994288BF012092E70D4A0020136875
:100890000133136088E700BF080000202C0000200F
:1008A00078000020740000201800002010000020B4
:1008B000A40000201C0100201C00002028000020B3
:1008C000200000202DE9F84F00F030F9484B1A685D
:1008D000013A1A601B682BB1002400F037F920465A
:1008E000BDE8F88F434A1268002AF5D00125142686
:1008F0004148424C424A434FDFF80CC153E0C368C1
:10090000DB68D3F828E0D3E90718C1F80880C8F8F5
:100910000410DEF8041003F1180949454FF00001F6
:1009200008BFCEF804809962DEF800100139CEF8D5
:100930000010D3F814E0D3E90218C1F80880C8F811
:100940000410DEF8041003F104094945DEF8001034
:1009500008BFCEF804800139CEF80010D3F82CE09F
:10096000D4F8008005FA0EF141EA080106FB0EF802
:1009700002EB080A2160DAF80410D1F808B0996097
:10098000C3F80CB0CBF80490C1F8089052F80810E6
:10099000C3F814A0013142F808103968C96A8E45BD
:1009A00001D9CCF8005001680029A8D10BB1FFF79C
:1009B00073FD164D2C6844B10127134EFFF7C6FE98
:1009C00000B13760013CF9D12C600F4B1B68002B44
:1009D00082D00C4B4FF080521B684FF0E023C3F8DD
:1009E000042DBFF34F8FBFF36F8F012475E700BF56
:1009F00008000020300000206000002028000020B7
:100A0000A40000201C0100201C0000202000002069
:100A100008B550B94FF0E0234FF08052C3F8042DD1
:100A2000BFF34F8FBFF36F8F08BD0021FFF786FE26
:100A3000FFF7DCFCFFF746FF0028EBD0F4E70000EF
:100A4000134B30B51A68134B12B101221A6030BD36
:100A50001A60114B1B68B3FA83F31424DBB2C3F1A1
:100A60001F0304FB03F20D498818456808326D68BE
:100A70000A44954204FB031108BFC268456008BFE1
:100A800042604B68DA68064B1A601B68DFE700BFFC
:100A9000080000201C00002028000020A4000020E6
:100AA0001C010020002382B001934FF0400383F328
:100AB0001188BFF36F8FBFF34F8F019B002BFCD0CA
:100AC00002B0704706480068006880F3088862B684
:100AD00061B6BFF34F8FBFF36F8F00DF00BF000021
:100AE00008ED00E04FF0807340F8043C054B21F026
:100AF000010140F8081C40F80C3C40F8202C40381C
:100B0000704700BFA50A0000074B19680868B0E8E5
:100B1000F00F80F30988BFF36F8F4FF0000080F370
:100B200011884EF00D0E70471C0100204FF040035D
:100B300083F31188BFF36F8FBFF34F8F024A13689F
:100B400001331360704700BF00000020034A1368A0
:100B5000013B13600BB983F311887047000000203C
:100B6000EFF30980BFF36F8F0D4B1A6820E9F00F88
:100B700010602DE908404FF0400080F31188FFF726
:100B80005FFF4FF0000080F31188BDE8084019684E
:100B90000868B0E8F00F80F30988BFF36F8F7047E3
:100BA0001C01002008B54FF0400383F31188BFF308
:100BB0006F8FBFF34F8FFFF7C9FD28B14FF0E023D0
:100BC0004FF08052C3F8042D002383F3118808BD31
:100BD0004FF0E02300221A619A614CF24F325A61C1
:100BE00007221A61704700004FF0E02310B500247F
:100BF000D3F8202D42F47F02C3F8202DD3F8202D06
:100C000042F07F42C3F8202DC3F81C4DFFF7E0FFF0
:100C1000044B1C60FFF756FFFFF712FFFFF742FF80
:100C2000204610BD00000020F8B5431E0A334FD8FF
:100C300010F0070300F1080405D0A3F10902A24255
:100C400046D31030C41AFFF779FD2548016871B901
:100C50004CF2F875234B244A23F00703C2E9003114
:100C6000224AC3E900250123C2E900150360002CD4
:100C700033DD1F4E3068A0422FD31B4A13685968DA
:100C8000A14201D21D682DBB184DAB4225D01F6873
:100C9000156817600A1B102A05F108050CD91919E7
:100CA0004A605C604F68104A14461268D2F804C06B
:100CB000BC45F9D30A6021605A68801A42F00042AC
:100CC0005A60002230601A60FFF7FCFD2846F8BD2C
:100CD0000024B8E71A462B46D1E70025F4E700BF09
:100CE000200100203B0100202C01002024010020D5
:100CF0000400002010B50446F8B150F8043C002B65
:100D00001BDA50F8082CC2B923F0004340F8043C29
:100D1000FFF714FD54F8041C084B1A461B6858686A
:100D20008842FAD344F8083D1460054ABDE81040F3
:100D300013680B441360FFF7C5BD10BD2C010020E4
:100D40000400002070B5860747D0541E002A3ED00C
:100D50000346CAB201E0013C39D303F8012B9D07D9
:100D6000F9D1032C2CD9CDB205EB05250F2C1A4651
:100D700005EB054534D9A4F1100C2CF00F0603F156
:100D8000100EB6444FEA1C1CC2E90055C2E90255D8
:100D900010327245F8D10CF1010214F00C0F03EB84
:100DA000021204F00F0C13D0ACF1040323F0030380
:100DB0000433134442F8045B9342FBD10CF0030468
:100DC0002CB1C9B21C4403F8011BA342FBD170BD76
:100DD00064461346002CF4D1F9E703461446C0E7F5
:100DE000A446E1E7844641EA000313F0030349D136
:100DF000403A23D30B6803604B6843608B68836081
:100E0000CB68C3600B6903614B6943618B69836184
:100E1000CB69C3610B6A03624B6A43628B6A83626C
:100E2000CB6AC3620B6B03634B6B43638B6B836354
:100E3000CB6BC36340304031403ADBD230320BD30E
:100E40000B6803604B6843608B688360CB68C3604A
:100E500010301031103AF3D20C3205D351F8043B64
:100E600040F8043B043AF9D2043208D0D2071CBF40
:100E700011F8013B00F8013B01D30B880380604669
:100E8000704700BF082A13D38B07B1D010F00303BB
:100E9000AED0C3F10403D21ADB071CBF11F8013B2B
:100EA00000F8013BA4D331F8023B20F8023B9FE756
:100EB000043AD9D3013A11F8013B00F8013BF9D2C9
:100EC0000B7803704B7843708B7883706046704763
:100ED0003D3D3D3D3D3D3D3D3D3D3D3D3D3D3D3D42
:100EE0003D3D3D3D3D3D3D3D3D3D3D3D3D3D3D3D32
:100EF0003D3D3D3D0D0A0020204672656552544F30
:100F000053E4BBBBE58AA1E8B083E5BAA6E7A4BA7F
:100F1000E4BE8B0D0A00E5ADA6E4B9A0E8A681E722
:100F200082B9EFBC9A0D0A00312E20E5889BE5BB03
:100F3000BAE5A49AE4B8AAE4B88DE5908CE4BC982C
:100F4000E58588E7BAA7E79A84E4BBBBE58AA10DEB
:100F50000A00322E20E8A782E5AF9FE68AA2E58D3F
:100F6000A0E5BC8FE8B083E5BAA6E69588E69E9C2E
:100F70000D0A00332E20E79086E8A7A3E4BBBBE56B
:100F80008AA1E4BC98E58588E7BAA7E79A84E4BD1E
:100F90009CE794A80D0A00E4BBBBE58AA1E9858D16
:100FA000E7BDAEEFBC9A0D0A002D20486967685472
:100FB00061736B3A202020E4BC98E58588E7BAA7E6
:100FC00020332C20E591A8E69C9F203230306D73B1
:100FD0000D0A002D204D656469756D5461736B3A7F
:100FE00020E4BC98E58588E7BAA720322C20E5915B
:100FF000A8E69C9F203330306D730D0A002D204CE5
:101000006F775461736B3A20202020E4BC98E5850B
:1010100088E7BAA720312C20E591A8E69C9F2035CF
:1010200030306D730D0A00E6ADA3E59CA8E5889B02
:10103000E5BBBAE4BBBBE58AA12E2E2E0D0A004CFF
:101040006F775461736B004D656469756D5461739E
:101050006B00486967685461736B00E68980E69CA1
:1010600089E4BBBBE58AA1E5889BE5BBBAE688902D
:10107000E58A9FEFBC810D0A00E590AFE58AA8469E
:1010800072656552544F53E8B083E5BAA6E599A856
:101090002E2E2E0D0A00E99499E8AFAFEFBC9AE826
:1010A000B083E5BAA6E599A8E590AFE58AA8E5A4DE
:1010B000B1E8B4A5EFBC810D0A00E99499E8AFAF9F
:1010C000EFBC9AE4BBBBE58AA1E5889BE5BBBAE52A
:1010D000A4B1E8B4A5EFBC810D0A005B486967685C
:1010E0005D20E9AB98E4BC98E58588E7BAA7E4BB46
:1010F000BBE58AA1E590AFE58AA8EFBC810D0A00A7
:101100005B486967685D20E8BF90E8A18C202300F8
:101110005B4D656469756D5D20E4B8ADE4BC98E530
:101120008588E7BAA7E4BBBBE58AA1E590AFE58A6D
:10113000A8EFBC810D0A005B4D656469756D5D208B
:10114000E8BF90E8A18C2023005B4C6F775D20E422
:10115000BD8EE4BC98E58588E7BAA7E4BBBBE58A09
:10116000A1E590AFE58AA8EFBC810D0A005B4C6F4A
:10117000775D20E8BF90E8A18C20230049444C45CE
:101180000000000005000000F8B500BFF8B500BF82
:08119000AAAAAAAAF8C70000F0
:00000001FF
