:1000000000000120F5000000F1000000F1000000F8
:10001000F1000000F1000000F1000000000000000D
:10002000000000000000000000000000B50C00000F
:10003000F1000000000000000D0D0000510D000057
:10004000F1000000F1000000F1000000F1000000EC
:10005000F1000000F1000000F1000000F1000000DC
:10006000F1000000F1000000F1000000F1000000CC
:10007000F1000000F1000000F1000000F1000000BC
:10008000F1000000F1000000F1000000F1000000AC
:10009000F1000000F1000000F1000000F10000009C
:1000A000F1000000F1000000F1000000F10000008C
:1000B000F1000000F1000000F1000000F10000007C
:1000C000F1000000F1000000F1000000F10000006C
:1000D000F1000000F1000000F1000000F10000005C
:1000E000F100000000000000F1000000F10000003D
:1000F000FEE7000008B50E4B0E48DA1C121AC11EAE
:1001000022F00302994288BF00220B4900F0EAFE68
:100110000A4B0B48DA1C121AC11E22F00302994244
:1001200088BF0022002100F08DFE00F01DF8FEE7E0
:1001300004000020000000206815000030C90020E5
:1001400004000020024B9A699206FCD418607047A4
:1001500000C0004008B5411E11F8010F00B908BDEC
:10016000FFF7F0FFF8E7000007B53748FFF7F2FFA9
:100170003648FFF7EFFF3648FFF7ECFF3348FFF74D
:10018000E9FF3148FFF7E6FF3248FFF7E3FF324867
:10019000FFF7E0FF3148FFF7DDFF3148FFF7DAFFF7
:1001A0003048FFF7D7FF2848FFF7D4FF2748FFF76D
:1001B000D1FF2D48FFF7CEFF2448FFF7CBFF2B4898
:1001C000FFF7C8FF2A48FFF7C5FF2A48FFF7C2FF1D
:1001D0001D48FFF7BFFF2848FFF7BCFF2748FFF780
:1001E000B9FF2748FFF7B6FF1848FFF7B3FF1648D7
:1001F000FFF7B0FF2348FFF7ADFF002402234FF4C1
:100200008072CDE9003420492346204800F054FA9A
:1002100001234FF480721E4900931E482346019427
:1002200000F04AFA1C48FFF795FF0748FFF792FFD6
:100230001A48FFF78FFF0448FFF78CFF00F016FB0A
:100240001748FFF787FFFEE791120000D00F00006C
:10025000F70F000021100000331000005B100000B9
:100260007C100000A5100000C4100000DC1000008D
:10027000FE10000017110000301100004C110000AA
:100280006E1100008D110000A51100005D0300003B
:10029000AE110000F5040000B6110000D4110000FA
:1002A000F1110000F0B585B028B9302005B0BDE8E7
:1002B000F040FFF747BF6A46002316460A24B0FB0A
:1002C000F4F5074604FB1501092F01F1300102F88E
:1002D000011B2846194603F1010302D90F2BEED169
:1002E0000E21705CFFF72EFF0139FAD205B0F0BD88
:1002F00038B500F09FFD04461248134DFFF72AFF62
:100300001248FFF727FF4FF44840FFF7CBFF28467E
:10031000FFF720FF0E48FFF71DFF2046FFF7C2FF43
:100320002846FFF717FF0B48FFF714FFC4F54840B6
:10033000FFF7B8FF2846FFF70DFFBDE83840064835
:10034000FFF708BF151200004B1200003C1200001E
:100350005512000064120000701200002DE9F041F7
:100360004E48FFF7F7FE4E48FFF7F4FEFFF7C0FFD9
:100370004FF47A7000F022FC00254A4E4A4FDFF815
:100380002C812C463046FFF7E5FEA01CFFF78AFFC4
:1003900001353846FFF7DEFE6B1E032B7BD8DFE806
:1003A00003F0022F4A674248FFF7D4FE642000F0B2
:1003B00011FD404B0446186000B33F48FFF7CAFEEA
:1003C0002046FFF76FFF3D48FFF7C4FE6422AA21D5
:1003D000204600F037FD3A48FFF7BCFEFFF788FFE4
:1003E0004FF4FA6000F0EAFB052DCAD13548FFF75B
:1003F000B1FE42F2107000F0E1FBFAE73248EBE7A1
:100400003248FFF7A7FEC82000F0E4FC304B04465A
:1004100018600028F2D02848FFF79CFE2046FFF71E
:1004200041FF2648FFF796FEC822BB21204600F078
:1004300009FD2848D0E72848FFF78CFE4FF4FA70F2
:1004400000F0C8FC254B044618600028D6D01A4896
:10045000FFF780FE2046FFF725FF1848FFF77AFEDA
:100460004FF4FA72CC21204600F0ECFC1C48B3E7B4
:100470004046FFF76FFE0F4C1A48FFF76BFE1A4815
:10048000FFF768FE20680028A8D000F0D1FC002308
:1004900016482360A0E716489EE700BF94120000AC
:1004A000B9120000F6120000E81200000514000066
:1004B000111300000C0000202F1300009112000007
:1004C00052130000DD140000701300008D130000B3
:1004D00008000020AB130000C91300000400002036
:1004E000E713000024140000561400007E140000DE
:1004F000B514000070B50B48FFF72CFE00240A4E1F
:100500000A4D30460134FFF725FE2046FFF7CAFEAC
:100510002846FFF71FFEFFF7EBFE40F6B83000F06D
:100520004DFBEEE70E15000030150000E81200004C
:100530004FF0FF3200F10803C0E90223436003617A
:1005400000230360704700230361704730B50C68D7
:10055000631C0AD103695A684A6091608B605960D4
:10056000036808610133036030BD00F108021346DF
:1005700052681568A542FAD9EDE70369D0E901127E
:100580008A6051605968814208BF5A600022026146
:1005900018680138186070472DE9F843224B234C46
:1005A0001D68234B0646D3F80080224B0F46D3F834
:1005B000009020680430FFF7E0FF40B922681E4930
:1005C000D06A01220B68824023EA02030B60731C8D
:1005D00014D19FB1194B21685A688A6090682168CC
:1005E000C86021680431416021680431916022684B
:1005F00053611A6801321A60BDE8F88323682168E4
:10060000AD195D6001F1040104D34846BDE8F8432B
:10061000FFF79CBF4046FFF799FF094B1A68AA42B3
:1006200088BF1D60E8E700BF3400002024010020DF
:10063000800000207C000020300000203C000020D2
:1006400018000020064A13681968064B19B94FF0C4
:10065000FF321A6070471268D2681268F9E700BF6B
:100660008000002018000020F8B50E4C0E4F0F4EF1
:10067000236803B9F8BD00F02FFBFB68DD68281D77
:10068000FFF77BFF3368013B33602368013B236046
:1006900000F032FB286B00F0CBFB284600F0C8FBD3
:1006A000E6E700BF50000020540000203800002082
:1006B00008B5FFF7D9FFFCE72DE9F0474FEA820ABA
:1006C000074650460E469846DDF8249000F082FB1F
:1006D000054618B94FF0FF30BDE8F087502000F014
:1006E00079FB0446002800F08D8050220021AAF1F9
:1006F000040A00F0A7FB2563554425F007056EB1F9
:10070000731E04F133020B3613F8011F02F8011FA8
:1007100009B1B342F8D1002384F83F30089E04F1B8
:10072000040A052E28BF05265046E6622664FFF718
:100730000AFFC6F1060604F11800FFF704FF42465F
:10074000394628462461A661646200F0A1FA20605F
:10075000B9F1000F01D0C9F8004000F0BDFA364BE6
:10076000364E1A68364F01321A603568002D4DD169
:1007700034601B68012B1FD1B84640460135FFF796
:10078000D7FE062D08F11408F7D1DFF8B8802E4DFA
:100790004046FFF7CDFE2846FFF7CAFE2B48FFF77D
:1007A000C7FE2B48FFF7C4FE2A48FFF7C1FE2A4BBD
:1007B000C3F80080294B1D60294A2A49136808683C
:1007C000013313600122E36A9A4002430A60142253
:1007D0005343F9184A689068A260E060C0F804A02A
:1007E000C2F808A0FA5861610132FA5000F084FAA8
:1007F0001D4B1B6823B13368DA6AE36A9A4210D34F
:10080000012069E7284600F013FB63E7164B1A68DE
:10081000E36A002AD0D13268D26A9A4298BF346023
:10082000CAE74FF0E0234FF08052C3F8042DBFF326
:100830004F8FBFF36F8FE3E73800002024010020C3
:10084000AC000020980000208400002068000020F8
:10085000540000203C000020800000207C0000208C
:100860001C000020300000202C000020002310B5C8
:10087000164A86B0CDE90333059303AB12F8014B5A
:1008800003F8014B002CF9D1114B5A22CDE900435A
:100890001048234603A9FFF70FFF012811D14FF09D
:1008A000400383F31188BFF36F8FBFF34F8F4FF077
:1008B000FF32094B1A60094B1860094B1C6000F0AD
:1008C00069FA084B1B6806B010BD00BF5615000042
:1008D00014000020B1060000180000202C000020A9
:1008E000340000205C150000024A136801331360D5
:1008F000704700BF100000202DE9F84F514B1B68D6
:10090000002B40F09880504B1C6801341C605CB98F
:100910004E4A4F4B1168186810604E4A19601368B0
:1009200001331360FFF78EFE4B4D00202B684B4ABE
:100930009C42DFF82CC10FD21421DCF80030DB6AB6
:100940004B43D358022B474B28BF01201B68002B79
:1009500018BF0120BDE8F88F3C4F434E3B681B6831
:100960001BB94FF0FF332B60E6E73B68DB68DB68C1
:1009700059688C4201D22960DEE7D3F81480D3E9AC
:100980000219C1F80890C9F80410D8F8041003F14E
:10099000040E71454FF0000108BFC8F8049059617A
:1009A000D8F800100139C8F80010D3F82880B8F141
:1009B000000F15D0D3E90719C1F80890C9F8041041
:1009C000D8F8041003F1180A51454FF0000108BF90
:1009D000C8F804909962D8F800100139C8F80010DE
:1009E0004FF00108D96AD6F8009008FA01F848EAF1
:1009F0000908C6F800804FF0140808FB01F802EB64
:100A0000080ADAF80490D9F808B0C3F80890C3F8D7
:100A10000CB0CBF804E0C9F808E0C3F814A052F811
:100A20000830013342F80830DCF80030DB6A9942C4
:100A300088BF012092E70D4A00201368013313603C
:100A400088E700BF10000020340000208000002054
:100A50007C0000202000002018000020AC000020B6
:100A60002401002024000020300000202800002065
:100A70002DE9F84F00F030F9484B1A68013A1A6036
:100A80001B682BB1002400F037F92046BDE8F88F31
:100A9000434A1268002AF5D0012514264148424CE9
:100AA000424A434FDFF80CC153E0C368DB68D3F818
:100AB00028E0D3E90718C1F80880C8F80410DEF868
:100AC000041003F1180949454FF0000108BFCEF8A2
:100AD00004809962DEF800100139CEF80010D3F8D6
:100AE00014E0D3E90218C1F80880C8F80410DEF851
:100AF000041003F104094945DEF8001008BFCEF8E0
:100B000004800139CEF80010D3F82CE0D4F800802E
:100B100005FA0EF141EA080106FB0EF802EB080A9D
:100B20002160DAF80410D1F808B09960C3F80CB06D
:100B3000CBF80490C1F8089052F80810C3F814A03C
:100B4000013142F808103968C96A8E4501D9CCF8DC
:100B5000005001680029A8D10BB1FFF773FD164DB5
:100B60002C6844B10127134EFFF7C6FE00B1376071
:100B7000013CF9D12C600F4B1B68002B82D00C4B31
:100B80004FF080521B684FF0E023C3F8042DBFF3F1
:100B90004F8FBFF36F8F012475E700BF1000002057
:100BA000380000206800002030000020AC00002049
:100BB00024010020240000202800002008B550B99E
:100BC0004FF0E0234FF08052C3F8042DBFF34F8F56
:100BD000BFF36F8F08BD0021FFF786FEFFF7DCFC37
:100BE000FFF746FF0028EBD0F4E70000134B30B5C9
:100BF0001A68134B12B101221A6030BD1A60114BF2
:100C00001B68B3FA83F31424DBB2C3F11F0304FBA4
:100C100003F20D498818456808326D680A44954208
:100C200004FB031108BFC268456008BF42604B68FF
:100C3000DA68064B1A601B68DFE700BF100000206F
:100C40002400002030000020AC00002024010020FF
:100C5000002382B001934FF0400383F31188BFF368
:100C60006F8FBFF34F8F019B002BFCD002B07047FA
:100C700006480068006880F3088862B661B6BFF372
:100C80004F8FBFF36F8F00DF00BF000008ED00E063
:100C90004FF0807340F8043C054B21F0010140F80F
:100CA000081C40F80C3C40F8202C4038704700BF2E
:100CB000510C0000074B19680868B0E8F00F80F38A
:100CC0000988BFF36F8F4FF0000080F311884EF05A
:100CD0000D0E7047240100204FF0400383F311886C
:100CE000BFF36F8FBFF34F8F024A13680133136056
:100CF000704700BF00000020034A1368013B1360E7
:100D00000BB983F31188704700000020EFF30980CE
:100D1000BFF36F8F0D4B1A6820E9F00F10602DE9BB
:100D200008404FF0400080F31188FFF75FFF4FF05D
:100D3000000080F31188BDE8084019680868B0E831
:100D4000F00F80F30988BFF36F8F704724010020F4
:100D500008B54FF0400383F31188BFF36F8FBFF3E3
:100D60004F8FFFF7C9FD28B14FF0E0234FF08052BD
:100D7000C3F8042D002383F3118808BD4FF0E0234E
:100D800000221A619A614CF24F325A6107221A61AD
:100D9000704700004FF0E02310B50024D3F8202D59
:100DA00042F47F02C3F8202DD3F8202D42F07F4279
:100DB000C3F8202DC3F81C4DFFF7E0FF044B1C6067
:100DC000FFF756FFFFF712FFFFF742FF204610BD67
:100DD0000000002010F0070310B5044606D0A3F170
:100DE0000902824232BF00240834E41AFFF77CFD76
:100DF0000C4A13681BB90C4B23F00703136064B152
:100E00000A490B68E01803D24CF2F774A04201D9EA
:100E1000002402E0146808601C44FFF729FE204605
:100E200010BD00BF28010020370100202C01002048
:100E300070470000024B1868C0F54740F830704713
:100E40002C01002070B5860747D0541E002A3ED0E2
:100E50000346CAB201E0013C39D303F8012B9D07D8
:100E6000F9D1032C2CD9CDB205EB05250F2C1A4650
:100E700005EB054534D9A4F1100C2CF00F0603F155
:100E8000100EB6444FEA1C1CC2E90055C2E90255D7
:100E900010327245F8D10CF1010214F00C0F03EB83
:100EA000021204F00F0C13D0ACF1040323F003037F
:100EB0000433134442F8045B9342FBD10CF0030467
:100EC0002CB1C9B21C4403F8011BA342FBD170BD75
:100ED00064461346002CF4D1F9E703461446C0E7F4
:100EE000A446E1E7844641EA000313F0030349D135
:100EF000403A23D30B6803604B6843608B68836080
:100F0000CB68C3600B6903614B6943618B69836183
:100F1000CB69C3610B6A03624B6A43628B6A83626B
:100F2000CB6AC3620B6B03634B6B43638B6B836353
:100F3000CB6BC36340304031403ADBD230320BD30D
:100F40000B6803604B6843608B688360CB68C36049
:100F500010301031103AF3D20C3205D351F8043B63
:100F600040F8043B043AF9D2043208D0D2071CBF3F
:100F700011F8013B00F8013B01D30B880380604668
:100F8000704700BF082A13D38B07B1D010F00303BA
:100F9000AED0C3F10403D21ADB071CBF11F8013B2A
:100FA00000F8013BA4D331F8023B20F8023B9FE755
:100FB000043AD9D3013A11F8013B00F8013BF9D2C8
:100FC0000B7803704B7843708B7883706046704762
:100FD0003D3D3D3D3D3D3D3D3D3D3D3D3D3D3D3D41
:100FE0003D3D3D3D3D3D3D3D3D3D3D3D3D3D3D3D31
:100FF0003D3D3D3D0D0A0020204672656552544F2F
:101000005320686561705F3120E58685E5AD98E520
:101010008886E9858DE599A8E7A4BAE4BE8B0D0A18
:1010200000E5ADA6E4B9A0E8A681E782B9EFBC9AD5
:101030000D0A00312E20686561705F3120E58685DC
:10104000E5AD98E58886E9858DE599A8E5B7A5E43D
:10105000BD9CE58E9FE790860D0A00322E207076AB
:10106000506F72744D616C6C6F63282920E588861F
:10107000E9858DE58685E5AD980D0A00332E20784B
:10108000506F727447657446726565486561705348
:10109000697A65282920E88EB7E58F96E7BB9FE837
:1010A000AEA10D0A00342E20686561705F3120E723
:1010B0009A84E789B9E782B9E5928CE99990E58845
:1010C000B60D0A002020686561705F3120E79A84C0
:1010D000E789B9E782B9EFBC9A0D0A00E29C932038
:1010E000E5AE9EE78EB0E7AE80E58D95EFBC8CE473
:1010F000BBA3E7A081E9878FE5B08F0D0A00E29CD2
:101100009320E6B2A1E69C89E58685E5AD98E7A245
:101110008EE789870D0A00E29C9320E689A7E8A163
:101120008CE697B6E997B4E7A1AEE5AE9A0D0A0052
:10113000E29C9720E4B88DE694AFE68C81E5868545
:10114000E5AD98E9878AE694BE0D0A00E29C9720F7
:10115000E58685E5AD98E4BDBFE794A8E5908EE609
:1011600097A0E6B395E59B9EE694B60D0A00E29C37
:101170009720E98082E59088E99D99E68081E5885D
:1011800086E9858DE59CBAE699AF0D0A00E6ADA328
:10119000E59CA8E5889BE5BBBAE4BBBBE58AA12E2C
:1011A0002E2E0D0A0044656D6F5461736B004D6FF8
:1011B0006E69746F7200E68980E69C89E4BBBBE5CA
:1011C0008AA1E5889BE5BBBAE68890E58A9FEFBCDB
:1011D000810D0A00E590AFE58AA846726565525414
:1011E0004F53E8B083E5BAA6E599A82E2E2E0D0A36
:1011F00000E99499E8AFAFEFBC9AE8B083E5BAA6EE
:10120000E599A8E590AFE58AA8E5A4B1E8B4A5EF13
:10121000BC810D0A000D0A2D2D2D2D2D2D2D2D2DCE
:101220002D20E58685E5AD98E78AB6E68081202DFC
:101230002D2D2D2D2D2D2D2D2D0D0A00E680BBE5FC
:10124000A086E5A4A7E5B08F3A200020E5AD97E899
:101250008A820D0A00E589A9E4BD99E5A4A7E5B055
:101260008F3A2000E5B7B2E58886E9858D3A2000FF
:101270002D2D2D2D2D2D2D2D2D2D2D2D2D2D2D2D9E
:101280002D2D2D2D2D2D2D2D2D2D2D2D2D2D2D0DAE
:101290000A0D0A005B44656D6F5D20E58685E5AD4E
:1012A00098E6BC94E7A4BAE4BBBBE58AA1E590AF9D
:1012B000E58AA8EFBC810D0A000D0A5B44656D6FDD
:1012C0005D203D3D3D3D3D3D3D3D3D3D20E6ADA5E7
:1012D000E9AAA4313A20E5889DE5A78BE58685E556
:1012E000AD98E78AB6E68081203D3D3D3D3D3D3DE0
:1012F0003D3D3D0D0A000D0A5B44656D6F5D203D6F
:101300003D3D3D3D3D3D3D3D3D20E6ADA5E9AAA429
:10131000005B44656D6F5D20E58886E9858D203131
:10132000303020E5AD97E88A822E2E2E0D0A005B24
:1013300044656D6F5D20E29C9320E58886E9858D8C
:10134000E68890E58A9FEFBC81E59CB0E59D803AF8
:1013500020005B44656D6F5D20E5B7B2E5A1ABE5AC
:101360008585E695B0E68DAE20307841410D0A00C6
:101370005B44656D6F5D20E29C9720E58886E9857A
:101380008DE5A4B1E8B4A5EFBC810D0A005B44650E
:101390006D6F5D20E58886E9858D2032303020E54F
:1013A000AD97E88A822E2E2E0D0A005B44656D6F84
:1013B0005D20E5B7B2E5A1ABE58585E695B0E68DA4
:1013C000AE20307842420D0A005B44656D6F5D20AF
:1013D000E58886E9858D2035303020E5AD97E88AAF
:1013E000822E2E2E0D0A005B44656D6F5D20E5B7E1
:1013F000B2E5A1ABE58585E695B0E68DAE20307807
:1014000043430D0A005B44656D6F5D20E5B09DE8C8
:10141000AF95E9878AE694BEE58685E5AD982E2EE0
:101420002E0D0A005B44656D6F5D20E6B3A8E6846F
:101430008FEFBC9A686561705F3120E4B88DE694E7
:10144000AFE68C81E58685E5AD98E9878AE694BEAE
:10145000EFBC810D0A005B44656D6F5D2076506FB7
:10146000727446726565282920E8B083E794A8E481
:10147000BC9AE8A2ABE5BFBDE795A50D0A005B44A9
:10148000656D6F5D20E5B7B2E8B083E794A820767C
:10149000506F72744672656528292028E4BD86E580
:1014A000AE9EE99985E6B2A1E69C89E9878AE69431
:1014B000BE290D0A005B44656D6F5D20E6BC94E7B4
:1014C000A4BAE5AE8CE68890EFBC81E8BF9BE585C9
:1014D000A5E5BEAAE78EAF2E2E2E0D0A005B446551
:1014E0006D6F5D20E6BC94E7A4BAE4BBBBE58AA1BE
:1014F000E7BB93E69D9FEFBC8CE8BF9BE585A5E726
:10150000A9BAE997B2E5BEAAE78EAF0D0A005B4D16
:101510006F6E69746F725D20E79B91E68EA7E4BBE6
:10152000BBE58AA1E590AFE58AA8EFBC810D0A0072
:101530000D0A5B4D6F6E69746F725D203D3D3D3DE0
:101540003D3D3D3D3D3D20E79B91E68EA7E591A8C1
:10155000E69C9F20230049444C4500000500000004
:08156000F8B500BFF8B500BFAB
:04156800AAAAAAAAD7
:00000001FF
