:1000000000000120F5000000F1000000F1000000F8
:10001000F1000000F1000000F1000000000000000D
:100020000000000000000000000000006D13000050
:10003000F100000000000000C513000009140000DA
:10004000F1000000F1000000F1000000F1000000EC
:10005000F1000000F1000000F1000000F1000000DC
:10006000F1000000F1000000F1000000F1000000CC
:10007000F1000000F1000000F1000000F1000000BC
:10008000F1000000F1000000F1000000F1000000AC
:10009000F1000000F1000000F1000000F10000009C
:1000A000F1000000F1000000F1000000F10000008C
:1000B000F1000000F1000000F1000000F10000007C
:1000C000F1000000F1000000F1000000F10000006C
:1000D000F1000000F1000000F1000000F10000005C
:1000E000F100000000000000F1000000F10000003D
:1000F000FEE7000008B50E4B0E48DA1C121AC11EAE
:1001000022F00302994288BF00220B4901F0D4FA81
:100110000A4B0B48DA1C121AC11E22F00302994244
:1001200088BF0022002101F077FA00F01DF8FEE7F9
:100130000400002000000020EC21000040C9002045
:1001400004000020024B9A699206FCD418607047A4
:1001500000C0004008B5411E11F8010F00B908BDEC
:10016000FFF7F0FFF8E7000007B56148FFF7F2FF7F
:100170006048FFF7EFFF6048FFF7ECFF5D48FFF7CF
:10018000E9FF5B48FFF7E6FF5C48FFF7E3FF5C48E9
:10019000FFF7E0FF5B48FFF7DDFF5B48FFF7DAFFA3
:1001A0005A48FFF7D7FF5A48FFF7D4FF5948FFF7DF
:1001B000D1FF5948FFF7CEFF4D48FFF7CBFF4D4821
:1001C000FFF7C8FF5548FFF7C5FF4A48FFF7C2FFD2
:1001D0005348FFF7BFFF5348FFF7BCFF5248FFF7F4
:1001E000B9FF5248FFF7B6FF5148FFF7B3FF514838
:1001F000FFF7B0FF3F48FFF7ADFF3D48FFF7AAFF0D
:100200004D48FFF7A7FF00F099FF4C4C206000F02D
:1002100095FF4B4B18602368002B65D0002863D0F6
:10022000002403254748FFF795FF4748FFF792FF53
:1002300023464FF48072CDE900544449444800F00D
:1002400019FC23464FF48072CDE9005441494248DD
:1002500000F010FCCDE90054022523464FF48072D3
:100260003E493F4800F006FC23464FF4C0723D492A
:100270003D480194009500F0FDFB01234FF480728E
:100280003A4900933A482346019400F0F3FB234691
:100290004FF480723749CDE90054374800F0EAFB4B
:1002A00023464FF480723549CDE90054344800F0BC
:1002B000E1FB23464FF480723249CDE900543248C5
:1002C00000F0D8FB3148FFF745FF0948FFF742FF30
:1002D0002F48FFF73FFF0648FFF73CFF00F0AAFC5E
:1002E0002C48FFF737FFFEE72B48FFF733FFFEE709
:1002F0005D1C0000A4170000CB170000EE170000E3
:100300000018000027180000511800006F180000A6
:10031000A2180000CF180000041900001C190000EA
:100320004319000078190000A3190000D919000032
:10033000101A0000441A00007A1A00000800002079
:1003400004000020951A0000B41A0000CE1A000024
:10035000E1040000D91A00004D050000E51A000074
:10036000B9050000F11A000025060000FB1A000084
:10037000D5060000031B00006D0700000D1B0000E8
:10038000DD070000171B000055080000211B0000BE
:100390003F1B00005C1B0000801B0000F0B585B017
:1003A00028B9302005B0BDE8F040FFF7CBBE6A4663
:1003B000002316460A24B0FBF4F5074604FB15019A
:1003C000092F01F1300102F8011B2846194603F1FB
:1003D000010302D90F2BEED10E21705CFFF7B2FEA4
:1003E0000139FAD205B0F0BD70B50D4600285DD0D8
:1003F000002100F009FF04462D48FFF7ABFE284618
:10040000FFF7A8FE2B48FFF7A5FE2B48FFF7A2FE3B
:100410002046FFF7C3FF2948294E2A4DFFF79AFED1
:100420002948FFF797FE14F0010F0CBF304628460D
:10043000FFF790FE2148FFF78DFE2448FFF78AFE64
:1004400014F0020F0CBF30462846FFF783FE1B480E
:10045000FFF780FE1E48FFF77DFE14F0040F0CBF6F
:1004600030462846FFF776FE1448FFF773FE19481A
:10047000FFF770FE14F0080F0CBF30462846FFF758
:1004800069FE0E48FFF766FE1348FFF763FE14F09F
:10049000100F0CBF30462846FFF75CFE0748FFF7F9
:1004A00059FEBDE870400D48FFF754BE70BD00BF57
:1004B000A71B0000B51B0000CA1B00005D1C00004C
:1004C000A31B00009F1B0000DE1B0000EF1B0000B1
:1004D000001C0000111C0000221C0000331C000046
:1004E000F8B51448FFF736FE0025134F134E144C91
:1004F00038460135FFF72EFE2846FFF74FFF3046FE
:10050000FFF728FE4FF4FA7000F03CFD012120684F
:1005100000F087FE0B48FFF71DFE0B492068FFF730
:1005200063FF4FF4FA6000F02DFD0121206800F018
:100530006BFEDDE7601C00008E1C00006F1F0000DA
:1005400008000020B01C0000D91C0000F8B51448B9
:10055000FFF700FE0025134F134E144C38460135AB
:10056000FFF7F8FD2846FFF719FF3046FFF7F2FDC9
:100570004FF47A7000F006FD0221206800F051FE71
:100580000B48FFF7E7FD0B492068FFF72DFF4FF4FD
:10059000FA6000F0F7FC0221206800F035FEDDE78C
:1005A000EC1C00001B1D00006F1F00000800002055
:1005B0003E1D0000D91C0000F8B51448FFF7CAFD25
:1005C0000025134F134E38460135FFF7C3FD28466B
:1005D000FFF7E4FE104C3046FFF7BCFD4FF4FA6025
:1005E00000F0D0FC0421206800F01BFE0B48FFF750
:1005F000B1FD0B492068FFF7F7FE4FF4FA6000F0F9
:10060000C1FC0421206800F0FFFDDCE7681D00004C
:10061000971D00006F1F000008000020BA1D000099
:10062000D91C0000F7B52248FFF794FD2148FFF7D9
:1006300091FD0025204F214C214E3846FFF78AFDC1
:1006400041F288330093012307211A46206800F005
:1006500082FD00F00700072821D11A480135FFF775
:1006600079FD2846FFF79AFE1748FFF773FD4FF410
:10067000FA7000F087FC0821206800F0D2FD1348D2
:10068000FFF768FD12492068FFF7AEFE4FF47A705D
:1006900000F078FC0821206800F0B6FDCDE7304678
:1006A000FFF758FD0A492068FFF79EFEC5E700BF27
:1006B000E41D00000E1E0000411E00000800002086
:1006C000EE1E0000891E00005D1C0000C61E00001A
:1006D000D91C00002DE9F7431B48FFF73BFD1B48E1
:1006E000FFF738FD00251A4E1A4FDFF86C804FF4E3
:1006F0007A7900230F211A463068CDF8009000F077
:100700002AFD04460028F4D038460135FFF722FDC3
:100710002846FFF743FE4046FFF71CFDE00702D5E1
:100720000E48FFF717FDA10702D50D48FFF712FD90
:10073000620702D50B48FFF70DFD2307D7D50A48FE
:10074000FFF708FDD3E700BF1D1F00003F1F00009B
:1007500008000020751F00007B1E00009B1F00008A
:10076000C11F0000E71F00000D200000F8B515486C
:10077000FFF7F0FC0024144E144F154D30460134A1
:10078000FFF7E8FC2046FFF709FE3846FFF7E2FCDA
:100790004FF0FF3307220121286800F070FD00F0C0
:1007A0000700072808D10B48FFF7D4FC2046FFF7C5
:1007B000F5FD0948FFF7CEFC4FF4FA6000F0E2FBCC
:1007C000DCE700BF30200000552000007020000052
:1007D000040000208B2000005D1C0000F8B51748C5
:1007E000FFF7B8FC0024164E164F174D3046013463
:1007F000FFF7B0FC2046FFF7D1FD3846FFF7AAFC13
:100800004FF4FA7000F0BEFB4FF0FF3307220221D5
:10081000286800F034FD00F00700072808D10B48D5
:10082000FFF798FC2046FFF7B9FD0948FFF792FC57
:100830004FF4FA6000F0A6FBD8E700BFC820000024
:10084000ED200000702000000400002008210000BE
:100850005D1C0000F8B51748FFF77CFC0024164E1D
:10086000164F174D30460134FFF774FC2046FFF752
:1008700095FD3846FFF76EFC4FF47A7000F082FB6E
:100880004FF0FF3307220421286800F0F8FC00F045
:100890000700072808D10B48FFF75CFC2046FFF74C
:1008A0007DFD0948FFF756FC4FF4FA6000F06AFB43
:1008B000D8E700BF452100006A2100007020000039
:1008C00004000020852100005D1C00000C4608B5D6
:1008D0000448FFF73FFC2046FFF73CFC0248FFF7C7
:1008E00039FCFEE7C22100005D1C00004FF0FF3222
:1008F00000F10803C0E902234360036100230360A1
:10090000704700230361704730B50C68631C0AD13F
:1009100003695A684A6091608B6059600368086196
:100920000133036030BD00F10802134652681568B8
:10093000A542FAD9EDE70369D0E901128A60516056
:100940005968814208BF5A60002202611868013864
:10095000186070472DE9F843224B234C1D68234B48
:100960000646D3F80080224B0F46D3F8009020684B
:100970000430FFF7E0FF40B922681E49D06A012227
:100980000B68824023EA02030B60731C14D19FB1F1
:10099000194B21685A688A6090682168C86021688C
:1009A00004314160216804319160226853611A6802
:1009B00001321A60BDE8F88323682168AD195D60D3
:1009C00001F1040104D34846BDE8F843FFF79CBF9A
:1009D0004046FFF799FF094B1A68AA4288BF1D607D
:1009E000E8E700BF30000020200100207C0000204C
:1009F000780000202C000020380000201400002087
:100A0000064A13681968064B19B94FF0FF321A608D
:100A100070471268D2681268F9E700BF7C000020B6
:100A200014000020F8B50E4C0E4F0F4E236803B98A
:100A3000F8BD00F0ADFCFB68DD68281DFFF77BFF0B
:100A40003368013B33602368013B236000F0B0FC56
:100A5000286B00F097FD284600F094FDE6E700BF04
:100A60004C000020500000203400002008B5FFF7A3
:100A7000D9FFFCE72DE9F0479600074630460D46C2
:100A80009846DDF8249000F001FD824618B94FF039
:100A9000FF30BDE8F087502000F0F8FC0446002845
:100AA00000F093805022002100F0B6FD3246A521CF
:100AB0005046C4F830A000F0AFFD236B043E1E4446
:100AC00026F007066DB16B1E04F133020B3513F8E7
:100AD000011F02F8011F09B1AB42F8D1002384F8CD
:100AE0003F30089D04F1040A052D28BF0525504616
:100AF000E5622564FFF705FFC5F1060504F118005E
:100B0000FFF7FFFE4246394630462461A561646224
:100B100000F01AFC2060B9F1000F01D0C9F80040C4
:100B200000F036FC364B374E1A68374F01321A60E8
:100B30003568002D4DD134601B68012B1FD1B8469C
:100B400040460135FFF7D2FE062D08F11408F7D113
:100B5000DFF8B8802E4D4046FFF7C8FE2846FFF765
:100B6000C5FE2C48FFF7C2FE2B48FFF7BFFE2B48FF
:100B7000FFF7BCFE2A4BC3F800802A4B1D602A4AAF
:100B80002A4913680868013313600122E36A9A4016
:100B900002430A6014225343F9184A689068A2601D
:100BA000E060C0F804A0C2F808A0FA586161013200
:100BB000FA5000F0FDFB1E4B1B6823B13368DA6A64
:100BC000E36A9A4210D3012063E7504600F0DAFC52
:100BD0005DE7174B1A68E36A002AD0D13268D26AFF
:100BE0009A4298BF3460CAE74FF0E0234FF080523A
:100BF000C3F8042DBFF34F8FBFF36F8FE3E700BF40
:100C00003400002020010020A800002094000020D3
:100C100080000020640000205000002038000020E8
:100C20007C00002078000020180000202C0000200C
:100C300028000020002310B5164A86B0CDE9033302
:100C4000059303AB12F8014B03F8014B002CF9D1CB
:100C5000114B5A22CDE900431048234603A9FFF760
:100C600009FF012811D14FF0400383F31188BFF32E
:100C70006F8FBFF34F8F4FF0FF32094B1A60094B54
:100C80001860094B1C6000F0E1FB084B1B6806B0C4
:100C900010BD00BFDB210000100000206D0A000025
:100CA000140000202800002030000020E021000077
:100CB000024A136801331360704700BF0C00002024
:100CC0002DE9F84F514B1B68002B40F09880504B9A
:100CD0001C6801341C605CB94E4A4F4B116818689F
:100CE00010604E4A1960136801331360FFF788FEE5
:100CF0004B4D00202B684B4A9C42DFF82CC10FD291
:100D00001421DCF80030DB6A4B43D358022B474BED
:100D100028BF01201B68002B18BF0120BDE8F88FF9
:100D20003C4F434E3B681B681BB94FF0FF332B60B1
:100D3000E6E73B68DB68DB6859688C4201D22960D2
:100D4000DEE7D3F81480D3E90219C1F80890C9F896
:100D50000410D8F8041003F1040E71454FF000019F
:100D600008BFC8F804905961D8F800100139C8F8D4
:100D70000010D3F82880B8F1000F15D0D3E9071977
:100D8000C1F80890C9F80410D8F8041003F1180A43
:100D900051454FF0000108BFC8F804909962D8F897
:100DA00000100139C8F800104FF00108D96AD6F8D0
:100DB000009008FA01F848EA0908C6F800804FF0E8
:100DC000140808FB01F802EB080ADAF80490D9F8D5
:100DD00008B0C3F80890C3F80CB0CBF804E0C9F829
:100DE00008E0C3F814A052F80830013342F8083084
:100DF000DCF80030DB6A994288BF012092E70D4A97
:100E0000002013680133136088E700BF0C00002046
:100E1000300000207C000020780000201C00002012
:100E200014000020A8000020200100202000002045
:100E30002C000020240000202DE9F84F00F0A8FA33
:100E4000484B1A68013A1A601B682BB1002400F065
:100E5000AFFA2046BDE8F88F434A1268002AF5D061
:100E6000012514264148424C424A434FDFF80CC149
:100E700053E0C368DB68D3F828E0D3E90718C1F86A
:100E80000880C8F80410DEF8041003F11809494579
:100E90004FF0000108BFCEF804809962DEF8001020
:100EA0000139CEF80010D3F814E0D3E90218C1F8E4
:100EB0000880C8F80410DEF8041003F1040949455D
:100EC000DEF8001008BFCEF804800139CEF800101B
:100ED000D3F82CE0D4F8008005FA0EF141EA0801BD
:100EE00006FB0EF802EB080A2160DAF80410D1F8CC
:100EF00008B09960C3F80CB0CBF80490C1F8089022
:100F000052F80810C3F814A0013142F808103968EB
:100F1000C96A8E4501D9CCF8005001680029A8D1D2
:100F20000BB1FFF76DFD164D2C6844B10127134E30
:100F3000FFF7C6FE00B13760013CF9D12C600F4BC2
:100F40001B68002B82D00C4B4FF080521B684FF077
:100F5000E023C3F8042DBFF34F8FBFF36F8F01243D
:100F600075E700BF0C000020340000206400002062
:100F70002C000020A80000202001002020000020DC
:100F80002400002008B550B94FF0E0234FF0805204
:100F9000C3F8042DBFF34F8FBFF36F8F08BD00213F
:100FA000FFF786FEFFF7D6FCFFF746FF0028EBD0E1
:100FB000F4E70000214B70B51A68214B12B10122F1
:100FC0001A6070BD1F4C1A60236821682268096886
:100FD000126B1B6B91420FD91A68B2F1A53F0BD16E
:100FE0005A68B2F1A53F07D19A68B2F1A53F03D183
:100FF000DB68B3F1A53F04D0216820683431FFF7E6
:1010000065FC114B1B68B3FA83F31425DBB2C3F103
:101010001F0305FB03F20D498818466808327668FD
:101020000A44964205FB031108BFC268466008BF28
:1010300042604B68DB6823602368C2E70C00002035
:1010400020000020200100202C000020A80000200B
:10105000034670B40D4C41F000412068816159682D
:1010600020688E68C1612068256806621835756041
:101070002568104618358D60216870BC8B62196830
:10108000013119600121FFF765BC00BF200100207C
:1010900041F00041F0B5D0E903320160D0E90141EF
:1010A000A1604C6054680126844208BF5160002151
:1010B000016111681D1D013911605A69D3E90201EE
:1010C000816048605068A84208BF516011681148AB
:1010D00001391160D96A046806FA01F222430260FC
:1010E00014224A430C4887187C68D4F808C09C60D6
:1010F000C3F80CC0CCF80450A5605F61835833443A
:101100008350064B1B68DB6A994284BF044B1E6008
:10111000F0BD00BF2C000020A8000020200100200E
:1011200020000020044B1A68196890691A68CB6A7D
:10113000C3F10603936170472001002010B5182009
:1011400000F0A4F9044620B1002340F8043BFFF767
:10115000CDFB204610BD2DE9F84306460D469846C6
:101160001746DDF82090FFF7A3FD346804EA050375
:10117000B8F1000F13D1A3B9B9F1000F15D0391E82
:1011800018BF01210906B8F1000F01D041F08061BC
:101190004A462943301DFFF75BFF002407E09D42CC
:1011A000EAD117B124EA050333604FF00009FFF7D5
:1011B00043FEB9F1000F1CD048B94FF0E0234FF0C7
:1011C0008052C3F8042DBFF34F8FBFF36F8FFFF72B
:1011D000A9FF830104460AD400F0DAF8346805EA6E
:1011E0000403B8F1000F07D143B900F0E1F824F08F
:1011F0007F442046BDE8F8839D42F6D1002FF4D00D
:1012000024EA05053560F0E770B505460C4600F0A8
:10121000BFF82E6826EA04042C6000F0C9F83046B6
:1012200070BD2DE9F04104460D4600F10C06FFF7B4
:101230003FFD236820692B4300252360B0422168CD
:1012400007D121EA05052560FFF7F6FD2846BDE830
:10125000F081D0E9002822F07F4312F0806F03EA8A
:10126000010702D11FB94046E8E7BB42FBD1D201DA
:1012700041F0007148BF1D43FFF70AFFF3E72DE976
:10128000F0410546884616461F46FFF711FD2C68BB
:101290004146284644EA0804FFF7C3FF36EA040340
:1012A00027D100272B6823EA06032B60FFF7C4FD34
:1012B000E7B148B94FF0E0234FF08052C3F8042D56
:1012C000BFF34F8FBFF36F8FFFF72CFF83010446EF
:1012D0000AD400F05DF82C6836EA040304BF24EA5F
:1012E00006062E6000F064F824F07F442046BDE836
:1012F000F0813FB13A4646F0A061281DFFF7A8FEF5
:101300000024D3E72C68D1E7002382B001934FF08B
:10131000400383F31188BFF36F8FBFF34F8F019B9F
:10132000002BFCD002B0704706480068006880F3CC
:10133000088862B661B6BFF34F8FBFF36F8F00DFCF
:1013400000BF000008ED00E04FF0807340F8043C5F
:10135000054B21F0010140F8081C40F80C3C40F816
:10136000202C4038704700BF09130000074B196854
:101370000868B0E8F00F80F30988BFF36F8F4FF073
:10138000000080F311884EF00D0E70472001002000
:101390004FF0400383F31188BFF36F8FBFF34F8F7C
:1013A000024A136801331360704700BF0000002039
:1013B000034A1368013B13600BB983F3118870472C
:1013C00000000020EFF30980BFF36F8F0D4B1A6808
:1013D00020E9F00F10602DE908404FF0400080F345
:1013E0001188FFF7E7FD4FF0000080F31188BDE89A
:1013F000084019680868B0E8F00F80F30988BFF367
:101400006F8F70472001002008B54FF0400383F331
:101410001188BFF36F8FBFF34F8FFFF751FC28B1D7
:101420004FF0E0234FF08052C3F8042D002383F3E4
:10143000118808BD4FF0E02300221A619A614CF236
:101440004F325A6107221A61704700004FF0E023C3
:1014500010B50024D3F8202D42F47F02C3F8202DCC
:10146000D3F8202D42F07F42C3F8202DC3F81C4D45
:10147000FFF7E0FF044B1C60FFF756FFFFF79AFDF4
:10148000FFF742FF204610BD00000020F8B5431EC4
:101490000A3363D810F0070300F1080405D0A3F164
:1014A0000902A2425AD31030C41A304DFFF700FC93
:1014B0002B68F3B92E4A2F4853071FBFD11D21F0C7
:1014C000070102F54842531A0CBF4FF448430A463D
:1014D00000211344083B23F0070341600260C3E985
:1014E0000011991AC2E900312B60234B1960234B7C
:1014F0001960002C37DD214E3168A14233D31D4ADB
:1015000013685868A04201D21F684FBB2D689D42E6
:1015100029D01568D3F800C0001B102805F1080574
:10152000C2F800C005D91F1978605C6043F804C098
:10153000176058680A1A104932600C6840F0004081
:10154000A24238BF0A6000221A600D4A5860136830
:1015500001331360FFF770FC2846F8BD0024A4E7B0
:101560001A463B46CDE70025F4E700BF34010020D2
:1015700040010020380100202C0100203001002013
:101580002801002038B5054600283BD050F8043C1F
:10159000002B37DA50F8082C002A33D123F000430F
:1015A00040F8043CA0F10804FFF782FB164A55F806
:1015B000041C13680B441360144B1A461B689C42AE
:1015C000FBD850681518AC4202BF14460918516088
:1015D000606821188B4213D10D4909688B4203D0F2
:1015E0005968014461601968A242216018BF146003
:1015F000084A136801331360BDE83840FFF71CBC8C
:101600001946F1E738BD00BF300100203801002045
:10161000340100202401002070B5860747D0541EF5
:10162000002A3ED00346CAB201E0013C39D303F898
:10163000012B9D07F9D1032C2CD9CDB205EB052543
:101640000F2C1A4605EB054534D9A4F1100C2CF0EB
:101650000F0603F1100EB6444FEA1C1CC2E90055F8
:10166000C2E9025510327245F8D10CF1010214F0B2
:101670000C0F03EB021204F00F0C13D0ACF10403B7
:1016800023F003030433134442F8045B9342FBD179
:101690000CF003042CB1C9B21C4403F8011BA34293
:1016A000FBD170BD64461346002CF4D1F9E7034624
:1016B0001446C0E7A446E1E7844641EA000313F07C
:1016C000030349D1403A23D30B6803604B6843605E
:1016D0008B688360CB68C3600B6903614B694361AE
:1016E0008B698361CB69C3610B6A03624B6A436296
:1016F0008B6A8362CB6AC3620B6B03634B6B43637E
:101700008B6B8363CB6BC36340304031403ADBD299
:1017100030320BD30B6803604B6843608B68836087
:10172000CB68C36010301031103AF3D20C3205D3BD
:1017300051F8043B40F8043B043AF9D2043208D093
:10174000D2071CBF11F8013B00F8013B01D30B8805
:1017500003806046704700BF082A13D38B07B1D0BF
:1017600010F00303AED0C3F10403D21ADB071CBF91
:1017700011F8013B00F8013BA4D331F8023B20F8FB
:10178000023B9FE7043AD9D3013A11F8013B00F834
:10179000013BF9D20B7803704B7843708B788370E0
:1017A000604670473D3D3D3D3D3D3D3D3D3D3D3D00
:1017B0003D3D3D3D3D3D3D3D3D3D3D3D3D3D3D3D59
:1017C0003D3D3D3D3D3D3D3D0D0A002020467265BD
:1017D0006552544F5320E4BA8BE4BBB6E7BB84E5B3
:1017E000ADA6E4B9A0E7A4BAE4BE8B0D0A00E5AD4E
:1017F000A6E4B9A0E8A681E782B9EFBC9A0D0A0079
:10180000312E20E4BA8BE4BBB6E7BB84E79A84E6CA
:10181000A682E5BFB5E5928CE5B7A5E4BD9CE58E53
:101820009FE790860D0A00322E20E4BA8BE4BBB607
:10183000E4BD8DE79A84E8AEBEE7BDAEE38081E605
:10184000B885E999A4E5928CE7AD89E5BE850D0AD6
:1018500000332E20414E442F4F52E69DA1E4BBB6EB
:10186000E7AD89E5BE85E69CBAE588B60D0A003489
:101870002E20784576656E7447726F757043726579
:101880006174652829202F20536574426974732878
:1018900029202F20436C6561724269747328290DD9
:1018A0000A00352E20784576656E7447726F757024
:1018B00057616974426974732829202D20E7AD8926
:1018C000E5BE85E4BA8BE4BBB6E4BD8D0D0A0036F7
:1018D0002E20784576656E7447726F757053796EF9
:1018E000632829202D20E4BBBBE58AA1E5908CE686
:1018F000ADA5EFBC88E4BC9AE59088E782B9EFBC5F
:10190000890D0A00372E20E8B685E697B6E5A4844F
:10191000E79086E69CBAE588B60D0A002020E4BA76
:101920008BE4BBB6E7BB8420767320E585B6E4BBC9
:1019300096E5908CE6ADA5E69CBAE588B6EFBC9A34
:101940000D0A00E789B9E680A7202020202020206A
:10195000202020E9989FE58897202020202020E45F
:10196000BFA1E58FB7E9878F20202020E4BA8BE460
:10197000BBB6E7BB840D0A002D2D2D2D2D2D2D2D51
:101980002D2D2D2D2D2D2D2D2D2D2D2D2D2D2D2D87
:101990002D2D2D2D2D2D2D2D2D2D2D2D2D2D2D2D77
:1019A0000D0A00E695B0E68DAEE4BCA0E980922079
:1019B0002020202020E29C9320E69C8920202020CB
:1019C0002020E29C9720E697A0202020202020E2E3
:1019D0009C9720E697A00D0A00E5A49AE4BA8BE450
:1019E000BBB6E7AD89E5BE8520202020E29C97208C
:1019F000E697A0202020202020E29C9720E697A0B8
:101A0000202020202020E29C9320E69C890D0A00C3
:101A1000414E442F4F52E980BBE8BE912020202048
:101A2000E29C9720E697A0202020202020E29C978F
:101A300020E697A0202020202020E29C9320E69CF6
:101A4000890D0A00E4BBBBE58AA1E5908CE6ADA553
:101A5000202020202020E29C9720E697A020202014
:101A6000202020E29C9720E697A020202020202004
:101A7000E29C9320E69C890D0A00E6ADA3E59CA8B4
:101A8000E5889BE5BBBAE4BA8BE4BBB6E7BB842E22
:101A90002E2E0D0A00E29C9320E4BA8BE4BBB6E73D
:101AA000BB84E5889BE5BBBAE68890E58A9FEFBCDE
:101AB000810D0A000D0AE6ADA3E59CA8E5889BE52B
:101AC000BBBAE4BBBBE58AA12E2E2E0D0A005465DD
:101AD0006D7053656E736F720048756D6964536500
:101AE0006E736F7200507265737353656E736F72AD
:101AF0000050726F636573736F72004D6F6E69741F
:101B00006F720053796E635461736B310053796E59
:101B1000635461736B320053796E635461736B333A
:101B200000E68980E69C89E4BBBBE58AA1E5889B49
:101B3000E5BBBAE68890E58A9FEFBC810D0A00E517
:101B400090AFE58AA84672656552544F53E8B0835A
:101B5000E5BAA6E599A82E2E2E0D0A00E99499E87B
:101B6000AFAFEFBC9AE8B083E5BAA6E599A8E590D7
:101B7000AFE58AA8E5A4B1E8B4A5EFBC810D0A00E1
:101B8000E29C9720E4BA8BE4BBB6E7BB84E5889B74
:101B9000E5BBBAE5A4B1E8B4A5EFBC810D0A00E24B
:101BA0009C9300E29C97000D0A2D2D2D2D2D2D2D9F
:101BB0002D2D2D200020E78AB6E68081202D2D2DA9
:101BC0002D2D2D2D2D2D2D0D0A00E5BD93E5898D93
:101BD000E4BA8BE4BBB6E4BD8D3A20307800202017
:101BE000E6B8A9E5BAA6E5B0B1E7BBAA3A2000205D
:101BF00020E6B9BFE5BAA6E5B0B1E7BBAA3A200036
:101C00002020E58E8BE58A9BE5B0B1E7BBAA3A20A0
:101C1000002020E5A484E79086E5AE8CE688903A23
:101C200020002020E68AA5E8ADA6E8A7A6E58F91CA
:101C30003A20002D2D2D2D2D2D2D2D2D2D2D2D2D01
:101C40002D2D2D2D2D2D2D2D2D2D2D2D2D2D2D2DC4
:101C50002D2D2D2D2D2D2D2D2D2D2D0D0A0D0A0067
:101C60005B54656D7053656E736F725D20E6B8A945
:101C7000E5BAA6E4BCA0E6849FE599A8E4BBBBE571
:101C80008AA1E590AFE58AA8EFBC810D0A005B54FC
:101C9000656D7053656E736F725D20E8AFBBE58F45
:101CA00096E6B8A9E5BAA6E695B0E68DAE20230083
:101CB0005B54656D7053656E736F725D20E29C932B
:101CC00020E6B8A9E5BAA6E695B0E68DAEE5B0B1D6
:101CD000E7BBAAEFBC810D0A00E4BCA0E6849FE547
:101CE00099A8E4BA8BE4BBB6E7BB84005B48756D8A
:101CF000696453656E736F725D20E6B9BFE5BAA67D
:101D0000E4BCA0E6849FE599A8E4BBBBE58AA1E515
:101D100090AFE58AA8EFBC810D0A005B48756D693C
:101D20006453656E736F725D20E8AFBBE58F96E616
:101D3000B9BFE5BAA6E695B0E68DAE2023005B48B4
:101D4000756D696453656E736F725D20E29C9320BC
:101D5000E6B9BFE5BAA6E695B0E68DAEE5B0B1E767
:101D6000BBAAEFBC810D0A005B50726573735365AB
:101D70006E736F725D20E58E8BE58A9BE4BCA0E6F6
:101D8000849FE599A8E4BBBBE58AA1E590AFE58A0D
:101D9000A8EFBC810D0A005B507265737353656ECA
:101DA000736F725D20E8AFBBE58F96E58E8BE58A99
:101DB0009BE695B0E68DAE2023005B507265737391
:101DC00053656E736F725D20E29C9320E58E8BE508
:101DD0008A9BE695B0E68DAEE5B0B1E7BBAAEFBC55
:101DE000810D0A005B50726F636573736F725D20C3
:101DF000E695B0E68DAEE5A484E79086E4BBBBE54E
:101E00008AA1E590AFE58AA8EFBC810D0A005B507E
:101E1000726F636573736F725D20E7AD89E5BE8590
:101E2000E68980E69C89E4BCA0E6849FE599A8E663
:101E300095B0E68DAEE5B0B1E7BBAA2E2E2E0D0A09
:101E4000000D0A5B50726F636573736F725D203DA6
:101E50003D3D3D3D3D3D3D3D3D20E7AD89E5BE85F8
:101E6000E68980E69C89E4BCA0E6849FE599A820E9
:101E700028414E44E69DA1E4BBB629203D3D3D3DB1
:101E80003D3D3D3D3D3D0D0A005B50726F63657306
:101E9000736F725D20E29C9320E68980E69C89E462
:101EA000BCA0E6849FE599A8E695B0E68DAEE5B0C6
:101EB000B1E7BBAAEFBC81E5BC80E5A78BE5A484B4
:101EC000E790862023005B50726F636573736F72B7
:101ED0005D20E29C9320E695B0E68DAEE5A484E714
:101EE0009086E5AE8CE68890EFBC810D0A005B50D1
:101EF000726F636573736F725D20E29C9720E7AD2C
:101F000089E5BE85E8B685E697B6EFBC81E5BD9369
:101F1000E5898DE78AB6E680813A0D0A005B4D6F50
:101F20006E69746F725D20E79B91E68EA7E4BBBB80
:101F3000E58AA1E590AFE58AA8EFBC810D0A005BB8
:101F40004D6F6E69746F725D20E79B91E68EA7E41A
:101F5000BBBBE6848FE4BCA0E6849FE599A8E4BA05
:101F60008BE4BBB620284F52E69DA1E4BBB6292ED8
:101F70002E2E0D0A000D0A5B4D6F6E69746F725D37
:101F8000203D3D3D3D3D3D3D3D3D3D20E4BA8BE4A2
:101F9000BBB6E8A7A6E58F912023005B4D6F6E6965
:101FA000746F725D20E2869220E6B8A9E5BAA6E4D5
:101FB000BCA0E6849FE599A8E5B0B1E7BBAA0D0AED
:101FC000005B4D6F6E69746F725D20E2869220E651
:101FD000B9BFE5BAA6E4BCA0E6849FE599A8E5B040
:101FE000B1E7BBAA0D0A005B4D6F6E69746F725D3D
:101FF00020E2869220E58E8BE58A9BE4BCA0E684F5
:102000009FE599A8E5B0B1E7BBAA0D0A005B4D6F4B
:102010006E69746F725D20E2869220E695B0E68D5F
:10202000AEE5A484E79086E5AE8CE688900D0A00C4
:102030005B53796E635461736B315D20E5908CE680
:10204000ADA5E4BBBBE58AA131E590AFE58AA8EF79
:10205000BC810D0A005B53796E635461736B315D13
:1020600020E58786E5A487E5B0B1E7BBAA20230079
:10207000EFBC8CE7AD89E5BE85E585B6E4BB96E4AB
:10208000BBBBE58AA12E2E2E0D0A005B53796E6331
:102090005461736B315D20E29C9320E68980E69C5D
:1020A00089E4BBBBE58AA1E5B7B2E5908CE6ADA5B6
:1020B000EFBC81E689A7E8A18CE5908CE6ADA5E6AA
:1020C000938DE4BD9C2023005B53796E6354617350
:1020D0006B325D20E5908CE6ADA5E4BBBBE58AA143
:1020E00032E590AFE58AA8EFBC810D0A005B537919
:1020F0006E635461736B325D20E58786E5A487E5E6
:10210000B0B1E7BBAA2023005B53796E63546173BF
:102110006B325D20E29C9320E68980E69C89E4BBDB
:10212000BBE58AA1E5B7B2E5908CE6ADA5EFBC8131
:10213000E689A7E8A18CE5908CE6ADA5E6938DE451
:10214000BD9C2023005B53796E635461736B335DD8
:1021500020E5908CE6ADA5E4BBBBE58AA133E59014
:10216000AFE58AA8EFBC810D0A005B53796E63541A
:1021700061736B335D20E58786E5A487E5B0B1E741
:10218000BBAA2023005B53796E635461736B335D8C
:1021900020E29C9320E68980E69C89E4BBBBE58A2B
:1021A000A1E5B7B2E5908CE6ADA5EFBC81E689A7C5
:1021B000E8A18CE5908CE6ADA5E6938DE4BD9C206E
:1021C00023000D0A21212120E6A088E6BAA2E58796
:1021D000BAE6A380E6B58BEFBC9A0049444C4500B3
:0C21E00005000000F8B500BFF8B500BF16
:0421EC00AAAAAAAA47
:00000001FF
