:1000000000000120F5000000F1000000F1000000F8
:10001000F1000000F1000000F1000000000000000D
:10002000000000000000000000000000B10D000012
:10003000F100000000000000090E00004D0E00005D
:10004000F1000000F1000000F1000000F1000000EC
:10005000F1000000F1000000F1000000F1000000DC
:10006000F1000000F1000000F1000000F1000000CC
:10007000F1000000F1000000F1000000F1000000BC
:10008000F1000000F1000000F1000000F1000000AC
:10009000F1000000F1000000F1000000F10000009C
:1000A000F1000000F1000000F1000000F10000008C
:1000B000F1000000F1000000F1000000F10000007C
:1000C000F1000000F1000000F1000000F10000006C
:1000D000F1000000F1000000F1000000F10000005C
:1000E000F100000000000000F1000000F10000003D
:1000F000FEE7000008B50E4B0E48DA1C121AC11EAE
:1001000022F00302994288BF00220B4900F0F6FF5B
:100110000A4B0B48DA1C121AC11E22F00302994244
:1001200088BF0022002100F099FF00F023F8FEE7CD
:100130000400002000000020AC1400003CC9002096
:1001400004000020024B9A699206FCD418607047A4
:1001500000C0004008B5411E11F8010F00B908BDEC
:10016000FFF7F0FFF8E700000148FFF7F3BF00BF1B
:10017000E811000007B52E48FFF7ECFFFFF7F4FF8A
:100180002C48FFF7E7FFFFF7EFFF2948FFF7E2FFF3
:100190002948FFF7DFFF2948FFF7DCFF2848FFF772
:1001A000D9FF2848FFF7D6FF2748FFF7D3FF20489D
:1001B000FFF7D0FFFFF7D8FF2448FFF7CBFFFFF78B
:1001C000D3FF2348FFF7C6FF2248FFF7C3FF2248AB
:1001D000FFF7C0FF1648FFF7BDFF2048FFF7BAFF43
:1001E0001F4B4FF48072019303231E4900931E4856
:1001F000002300F09DF9002302221C49CDE90023D1
:100200001B484FF4807200F093F91A48FFF7A2FFE1
:100210000748FFF79FFF1848FFF79CFF0448FFF7C8
:1002200099FF00F0C7FA1548FFF794FFFEE700BFFB
:1002300033140000151200003B1200004D120000A4
:10024000771200009D120000C4120000E9120000A5
:10025000031300001D1300003713000051130000AA
:100260000400002069130000350300007213000031
:10027000CD0200007B13000099130000B6130000AC
:10028000F0B585B028B9302005B0BDE8F040FFF7E3
:1002900059BF6A46002316460A24B0FBF4F5074608
:1002A00004FB1501092F01F1300102F8011B28465A
:1002B000194603F1010302D90F2BEED10E21705C18
:1002C000FFF740FF0139FAD205B0F0BD2DE9F34147
:1002D0004FF4FA7000F016FC0025DFF84880124F4A
:1002E000124E002440460135FFF734FF2846FFF741
:1002F000C7FF3846FFF72EFF00940223224621460F
:10030000306800F0B1FC4FF47A7000F0FBFB052D73
:10031000E7D10748FFF71EFF204602B0BDE8F041D5
:1003200000F0E6B9DA1300003314000004000020E6
:10033000FC13000070B50B48FFF70CFF0A4E0B4D85
:100340004FF0FF320121002000F042FC044630460D
:10035000FFF700FF2046FFF793FF2846FFF7FAFE5E
:10036000EEE700BF361400005914000033140000FB
:100370000C4608B50448FFF7EDFE2046FFF7EAFEFD
:100380000248FFF7E7FEFEE7821400003314000086
:100390004FF0FF3200F10803C0E90223436003611C
:1003A00000230360704700230361704743689A6825
:1003B0004B608A6051609960036808610133036093
:1003C000704730B50C68631C0AD103695A684A60EB
:1003D00091608B605960036808610133036030BD30
:1003E00000F10802134652681568A542FAD9EDE7F4
:1003F0000369D0E901128A6051605968814208BFDF
:100400005A600022026118680138186070470000C5
:100410002DE9F843224B234C1D68234B0646D3F8A5
:100420000080224B0F46D3F8009020680430FFF77D
:10043000DFFF40B922681E49D06A01220B68824062
:1004400023EA02030B60731C14D19FB1194B21687E
:100450005A688A6090682168C860216804314160E8
:10046000216804319160226853611A6801321A6070
:10047000BDE8F88323682168AD195D6001F10401CE
:1004800004D34846BDE8F843FFF79BBF4046FFF75B
:1004900098FF094B1A68AA4288BF1D60E8E700BFB1
:1004A0002C0000201C010020780000207400002097
:1004B000280000203400002010000020064A1368A5
:1004C0001968064B19B94FF0FF321A60704712686D
:1004D000D2681268F9E700BF780000201000002001
:1004E000F8B50E4C0E4F0F4E236803B9F8BD00F05F
:1004F00071FCFB68DD68281DFFF77AFF3368013B5C
:1005000033602368013B236000F074FC286B00F02B
:100510005BFD284600F058FDE6E700BF48000020DC
:100520004C0000203000002008B5FFF7D9FFFCE7A1
:100530002DE9F0479600074630460D469846DDF80F
:10054000249000F0C5FC824618B94FF0FF30BDE89A
:10055000F087502000F0BCFC0446002800F0938097
:100560005022002100F07AFD3246A5215046C4F801
:1005700030A000F073FD236B043E1E4426F00706F6
:100580006DB16B1E04F133020B3513F8011F02F835
:10059000011F09B1AB42F8D1002384F83F30089D18
:1005A00004F1040A052D28BF05255046E56225649F
:1005B000FFF7F9FEC5F1060504F11800FFF7F3FE99
:1005C0004246394630462461A561646200F0DEFB94
:1005D0002060B9F1000F01D0C9F8004000F0FAFB2B
:1005E000364B374E1A68374F01321A603568002D86
:1005F0004DD134601B68012B1FD1B84640460135F0
:10060000FFF7C6FE062D08F11408F7D1DFF8B88011
:100610002E4D4046FFF7BCFE2846FFF7B9FE2C489A
:10062000FFF7B6FE2B48FFF7B3FE2B48FFF7B0FEEF
:100630002A4BC3F800802A4B1D602A4A2A491368B6
:100640000868013313600122E36A9A4002430A609A
:1006500014225343F9184A689068A260E060C0F819
:1006600004A0C2F808A0FA5861610132FA5000F003
:10067000C1FB1E4B1B6823B13368DA6AE36A9A42F6
:1006800010D3012063E7504600F09EFC5DE7174B56
:100690001A68E36A002AD0D13268D26A9A4298BFB7
:1006A0003460CAE74FF0E0234FF08052C3F8042DC6
:1006B000BFF34F8FBFF36F8FE3E700BF3000002021
:1006C0001C010020A4000020900000207C000020DD
:1006D000600000204C000020340000207800002042
:1006E00074000020140000202800002024000020B6
:1006F000F8B50446274D00F06DFB04B92C68261DA3
:100700003046FFF775FE60B91423E06A224A43437E
:10071000D35833B90122214982400B6823EA0203EE
:100720000B60A36A1BB104F11800FFF761FE1C4ABD
:100730001C4F1368013313602B683A68DAB1A34287
:1007400019D131461848FFF731FE184A13680133B2
:10075000136000F04FFB3B6863B12B68A34209D1E3
:100760004FF0E0234FF08052C3F8042DBFF34F8FBA
:10077000BFF36F8FF8BD0E4A1368013B1360FFF79C
:100780009DFE00F037FB206B00F01EFC204600F0C1
:100790001BFCE0E71C010020A40000202800002032
:1007A00014000020240000204C00002048000020FD
:1007B00030000020002310B5164A86B0CDE903337F
:1007C000059303AB12F8014B03F8014B002CF9D150
:1007D000114B5A22CDE900431048234603A9FFF7E5
:1007E000A7FE012811D14FF0400383F31188BFF316
:1007F0006F8FBFF34F8F4FF0FF32094B1A60094BD9
:100800001860094B1C6000F043FB084B1B6806B0E6
:1008100010BD00BF9B1400000C0000202905000043
:1008200010000020240000202C000020A014000054
:10083000024A136801331360704700BF08000020AC
:100840002DE9F84F514B1B68002B40F09880504B1E
:100850001C6801341C605CB94E4A4F4B1168186823
:1008600010604E4A1960136801331360FFF726FECB
:100870004B4D00202B684B4A9C42DFF82CC10FD215
:100880001421DCF80030DB6A4B43D358022B474B72
:1008900028BF01201B68002B18BF0120BDE8F88F7E
:1008A0003C4F434E3B681B681BB94FF0FF332B6036
:1008B000E6E73B68DB68DB6859688C4201D2296057
:1008C000DEE7D3F81480D3E90219C1F80890C9F81B
:1008D0000410D8F8041003F1040E71454FF0000124
:1008E00008BFC8F804905961D8F800100139C8F859
:1008F0000010D3F82880B8F1000F15D0D3E90719FC
:10090000C1F80890C9F80410D8F8041003F1180AC7
:1009100051454FF0000108BFC8F804909962D8F81B
:1009200000100139C8F800104FF00108D96AD6F854
:10093000009008FA01F848EA0908C6F800804FF06C
:10094000140808FB01F802EB080ADAF80490D9F859
:1009500008B0C3F80890C3F80CB0CBF804E0C9F8AD
:1009600008E0C3F814A052F80830013342F8083008
:10097000DCF80030DB6A994288BF012092E70D4A1B
:10098000002013680133136088E700BF08000020CF
:100990002C000020780000207400002018000020A7
:1009A00010000020A40000201C0100201C000020DA
:1009B00028000020200000202DE9F84F00F00AFA5E
:1009C000484B1A68013A1A601B682BB1002400F0EA
:1009D00011FA2046BDE8F88F434A1268002AF5D084
:1009E000012514264148424C424A434FDFF80CC1CE
:1009F00053E0C368DB68D3F828E0D3E90718C1F8EF
:100A00000880C8F80410DEF8041003F118094945FD
:100A10004FF0000108BFCEF804809962DEF80010A4
:100A20000139CEF80010D3F814E0D3E90218C1F868
:100A30000880C8F80410DEF8041003F104094945E1
:100A4000DEF8001008BFCEF804800139CEF800109F
:100A5000D3F82CE0D4F8008005FA0EF141EA080141
:100A600006FB0EF802EB080A2160DAF80410D1F850
:100A700008B09960C3F80CB0CBF80490C1F80890A6
:100A800052F80810C3F814A0013142F80810396870
:100A9000C96A8E4501D9CCF8005001680029A8D157
:100AA0000BB1FFF70BFD164D2C6844B10127134E17
:100AB000FFF7C6FE00B13760013CF9D12C600F4B47
:100AC0001B68002B82D00C4B4FF080521B684FF0FC
:100AD000E023C3F8042DBFF34F8FBFF36F8F0124C2
:100AE00075E700BF080000203000002060000020F3
:100AF00028000020A40000201C0100201C00002071
:100B00002000002008B550B94FF0E0234FF080528C
:100B1000C3F8042DBFF34F8FBFF36F8F08BD0021C3
:100B2000FFF786FEFFF774FCFFF746FF0028EBD0C7
:100B3000F4E70000214B70B51A68214B12B1012275
:100B40001A6070BD1F4C1A6023682168226809680A
:100B5000126B1B6B91420FD91A68B2F1A53F0BD1F2
:100B60005A68B2F1A53F07D19A68B2F1A53F03D107
:100B7000DB68B3F1A53F04D0216820683431FFF76A
:100B8000F7FB114B1B68B3FA83F31425DBB2C3F1F7
:100B90001F0305FB03F20D49881846680832766882
:100BA0000A44964205FB031108BFC268466008BFAD
:100BB00042604B68DB6823602368C2E708000020BE
:100BC0001C0000201C01002028000020A4000020A0
:100BD0002DE9F843234D00F112072B68064653F820
:100BE000274089469046C4B9BAB1FFF721FE00F00C
:100BF000F1F82B6853F8273033B300F0FBF8FFF718
:100C0000DBFE54B148B94FF0E0234FF08052C3F8F7
:100C1000042DBFF34F8FBFF36F8F00F0DBF82B680D
:100C200053F8274034B12B68B9F1000F18D00022D7
:100C300043F8272000222B68334483F84C2000F02F
:100C4000D9F82046BDE8F88301242B68334483F8A3
:100C50004C4000F0CFF821464046FFF7D9FBCEE7E5
:100C6000621EE5E71C0100202DE9F041DDF8188047
:100C700005460C4617461E4600F0ACF8B8F1000FCA
:100C800005D004F1120355F82330C8F800300222D1
:100C90002B1993F84C1083F84C20731EC9B2032B08
:100CA00008D8DFE803F00240474505EB8404A36C55
:100CB0003B43A364012930D1D5E902126B698A60F4
:100CC000516059682C1DA14208BF5A601A681C491E
:100CD000013A1A600123EA6A0868934003430B60F3
:100CE000142353431749CE1870688768A860EF60D3
:100CF0007C608460C8586E610130C850124B1B681C
:100D0000DB6A9A4209D94FF0E0234FF08052C3F8D2
:100D1000042DBFF34F8FBFF36F8F012400F06AF8EB
:100D20002046BDE8F08105EB8404A36C0133C0E7E5
:100D3000022903D0123445F82470BBE70024EDE704
:100D400028000020A40000201C010020002382B005
:100D500001934FF0400383F31188BFF36F8FBFF30C
:100D60004F8F019B002BFCD002B0704706480068F3
:100D7000006880F3088862B661B6BFF34F8FBFF397
:100D80006F8F00DF00BF000008ED00E04FF08073C0
:100D900040F8043C054B21F0010140F8081C40F8E4
:100DA0000C3C40F8202C4038704700BF4D0D00002F
:100DB000074B19680868B0E8F00F80F30988BFF3A3
:100DC0006F8F4FF0000080F311884EF00D0E7047CA
:100DD0001C0100204FF0400383F31188BFF36F8F95
:100DE000BFF34F8F024A136801331360704700BF8F
:100DF00000000020034A1368013B13600BB983F322
:100E00001188704700000020EFF30980BFF36F8F57
:100E10000D4B1A6820E9F00F10602DE908404FF0E3
:100E2000400080F31188FFF785FE4FF0000080F34B
:100E30001188BDE8084019680868B0E8F00F80F331
:100E40000988BFF36F8F70471C01002008B54FF071
:100E5000400383F31188BFF36F8FBFF34F8FFFF70A
:100E6000EFFC28B14FF0E0234FF08052C3F8042D7F
:100E7000002383F3118808BD4FF0E02300221A619C
:100E80009A614CF24F325A6107221A617047000092
:100E90004FF0E02310B50024D3F8202D42F47F0258
:100EA000C3F8202DD3F8202D42F07F42C3F8202D27
:100EB000C3F81C4DFFF7E0FF044B1C60FFF756FF23
:100EC000FFF738FEFFF742FF204610BD000000206C
:100ED000F8B5431E0A3363D810F0070300F1080485
:100EE00005D0A3F10902A2425AD31030C41A304DE2
:100EF000FFF79EFC2B68F3B92E4A2F4853071FBFFC
:100F0000D11D21F0070102F54842531A0CBF4FF4DE
:100F100048430A4600211344083B23F0070341607D
:100F20000260C3E90011991AC2E900312B60234B1A
:100F30001960234B1960002C37DD214E3168A14226
:100F400033D31D4A13685868A04201D21F684FBBB3
:100F50002D689D4229D01568D3F800C0001B1028C9
:100F600005F10805C2F800C005D91F1978605C605A
:100F700043F804C0176058680A1A104932600C68B8
:100F800040F00040A24238BF0A6000221A600D4AB9
:100F90005860136801331360FFF70EFD2846F8BD53
:100FA0000024A4E71A463B46CDE70025F4E700BF3E
:100FB000300100203C0100203401002028010020E5
:100FC0002C0100202401002038B5054600283BD024
:100FD00050F8043C002B37DA50F8082C002A33D1A3
:100FE00023F0004340F8043CA0F10804FFF720FC84
:100FF000164A55F8041C13680B441360144B1A4628
:101000001B689C42FBD850681518AC4202BF1446BE
:1010100009185160606821188B4213D10D49096885
:101020008B4203D05968014461601968A242216073
:1010300018BF1460084A136801331360BDE83840D4
:10104000FFF7BABC1946F1E738BD00BF2C010020FC
:1010500034010020300100202001002070B58607F7
:1010600047D0541E002A3ED00346CAB201E0013CDC
:1010700039D303F8012B9D07F9D1032C2CD9CDB21C
:1010800005EB05250F2C1A4605EB054534D9A4F1CF
:10109000100C2CF00F0603F1100EB6444FEA1C1C86
:1010A000C2E90055C2E9025510327245F8D10CF17F
:1010B000010214F00C0F03EB021204F00F0C13D01A
:1010C000ACF1040323F003030433134442F8045B3C
:1010D0009342FBD10CF003042CB1C9B21C4403F8B9
:1010E000011BA342FBD170BD64461346002CF4D112
:1010F000F9E703461446C0E7A446E1E7844641EA1F
:10110000000313F0030349D1403A23D30B68036073
:101110004B6843608B688360CB68C3600B69036175
:101120004B6943618B698361CB69C3610B6A03625D
:101130004B6A43628B6A8362CB6AC3620B6B036345
:101140004B6B43638B6B8363CB6BC363403040312A
:10115000403ADBD230320BD30B6803604B684360FC
:101160008B688360CB68C36010301031103AF3D2C3
:101170000C3205D351F8043B40F8043B043AF9D251
:10118000043208D0D2071CBF11F8013B00F8013B24
:1011900001D30B8803806046704700BF082A13D331
:1011A0008B07B1D010F00303AED0C3F10403D21A01
:1011B000DB071CBF11F8013B00F8013BA4D331F859
:1011C000023B20F8023B9FE7043AD9D3013A11F8D9
:1011D000013B00F8013BF9D20B7803704B78437068
:1011E0008B788370604670470D0A3D3D3D3D3D3D27
:1011F0003D3D3D3D3D3D3D3D3D3D3D3D3D3D3D3D1F
:101200003D3D3D3D3D3D3D3D3D3D3D3D3D3D3D3D0E
:101210003D3D0D0A0020204672656552544F532013
:10122000E4BBBBE58AA1E9809AE79FA5E5ADA6E40A
:10123000B9A0E7A4BAE4BE8B0D0A00E5ADA6E4B9F7
:10124000A0E8A681E782B9EFBC9A0D0A00312E20F2
:10125000E4BBBBE58AA1E9809AE79FA5E79A84E60B
:10126000A682E5BFB5E5928CE5B7A5E4BD9CE58E09
:101270009FE790860D0A00322E20785461736B4EE2
:101280006F74696679476976652829202D20E58F76
:1012900091E98081E9809AE79FA50D0A00332E200D
:1012A000756C5461736B4E6F7469667954616B65CC
:1012B0002829202D20E7AD89E5BE85E9809AE79FA2
:1012C000A50D0A00342E20E4BBBBE58AA1E9809A73
:1012D000E79FA520767320E4BA8CE580BCE4BFA12B
:1012E000E58FB7E9878F0D0A002020E4BBBBE58AB4
:1012F000A1E9809AE79FA5E4BC98E58ABFEFBC9A74
:101300000D0A002D20E69BB4E5BFABE79A84E68981
:10131000A7E8A18CE9809FE5BAA60D0A002D20E67A
:101320009BB4E5B091E79A84E58685E5AD98E58DB7
:10133000A0E794A80D0A002D20E69BB4E7AE80E557
:101340008D95E79A84415049E4BDBFE794A80D0A02
:1013500000E6ADA3E59CA8E5889BE5BBBAE4BBBB72
:10136000E58AA12E2E2E0D0A004E6F7469666965FE
:1013700064004E6F74696669657200E68980E69C58
:1013800089E4BBBBE58AA1E5889BE5BBBAE688900A
:10139000E58A9FEFBC810D0A00E590AFE58AA8467B
:1013A00072656552544F53E8B083E5BAA6E599A833
:1013B0002E2E2E0D0A00E99499E8AFAFEFBC9AE803
:1013C000B083E5BAA6E599A8E590AFE58AA8E5A4BB
:1013D000B1E8B4A5EFBC810D0A000D0A20205BE442
:1013E000BBBBE58AA1E9809AE79FA55D20E58F91C7
:1013F000E98081E9809AE79FA52023000D0A20203B
:101400005BE4BBBBE58AA1E9809AE79FA55D20E686
:10141000B58BE8AF95E5AE8CE68890EFBC8CE7A87D
:101420008BE5BA8FE7BBA7E7BBADE8BF90E8A18C1F
:101430002E2E2E0D0A0020205BE4BBBBE58AA1E91D
:10144000809AE79FA55D20E7AD89E5BE85E9809A92
:10145000E79FA52E2E2E0D0A0020205BE4BBBBE5E6
:101460008AA1E9809AE79FA55D20E694B6E588B059
:10147000E9809AE79FA5EFBC81E8AEA1E695B03A76
:1014800020000D0A21212120E6A088E6BAA2E587E6
:10149000BAE6A380E6B58BEFBC9A0049444C450000
:0C14A00005000000F8B500BFF8B500BF63
:0414AC00AAAAAAAA94
:00000001FF
