:1000000000000120F5000000F1000000F1000000F8
:10001000F1000000F1000000F1000000000000000D
:10002000000000000000000000000000D1150000EA
:10003000F100000000000000291600006D1600000D
:10004000F1000000F1000000F1000000F1000000EC
:10005000F1000000F1000000F1000000F1000000DC
:10006000F1000000F1000000F1000000F1000000CC
:10007000F1000000F1000000F1000000F1000000BC
:10008000F1000000F1000000F1000000F1000000AC
:10009000F1000000F1000000F1000000F10000009C
:1000A000F1000000F1000000F1000000F10000008C
:1000B000F1000000F1000000F1000000F10000007C
:1000C000F1000000F1000000F1000000F10000006C
:1000D000F1000000F1000000F1000000F10000005C
:1000E000F100000000000000F1000000F10000003D
:1000F000FEE7000008B50E4B0E48DA1C121AC11EAE
:1001000022F00302994288BF00220B4901F006FC4D
:100110000A4B0B48DA1C121AC11E22F00302994244
:1001200088BF0022002101F0A9FB00F023F8FEE7C0
:1001300004000020000000207C20000048C90020AE
:1001400004000020024B9A699206FCD418607047A4
:1001500000C0004008B5411E11F8010F00B908BDEC
:10016000FFF7F0FFF8E700000148FFF7F3BF00BF1B
:10017000081A000007B55448FFF7ECFFFFF7F4FF3B
:100180005248FFF7E7FFFFF7EFFF4F48FFF7E2FFA7
:100190004F48FFF7DFFF4F48FFF7DCFF4E48FFF700
:1001A000D9FF4E48FFF7D6FF4D48FFF7D3FF4D4824
:1001B000FFF7D0FF4C48FFF7CDFF4348FFF7CAFFDA
:1001C000FFF7D2FF4948FFF7C5FFFFF7CDFF4848CB
:1001D000FFF7C0FF4748FFF7BDFF4748FFF7BAFFEB
:1001E0004648FFF7B7FF3848FFF7B4FF4448FFF72A
:1001F000B1FF03220021012000F0B2FA414B186048
:1002000018B94148FFF7A6FFFEE74048FFF7A2FFF5
:1002100000220421052000F0A3FA3D4B186018B914
:100220003C48FFF797FFFEE73B48FFF793FF0021AD
:100230000A2000F0B7FA394B186018B93848FFF7B0
:1002400089FFFEE73748FFF785FF3748FFF782FF52
:10025000364B4FF48072019304233549009335489F
:10026000002300F0B1FC3448FFF774FF002403239F
:100270004FF480723149CDE900343148234600F013
:10028000A3FC3048FFF766FF02234FF480722E492B
:1002900000932E482346019400F096FC2C48FFF76B
:1002A00059FF2C48FFF756FF0748FFF753FF2A482E
:1002B000FFF750FF0448FFF74DFF00F0C7FD274848
:1002C000FFF748FFFEE700BF631F0000351A00007C
:1002D0005B1A00006D1A0000B21A0000E01A00005C
:1002E0000A1B0000311B00004F1B0000721B0000A6
:1002F000921B0000BE1B0000E71B0000051C000055
:10030000251C000010000020431C00006D1C000094
:100310000C0000208F1C0000B01C00000800002012
:10032000C91C0000F31C0000151D00000400002083
:100330002F1D0000AD040000371D0000681D0000E7
:10034000F10300006F1D0000A01D0000AD030000C0
:10035000A71D0000D21D0000F21D00000F1E0000AE
:10036000F0B585B028B9302005B0BDE8F040FFF702
:10037000E9BE6A46002316460A24B0FBF4F5074698
:1003800004FB1501092F01F1300102F8011B284679
:10039000194603F1010302D90F2BEED10E21705C37
:1003A000FFF7D0FE0139FAD205B0F0BDF8B50D481F
:1003B000FFF7D0FE00240A250B4E0C4F0134B4FB8E
:1003C000F5F305FB134343B93046FFF7C3FE204660
:1003D000FFF7C6FF3846FFF7BDFEC82000F0E4FE79
:1003E000ECE700BF331E00005C1E0000631F00002E
:1003F0000023F7B524480093FFF7ACFE4FF4FA70E2
:1004000000F0D2FE214F224C224E009B3846013391
:100410000093FFF79FFE0098FFF7A2FF2046FFF72B
:1004200099FE00233568019335B11B48FFF792FE12
:10043000284601A900F0FAF9184B1D6875B1184853
:10044000FFF788FE0098FFF78BFF2046FFF782FE3C
:1004500000236946284601AA00F0B2F9114B18683A
:1004600010B101A900F0E2F94FF47A7000F09CFE9F
:10047000009B042BC9D90C48FFF76CFE002000F04C
:1004800083FC03B0F0BD00BF831E0000BB1E000054
:10049000631F000010000020E31E00000C0000207D
:1004A000061F000008000020261F0000F7B51948AD
:1004B000FFF750FE184E194F194D4FF0FF313068BD
:1004C00000F05BFA0128F8D13846FFF743FE154BE0
:1004D0000022186801A900F0D9F9012808D11248B2
:1004E000FFF738FE0198FFF73BFF2846FFF732FE83
:1004F0000E4B186800F0CFFA04460D48FFF72AFEAD
:100500002046FFF72DFF2846FFF724FE0948FFF796
:1005100021FED2E7661F000010000020981F000097
:10052000631F00000C000020D51F00000800002001
:10053000FE1F0000272000000C4608B50448FFF706
:1005400009FE2046FFF706FE0248FFF703FEFEE71E
:1005500050200000631F00004FF0FF3200F108033D
:10056000C0E9022343600361002303607047002356
:100570000361704743689A684B608A605160996074
:100580000368086101330360704730B50C68631C71
:100590000AD103695A684A6091608B6059600368A8
:1005A00008610133036030BD00F108021346526850
:1005B0001568A542FAD9EDE70369D0E901128A600E
:1005C00051605968814208BF5A6000220261186870
:1005D00001381860704710B5044601F00BF8A46BA1
:1005E00001F018F8B4FA84F0400910BD70B5164651
:1005F000026C0446856B42B906689EB9806800F0BB
:100600002FFFA6600135A56370BD6EB9406801F08B
:1006100085F96368226C1344A2686360934224BF27
:10062000236863600020EDE7C06801F077F9226C71
:10063000E36851429B1A2268E36093423EBFA3687D
:100640005B18E360022EEDD10DB1013DEAE72846CB
:10065000D8E703461A6C084610B462B1DC689968A2
:1006600014448C4228BF1968DC6028BFD960D9685F
:1006700010BC01F053B910BC704770B5044600F0CF
:10068000B9FF94F8455004F124066DB2002D01DD48
:10069000636AB3B9FF2384F8453000F0BBFF00F074
:1006A000A9FF94F8445004F110066DB2002D01DD4D
:1006B00023697BB9FF2384F84430BDE8704000F023
:1006C000A9BF304600F0E6FD08B100F073FE013D21
:1006D0006DB2DBE7304600F0DDFD08B100F06AFEE8
:1006E000013D6DB2E2E770B50E46044610B3C06B33
:1006F00000B3236CA3FB0035DDB900F07BFFD4E928
:100700000F314B432268A563D0185B1A62601A440C
:10071000FF23A06084F84430E26084F8453056B18D
:1007200004F11000FFF718FF04F12400FFF714FF95
:1007300012E0002070BD236973B104F1100000F0D5
:10074000A9FD48B14FF0E0234FF08052C3F8042DCB
:10075000BFF34F8FBFF36F8F00F05CFF0120E9E71D
:1007600070B50D46064610B90024204670BDA1FBA9
:100770000023002BF8D1484310F1490FF4D848303A
:1007800000F0B6FF04460028EED04DB100F148035A
:1007900001212046C4E90F652360FFF7A4FFE4E7C9
:1007A0000346F5E710B50C4640B1884206D3022255
:1007B0000021FFF7D5FF00B1846310BD0020FCE7E6
:1007C000F8B5164604461A46EFF311874FF040037A
:1007D00083F31188BFF36F8FBFF34F8F806BE36B91
:1007E000984201D3022A1FD194F8455020466DB299
:1007F000A36BFFF7FBFE6B1C0DD1636A3BB104F1E9
:10080000240000F047FD10B10EB101233360012038
:1008100087F31188F8BD00F05FFB8542F7D2013500
:100820006DB284F84550F2E70020F1E7F8B50446D0
:100830000E46EFF311874FF0400383F31188BFF3A7
:100840006F8FBFF34F8F836BC26B9A421CD990F8A6
:1008500045200133FF2A55B283630CD1436A33B17B
:10086000243000F017FD10B10EB1012333600120D8
:1008700087F31188F8BD00F02FFB8542F7D20135D0
:100880006DB284F84550F2E70020F1E72DE9FF4111
:10089000002704460E46B846019200F0ABFEA56B59
:1008A000E5B131462046FFF7D4FE2369013DA5633B
:1008B00073B104F1100000F0EDFC48B14FF0E023FB
:1008C0004FF08052C3F8042DBFF34F8FBFF36F8FEB
:1008D00000F0A0FE012004B0BDE8F081019B1BB92F
:1008E00000F098FE0020F6E717B902A800F02EFDF0
:1008F00000F090FE00F0E8FA00F07CFE94F844303E
:10090000FF2B08BF84F8448094F84530FF2B08BFC4
:1009100084F8458000F07EFE01A902A800F022FDC7
:1009200000BB2046FFF757FEB0B1019904F1240047
:1009300000F0A0FC2046FFF7A0FE00F08FFB48B9B6
:100940004FF0E0234FF08052C3F8042DBFF34F8FD8
:10095000BFF36F8F0127A0E72046FFF78EFE00F060
:100960007DFBF7E72046FFF788FE00F077FB204687
:10097000FFF731FE0028EDD0B4E7F0B500250446BE
:100980002F462E4685B0019100F034FEA36BE3B1F3
:10099000013BA363236813B900F0DEFDA060236967
:1009A00073B104F1100000F075FC48B14FF0E02382
:1009B0004FF08052C3F8042DBFF34F8FBFF36F8FFA
:1009C00000F028FE012005B0F0BD019B1BB900F02E
:1009D00021FE0020F7E717B902A800F0B7FC00F0ED
:1009E00019FE00F071FA00F005FE94F84430FF2B78
:1009F00008BF84F8446094F84530FF2B08BF84F8A2
:100A0000456000F007FE01A902A800F0ABFC50BB56
:100A10002046FFF7E0FD00B323683BB900F0EAFD94
:100A2000A06800F0CDFC054600F0F4FD019904F14A
:100A3000240000F01FFC2046FFF71FFE00F00EFB15
:100A400048B94FF0E0234FF08052C3F8042DBFF3B4
:100A50004F8FBFF36F8F012796E72046FFF70DFEFC
:100A600000F0FCFAF7E72046FFF707FE00F0F6FA81
:100A70002046FFF7B0FD0028EDD0002DA9D000F0F2
:100A8000B9FD616A19B1236B1968C1F10601A0684B
:100A900000F020FD9BE710B5044600F0ABFDA46B11
:100AA00000F0B8FD204610BD2DE9F843224B234C41
:100AB0001D68234B0646D3F80080224B0F46D3F81F
:100AC000009020680430FFF777FD40B922681E4986
:100AD000D06A01220B68824023EA02030B60731C78
:100AE00014D19FB1194B21685A688A6090682168B7
:100AF000C860216804314160216804319160226836
:100B000053611A6801321A60BDE8F88323682168CE
:100B1000AD195D6001F1040104D34846BDE8F84316
:100B2000FFF733BD4046FFF730FD094B1A68AA4274
:100B300088BF1D60E8E700BF3800002028010020C2
:100B400084000020800000203400002040000020AD
:100B50001C000020064A13681968064B19B94FF0AB
:100B6000FF321A6070471268D2681268F9E700BF56
:100B7000840000201C000020F8B50E4C0E4F0F4ED4
:100B8000236803B9F8BD00F035FDFB68DD68281D5A
:100B9000FFF712FD3368013B33602368013B23609C
:100BA00000F038FD286B00F01FFE284600F01CFE08
:100BB000E6E700BF54000020580000203C00002061
:100BC00008B5FFF7D9FFFCE72DE9F0479600074687
:100BD00030460D469846DDF8249000F089FD8246A7
:100BE00018B94FF0FF30BDE8F087502000F080FDCD
:100BF0000446002800F093805022002100F03EFEC1
:100C00003246A5215046C4F830A000F037FE236BD1
:100C1000043E1E4426F007066DB16B1E04F133023C
:100C20000B3513F8011F02F8011F09B1AB42F8D1CF
:100C3000002384F83F30089D04F1040A052D28BFE5
:100C400005255046E5622564FFF791FCC5F10605D0
:100C500004F11800FFF78BFC424639463046246108
:100C6000A561646200F0A2FC2060B9F1000F01D020
:100C7000C9F8004000F0BEFC364B374E1A68374FBB
:100C800001321A603568002D4DD134601B68012B8C
:100C90001FD1B84640460135FFF75EFC062D08F12E
:100CA0001408F7D1DFF8B8802E4D4046FFF754FC0A
:100CB0002846FFF751FC2C48FFF74EFC2B48FFF766
:100CC0004BFC2B48FFF748FC2A4BC3F800802A4B0B
:100CD0001D602A4A2A4913680868013313600122FB
:100CE000E36A9A4002430A6014225343F9184A689F
:100CF0009068A260E060C0F804A0C2F808A0FA58AA
:100D000061610132FA5000F085FC1E4B1B6823B173
:100D10003368DA6AE36A9A4210D3012063E75046E7
:100D200000F062FD5DE7174B1A68E36A002AD0D134
:100D30003268D26A9A4298BF3460CAE74FF0E02323
:100D40004FF08052C3F8042DBFF34F8FBFF36F8F66
:100D5000E3E700BF3C00002028010020B000002095
:100D60009C000020880000206C000020580000201B
:100D7000400000208400002080000020200000208F
:100D80003400002030000020F8B50446274D00F064
:100D900031FC04B92C68261D3046FFF70DFC60B904
:100DA0001423E06A224A4343D35833B9012221492C
:100DB00082400B6823EA02030B60A36A1BB104F1B3
:100DC0001800FFF7F9FB1C4A1C4F1368013313602E
:100DD0002B683A68DAB1A34219D131461848FFF7B7
:100DE000C9FB184A13680133136000F013FC3B6819
:100DF00063B12B68A34209D14FF0E0234FF080523A
:100E0000C3F8042DBFF34F8FBFF36F8FF8BD0E4AA9
:100E10001368013B1360FFF79DFE00F0FBFB206BA6
:100E200000F0E2FC204600F0DFFCE0E728010020B3
:100E3000B0000020340000202000002030000020FE
:100E400058000020540000203C000020002310B572
:100E5000164A86B0CDE90333059303AB12F8014B74
:100E600003F8014B002CF9D1114B5A22CDE9004374
:100E70001048234603A9FFF7A7FE012811D14FF020
:100E8000400383F31188BFF36F8FBFF34F8F4FF091
:100E9000FF32094B1A60094B1860094B1C6000F0C7
:100EA00007FC084B1B6806B010BD00BF692000009E
:100EB00018000020C10B00001C00002030000020A2
:100EC0003800002070200000024A136801331360CC
:100ED000704700BF14000020014B1868704700BF26
:100EE0003C0000202DE9F84F514B1B68002B40F0CF
:100EF0009880504B1C6801341C605CB94E4A4F4BC3
:100F00001168186810604E4A196013680133136045
:100F1000FFF720FE4B4D00202B684B4A9C42DFF828
:100F20002CC10FD21421DCF80030DB6A4B43D358BC
:100F3000022B474B28BF01201B68002B18BF012044
:100F4000BDE8F88F3C4F434E3B681B681BB94FF020
:100F5000FF332B60E6E73B68DB68DB6859688C424F
:100F600001D22960DEE7D3F81480D3E90219C1F871
:100F70000890C9F80410D8F8041003F1040E714564
:100F80004FF0000108BFC8F804905961D8F800106C
:100F90000139C8F80010D3F82880B8F1000F15D037
:100FA000D3E90719C1F80890C9F80410D8F804105B
:100FB00003F1180A51454FF0000108BFC8F804902A
:100FC0009962D8F800100139C8F800104FF00108F4
:100FD000D96AD6F8009008FA01F848EA0908C6F874
:100FE00000804FF0140808FB01F802EB080ADAF859
:100FF0000490D9F808B0C3F80890C3F80CB0CBF847
:1010000004E0C9F808E0C3F814A052F8083001332E
:1010100042F80830DCF80030DB6A994288BF0120D2
:1010200092E70D4A002013680133136088E700BF80
:1010300014000020380000208400002080000020E0
:10104000240000201C000020B00000202801002007
:1010500028000020340000202C0000202DE9F84F4B
:1010600000F0C8FA484B1A68013A1A601B682BB1A5
:10107000002400F0CFFA2046BDE8F88F434A1268FA
:10108000002AF5D0012514264148424C424A434FDC
:10109000DFF80CC153E0C368DB68D3F828E0D3E97C
:1010A0000718C1F80880C8F80410DEF8041003F12E
:1010B000180949454FF0000108BFCEF80480996235
:1010C000DEF800100139CEF80010D3F814E0D3E9AF
:1010D0000218C1F80880C8F80410DEF8041003F103
:1010E00004094945DEF8001008BFCEF80480013934
:1010F000CEF80010D3F82CE0D4F8008005FA0EF1F9
:1011000041EA080106FB0EF802EB080A2160DAF852
:101110000410D1F808B09960C3F80CB0CBF8049073
:10112000C1F8089052F80810C3F814A0013142F831
:1011300008103968C96A8E4501D9CCF80050016899
:101140000029A8D10BB1FFF705FD164D2C6844B15D
:101150000127134EFFF7C6FE00B13760013CF9D1FD
:101160002C600F4B1B68002B82D00C4B4FF0805231
:101170001B684FF0E023C3F8042DBFF34F8FBFF37C
:101180006F8F012475E700BF140000203C00002091
:101190006C00002034000020B00000202801002056
:1011A000280000202C00002008B550B94FF0E023A3
:1011B0004FF08052C3F8042DBFF34F8FBFF36F8FF2
:1011C00008BD0021FFF780FEFFF76EFCFFF746FF2A
:1011D0000028EBD0F4E70000214B70B51A68214BD2
:1011E00012B101221A6070BD1F4C1A602368216879
:1011F00022680968126B1B6B91420FD91A68B2F111
:10120000A53F0BD15A68B2F1A53F07D19A68B2F158
:10121000A53F03D1DB68B3F1A53F04D02168206866
:101220003431FFF789F9114B1B68B3FA83F31425A6
:10123000DBB2C3F11F0305FB03F20D4988184668B2
:10124000083276680A44964205FB031108BFC2685B
:10125000466008BF42604B68DB6823602368C2E7D2
:101260001400002028000020280100203400002065
:10127000B000002010B50C46054B19681831FFF777
:1012800084F92046BDE810400121FFF70DBC00BFE6
:1012900028010020C368F0B5DB689A6AD3E907012A
:1012A00081604860506803F11804A04208BF516093
:1012B000002199621168013911601E4AD96A1268C9
:1012C000002A2AD1D3E902405A69A06044605468D8
:1012D0001D1DAC4208BF506010680138106001222B
:1012E00015488A4004682243026014224A43134886
:1012F00086187468A7689C60DF607D60A5605E6189
:101300008358013383500E4B1B68DB6A994285BFBB
:1013100001200C4B00201860F0BD0B4A5068856816
:10132000D8611D626C6084609A6213680133136037
:10133000E9E700BF1400002034000020B0000020C6
:1013400028010020280000206C000020034B1B68AF
:101350000360034B1B684360704700BF24000020FC
:101360003800002070B50D46044600F043F90F4BDD
:1013700019682B685A1C17D00D48266800686268E7
:10138000864208D08A4206D8002301242B6000F050
:1013900041F9204670BD881A8342F5D95B1A13447F
:1013A00020462B60FFF7D2FF0024F0E73800002032
:1013B000240000200122014B1A6070472800002001
:1013C000F8B50446002837D0224DC36A2A68D26A8D
:1013D000934236D28269204E002AA1BF2A68D26A7F
:1013E000C2F106028261142202FB036342699A423F
:1013F00023D1071D3846FFF7DFF8184930B901221D
:10140000E06A0B68824023EA02030B6001222B682A
:101410000868DB6A9A4002430A601422E36253437D
:10142000F1184A689068A260E06047609760F258DF
:1014300061610132F2500120F8BD2B68DB6AC362A2
:10144000F9E72B68006CDB6A98422CBF0020012072
:10145000F2E700BF28010020B00000203400002087
:10146000F8B5044608B90020F8BD436CC16A026CA7
:10147000013B91424364F6D0002BF4D1051D284670
:10148000FFF79AF8114A30B90121E06A13688140E8
:1014900023EA010313600120236C1668C3F10601DF
:1014A000A16100FA03F1314311601421E3624B435F
:1014B000074AD61871688F68A160E7607D608D600B
:1014C000D15866610144D150CEE700BF34000020FE
:1014D000B0000020F8B50446002837D0036CC76A76
:1014E000994238BF19468F4230D0436C012B2DD121
:1014F0008369174D002B4FF0140303FB0753426918
:10150000C162A4BFC1F1060181619A421ED1061DCC
:101510003046FFF751F80F4928B901220B68BA404D
:1015200023EA02030B600122E36A08689A4002433F
:101530000A6014225343E9184A689068A260E06088
:1015400046609660EA5861610132EA50F8BD00BF1A
:10155000B000002034000020034B186810B1436C29
:1015600001334364704700BF28010020002382B08C
:1015700001934FF0400383F31188BFF36F8FBFF3E4
:101580004F8F019B002BFCD002B0704706480068CB
:10159000006880F3088862B661B6BFF34F8FBFF36F
:1015A0006F8F00DF00BF000008ED00E04FF0807398
:1015B00040F8043C054B21F0010140F8081C40F8BC
:1015C0000C3C40F8202C4038704700BF6D150000DF
:1015D000074B19680868B0E8F00F80F30988BFF37B
:1015E0006F8F4FF0000080F311884EF00D0E7047A2
:1015F000280100204FF0400383F31188BFF36F8F61
:10160000BFF34F8F024A136801331360704700BF66
:1016100000000020034A1368013B13600BB983F3F9
:101620001188704700000020EFF30980BFF36F8F2F
:101630000D4B1A6820E9F00F10602DE908404FF0BB
:10164000400080F31188FFF7C7FD4FF0000080F3E2
:101650001188BDE8084019680868B0E8F00F80F309
:101660000988BFF36F8F70472801002008B54FF03D
:10167000400383F31188BFF36F8FBFF34F8FFFF7E2
:1016800031FC28B14FF0E0234FF08052C3F8042D15
:10169000002383F3118808BD4FF0E02300221A6174
:1016A0009A614CF24F325A6107221A61704700006A
:1016B0004FF0E02310B50024D3F8202D42F47F0230
:1016C000C3F8202DD3F8202D42F07F42C3F8202DFF
:1016D000C3F81C4DFFF7E0FF044B1C60FFF756FFFB
:1016E000FFF77AFDFFF742FF204610BD0000002003
:1016F000F8B5431E0A3363D810F0070300F108045D
:1017000005D0A3F10902A2425AD31030C41A304DB9
:10171000FFF7DAFB2B68F3B92E4A2F4853071FBF98
:10172000D11D21F0070102F54842531A0CBF4FF4B6
:1017300048430A4600211344083B23F00703416055
:101740000260C3E90011991AC2E900312B60234BF2
:101750001960234B1960002C37DD214E3168A142FE
:1017600033D31D4A13685868A04201D21F684FBB8B
:101770002D689D4229D01568D3F800C0001B1028A1
:1017800005F10805C2F800C005D91F1978605C6032
:1017900043F804C0176058680A1A104932600C6890
:1017A00040F00040A24238BF0A6000221A600D4A91
:1017B0005860136801331360FFF750FC2846F8BDEA
:1017C0000024A4E71A463B46CDE70025F4E700BF16
:1017D0003C0100204801002040010020340100208D
:1017E000380100203001002038B5054600283BD0E4
:1017F00050F8043C002B37DA50F8082C002A33D17B
:1018000023F0004340F8043CA0F10804FFF75CFB20
:10181000164A55F8041C13680B441360144B1A46FF
:101820001B689C42FBD850681518AC4202BF144696
:1018300009185160606821188B4213D10D4909685D
:101840008B4203D05968014461601968A24221604B
:1018500018BF1460084A136801331360BDE83840AC
:10186000FFF7FCBB1946F1E738BD00BF3801002087
:10187000400100203C0100202C01002070B58607AB
:1018800047D0541E002A3ED00346CAB201E0013CB4
:1018900039D303F8012B9D07F9D1032C2CD9CDB2F4
:1018A00005EB05250F2C1A4605EB054534D9A4F1A7
:1018B000100C2CF00F0603F1100EB6444FEA1C1C5E
:1018C000C2E90055C2E9025510327245F8D10CF157
:1018D000010214F00C0F03EB021204F00F0C13D0F2
:1018E000ACF1040323F003030433134442F8045B14
:1018F0009342FBD10CF003042CB1C9B21C4403F891
:10190000011BA342FBD170BD64461346002CF4D1E9
:10191000F9E703461446C0E7A446E1E7844641EAF6
:10192000000313F0030349D1403A23D30B6803604B
:101930004B6843608B688360CB68C3600B6903614D
:101940004B6943618B698361CB69C3610B6A036235
:101950004B6A43628B6A8362CB6AC3620B6B03631D
:101960004B6B43638B6B8363CB6BC3634030403102
:10197000403ADBD230320BD30B6803604B684360D4
:101980008B688360CB68C36010301031103AF3D29B
:101990000C3205D351F8043B40F8043B043AF9D229
:1019A000043208D0D2071CBF11F8013B00F8013BFC
:1019B00001D30B8803806046704700BF082A13D309
:1019C0008B07B1D010F00303AED0C3F10403D21AD9
:1019D000DB071CBF11F8013B00F8013BA4D331F831
:1019E000023B20F8023B9FE7043AD9D3013A11F8B1
:1019F000013B00F8013BF9D20B7803704B78437040
:101A00008B788370604670470D0A3D3D3D3D3D3DFE
:101A10003D3D3D3D3D3D3D3D3D3D3D3D3D3D3D3DF6
:101A20003D3D3D3D3D3D3D3D3D3D3D3D3D3D3D3DE6
:101A30003D3D0D0A0020204672656552544F5320EB
:101A4000E4B8ADE696ADE7AEA1E79086E5ADA6E4D5
:101A5000B9A0E7A4BAE4BE8B0D0A00E5ADA6E4B9CF
:101A6000A0E8A681E782B9EFBC9A0D0A00312E20CA
:101A7000E4B8ADE696ADE4BC98E58588E7BAA7E999
:101A8000858DE7BDAEEFBC88636F6E6669674D41BB
:101A9000585F53595343414C4C5F494E5445525241
:101AA0005550545F5052494F52495459EFBC890D1B
:101AB0000A00322E20495352E5AE89E585A84150EF
:101AC00049E79A84E4BDBFE794A8EFBC8846726FEB
:101AD0006D495352E5908EE7BC80EFBC890D0A003A
:101AE000332E20E4BA8CE580BCE4BFA1E58FB7E9D2
:101AF000878F202D20495352E588B0E4BBBBE58A8F
:101B0000A1E5908CE6ADA50D0A00342E20E9989F42
:101B1000E58897202D20495352E588B0E4BBBBE50A
:101B20008AA1E695B0E68DAEE4BCA0E8BE930D0AAE
:101B300000352E20E5BBB6E8BF9FE4B8ADE696AD14
:101B4000E5A484E79086E6A8A1E5BC8F0D0A0036DF
:101B50002E20706F72745949454C445F46524F4D68
:101B60005F4953522829E79A84E4BDBFE794A80D42
:101B70000A002020E4B8ADE696ADE7AEA1E7908676
:101B8000E585B3E994AEE6A682E5BFB5EFBC9A0D54
:101B90000A002D20495352E8A681E5B0BDE58FAF7C
:101BA000E883BDE79FADEFBC8CE58FAAE5819AE5A0
:101BB000BF85E8A681E5B7A5E4BD9C0D0A002D20F0
:101BC000E5A48DE69D82E5A484E79086E5BBB6E8B2
:101BD000BF9FE588B0E4BBBBE58AA1E4B8ADE5AE44
:101BE0008CE688900D0A002D20E4BDBFE794A8463E
:101BF000726F6D495352E78988E69CACE79A84413D
:101C000050490D0A002D20E6B3A8E6848FE4B8AD54
:101C1000E696ADE4BC98E58588E7BAA7E9858DE747
:101C2000BDAE0D0A00E6ADA3E59CA8E5889BE5BB2B
:101C3000BAE5908CE6ADA5E5AFB9E8B1A12E2E2EA0
:101C40000D0A00E99499E8AFAFEFBC9AE5889BE5EF
:101C5000BBBAE4BA8CE580BCE4BFA1E58FB7E987E5
:101C60008FE5A4B1E8B4A5EFBC810D0A0020202DBA
:101C700020E4BA8CE580BCE4BFA1E58FB7E9878F8B
:101C8000E5889BE5BBBAE68890E58A9F0D0A00E9E6
:101C90009499E8AFAFEFBC9AE5889BE5BBBAE998A9
:101CA0009FE58897E5A4B1E8B4A5EFBC810D0A00D3
:101CB00020202D20E9989FE58897E5889BE5BBBA11
:101CC000E68890E58A9F0D0A00E99499E8AFAFEFA6
:101CD000BC9AE5889BE5BBBAE8AEA1E695B0E4BF47
:101CE000A1E58FB7E9878FE5A4B1E8B4A5EFBC8182
:101CF0000D0A0020202D20E8AEA1E695B0E4BFA19A
:101D0000E58FB7E9878FE5889BE5BBBAE68890E564
:101D10008A9F0D0A000D0AE6ADA3E59CA8E5889B05
:101D2000E5BBBAE4BBBBE58AA12E2E2E0D0A004806
:101D3000616E646C65720020202D20E5BBB6E8BFA3
:101D40009FE5A484E79086E4BBBBE58AA1E5889B78
:101D5000E5BBBAEFBC88E4BC98E58588E7BAA73A4A
:101D60002034EFBC890D0A0049535253696D00209D
:101D7000202D20495352E6A8A1E68B9FE599A8E4BF
:101D8000BBBBE58AA1E5889BE5BBBAEFBC88E4BC98
:101D900098E58588E7BAA73A2033EFBC890D0A0099
:101DA000576F726B65720020202D20E5B7A5E4BD4A
:101DB0009CE4BBBBE58AA1E5889BE5BBBAEFBC8888
:101DC000E4BC98E58588E7BAA73A2032EFBC890DD4
:101DD0000A000D0AE68980E69C89E4BBBBE58AA17E
:101DE000E5889BE5BBBAE68890E58A9FEFBC810D4C
:101DF0000A00E590AFE58AA84672656552544F53D4
:101E0000E8B083E5BAA6E599A82E2E2E0D0A00E9C2
:101E10009499E8AFAFEFBC9AE8B083E5BAA6E5992C
:101E2000A8E590AFE58AA8E5A4B1E8B4A5EFBC8128
:101E30000D0A0020205BE5B7A5E4BD9CE4BBBBE533
:101E40008AA15D20E5908EE58FB0E4BBBBE58AA159
:101E5000E590AFE58AA82E2E2E0D0A0020205BE526
:101E6000B7A5E4BD9CE4BBBBE58AA15D20E8BF90BB
:101E7000E8A18CE4B8AD2E2E2E20E5BEAAE78EAFE9
:101E800020230020205B495352E6A8A1E68B9FE562
:101E900099A85D20E4BBBBE58AA1E590AFE58AA8DF
:101EA000EFBC8CE58786E5A487E6A8A1E68B9FE4D6
:101EB000B8ADE696AD2E2E2E0D0A000D0A20205B41
:101EC000495352E6A8A1E68B9FE599A85D20E6A8B4
:101ED000A1E68B9FE4B8ADE696ADE8A7A6E58F91A5
:101EE00020230020205B4953525D20E7BB99E58702
:101EF000BAE4BA8CE580BCE4BFA1E58FB7E9878F6F
:101F00002E2E2E0D0A0020205B4953525D20E58FB6
:101F100091E98081E695B0E68DAEE588B0E9989FBD
:101F2000E588973A20000D0A20205B495352E6A825
:101F3000A1E68B9FE599A85D20E4B8ADE696ADE6F5
:101F4000A8A1E68B9FE5AE8CE68890EFBC8CE7A855
:101F50008BE5BA8FE7BBA7E7BBADE8BF90E8A18CE4
:101F60002E2E2E0D0A0020205BE5BBB6E8BF9FE5B4
:101F7000A484E790865D20E4BBBBE58AA1E590AF31
:101F8000E58AA8EFBC8CE7AD89E5BE85E4B8ADE68F
:101F900096AD2E2E2E0D0A000D0A20205BE5BBB655
:101FA000E8BF9FE5A484E790865D20E694B6E588C7
:101FB000B0E4BFA1E58FB7E9878FEFBC8CE5BC80AB
:101FC000E5A78BE5A484E79086E4B8ADE696AD2E50
:101FD0002E2E0D0A0020205BE5BBB6E8BF9FE5A4CE
:101FE00084E790865D20E4BB8EE9989FE58897E6BC
:101FF00094B6E588B0E695B0E68DAE3A2000202094
:102000005BE5BBB6E8BF9FE5A484E790865D20E56D
:10201000BD93E5898DE7B4AFE8AEA1E4B8ADE6962F
:10202000ADE695B03A200020205BE5BBB6E8BF9F47
:10203000E5A484E790865D20E4B8ADE696ADE5A41E
:1020400084E79086E5AE8CE68890EFBC810D0A00AF
:102050000D0A21212120E6A088E6BAA2E587BAE68A
:10206000A380E6B58BEFBC9A0049444C45000000C4
:0C20700005000000F8B500BFF8B500BF87
:04207C00AAAAAAAAB8
:00000001FF
