:1000000000000120F5000000F1000000F1000000F8
:10001000F1000000F1000000F1000000000000000D
:100020000000000000000000000000006916000051
:10003000F100000000000000C116000005170000DC
:10004000F1000000F1000000F1000000F1000000EC
:10005000F1000000F1000000F1000000F1000000DC
:10006000F1000000F1000000F1000000F1000000CC
:10007000F1000000F1000000F1000000F1000000BC
:10008000F1000000F1000000F1000000F1000000AC
:10009000F1000000F1000000F1000000F10000009C
:1000A000F1000000F1000000F1000000F10000008C
:1000B000F1000000F1000000F1000000F10000007C
:1000C000F1000000F1000000F1000000F10000006C
:1000D000F1000000F1000000F1000000F10000005C
:1000E000F100000000000000F1000000F10000003D
:1000F000FEE7000008B50E4B0E48DA1C121AC11EAE
:1001000022F00302994288BF00220B4901F052FC01
:100110000A4B0B48DA1C121AC11E22F00302994244
:1001200088BF0022002101F0F5FB00F0C3FAFEE7D2
:1001300004000020000000208C25000040C90020A1
:1001400004000020024B9A699206FCD418607047A4
:1001500000C0004008B5411E11F8010F00B908BDEC
:10016000FFF7F0FFF8E7F0B585B028B9302005B00B
:10017000BDE8F040FFF7E6BF6A46002316460A24B2
:10018000B0FBF4F5074604FB1501092F01F130011E
:1001900002F8011B2846194603F1010302D90F2B6F
:1001A000EED10E21705CFFF7CDFF0139FAD205B018
:1001B000F0BD00002DE9F0410F460446002848D06C
:1001C00001F040F98046204601F04BF906462046F2
:1001D00001F006FA0546204601F008FA04461E48DA
:1001E000FFF7B8FF3846FFF7B5FF1C48FFF7B2FF2F
:1001F0001B48FFF7AFFF4046FFF7B5FF1948FFF771
:10020000A9FF1948FFF7A6FF3046FFF7ACFF174FCD
:10021000174E1448FFF79EFF1648FFF79BFF012D6E
:1002200014BF38463046FFF795FF1348FFF792FF9B
:100230001248FFF78FFF012C14BF38463046FFF7F6
:1002400089FF0D48FFF786FFBDE8F0410C48FFF736
:1002500081BFBDE8F08100BFA81A0000B61A0000F7
:10026000CB1A0000DA1A0000E41A0000A41A0000F9
:10027000A01A0000F31A00003B1B0000021B000044
:10028000111B0000F8B51748FFF764FF0025164F53
:10029000164E3846FFF75EFF01351548FFF75AFF47
:1002A0002846FFF760FF1348FFF754FF64231D2221
:1002B0001149306801F0D7F8044688B10F48FFF7BC
:1002C00049FF2046FFF74FFF0D48FFF743FF306817
:1002D0000C49FFF76FFF4FF47A7000F03DFED8E74E
:1002E0000948F2E73E1B0000641B000008000020E4
:1002F000781B00007D1B0000821B0000A01B00007B
:10030000DA1A0000F61B0000BD1B000070B517488C
:1003100090B0FFF71FFF164D164E4FF4FA633F22C1
:100320006946286801F00AF90446E8B1002200F1A4
:1003300040036B44104803F8402CFFF70BFF68465E
:10034000FFF708FF0D48FFF705FF2046FFF70BFFFB
:100350000B48FFF7FFFE28680A49FFF72BFF4FF411
:100360007A7000F0F9FDD8E73046F2E7061C00008D
:1003700008000020551C00002C1C0000471C000039
:100380004A1C0000F61B0000F8B51048FFF7E2FE1B
:1003900000240F4E0F4F104D30460134FFF7DAFEA8
:1003A0002046FFF7E0FE3846FFF7D4FE28680B49E9
:1003B000FFF700FF0A4B186810B10A49FFF7FAFE71
:1003C0004FF4FA6000F0C8FDE6E700BF721C0000C1
:1003D000941C0000301D000008000020F61B0000E7
:1003E00004000020BA1C00002DE9F0478A48A2B0A2
:1003F000FFF7B0FE8948FFF7ADFE002308211A463B
:100400004FF48070009300F0D6FF854C05462060C5
:10041000002836D08348FFF79DFE8348FFF79AFEF9
:100420004FF48070FFF79FFE8048FFF793FE08208F
:10043000FFF799FE7E48FFF78DFE28467D49FFF7BE
:10044000B9FE4FF47A7000F087FD4FF000097A4E44
:100450007A4FDFF8EC813046FFF77CFE09F10200AD
:10046000FFF781FE384609F10105FFF773FEB9F188
:10047000070F00F2C980DFE809F006233A547488B8
:10048000A8BF7048D7E77048FFF764FE00231D221D
:100490006E49206800F0E7FF40B16D48FFF75AFE53
:1004A0006A48FFF757FE6B48FFF754FE6149206822
:1004B000FFF780FE4FF4FA6000F04EFDA946CAE750
:1004C0006548FFF747FE00237F22206802A901F05C
:1004D00035F80028EAD000F188030DEB0300002373
:1004E00000F8803C5D48FFF735FE02A8D9E75C487C
:1004F000FFF730FE002305225A49206800F0B3FFC1
:100500005948FFF727FE5948FFF724FE4FF4FA73C6
:100510007F22206802A901F011F80028C6D15448B2
:10052000C2E75448FFF716FE00230522524920680F
:1005300000F099FF5148FFF70DFE5148FFF70AFE02
:1005400000237F22206802A900F0F8FF0028ADD028
:1005500000F188030DEB0300002300F8803C4948BC
:10056000C1E74948FFF7F6FD0023452247492068C7
:1005700000F079FF8146002898D04548FFF7EAFD52
:100580004846FFF7F0FD2A488EE74248FFF7E2FDB4
:10059000DFF804A1DFF8BC9000231022206802A934
:1005A00000F0CCFF002881D000F188030DEB0300A0
:1005B000002300F8803C5046FFF7CCFD02A8FFF76F
:1005C000C9FD4846FFF7C6FDE6E73448FFF7C2FD20
:1005D0003348FFF7BFFD4FF00A09DFF8C8A000233A
:1005E0000A225146206800F03EFF08B92E485BE71A
:1005F000B9F10109F3D159E74046FFF7ABFD206897
:1006000000F0FFFE29484FE72948FFF7A3FD42F21B
:10061000107000F0A1FCFAE7CD1C0000F81C0000EF
:10062000040000203E1D0000701D0000801D000021
:10063000DA1A0000BA1C0000B81D0000301D0000CE
:100640003A210000921D0000D31D0000821B000013
:10065000071E00003B1B0000211E0000431E00007F
:100660005A1E0000911E0000971E0000D11E0000BF
:10067000141F0000521F0000831F0000891F00008C
:10068000CA1F0000E31F0000FD1F00002220000021
:10069000682000007E200000A3200000B62000009B
:1006A000DE200000002100000B2100005621000088
:1006B00079210000002407B55448FFF74BFD54484A
:1006C000FFF748FD5348FFF745FD5148FFF742FD4E
:1006D0004E48FFF73FFD5048FFF73CFD4F48FFF7FE
:1006E00039FD4F48FFF736FD4E48FFF733FD4E48C2
:1006F000FFF730FD4D48FFF72DFD4D48FFF72AFD70
:100700004248FFF727FD4248FFF724FD4948FFF71D
:1007100021FD3F48FFF71EFD4748FFF71BFD4748F7
:10072000FFF718FD4648FFF715FD4648FFF712FD95
:100730004548FFF70FFD4548FFF70CFD4448FFF71C
:1007400009FD3348FFF706FD3048FFF703FD414838
:10075000FFF700FD2346224601214020009400F0CF
:100760002AFE3D4B186000284CD002253B48FFF77D
:10077000F1FC3B48FFF7EEFC4020FFF7F4FC394862
:10078000FFF7E8FC0120FFF7EEFC3748FFF7E2FC3B
:100790003648FFF7DFFC23464FF480723449354872
:1007A0000194009500F050F923464FF480723249CD
:1007B000CDE90054314800F047F901234FF480722D
:1007C0002F4900932F482346019400F03DF923461A
:1007D0004FF4C0722C49CDE900542C4800F034F994
:1007E0002B48FFF7B7FC0948FFF7B4FC2948FFF78F
:1007F000B1FC0648FFF7AEFC00F006FA2648FFF70A
:10080000A9FCFEE72548FFF7A5FCFEE73B1B00001F
:10081000A4210000CB210000F121000003220000F0
:100820002D2200005122000076220000C02200008C
:10083000DF220000FD2200001B2300004E230000E9
:1008400079230000AC230000E32300001324000000
:100850004824000078240000080000209C240000A8
:10086000771D0000801D0000DA1A0000C42400007B
:10087000DE24000085020000E72400000D030000D4
:10088000F024000089030000F8240000E9030000C0
:10089000012500001F2500003C250000991D0000D7
:1008A0000C4608B50448FFF755FC2046FFF752FCFC
:1008B0000248FFF74FFCFEE7602500003B1B0000ED
:1008C0004FF0FF3200F10803C0E9022343600361E7
:1008D00000230360704700230361704730B50C6844
:1008E000631C0AD103695A684A6091608B60596041
:1008F000036808610133036030BD00F1080213464C
:1009000052681568A542FAD9EDE70369D0E90112EA
:100910008A6051605968814208BF5A6000220261B2
:1009200018680138186070472DE9F843224B234CB2
:100930001D68234B0646D3F80080224B0F46D3F8A0
:10094000009020680430FFF7E0FF40B922681E499C
:10095000D06A01220B68824023EA02030B60731CF9
:1009600014D19FB1194B21685A688A609068216838
:10097000C8602168043141602168043191602268B7
:1009800053611A6801321A60BDE8F8832368216850
:10099000AD195D6001F1040104D34846BDE8F84398
:1009A000FFF79CBF4046FFF799FF094B1A68AA4220
:1009B00088BF1D60E8E700BF300000202001002054
:1009C0007C000020780000202C000020380000204F
:1009D00014000020064A13681968064B19B94FF035
:1009E000FF321A6070471268D2681268F9E700BFD8
:1009F0007C00002014000020F8B50E4C0E4F0F4E66
:100A0000236803B9F8BD00F041FEFB68DD68281DCE
:100A1000FFF77BFF3368013B33602368013B2360B2
:100A200000F044FE286B00F02BFF284600F028FF62
:100A3000E6E700BF4C0000205000002034000020FA
:100A400008B5FFF7D9FFFCE72DE9F0479600074608
:100A500030460D469846DDF8249000F095FE82461B
:100A600018B94FF0FF30BDE8F087502000F08CFE41
:100A70000446002800F093805022002100F04AFF35
:100A80003246A5215046C4F830A000F043FF236B46
:100A9000043E1E4426F007066DB16B1E04F13302BE
:100AA0000B3513F8011F02F8011F09B1AB42F8D151
:100AB000002384F83F30089D04F1040A052D28BF67
:100AC00005255046E5622564FFF705FFC5F10605DB
:100AD00004F11800FFF7FFFE424639463046246114
:100AE000A561646200F0AEFD2060B9F1000F01D095
:100AF000C9F8004000F0CAFD364B374E1A68374F30
:100B000001321A603568002D4DD134601B68012B0D
:100B10001FD1B84640460135FFF7D2FE062D08F139
:100B20001408F7D1DFF8B8802E4D4046FFF7C8FE15
:100B30002846FFF7C5FE2C48FFF7C2FE2B48FFF7FB
:100B4000BFFE2B48FFF7BCFE2A4BC3F800802A4BA0
:100B50001D602A4A2A49136808680133136001227C
:100B6000E36A9A4002430A6014225343F9184A6820
:100B70009068A260E060C0F804A0C2F808A0FA582B
:100B800061610132FA5000F091FD1E4B1B6823B1E8
:100B90003368DA6AE36A9A4210D3012063E7504669
:100BA00000F06EFE5DE7174B1A68E36A002AD0D1A9
:100BB0003268D26A9A4298BF3460CAE74FF0E023A5
:100BC0004FF08052C3F8042DBFF34F8FBFF36F8FE8
:100BD000E3E700BF3400002020010020A80000202F
:100BE00094000020800000206400002050000020BD
:100BF000380000207C000020780000201800002031
:100C00002C00002028000020002310B5164A86B0D2
:100C1000CDE90333059303AB12F8014B03F8014B05
:100C2000002CF9D1114B5A22CDE90043104823463C
:100C300003A9FFF709FF012811D14FF0400383F307
:100C40001188BFF36F8FBFF34F8F4FF0FF32094B07
:100C50001A60094B1860094B1C6000F075FD084BC9
:100C60001B6806B010BD00BF7925000010000020F1
:100C7000410A00001400002028000020300000205D
:100C800080250000024A136801331360704700BFDB
:100C90000C0000202DE9F84F514B1B68002B40F051
:100CA0009880504B1C6801341C605CB94E4A4F4B15
:100CB0001168186810604E4A196013680133136098
:100CC000FFF788FE4B4D00202B684B4A9C42DFF813
:100CD0002CC10FD21421DCF80030DB6A4B43D3580F
:100CE000022B474B28BF01201B68002B18BF012097
:100CF000BDE8F88F3C4F434E3B681B681BB94FF073
:100D0000FF332B60E6E73B68DB68DB6859688C42A1
:100D100001D22960DEE7D3F81480D3E90219C1F8C3
:100D20000890C9F80410D8F8041003F1040E7145B6
:100D30004FF0000108BFC8F804905961D8F80010BE
:100D40000139C8F80010D3F82880B8F1000F15D089
:100D5000D3E90719C1F80890C9F80410D8F80410AD
:100D600003F1180A51454FF0000108BFC8F804907C
:100D70009962D8F800100139C8F800104FF0010846
:100D8000D96AD6F8009008FA01F848EA0908C6F8C6
:100D900000804FF0140808FB01F802EB080ADAF8AB
:100DA0000490D9F808B0C3F80890C3F80CB0CBF899
:100DB00004E0C9F808E0C3F814A052F80830013381
:100DC00042F80830DCF80030DB6A994288BF012025
:100DD00092E70D4A002013680133136088E700BFD3
:100DE0000C000020300000207C0000207800002053
:100DF0001C00002014000020A8000020200100207A
:100E0000200000202C000020240000202DE9F84FB5
:100E100000F03CFC484B1A68013A1A601B682BB181
:100E2000002400F043FC2046BDE8F88F434A1268D6
:100E3000002AF5D0012514264148424C424A434F2E
:100E4000DFF80CC153E0C368DB68D3F828E0D3E9CE
:100E50000718C1F80880C8F80410DEF8041003F180
:100E6000180949454FF0000108BFCEF80480996287
:100E7000DEF800100139CEF80010D3F814E0D3E901
:100E80000218C1F80880C8F80410DEF8041003F155
:100E900004094945DEF8001008BFCEF80480013986
:100EA000CEF80010D3F82CE0D4F8008005FA0EF14B
:100EB00041EA080106FB0EF802EB080A2160DAF8A5
:100EC0000410D1F808B09960C3F80CB0CBF80490C6
:100ED000C1F8089052F80810C3F814A0013142F884
:100EE00008103968C96A8E4501D9CCF800500168EC
:100EF0000029A8D10BB1FFF76DFD164D2C6844B148
:100F00000127134EFFF7C6FE00B13760013CF9D14F
:100F10002C600F4B1B68002B82D00C4B4FF0805283
:100F20001B684FF0E023C3F8042DBFF34F8FBFF3CE
:100F30006F8F012475E700BF0C00002034000020F3
:100F4000640000202C000020A800002020010020C8
:100F5000200000202400002008B550B94FF0E02305
:100F60004FF08052C3F8042DBFF34F8FBFF36F8F44
:100F700008BD0021FFF786FEFFF7D6FCFFF746FF0E
:100F80000028EBD0F4E70000214B70B51A68214B24
:100F900012B101221A6070BD1F4C1A6023682168CB
:100FA00022680968126B1B6B91420FD91A68B2F163
:100FB000A53F0BD15A68B2F1A53F07D19A68B2F1AB
:100FC000A53F03D1DB68B3F1A53F04D021682068B9
:100FD0003431FFF765FC114B1B68B3FA83F314251A
:100FE000DBB2C3F11F0305FB03F20D498818466805
:100FF000083276680A44964205FB031108BFC268AE
:10100000466008BF42604B68DB6823602368C2E724
:101010000C00002020000020200100202C000020D7
:10102000A800002010B5044600F030FB044B1B68FC
:101030002360044B1B686360BDE8104000F036BBC2
:101040001C00002030000020034B1B680360034B92
:101050001B684360704700BF1C0000203000002068
:1010600070B50D46044600F011FB0F4B19682B6854
:101070005A1C17D00D48266800686268864208D05E
:101080008A4206D8002301242B6000F00FFB204683
:1010900070BD881A8342F5D95B1A134420462B6031
:1010A000FFF7D2FF0024F0E7300000201C000020F2
:1010B000014B1868704700BF200100202DE9F8435C
:1010C000304D1F462B680446034493F84C300E46BF
:1010D000022B9046DDF820901DD0B9F1000F1AD0F8
:1010E000FFF7D0FD00F0D2FA2B68234493F84C3080
:1010F000022B33D100F0DAFA0026FFF787FE56B153
:1011000048B94FF0E0234FF08052C3F8042DBFF3ED
:101110004F8FBFF36F8F00F0B9FA2FB12B6804F136
:10112000120253F822303B602B68234493F84C3072
:10113000022B01BF2B68012603EB84039A6C12BFBC
:10114000002622EA08029A6400222B68234483F8CE
:101150004C2000F0ABFA3046BDE8F8832B6803EB77
:1011600084039A6C22EA060201269A642B682344BF
:1011700083F84C6000F09AFA31464846FFF7D4FBFA
:10118000BBE700BF200100202DE9F041DDF8188009
:1011900005460C4617461E4600F078FAB8F1000FD7
:1011A00005D004F1120355F82330C8F800300222AC
:1011B0002B1993F84C1083F84C20731EC9B2032BE3
:1011C00008D8DFE803F00240474505EB8404A36C30
:1011D0003B43A364012930D1D5E902126B698A60CF
:1011E000516059682C1DA14208BF5A601A681C49F9
:1011F000013A1A600123EA6A0868934003430B60CE
:10120000142353431749CE1870688768A860EF60AD
:101210007C608460C8586E610130C850124B1B68F6
:10122000DB6A9A4209D94FF0E0234FF08052C3F8AD
:10123000042DBFF34F8FBFF36F8F012400F036FAF8
:101240002046BDE8F08105EB8404A36C0133C0E7C0
:10125000022903D0123445F82470BBE70024EDE7DF
:101260002C000020A80000202001002038B50D46E9
:10127000044608B9084B1C6800F008FA00202C440A
:1012800094F84C30022B0ABF84F84C000446012429
:1012900000F00CFA204638BD200100208268436827
:1012A00000681344181A824298BF801A70472DE9CB
:1012B000F04185681746ED1A954228BF1546064647
:1012C00080692A46184488461C4600F073FBAF42EA
:1012D00005D9B0697A1B08EB050100F06BFBB36818
:1012E000E019834298BFC01ABDE8F08173B50E467D
:1012F000017F1446C9071A460546436813D5069967
:1013000001948A4213D304220DEB0201FFF7CFFFB1
:1013100003462CB1224631462846FFF7C8FF6860D5
:10132000204602B070BD944228BF1446F1E7002465
:10133000F6E72DE9F04185688846ED1A954228BF09
:1013400015461746816906462A46404619441C46FA
:1013500000F030FBAF4205D9B1697A1B08EB0500FC
:1013600000F028FBB368E019834298BFC01ABDE8BB
:10137000F081F7B51646027F1C46D20705460F4698
:1013800003680BD504220DEB0201FFF7D2FF019A8F
:10139000034696422CBF16460026043CB44228BFA2
:1013A00034462CB1224639462846FFF7C2FF286052
:1013B000204603B0F0BD012AF8B506460F461CD002
:1013C000931E5A425A41950016F1260F17D806F17E
:1013D000250000F0D9F9044668B12422002100F06C
:1013E00099FA012F38BF012704F124030136A361C4
:1013F000A660E76025772046F8BD1546E4E700249F
:10140000F9E72DE9F041044600F040F92069A8B958
:101410006169A9B9D4E90276D4F81880257F2046FD
:10142000242200F077FAC4E90276C4F81880257700
:10143000012400F03BF92046BDE8F0810024F8E7E4
:101440000446F6E730B582680468036841680568B9
:10145000A542F9D1D0180138401A824298BF801AAB
:1014600030BDFFF71BBF2DE9F043164687B0027F62
:1014700003938368D2070446884603F1FF332AD5D5
:10148000371DBB422BD2002303932046FFF7DAFF20
:1014900005462B463246414620460097FFF726FF79
:1014A0000546A0B12046FFF7F9FEE36898420ED347
:1014B000FFF7E8FB236943B1002620690096334615
:1014C0003246216AFFF760FE2661FFF79FFC28463F
:1014D00007B0BDE8F083B34228BF33461F46039BE5
:1014E000002BD2D004A8FFF79DFD4FF0000900F0BB
:1014F000CDF82046FFF7A6FF874205461BD9216A93
:101500000020FFF7B3FEFFF7D3FD606100F0CEF8D7
:10151000039B00930023206A19461A46FFF7CEFD6D
:10152000C4F8149003A904A8FFF79AFD0028DED0A0
:10153000002DAAD0ADE700F0B9F8F9E72DE9F7439F
:10154000067F9946F30704460F46904628D416F0C6
:10155000040600D0C668B9F1000F36D000F096F846
:101560002046FFF79BFE864205461BD200F09EF800
:101570002B46424639462046FFF7FBFE054650B350
:10158000FFF780FB636943B100266069009633462C
:101590003246216AFFF7F8FD6661FFF737FC1BE072
:1015A0000426D8E7216A0020FFF760FEFFF780FDE0
:1015B000206100F07BF80023CDF800901A46194610
:1015C000206AFFF77BFD002323612046FFF766FEBC
:1015D000B0420546CCD80025284603B0BDE8F083CC
:1015E00003684068C31A58425841704710B5047FD9
:1015F000FFF728FF04F00104A400A0428CBF0020E4
:10160000012010BD002382B001934FF0400383F30B
:101610001188BFF36F8FBFF34F8F019B002BFCD05E
:1016200002B0704706480068006880F3088862B618
:1016300061B6BFF34F8FBFF36F8F00DF00BF0000B5
:1016400008ED00E04FF0807340F8043C054B21F0BA
:10165000010140F8081C40F80C3C40F8202C4038B0
:10166000704700BF05160000074B19680868B0E80E
:10167000F00F80F30988BFF36F8F4FF0000080F305
:1016800011884EF00D0E7047200100204FF04003EE
:1016900083F31188BFF36F8FBFF34F8F024A136834
:1016A00001331360704700BF00000020034A136835
:1016B000013B13600BB983F31188704700000020D1
:1016C000EFF30980BFF36F8F0D4B1A6820E9F00F1D
:1016D00010602DE908404FF0400080F31188FFF7BB
:1016E00053FC4FF0000080F31188BDE808401968F2
:1016F0000868B0E8F00F80F30988BFF36F8F704778
:101700002001002008B54FF0400383F31188BFF398
:101710006F8FBFF34F8FFFF7BDFA28B14FF0E02373
:101720004FF08052C3F8042D002383F3118808BDC5
:101730004FF0E02300221A619A614CF24F325A6155
:1017400007221A61704700004FF0E02310B5002413
:10175000D3F8202D42F47F02C3F8202DD3F8202D9A
:1017600042F07F42C3F8202DC3F81C4DFFF7E0FF85
:10177000044B1C60FFF756FFFFF706FCFFF742FF24
:10178000204610BD00000020F8B5431E0A3363D880
:1017900010F0070300F1080405D0A3F10902A242EA
:1017A0005AD31030C41A304DFFF76CFA2B68F3B9D6
:1017B0002E4A2F4853071FBFD11D21F0070102F504
:1017C0004842531A0CBF4FF448430A4600211344C1
:1017D000083B23F0070341600260C3E90011991A36
:1017E000C2E900312B60234B1960234B1960002C98
:1017F00037DD214E3168A14233D31D4A1368586842
:10180000A04201D21F684FBB2D689D4229D01568A8
:10181000D3F800C0001B102805F10805C2F800C06D
:1018200005D91F1978605C6043F804C017605868D8
:101830000A1A104932600C6840F00040A24238BFDA
:101840000A6000221A600D4A586013680133136061
:10185000FFF7DCFA2846F8BD0024A4E71A463B4609
:10186000CDE70025F4E700BF34010020400100204F
:10187000380100202C010020300100202801002028
:1018800038B5054600283BD050F8043C002B37DA29
:1018900050F8082C002A33D123F0004340F8043CD0
:1018A000A0F10804FFF7EEF9164A55F8041C136876
:1018B0000B441360144B1A461B689C42FBD85068BB
:1018C0001518AC4202BF144609185160606821180F
:1018D0008B4213D10D4909688B4203D059680144EA
:1018E00061601968A242216018BF1460084A136839
:1018F00001331360BDE83840FFF788BA1946F1E7B5
:1019000038BD00BF30010020380100203401002024
:101910002401002070B5860747D0541E002A3ED00F
:101920000346CAB201E0013C39D303F8012B9D07FD
:10193000F9D1032C2CD9CDB205EB05250F2C1A4675
:1019400005EB054534D9A4F1100C2CF00F0603F17A
:10195000100EB6444FEA1C1CC2E90055C2E90255FC
:1019600010327245F8D10CF1010214F00C0F03EBA8
:10197000021204F00F0C13D0ACF1040323F00303A4
:101980000433134442F8045B9342FBD10CF003048C
:101990002CB1C9B21C4403F8011BA342FBD170BD9A
:1019A00064461346002CF4D1F9E703461446C0E719
:1019B000A446E1E7844641EA000313F0030349D15A
:1019C000403A23D30B6803604B6843608B688360A5
:1019D000CB68C3600B6903614B6943618B698361A9
:1019E000CB69C3610B6A03624B6A43628B6A836291
:1019F000CB6AC3620B6B03634B6B43638B6B836379
:101A0000CB6BC36340304031403ADBD230320BD332
:101A10000B6803604B6843608B688360CB68C3606E
:101A200010301031103AF3D20C3205D351F8043B88
:101A300040F8043B043AF9D2043208D0D2071CBF64
:101A400011F8013B00F8013B01D30B88038060468D
:101A5000704700BF082A13D38B07B1D010F00303DF
:101A6000AED0C3F10403D21ADB071CBF11F8013B4F
:101A700000F8013BA4D331F8023B20F8023B9FE77A
:101A8000043AD9D3013A11F8013B00F8013BF9D2ED
:101A90000B7803704B7843708B7883706046704787
:101AA000E698AF00E590A6000D0A2D2D2D2D2D2DC9
:101AB0002D2D2D2D200020E78AB6E68081202D2DAA
:101AC0002D2D2D2D2D2D2D2D0D0A00E58FAFE794F9
:101AD000A8E7A9BAE997B43A200020E5AD97E88ACB
:101AE000820D0A00E5B7B2E794A8E695B0E68DAEA0
:101AF0003A2000E698AFE590A6E4B8BAE7A9BA3A6A
:101B00002000E698AFE590A6E5B7B2E6BBA13A2083
:101B1000002D2D2D2D2D2D2D2D2D2D2D2D2D2D2D22
:101B20002D2D2D2D2D2D2D2D2D2D2D2D2D2D2D2DE5
:101B30002D2D2D2D2D2D2D2D2D0D0A0D0A005B5037
:101B4000726F64756365725D20E7949FE4BAA7E8DD
:101B50008085E4BBBBE58AA1E590AFE58AA8EFBC30
:101B6000810D0A005B50726F64756365725D20E5DC
:101B70008F91E980813A20004D736723003A200D50
:101B80000A0048656C6C6F204672656552544F536D
:101B90002053747265616D2042756666657221001E
:101BA0005B50726F64756365725D20E29C9320E602
:101BB0008890E58A9FE58F91E9808120005B5072D3
:101BC0006F64756365725D20E29C9720E58F91E9F3
:101BD0008081E5A4B1E8B4A5EFBC88E7BC93E586B5
:101BE000B2E58CBAE58FAFE883BDE5B7B2E6BBA13D
:101BF000EFBC890D0A00E59FBAE7A180E7BC93E539
:101C000086B2E58CBA005B436F6E73756D65725D6D
:101C100020E6B688E8B4B9E88085E4BBBBE58AA1D4
:101C2000E590AFE58AA8EFBC810D0A005B436F6EBB
:101C300073756D65725D20E29C9320E68EA5E69437
:101C4000B6E588B03A200020280020E5AD97E88A64
:101C500082290D0A005B436F6E73756D65725D209E
:101C6000E7AD89E5BE85E695B0E68DAE2E2E2E0D4C
:101C70000A005B4D6F6E69746F725D20E79B91E6A1
:101C80008EA7E4BBBBE58AA1E590AFE58AA8EFBCCF
:101C9000810D0A000D0A5B4D6F6E69746F725D20D5
:101CA0003D3D3D3D3D3D3D3D3D3D20E79B91E68E2B
:101CB000A7E591A8E69C9F202300E5A4A7E695B0A0
:101CC000E68DAEE7BC93E586B2E58CBA005B446571
:101CD0006D6F5D20E6B581E7BC93E586B2E58CBA11
:101CE000E6BC94E7A4BAE4BBBBE58AA1E590AFE506
:101CF0008AA8EFBC810D0A000D0A5B44656D6F5D1B
:101D0000203D3D3D3D3D3D3D3D3D3D20E6ADA5E910
:101D1000AAA4313A20E5889BE5BBBAE5A4A7E695DD
:101D2000B0E68DAEE6B581E7BC93E586B2E58CBA48
:101D3000203D3D3D3D3D3D3D3D3D3D0D0A005B446B
:101D4000656D6F5D20E29C9320E5A4A7E695B0E663
:101D50008DAEE6B581E7BC93E586B2E58CBAE58841
:101D60009BE5BBBAE68890E58A9FEFBC810D0A002F
:101D70005B44656D6F5D20E5A4A7E5B08F3A200058
:101D800020E5AD97E88A822C20E6B0B4E7BABF3AE6
:101D900020005B44656D6F5D20E29C9720E7BC935B
:101DA000E586B2E58CBAE5889BE5BBBAE5A4B1E867
:101DB000B4A5EFBC810D0A000D0A5B44656D6F5D33
:101DC000203D3D3D3D3D3D3D3D3D3D20E6ADA5E950
:101DD000AAA4005B44656D6F5D20E58F91E9808169
:101DE000E79FADE5AD97E7ACA6E4B8B2E588B0E50E
:101DF000A4A7E695B0E68DAEE7BC93E586B2E58C88
:101E0000BA2E2E2E0D0A005B44656D6F5D20E29C9C
:101E10009320E58F91E98081E68890E58A9F3A20BA
:101E2000005B44656D6F5D20E68EA5E694B6E5B96E
:101E3000B6E68993E58DB0E695B0E68DAE2E2E2EF2
:101E40000D0A005B44656D6F5D20E29C9320E68E79
:101E5000A5E694B6E588B03A20005B44656D6F5DF9
:101E600020E6B58BE8AF95E6B0B4E7BABFE69CBA1A
:101E7000E588B6202D20E58588E58F91E98081E50C
:101E8000B091E9878FE695B0E68DAE2E2E2E0D0A25
:101E9000003132333435005B44656D6F5D20E5B74A
:101EA000B2E58F91E98081203520E5AD97E88A82FF
:101EB000EFBC88E6B0B4E7BABFE8AEBEE7BDAEE4BB
:101EC000B8BA203820E5AD97E88A82EFBC890D0AC0
:101ED000005B44656D6F5D20E5B09DE8AF95E68ED3
:101EE000A5E694B6EFBC88E5BA94E8AFA5E8B68558
:101EF000E697B6EFBC8CE59BA0E4B8BAE69CAAE8EE
:101F0000BEBEE588B0E6B0B4E7BABFEFBC892E2EFE
:101F10002E0D0A005B44656D6F5D20E29C9320E608
:101F20008EA5E694B6E8B685E697B6EFBC88E7AC32
:101F3000A6E59088E9A284E69C9F202D20E69CAA35
:101F4000E8BEBEE588B0E6B0B4E7BABFEFBC890D25
:101F50000A005B44656D6F5D20E5868DE58F91E934
:101F60008081E4B880E4BA9BE695B0E68DAEE4BB30
:101F7000A5E8BEBEE588B0E6B0B4E7BABF2E2E2E07
:101F80000D0A003637383930005B44656D6F5D20CF
:101F9000E78EB0E59CA8E7BC93E586B2E58CBAE68F
:101FA0009C8920313020E5AD97E88A82EFBC88E833
:101FB000B685E8BF87E6B0B4E7BABF203820E5AD04
:101FC00097E88A82EFBC890D0A005B44656D6F5DFE
:101FD00020E5868DE6ACA1E68EA5E694B62E2E2EE3
:101FE0000D0A005B44656D6F5D20E29C9320E688DE
:101FF00090E58A9FE68EA5E694B63A20005B44659C
:102000006D6F5D20E58F91E98081E995BFE5AD9722
:10201000E7ACA6E4B8B2E6B58BE8AF952E2E2E0D50
:102020000A00546869732069732061206C6F6E67C1
:102030006572207465737420737472696E6720749E
:102040006F2064656D6F6E73747261746520737454
:102050007265616D20627566666572206F7065726B
:102060006174696F6E732E005B44656D6F5D20E275
:102070009C9320E58F91E98081E4BA8620005B443F
:10208000656D6F5D20E58886E59D97E68EA5E694F3
:10209000B6E995BFE5AD97E7ACA6E4B8B22E2E2E13
:1020A0000D0A005B44656D6F5D20E59D97E68EA58A
:1020B000E694B63A20005B44656D6F5D20E6BC9403
:1020C000E7A4BAE7BC93E586B2E58CBAE6BBA1E724
:1020D0009A84E68385E586B52E2E2E0D0A005B4494
:1020E000656D6F5D20E5BFABE9809FE5A1ABE58540
:1020F00085E7BC93E586B2E58CBA2E2E2E0D0A003C
:102100004142434445464748494A005B44656D6F38
:102110005D20E29C9320E7BC93E586B2E58CBAE5AE
:10212000B7B2E6BBA1EFBC88E7ACA6E59088E9A210
:1021300084E69C9FEFBC890D0A005B44656D6F5D72
:1021400020E6B885E7A9BAE7BC93E586B2E58CBA84
:102150002E2E2E0D0A005B44656D6F5D20E29C9370
:1021600020E7BC93E586B2E58CBAE5B7B2E9878D86
:10217000E7BDAEEFBC810D0A005B44656D6F5D206D
:10218000E6BC94E7A4BAE5AE8CE68890EFBC81E8A3
:10219000BF9BE585A5E7A9BAE997B2E5BEAAE78E98
:1021A000AF0D0A003D3D3D3D3D3D3D3D3D3D3D3D8D
:1021B0003D3D3D3D3D3D3D3D3D3D3D3D3D3D3D3D4F
:1021C0003D3D3D3D3D3D3D3D0D0A002020467265B3
:1021D0006552544F5320E6B581E7BC93E586B2E5DE
:1021E0008CBAE5ADA6E4B9A0E7A4BAE4BE8B0D0AAB
:1021F00000E5ADA6E4B9A0E8A681E782B9EFBC9AF4
:102200000D0A00312E20E6B581E7BC93E586B2E5E4
:102210008CBAE79A84E6A682E5BFB5E5928CE5B76D
:10222000A5E4BD9CE58E9FE790860D0A00322E2026
:10223000E6B581E7BC93E586B2E58CBAE4B88EE9F1
:10224000989FE58897E79A84E58CBAE588AB0D0AF4
:1022500000332E20E6B0B4E7BABFEFBC88547269F1
:1022600067676572204C6576656CEFBC89E69CBA41
:10227000E588B60D0A00342E207853747265616DBE
:102280004275666665724372656174652829202F00
:10229000207853747265616D427566666572536528
:1022A0006E642829202F207853747265616D427501
:1022B000666665725265636569766528290D0A0050
:1022C000352E20E7949FE4BAA7E880852DE6B688EE
:1022D000E8B4B9E88085E6A8A1E59E8B0D0A003632
:1022E0002E20E6B581E7BC93E586B2E58CBAE78A95
:1022F000B6E68081E69FA5E8AFA20D0A002020E6A1
:10230000B581E7BC93E586B2E58CBA20767320E907
:10231000989FE58897EFBC9A0D0A00E789B9E68097
:10232000A72020202020202020202020202020E95D
:10233000989FE5889720202020202020202020E63C
:10234000B581E7BC93E586B2E58CBA0D0A002D2D68
:102350002D2D2D2D2D2D2D2D2D2D2D2D2D2D2D2DAD
:102360002D2D2D2D2D2D2D2D2D2D2D2D2D2D2D2D9D
:102370002D2D2D2D2D2D0D0A00E695B0E68DAEE705
:10238000BB93E69E8420202020202020202020E7D0
:10239000A6BBE695A3E9A1B920202020202020207B
:1023A000E5AD97E88A82E6B5810D0A00E694B6E5C8
:1023B0008F91E58D95E4BD8D2020202020202020C8
:1023C0002020E59BBAE5AE9AE5A4A7E5B08F2020D2
:1023D00020202020E58FAFE58F98E5A4A7E5B08FFA
:1023E0000D0A00E6B0B4E7BABFE69CBAE588B620AD
:1023F000202020202020202020E29C9720E697A06B
:10240000202020202020202020E29C9320E69C8970
:102410000D0A00E98082E794A8E59CBAE699AF200E
:10242000202020202020202020E7BB93E69E84E56A
:102430008C96E695B0E68DAE20202020E6B581E6AC
:1024400095B0E68DAE0D0A00E4B8ADE696ADE5AE0A
:1024500089E585A820202020202020202020E29C23
:102460009320E698AF202020202020202020E29CEE
:102470009320E698AF0D0A00E6ADA3E59CA8E58899
:102480009BE5BBBAE59FBAE7A180E6B581E7BC93BF
:10249000E586B2E58CBA2E2E2E0D0A00E29C932022
:1024A000E59FBAE7A180E6B581E7BC93E586B2E592
:1024B0008CBAE5889BE5BBBAE68890E58A9FEFBCBD
:1024C000810D0A000D0AE6ADA3E59CA8E5889BE511
:1024D000BBBAE4BBBBE58AA12E2E2E0D0A005072BA
:1024E0006F647563657200436F6E73756D6572001E
:1024F0004D6F6E69746F720044656D6F5461736BDC
:1025000000E68980E69C89E4BBBBE58AA1E5889B5F
:10251000E5BBBAE68890E58A9FEFBC810D0A00E52D
:1025200090AFE58AA84672656552544F53E8B08370
:10253000E5BAA6E599A82E2E2E0D0A00E99499E891
:10254000AFAFEFBC9AE8B083E5BAA6E599A8E590ED
:10255000AFE58AA8E5A4B1E8B4A5EFBC810D0A00F7
:102560000D0A21212120E6A088E6BAA2E587BAE675
:10257000A380E6B58BEFBC9A0049444C45000000AF
:0C25800005000000F8B500BFF8B500BF72
:04258C00AAAAAAAAA3
:00000001FF
