:1000000000000120F5000000F1000000F1000000F8
:10001000F1000000F1000000F1000000000000000D
:10002000000000000000000000000000650E00005D
:10003000F100000000000000BD0E0000010F0000F4
:10004000F1000000F1000000F1000000F1000000EC
:10005000F1000000F1000000F1000000F1000000DC
:10006000F1000000F1000000F1000000F1000000CC
:10007000F1000000F1000000F1000000F1000000BC
:10008000F1000000F1000000F1000000F1000000AC
:10009000F1000000F1000000F1000000F10000009C
:1000A000F1000000F1000000F1000000F10000008C
:1000B000F1000000F1000000F1000000F10000007C
:1000C000F1000000F1000000F1000000F10000006C
:1000D000F1000000F1000000F1000000F10000005C
:1000E000F100000000000000F1000000F10000003D
:1000F000FEE7000008B50E4B0E48DA1C121AC11EAE
:1001000022F00302994288BF00220B4900F0B4FF9D
:100110000A4B0B48DA1C121AC11E22F00302994244
:1001200088BF0022002100F047FF00F0A7F8FEE79B
:100130004005002000000020A8220000DC0700206D
:10014000400500200346034A106800EB8303136058
:10015000704700BF00000020024B9A699206FCD451
:100160001860704700C0004008B5411E11F8010F2B
:1001700000B908BDFFF7F0FFF8E7000038B5174CED
:10018000174D2046FFF7F0FF2846FFF7EDFF154813
:10019000FFF7EAFF2846FFF7E7FF1348FFF7E4FF02
:1001A0001248FFF7E1FF1248FFF7DEFF2046FFF796
:1001B000DBFF1048FFF7D8FF0F48FFF7D5FF0F48C8
:1001C000FFF7D2FF0E48FFF7CFFF2846FFF7CCFF1F
:1001D0002046BDE83840FFF7C7BF00BF5A1B0000EC
:1001E000C4190000EB190000031A0000291A0000CE
:1001F000511A0000671A0000831A00009F1A0000BD
:10020000BE1A000010B5134C2046FFF7ADFF124890
:10021000FFF7AAFF2046FFF7A7FF1048FFF7A4FF4C
:100220000F48FFF7A1FF0F48FFF79EFF0E48FFF7AB
:100230009BFF0E48FFF798FF0D48FFF795FF0D480D
:10024000FFF792FF2046FFF78FFFBDE810400A48F6
:10025000FFF78ABFC4190000D71A0000F91A00007E
:100260002A1B00005D1B00009D1B0000DF1B00001F
:10027000231C00005F1C00005A1B00000024022504
:1002800007B52C48FFF770FF2B48FFF76DFF2B4891
:10029000FFF76AFF2848FFF767FF2648FFF764FF6C
:1002A0002748FFF761FF2748FFF75EFF2648FFF763
:1002B0005BFF2648FFF758FF2548FFF755FF254805
:1002C000FFF752FF1B48FFF74FFFFFF757FFFFF7FE
:1002D00099FF2148FFF748FF23464FF480721F49DA
:1002E000CDE900541E4800F09DFA23464FF4807279
:1002F0001C49CDE900541C4800F094FA01234FF446
:1003000080721A4900931A482346019400F08AFA31
:100310001848FFF729FF0748FFF726FF1648FFF7A1
:1003200023FF0448FFF720FF00F05CFB1348FFF7B2
:100330001BFFFEE75A1B0000C4190000931C0000BD
:10034000BD1C0000CF1C0000F71C0000181D0000A1
:10035000361D00004E1D00006D1D0000851D0000B3
:10036000CD0300008B1D000045040000911D00001E
:10037000BD0400009A1D0000B81D0000D51D00003E
:10038000F0B585B028B9302005B0BDE8F040FFF7E2
:10039000E3BE6A46002316460A24B0FBF4F507467E
:1003A00004FB1501092F01F1300102F8011B284659
:1003B000194603F1010302D90F2BEED10E21705C17
:1003C000FFF7CAFE0139FAD205B0F0BD08B51548ED
:1003D000FFF7CAFE1448FFF7C7FE962000F0D2FDD3
:1003E000124B04461860C0B11148FFF7BDFE20460D
:1003F000FFF7C6FF0F48FFF7B7FE9622AA21204657
:1004000000F0DAFD01220C4B0C481A70FFF7ACFE2D
:1004100042F2107000F08EFCFAE70948FFF7A4FEE4
:10042000F0E700BFF91D0000141E00004C0500207D
:10043000391E00005A1B0000410500207B1E0000F1
:100440005D1E000008B51548FFF78EFE1448FFF743
:100450008BFEC82000F096FD124B04461860C0B118
:100460001148FFF781FE2046FFF78AFF0F48FFF78C
:100470007BFEC822BB21204600F09EFD01220C4BD2
:100480000C481A70FFF770FE42F2107000F052FC38
:10049000FAE70948FFF768FEF0E700BFA71E000073
:1004A000C21E000048050020E71E00005A1B000085
:1004B00040050020291F00000B1F00002DE9F0411E
:1004C0005348FFF751FE4FF47A7000F033FC0025DB
:1004D000504E514F30460135FFF746FE2846FFF794
:1004E0004FFF3846FFF740FE6B1E042B7BD8DFE83A
:1004F00003F003163C4960004848FFF735FEDFF87B
:100500002081484C98F800302BB123781BB1464825
:10051000FFF72AFE1BE0642000F00CFCF2E74348E2
:10052000FFF722FE642000F02DFD414B04461860C9
:1005300068B14048FFF718FE2046FFF721FF3E480C
:10054000FFF712FE6422CC21204600F035FD4FF467
:10055000FA6000F0EFFB062DBCD13848FFF704FE2F
:1005600042F2107000F0E6FBFAE7354C3548FFF731
:10057000FBFD20680028EAD000F010FD002332487F
:100580002360C5E73148FFF7EFFD502000F0FAFC8B
:100590002B4B044618600028D9D02D48FFF7E4FD06
:1005A0002046FFF7EDFE2448FFF7DEFD5022DD2157
:1005B000CAE7234C2748FFF7D7FD206818B100F0A1
:1005C000EDFC00232360244C206818B100F0E6FC09
:1005D00000232360164C206818B100F0DFFC0023D4
:1005E00023601E4894E71E48FFF7BEFD1D48FFF735
:1005F000BBFD1D48FFF7B8FD1C48FFF7B5FD1C48C3
:10060000FFF7B2FD1B48FFF7AFFD1B4880E700BFB7
:10061000551F00007A1F0000951F0000A31F000057
:100620004105002040050020CD1F0000F61F0000FE
:10063000440500201F2000005A1B00004B22000030
:100640004C050020462000005D2000007B200000BB
:10065000A3200000D020000048050020F220000068
:1006600018210000312100005821000091210000D4
:10067000C7210000EF210000202200000C4608B531
:100680000448FFF771FD2046FFF76EFD0248FFF7B3
:100690006BFDFEE77C2200005A1B00004FF0FF328A
:1006A00000F10803C0E902234360036100230360F3
:1006B000704700230361704730B50C68631C0AD192
:1006C00003695A684A6091608B60596003680861E9
:1006D0000133036030BD00F108021346526815680B
:1006E000A542FAD9EDE70369D0E901128A605160A9
:1006F0005968814208BF5A600022026118680138B7
:10070000186070472DE9F843224B234C1D68234B9A
:100710000646D3F80080224B0F46D3F8009020689D
:100720000430FFF7E0FF40B922681E49D06A012279
:100730000B68824023EA02030B60731C14D19FB143
:10074000194B21685A688A6090682168C8602168DE
:1007500004314160216804319160226853611A6854
:1007600001321A60BDE8F88323682168AD195D6025
:1007700001F1040104D34846BDE8F843FFF79CBFEC
:100780004046FFF799FF094B1A68AA4288BF1D60CF
:10079000E8E700BF7405002064060020C0050020C3
:1007A000BC050020700500207C05002058050020B5
:1007B000064A13681968064B19B94FF0FF321A60E0
:1007C00070471268D2681268F9E700BFC0050020C0
:1007D00058050020F8B50E4C0E4F0F4E236803B994
:1007E000F8BD00F051FBFB68DD68281DFFF77BFFBB
:1007F0003368013B33602368013B236000F054FB06
:10080000286B00F0CBFB284600F0C8FBE6E700BFF2
:1008100090050020940500207805002008B5FFF71A
:10082000D9FFFCE72DE9F0479600074630460D4614
:100830009846DDF8249000F0A5FB824618B94FF0E9
:10084000FF30BDE8F087502000F09CFB04460028F4
:1008500000F093805022002100F0AEFB3246A5212B
:100860005046C4F830A000F0A7FB236B043E1E44A2
:1008700026F007066DB16B1E04F133020B3513F839
:10088000011F02F8011F09B1AB42F8D1002384F81F
:100890003F30089D04F1040A052D28BF0525504668
:1008A000E5622564FFF705FFC5F1060504F11800B0
:1008B000FFF7FFFE4246394630462461A561646277
:1008C00000F0BEFA2060B9F1000F01D0C9F8004075
:1008D00000F0DAFA364B374E1A68374F01321A6099
:1008E0003568002D4DD134601B68012B1FD1B846EF
:1008F00040460135FFF7D2FE062D08F11408F7D166
:10090000DFF8B8802E4D4046FFF7C8FE2846FFF7B7
:10091000C5FE2C48FFF7C2FE2B48FFF7BFFE2B4851
:10092000FFF7BCFE2A4BC3F800802A4B1D602A4A01
:100930002A4913680868013313600122E36A9A4068
:1009400002430A6014225343F9184A689068A2606F
:10095000E060C0F804A0C2F808A0FA586161013252
:10096000FA5000F0A1FA1E4B1B6823B13368DA6A13
:10097000E36A9A4210D3012063E7504600F00EFB71
:100980005DE7174B1A68E36A002AD0D13268D26A51
:100990009A4298BF3460CAE74FF0E0234FF080528C
:1009A000C3F8042DBFF34F8FBFF36F8FE3E700BF92
:1009B0007805002064060020EC050020D805002002
:1009C000C4050020A8050020940500207C05002017
:1009D000C0050020BC0500205C050020700500203B
:1009E0006C050020002310B5164A86B0CDE903330C
:1009F000059303AB12F8014B03F8014B002CF9D11E
:100A0000114B5A22CDE900431048234603A9FFF7B2
:100A100009FF012811D14FF0400383F31188BFF380
:100A20006F8FBFF34F8F4FF0FF32094B1A60094BA6
:100A30001860094B1C6000F085FA084B1B6806B073
:100A400010BD00BF95220000540500201D080000C5
:100A5000580500206C050020740500209C22000031
:100A6000024A136801331360704700BF500500202D
:100A70002DE9F84F514B1B68002B40F09880504BEC
:100A80001C6801341C605CB94E4A4F4B11681868F1
:100A900010604E4A1960136801331360FFF788FE37
:100AA0004B4D00202B684B4A9C42DFF82CC10FD2E3
:100AB0001421DCF80030DB6A4B43D358022B474B40
:100AC00028BF01201B68002B18BF0120BDE8F88F4C
:100AD0003C4F434E3B681B681BB94FF0FF332B6004
:100AE000E6E73B68DB68DB6859688C4201D2296025
:100AF000DEE7D3F81480D3E90219C1F80890C9F8E9
:100B00000410D8F8041003F1040E71454FF00001F1
:100B100008BFC8F804905961D8F800100139C8F826
:100B20000010D3F82880B8F1000F15D0D3E90719C9
:100B3000C1F80890C9F80410D8F8041003F1180A95
:100B400051454FF0000108BFC8F804909962D8F8E9
:100B500000100139C8F800104FF00108D96AD6F822
:100B6000009008FA01F848EA0908C6F800804FF03A
:100B7000140808FB01F802EB080ADAF80490D9F827
:100B800008B0C3F80890C3F80CB0CBF804E0C9F87B
:100B900008E0C3F814A052F80830013342F80830D6
:100BA000DCF80030DB6A994288BF012092E70D4AE9
:100BB000002013680133136088E700BF5005002050
:100BC00074050020C0050020BC0500206005002041
:100BD00058050020EC050020640600206405002074
:100BE00070050020680500202DE9F84F00F04CF951
:100BF000484B1A68013A1A601B682BB1002400F0B8
:100C000053F92046BDE8F88F434A1268002AF5D010
:100C1000012514264148424C424A434FDFF80CC19B
:100C200053E0C368DB68D3F828E0D3E90718C1F8BC
:100C30000880C8F80410DEF8041003F118094945CB
:100C40004FF0000108BFCEF804809962DEF8001072
:100C50000139CEF80010D3F814E0D3E90218C1F836
:100C60000880C8F80410DEF8041003F104094945AF
:100C7000DEF8001008BFCEF804800139CEF800106D
:100C8000D3F82CE0D4F8008005FA0EF141EA08010F
:100C900006FB0EF802EB080A2160DAF80410D1F81E
:100CA00008B09960C3F80CB0CBF80490C1F8089074
:100CB00052F80810C3F814A0013142F8081039683E
:100CC000C96A8E4501D9CCF8005001680029A8D125
:100CD0000BB1FFF76DFD164D2C6844B10127134E83
:100CE000FFF7C6FE00B13760013CF9D12C600F4B15
:100CF0001B68002B82D00C4B4FF080521B684FF0CA
:100D0000E023C3F8042DBFF34F8FBFF36F8F01248F
:100D100075E700BF5005002078050020A8050020D9
:100D200070050020EC05002064060020640500200A
:100D30006805002008B550B94FF0E0234FF080520D
:100D4000C3F8042DBFF34F8FBFF36F8F08BD002191
:100D5000FFF786FEFFF7D6FCFFF746FF0028EBD033
:100D6000F4E70000214B70B51A68214B12B1012243
:100D70001A6070BD1F4C1A602368216822680968D8
:100D8000126B1B6B91420FD91A68B2F1A53F0BD1C0
:100D90005A68B2F1A53F07D19A68B2F1A53F03D1D5
:100DA000DB68B3F1A53F04D0216820683431FFF738
:100DB00065FC114B1B68B3FA83F31425DBB2C3F156
:100DC0001F0305FB03F20D49881846680832766850
:100DD0000A44964205FB031108BFC268466008BF7B
:100DE00042604B68DB6823602368C2E7500500203F
:100DF000640500206406002070050020EC0500203A
:100E0000002382B001934FF0400383F31188BFF3B6
:100E10006F8FBFF34F8F019B002BFCD002B0704748
:100E200006480068006880F3088862B661B6BFF3C0
:100E30004F8FBFF36F8F00DF00BF000008ED00E0B1
:100E40004FF0807340F8043C054B21F0010140F85D
:100E5000081C40F80C3C40F8202C4038704700BF7C
:100E6000010E0000074B19680868B0E8F00F80F326
:100E70000988BFF36F8F4FF0000080F311884EF0A8
:100E80000D0E7047640600204FF0400383F3118875
:100E9000BFF36F8FBFF34F8F024A136801331360A4
:100EA000704700BF04000020034A1368013B136031
:100EB0000BB983F31188704704000020EFF3098019
:100EC000BFF36F8F0D4B1A6820E9F00F10602DE90A
:100ED00008404FF0400080F31188FFF743FF4FF0C8
:100EE000000080F31188BDE8084019680868B0E880
:100EF000F00F80F30988BFF36F8F704764060020FE
:100F000008B54FF0400383F31188BFF36F8FBFF331
:100F10004F8FFFF7ADFD28B14FF0E0234FF0805227
:100F2000C3F8042D002383F3118808BD4FF0E0239C
:100F300000221A619A614CF24F325A6107221A61FB
:100F4000704700004FF0E02310B50024D3F8202DA7
:100F500042F47F02C3F8202DD3F8202D42F07F42C7
:100F6000C3F8202DC3F81C4DFFF7E0FF044B1C60B5
:100F7000FFF756FFFFF7F6FEFFF742FF204610BDD2
:100F80000400002010B50446FFF76AFD204600F07B
:100F900063F80446FFF728FE204610BD10B504464E
:100FA00040B1FFF75DFD204600F05EF8BDE810405F
:100FB000FFF71ABE10BD000070B5860747D0541E5B
:100FC000002A3ED00346CAB201E0013C39D303F8FF
:100FD000012B9D07F9D1032C2CD9CDB205EB0525AA
:100FE0000F2C1A4605EB054534D9A4F1100C2CF052
:100FF0000F0603F1100EB6444FEA1C1CC2E900555F
:10100000C2E9025510327245F8D10CF1010214F018
:101010000C0F03EB021204F00F0C13D0ACF104031D
:1010200023F003030433134442F8045B9342FBD1DF
:101030000CF003042CB1C9B21C4403F8011BA342F9
:10104000FBD170BD64461346002CF4D1F9E703468A
:101050001446C0E7A446E1E7024B0146186800F0D9
:1010600081B800BF08000020024B0146186800F05C
:1010700083BB00BF08000020844641EA000313F050
:10108000030349D1403A23D30B6803604B684360A4
:101090008B688360CB68C3600B6903614B694361F4
:1010A0008B698361CB69C3610B6A03624B6A4362DC
:1010B0008B6A8362CB6AC3620B6B03634B6B4363C4
:1010C0008B6B8363CB6BC36340304031403ADBD2E0
:1010D00030320BD30B6803604B6843608B688360CE
:1010E000CB68C36010301031103AF3D20C3205D304
:1010F00051F8043B40F8043B043AF9D2043208D0DA
:10110000D2071CBF11F8013B00F8013B01D30B884B
:1011100003806046704700BF082A13D38B07B1D005
:1011200010F00303AED0C3F10403D21ADB071CBFD7
:1011300011F8013B00F8013BA4D331F8023B20F841
:10114000023B9FE7043AD9D3013A11F8013B00F87A
:10115000013BF9D20B7803704B7843708B78837026
:10116000604670472DE9F04F01F10B05162D06463C
:1011700083B024D8102900F2AD8000F007FC1025C0
:1011800018234FF0020CC14F3B445C68A3F10802E6
:10119000944200F0238130466368E268A16823F03E
:1011A0000303CA60234491605A68083442F0010284
:1011B0005A6000F0EDFB204603B0BDE8F08F35F03B
:1011C000070500F18780A94200F2848000F0DEFB71
:1011D000B5F5FC7FC0F06C816B0A7FD0042B00F268
:1011E0002481AB0903F1390C03F1380E4FEACC002E
:1011F000A64F384444680838A04207D10DE0002AC1
:10120000E16880F2E580884207D00C46636823F0ED
:1012100003035A1B0F2AF2DDF446DFF874823C699F
:10122000444500F0C280636823F00309A9EB05037D
:101230000F2B00F34281002BC7E9048880F22C8138
:10124000B9F5007FD7F804E080F0CF8001234FEAA2
:10125000D9014FEA5919194403FA09F357F8312013
:101260004EEA030E07EBC103083BA260E360C7F838
:1012700004E047F83140D46001204FEAAC039840C5
:10128000704532D810EA0E0F07D12CF0030C400045
:1012900010EA0E0F0CF1040CF9D007EBCC0AD6467D
:1012A000E146DEF80C300BE059681C4621F00301E2
:1012B0004A1B0F2ADB6800F3C580002A80F2D98020
:1012C0009E45F1D109F1010919F0030F0EF1080E45
:1012D000E7D11CE10C23336000246CE74FF400706D
:1012E0004FF0400C4FF03F0E82E7BC68636823F07C
:1012F0000309A94503D3A9EB05030F2B58DCDFF83D
:1013000094B104EB0903DBF800200820103202EB53
:101310000508009300F02CFBD7F8081402460131B1
:1013200005D008F1FF388044414201EA08084146EF
:101330003046009200F02EFBB0F1FF3F8246009A4B
:1013400000F0D68004EB0903834200F2CF80DBF883
:10135000041002F1FF3C41440846CBF8041040F071
:10136000F3801AEA0C0F40F0EF80D7F808A0C844C9
:1013700048F00100CAF804005446DBF82C208A42E9
:10138000DBF8302038BFCBF82C108A4238BFCBF8BE
:10139000301020F00308A845A8EB050301D30F2B5C
:1013A00006DC304600F0F4FA96E7D7F804E063E78D
:1013B000621943F0010345F0010565603046BA60EB
:1013C0000834536000F0E4FA204603B0BDE8F08F23
:1013D000A2683046D16023448A60E5E6DC68A34217
:1013E0007FF4D9AE0CF1020C17E7B9F5206F4FEA84
:1013F000592274D3142A00F2078102F15C03DB0046
:101400005B32F918FB580839994203D1E4E09B6834
:10141000994204D05A6822F003024A45F7D8D968A5
:10142000C4E902318C60DC6026E7142B63D9542BAD
:1014300000F2F3802B0B03F16F0C03F16E0E4FEAF9
:10144000CC00D5E6D4F808C03046661945F0010551
:101450006560CCF80C30C3F808C042F00103C7E95E
:101460000466C6E902887360625000F091FA08349D
:10147000A1E621444A68304642F001024A6054F82D
:10148000082FD3609A6000F083FA94E630010020C0
:101490003801002068060020A144D9F80430304605
:1014A00043F00103C9F8043000F072FA083482E610
:1014B0004FEAD50C05F1080365E6621943F0010116
:1014C00045F0010565603046C7E90422C2E902889B
:1014D000516044F8093000F05BFA08346BE64FEADB
:1014E000991202F13903DB0038328AE7BC4224D07A
:1014F000BC6860684DE703F15C0C03F15B0E4FEADA
:10150000CC0075E65AF80839534540F0D6801CF0F7
:10151000030F0CF1FF3CF5D17B6823EA00037B60ED
:10152000400098423FF6E1AE18B9DEE6400009F10E
:1015300004091842FAD0CC46AFE6DBF8040002F109
:10154000FF3C4044CBF80400D7F8081401316FD0B9
:1015500004EB0903AAEB03031844CBF804001AF0C8
:101560000703009341D0C3F108018A44D0440A44E0
:1015700008EA0C01521A02EA0C013046019100F00F
:1015800009FA421C71D00199A0EB0A0000EB010896
:10159000DBF8042048F001001144BC42C7F808A061
:1015A000CBF80410CAF804003FF4E6AEB9F10F0F0F
:1015B00041D905236268A9F10C0020F0070002F070
:1015C0000102024362600F2804EB0002C2E901330A
:1015D00053D8DAF80400CFE60120921000FA02F2A4
:1015E0004EEA020EC7F804E01AE70AEB080101EA26
:1015F0000C01521A02EA0C013046019100F0CAF9BE
:10160000431CC0D10099C3E7542A18D84FEA1932B5
:1016100002F16F03DB006E32F3E6B3F5AA7F18D850
:10162000EB0B03F1780C03F1770E4FEACC00DFE50A
:10163000C7F808A493E70123CAF80430B1E6B2F56D
:10164000AA7F24D84FEAD93202F17803DB0077323F
:10165000D7E640F25452934224D8AB0C03F17D0CF0
:1016600003F17C0E4FEACC00C2E5009B0021A3F100
:1016700008029044A8EB0A088AE704F10801304602
:1016800000F07AF8DBF80410D7F808A0A1E740F2E0
:1016900054539A420DD84FEA994202F17D03DB0080
:1016A0007C32AEE64FF47E704FF07F0C4FF07E0E32
:1016B0009EE54FF47E737E22A3E67B6830E700BF91
:1016C0002DE9F84306460820894600F051F9054601
:1016D000DFF89880304600F059F9D8F808305F6894
:1016E00027F00307A7F11104A4EB09042C44B4FB71
:1016F000F5F4013C05FB04F4A54208DC002130466A
:1017000000F048F9D8F808303B44984205D03046FC
:1017100000F03EF90020BDE8F8833046614200F059
:1017200039F901300FD0124AD8F808303F1B47F082
:1017300001075F60136830461B1B136000F028F937
:101740000120BDE8F8830021304600F023F9D8F8E5
:101750000820831A0F2BDADD43F001035360054B99
:1017600003491B68C01A0860D1E700BF30010020A0
:101770006C0600203805002000297CD0F8B50C4606
:10178000064600F003F954F8043C764FA4F108052E
:1017900023F001016818D7F808C04268844522F098
:1017A000030200F08380DB07426000EB020C33D4BD
:1017B00054F8084CDCF804302D1B2144AC6807F1C8
:1017C000080C644503F0010364D0D5F80CE0C4F8BC
:1017D0000CE0CEF80840002B00F0818041F00103BE
:1017E0006B600160B1F5007F22D20122CB0849096C
:1017F0008A40796801330A437A6057F8331007EB5F
:10180000C302083AC5E9021247F83350CD603046AA
:10181000BDE8F84000F0BCB8DCF80430DB072BD59D
:1018200041F00103B1F5007F44F8043C0160DCD3D2
:10183000B1F5206F4FEA512353D28B0903F13900E0
:1018400003F13802C300F818FB580838984203D156
:1018500061E09B68984204D05A6822F003028A42F1
:10186000F7D8D868C5E9023085603046DD60BDE84C
:10187000F84000F08DB87047114407F1080C8368F8
:1018800063453FD0C268DA60936041F001036B604A
:101890006950A7E7002B5FD10A44D0E90213CB605F
:1018A000996042F001036B60AA50B0E70A44D9077F
:1018B00007D454F8083CED1A1A44D5E90213CB605A
:1018C000996042F001036B60274BBD601B68934237
:1018D0009DD8264B30461968FFF7F2FE97E7114472
:1018E000CDE7142B08D9542B1DD80B0B03F16F0037
:1018F00003F16E02C300A6E703F15C0003F15B0293
:10190000C300A0E741F00103C7E90455C5E902CCD3
:101910006B6069507BE70121921001FA02F279684D
:101920000A437A609EE7B3F5AA7F06D8CB0B03F192
:10193000780003F17702C30085E740F254529342E6
:1019400006D88B0C03F17D0003F17C02C3007AE71B
:101950004FF47E737E2276E741F001036B600160F5
:1019600055E700BF300100203C050020680600203C
:10197000082802D14FF48050704708B500F01CF8D9
:10198000162203464FF0FF301A6008BD704700BFB3
:10199000704700BF002238B5064D044608462A604D
:1019A000FEF7D0FB431C00D038BD2B68002BFBD0CA
:1019B000236038BDD8070020014B1868704700BF6E
:1019C000080000203D3D3D3D3D3D3D3D3D3D3D3D13
:1019D0003D3D3D3D3D3D3D3D3D3D3D3D3D3D3D3D37
:1019E0003D3D3D3D3D3D3D3D0D0A0020206865618A
:1019F000705F3320E79A84E789B9E782B9EFBC9A30
:101A00000D0A00E29C9320E6A087E58786E5BA935D
:101A1000206D616C6C6F632F6672656520E58C8547
:101A2000E8A385E599A80D0A00E29C9320E7BABFD8
:101A3000E7A88BE5AE89E585A8EFBC88E68C82E84F
:101A4000B5B7E8B083E5BAA6E599A8EFBC890D0A59
:101A500000E29C9320E5AE9EE78EB0E69C80E7AE68
:101A600080E58D950D0A00E29C9720E689A7E8A104
:101A70008CE697B6E997B4E4B88DE7A1AEE5AE9AE7
:101A80000D0A00E29C9720E4B88DE68F90E4BE9B9F
:101A9000E58685E5AD98E7BB9FE8AEA10D0A00E2BB
:101AA0009C9720E4BE9DE8B596E993BEE68EA5E539
:101AB00099A8E9858DE7BDAEE5A0860D0A00E29CF8
:101AC0009720E69588E78E87E79BB8E5AFB9E8BE33
:101AD00083E4BD8E0D0A002020686561705F3320AD
:101AE000E4B88E20686561705F312F3220E5AFB9B0
:101AF000E6AF94EFBC9A0D0A00E789B9E680A7200B
:101B0000202020202020202020686561705F312067
:101B10002020202020686561705F32202020202056
:101B200020686561705F330D0A002D2D2D2D2D2D40
:101B30002D2D2D2D2D2D2D2D2D2D2D2D2D2D2D2DD5
:101B40002D2D2D2D2D2D2D2D2D2D2D2D2D2D2D2DC5
:101B50002D2D2D2D2D2D2D2D2D2D0D0A00E58685BC
:101B6000E5AD98E9878AE694BE202020202020E277
:101B70009C9720E4B88DE694AFE68C81202020204D
:101B8000E29C9320E694AFE68C8120202020202048
:101B9000E29C9320E694AFE68C810D0A00E58685F1
:101BA000E5AD98E7BB9FE8AEA1202020202020E2F1
:101BB0009C9320E694AFE68C81202020202020E218
:101BC0009C9320E694AFE68C81202020202020E208
:101BD0009C9720E4B88DE694AFE68C810D0A00E670
:101BE00089A7E8A18CE697B6E997B42020202020A9
:101BF00020E29C9320E7A1AEE5AE9A202020202091
:101C000020E29C9320E79BB8E5AFB9E7A1AEE5AE33
:101C10009A2020E29C9720E4B88DE7A1AEE5AE9A29
:101C20000D0A00E5AE9EE78EB0E696B9E5BC8F20C2
:101C30002020202020E887AAE5AE9EE78EB0202055
:101C400020202020E887AAE5AE9EE78EB020202045
:101C5000202020E6A087E58786E5BA930D0A00E7F5
:101C6000BABFE7A88BE5AE89E585A8202020202013
:101C7000202D20202020202020202020202D20204A
:101C8000202020202020202020E29C9320E698AFD6
:101C90000D0A0020204672656552544F5320686536
:101CA00061705F3320E58685E5AD98E58886E98536
:101CB0008DE599A8E7A4BAE4BE8B0D0A00E5ADA6B0
:101CC000E4B9A0E8A681E782B9EFBC9A0D0A003119
:101CD0002E20686561705F3320E58685E5AD98E567
:101CE0008886E9858DE599A8E5B7A5E4BD9CE58ED4
:101CF0009FE790860D0A00322E207076506F727426
:101D00004D616C6C6F63282920E58886E9858DE537
:101D10008685E5AD980D0A00332E2076506F7274DB
:101D200046726565282920E9878AE694BEE586859E
:101D3000E5AD980D0A00342E20E7BABFE7A88BE581
:101D4000AE89E585A8E5AE9EE78EB00D0A00352E7A
:101D500020686561705F3320E79A84E789B9E7827C
:101D6000B9E5928CE99990E588B60D0A00E6ADA335
:101D7000E59CA8E5889BE5BBBAE4BBBBE58AA12E40
:101D80002E2E0D0A005461736B31005461736B3257
:101D90000044656D6F5461736B00E68980E69C8931
:101DA000E4BBBBE58AA1E5889BE5BBBAE68890E584
:101DB0008A9FEFBC810D0A00E590AFE58AA84672C4
:101DC000656552544F53E8B083E5BAA6E599A82E4D
:101DD0002E2E0D0A00E99499E8AFAFEFBC9AE8B057
:101DE00083E5BAA6E599A8E590AFE58AA8E5A4B190
:101DF000E8B4A5EFBC810D0A005B5461736B315DE3
:101E000020E4BBBBE58AA131E590AFE58AA8EFBC31
:101E1000810D0A005B5461736B315D20E6ADA3E573
:101E20009CA8E58886E9858D2031353020E5AD9781
:101E3000E88A822E2E2E0D0A005B5461736B315D91
:101E400020E29C9320E58886E9858DE68890E58AE6
:101E50009FEFBC81E59CB0E59D803A20005B54611A
:101E6000736B315D20E29C9720E58886E9858DE5DE
:101E7000A4B1E8B4A5EFBC810D0A005B5461736B9B
:101E8000315D20E4BBBBE58AA1E7BB93E69D9FEFF4
:101E9000BC8CE8BF9BE585A5E7A9BAE997B2E5BE8A
:101EA000AAE78EAF0D0A005B5461736B325D20E4CC
:101EB000BBBBE58AA132E590AFE58AA8EFBC810DF6
:101EC0000A005B5461736B325D20E6ADA3E59CA80C
:101ED000E58886E9858D2032303020E5AD97E88AA7
:101EE000822E2E2E0D0A005B5461736B325D20E250
:101EF0009C9320E58886E9858DE68890E58A9FEFAA
:101F0000BC81E59CB0E59D803A20005B5461736B19
:101F1000325D20E29C9720E58886E9858DE5A4B1B5
:101F2000E8B4A5EFBC810D0A005B5461736B325DB0
:101F300020E4BBBBE58AA1E7BB93E69D9FEFBC8C89
:101F4000E8BF9BE585A5E7A9BAE997B2E5BEAAE790
:101F50008EAF0D0A005B44656D6F5D20E58685E5FB
:101F6000AD98E6BC94E7A4BAE4BBBBE58AA1E590D2
:101F7000AFE58AA8EFBC810D0A000D0A5B44656DD0
:101F80006F5D203D3D3D3D3D3D3D3D3D3D20E6AD50
:101F9000A5E9AAA400203D3D3D3D3D3D3D3D3D3DE3
:101FA0000D0A005B44656D6F5D20E7AD89E5BE8578
:101FB000E4BBBBE58AA131E5928CE4BBBBE58AA119
:101FC00032E5AE8CE688902E2E2E0D0A005B44651D
:101FD0006D6F5D20E29C9320E68980E69C89E4BBDE
:101FE000BBE58AA1E58886E9858DE5AE8CE688901B
:101FF000EFBC810D0A005B44656D6F5D20E78EB01C
:10200000E59CA8E58886E9858DE59D97333A2031E2
:10201000303020E5AD97E88A822E2E2E0D0A005B27
:1020200044656D6F5D20E29C9320E59D9733E588C4
:1020300086E9858DE68890E58A9FEFBC81E59CB0B6
:10204000E59D803A20005B44656D6F5D20E9878ADD
:10205000E694BEE59D97312E2E2E0D0A005B446559
:102060006D6F5D20E29C9320E59D9731E5B7B2E965
:10207000878AE694BEEFBC810D0A005B44656D6FF4
:102080005D20E9878DE696B0E58886E9858DE59D3A
:1020900097313A20383020E5AD97E88A822E2E2EEF
:1020A0000D0A005B44656D6F5D20E29C9320E59D09
:1020B0009731E9878DE696B0E58886E9858DE688D3
:1020C00090E58A9FEFBC81E59CB0E59D803A2000B9
:1020D0005B44656D6F5D20E9878AE694BEE6898082
:1020E000E69C89E58685E5AD98E59D972E2E2E0D1B
:1020F0000A005B44656D6F5D20E29C9320E6898059
:10210000E69C89E58685E5AD98E5B7B2E9878AE67C
:1021100094BEEFBC810D0A005B44656D6F5D20E6E7
:10212000BC94E7A4BAE5AE8CE68890EFBC810D0ABA
:10213000000D0A5B44656D6F5D20686561705F33FB
:10214000E5ADA6E4B9A0E8A681E782B9E680BBE7E1
:10215000BB93EFBC9A0D0A005B44656D6F5D203147
:102160002E20686561705F33E698AFE6A087E5874B
:1021700086E5BA936D616C6C6F632F66726565E777
:102180009A84E7AE80E58D95E58C85E8A3850D0AF8
:10219000005B44656D6F5D20322E20E9809AE8BFB8
:1021A00087765461736B53757370656E64416C6CA4
:1021B0002829E4BF9DE8AF81E7BABFE7A88BE5AE69
:1021C00089E585A80D0A005B44656D6F5D20332E9F
:1021D00020E4B88DE68F90E4BE9BE58685E5AD985A
:1021E000E7BB9FE8AEA1E58A9FE883BD0D0A005BCF
:1021F00044656D6F5D20342E20E689A7E8A18CE64A
:1022000097B6E997B4E58F96E586B3E4BA8EE6A073
:1022100087E58786E5BA93E5AE9EE78EB00D0A00A6
:102220005B44656D6F5D20352E20E99C80E8A681BA
:10223000E993BEE68EA5E599A8E9858DE7BDAEE5F3
:10224000A086E58CBAE59F9F0D0A005B44656D6F23
:102250005D20E6BC94E7A4BAE4BBBBE58AA1E7BB7A
:1022600093E69D9FEFBC8CE8BF9BE585A5E7A9BAE7
:10227000E997B2E5BEAAE78EAF0D0A000D0A21214B
:102280002120E6A088E6BAA2E587BAE6A380E6B5F3
:102290008BEFBC9A0049444C45000000050000004B
:0822A000F8B500BFF8B500BF5E
:1022A800DC070020AAAAAAAA10000020000000004B
:1022B800000000009C060020040700206C07002096
:1022C8000000000000000000000000000000000006
:1022D80000000000000000000000000000000000F6
:1022E80000000000000000000000000000000000E6
:1022F80000000000000000000000000000000000D6
:1023080000000000000000000000000000000000C5
:1023180000000000000000000000000000000000B5
:1023280000000000000000000000000000000000A5
:102338000000000000000000000000000000000095
:102348000000000000000000010000000000000084
:102358000E33CDAB34126DE6ECDE05000B00000049
:102368000000000000000000000000000000000065
:102378000000000000000000000000000000000055
:102388000000000000000000000000000000000045
:102398000000000000000000000000000000000035
:1023A8000000000000000000000000000000000025
:1023B8000000000000000000000000000000000015
:1023C8000000000000000000000000000000000005
:1023D8000000000000000000300100203001002053
:1023E8003801002038010020400100204001002071
:1023F8004801002048010020500100205001002021
:1024080058010020580100206001002060010020D0
:102418006801002068010020700100207001002080
:102428007801002078010020800100208001002030
:1024380088010020880100209001002090010020E0
:102448009801002098010020A0010020A001002090
:10245800A8010020A8010020B0010020B001002040
:10246800B8010020B8010020C0010020C0010020F0
:10247800C8010020C8010020D0010020D0010020A0
:10248800D8010020D8010020E0010020E001002050
:10249800E8010020E8010020F0010020F001002000
:1024A800F8010020F80100200002002000020020AE
:1024B800080200200802002010020020100200205C
:1024C800180200201802002020020020200200200C
:1024D80028020020280200203002002030020020BC
:1024E800380200203802002040020020400200206C
:1024F800480200204802002050020020500200201C
:1025080058020020580200206002002060020020CB
:10251800680200206802002070020020700200207B
:10252800780200207802002080020020800200202B
:1025380088020020880200209002002090020020DB
:102548009802002098020020A0020020A00200208B
:10255800A8020020A8020020B0020020B00200203B
:10256800B8020020B8020020C0020020C0020020EB
:10257800C8020020C8020020D0020020D00200209B
:10258800D8020020D8020020E0020020E00200204B
:10259800E8020020E8020020F0020020F0020020FB
:1025A800F8020020F80200200003002000030020A9
:1025B8000803002008030020100300201003002057
:1025C8001803002018030020200300202003002007
:1025D80028030020280300203003002030030020B7
:1025E8003803002038030020400300204003002067
:1025F8004803002048030020500300205003002017
:1026080058030020580300206003002060030020C6
:102618006803002068030020700300207003002076
:102628007803002078030020800300208003002026
:1026380088030020880300209003002090030020D6
:102648009803002098030020A0030020A003002086
:10265800A8030020A8030020B0030020B003002036
:10266800B8030020B8030020C0030020C0030020E6
:10267800C8030020C8030020D0030020D003002096
:10268800D8030020D8030020E0030020E003002046
:10269800E8030020E8030020F0030020F0030020F6
:1026A800F8030020F80300200004002000040020A4
:1026B8000804002008040020100400201004002052
:1026C8001804002018040020200400202004002002
:1026D80028040020280400203004002030040020B2
:1026E8003804002038040020400400204004002062
:1026F8004804002048040020500400205004002012
:1027080058040020580400206004002060040020C1
:102718006804002068040020700400207004002071
:102728007804002078040020800400208004002021
:1027380088040020880400209004002090040020D1
:102748009804002098040020A0040020A004002081
:10275800A8040020A8040020B0040020B004002031
:10276800B8040020B8040020C0040020C0040020E1
:10277800C8040020C8040020D0040020D004002091
:10278800D8040020D8040020E0040020E004002041
:10279800E8040020E8040020F0040020F0040020F1
:1027A800F8040020F804002000050020000500209F
:1027B800080500200805002010050020100500204D
:1027C80018050020180500202005002020050020FD
:1027D8002805002028050020FFFFFFFF0000020059
:00000001FF
