:1000000000000120F5000000F1000000F1000000F8
:10001000F1000000F1000000F1000000000000000D
:10002000000000000000000000000000B517000004
:10003000F1000000000000000D1800005118000041
:10004000F1000000F1000000F1000000F1000000EC
:10005000F1000000F1000000F1000000F1000000DC
:10006000F1000000F1000000F1000000F1000000CC
:10007000F1000000F1000000F1000000F1000000BC
:10008000F1000000F1000000F1000000F1000000AC
:10009000F1000000F1000000F1000000F10000009C
:1000A000F1000000F1000000F1000000F10000008C
:1000B000F1000000F1000000F1000000F10000007C
:1000C000F1000000F1000000F1000000F10000006C
:1000D000F1000000F1000000F1000000F10000005C
:1000E000F100000000000000F1000000F10000003D
:1000F000FEE7000008B50E4B0E48DA1C121AC11EAE
:1001000022F00302994288BF00220B4901F0F8FC5B
:100110000A4B0B48DA1C121AC11E22F00302994244
:1001200088BF0022002101F09BFC00F01DF8FEE7D3
:10013000040000200000002050230000DCC9002043
:1001400004000020024B9A699206FCD418607047A4
:1001500000C0004008B5411E11F8010F00B908BDEC
:10016000FFF7F0FFF8E7000007B54D48FFF7F2FF93
:100170004C48FFF7EFFF4C48FFF7ECFF4948FFF70B
:10018000E9FF4748FFF7E6FF4848FFF7E3FF484825
:10019000FFF7E0FF4748FFF7DDFF4748FFF7DAFFCB
:1001A0004648FFF7D7FF4648FFF7D4FF3C48FFF724
:1001B000D1FF3C48FFF7CEFF4248FFF7CBFF39485D
:1001C000FFF7C8FF4048FFF7C5FF4048FFF7C2FFF1
:1001D0003F48FFF7BFFF3F48FFF7BCFF3048FFF73E
:1001E000B9FF3D48FFF7B6FF3C48FFF7B3FF2D4886
:1001F000FFF7B0FF2A48FFF7ADFF3948FFF7AAFF26
:10020000384B40F6B8310093002337481A4601F0C6
:100210005FFA364B364D009301234FF47A711A463C
:100220002860344801F054FA334C344B206000937A
:10023000012202234FF4FA61314801F049FA314BAF
:1002400018602B6813B1236803B118B92E48FFF763
:1002500081FFFEE72D48FFF77DFF1148FFF77AFF8A
:100260002B48FFF777FF002302222A49CDE900231C
:1002700029484FF4807200F0B1FC2848FFF76AFF6C
:100280000748FFF767FF2648FFF764FF0448FFF7BA
:1002900061FF00F083FD2348FFF75CFFFEE700BF2E
:1002A000AA210000EC1B0000131C0000361C0000FB
:1002B000481C0000691C00008C1C0000AF1C0000E2
:1002C000CA1C0000F11C00000E1D0000331D0000C0
:1002D000551D0000831D0000AE1D0000CD1D000057
:1002E000EC1D000075030000071E0000AD030000B8
:1002F00018000020141E000014000020D903000084
:10030000231E000010000020321E0000561E0000B8
:100310007B1E0000991E000005040000A21E0000C4
:10032000C41E0000E11E0000F0B585B028B93020E1
:1003300005B0BDE8F040FFF705BF6A46002316464A
:100340000A24B0FBF4F5074604FB1501092F01F15F
:10035000300102F8011B2846194603F1010302D9B6
:100360000F2BEED10E21705CFFF7ECFE0139FAD2B3
:1003700005B0F0BD10B5094C09482368013323606E
:10038000FFF7E8FE2068FFF7CFFF0648FFF7E2FE21
:10039000BDE810400448FFF7DDBE00BF0C000020A0
:1003A000051F0000AA210000321F000010B5074CF5
:1003B0000748236801332360FFF7CCFE2068FFF76E
:1003C000B3FFBDE810400348FFF7C4BE080000209B
:1003D0006A1F0000AA21000010B5074C07482368D7
:1003E00001332360FFF7B6FE2068FFF79DFFBDE8ED
:1003F00010400348FFF7AEBE040000209F1F00001E
:10040000AA2100002DE9F3415F48FFF7A3FE4FF456
:100410007A7000F075FE00245C4E5D4F5D4D3046F5
:100420000134FFF797FE2046FFF77EFF3846FFF7BF
:1004300091FE631E052B00F2A480DFE803F0034663
:10044000596C7B8E5448FFF785FE544BD3F80080DF
:1004500000F0EEFC0023024601214046009301F02B
:100460005BF9012802D14E48FFF774FE4D48FFF7B3
:1004700071FE4D48FFF76EFE4C4B1868FFF754FFB6
:100480002846FFF767FE4A48FFF764FE494B1868A5
:10049000FFF74AFF2846FFF75DFE4748FFF75AFE81
:1004A000464B1868FFF740FF2846FFF753FE40F61B
:1004B000B83000F025FE082CB1D14148FFF74AFEC4
:1004C00042F2107000F01CFEFAE73E48FFF742FED1
:1004D0003D4BD3F8008000F0ABFC00230246012125
:1004E0004046009301F018F90128BFD13748BBE717
:1004F0003748FFF72FFE374BD3F8008000F098FC09
:100500000023024601214046009301F005F901282D
:10051000ACD13148A8E73148FFF71CFE00232A4838
:1005200000931A460321006801F0F6F801289DD1D6
:100530002B4899E72B48FFF70DFE184BD3F80080A6
:1005400000F076FC0023024602214046009301F0B1
:10055000E3F801288AD1244886E72448FFF7FAFD0A
:10056000194BD3F8008000F063FC00230246012100
:100570004046009301F0D0F801287FF477AF1C4883
:1005800072E71C4870E700BFD41F0000F31F000093
:100590000E200000A02200001C20000014000020FB
:1005A0004F2000006A220000852200000C0000207D
:1005B000A722000008000020C32200000400002041
:1005C000DF2200007C20000010000020AF2000008F
:1005D000DC20000018000020112100003D21000057
:1005E000602100008A210000AD210000D721000019
:1005F00000220000332200000C4608B50448FFF733
:10060000A9FD2046FFF7A6FD0248FFF7A3FDFEE780
:1006100016230000AA2100004FF0FF3200F108036A
:10062000C0E9022343600361002303607047002395
:100630000361704730B50C68631C0AD103695A68BE
:100640004A6091608B605960036808610133036000
:1006500030BD00F10802134652681568A542FAD968
:10066000EDE70369D0E901128A605160596881425F
:1006700008BF5A600022026118680138186070478C
:1006800010B5044601F0A8F8A46B01F0B5F8B4FA6F
:1006900084F0400910BD70B51646026C0446856BA7
:1006A00042B906689EB9806800F068FEA660013510
:1006B000A56370BD6EB9406801F022FA6368226CD0
:1006C0001344A2686360934224BF236863600020E0
:1006D000EDE7C06801F014FA226CE36851429B1AFE
:1006E0002268E36093423EBFA3685B18E360022E7A
:1006F000EDD10DB1013DEAE72846D8E703461A6C73
:10070000084610B462B1DC68996814448C4228BF72
:100710001968DC6028BFD960D96810BC01F0F0B955
:1007200010BC704770B5044601F056F894F8455077
:1007300004F124066DB2002D01DD636AB3B9FF2315
:1007400084F8453001F058F801F046F894F8445028
:1007500004F110066DB2002D01DD23697BB9FF2382
:1007600084F84430BDE8704001F046B8304600F0EF
:100770005FFD08B100F0ECFD013D6DB2DBE73046F6
:1007800000F056FD08B100F0E3FD013D6DB2E2E777
:1007900070B50E46044610B3C06B00B3236CA3FBC8
:1007A0000035DDB901F018F8D4E90F314B43226868
:1007B000A563D0185B1A62601A44FF23A06084F816
:1007C0004430E26084F8453056B104F11000FFF780
:1007D00023FF04F12400FFF71FFF12E0002070BD8B
:1007E000236973B104F1100000F022FD48B14FF00D
:1007F000E0234FF08052C3F8042DBFF34F8FBFF3B7
:100800006F8F00F0F9FF0120E9E770B50D4606464D
:1008100010B90024204670BDA1FB0023002BF8D1A5
:10082000484310F1490FF4D8483001F053F804461A
:100830000028EED04DB100F1480301212046C4E963
:100840000F652360FFF7A4FFE4E70346F5E72DE912
:10085000FF41002704460E461D46B846019200F0AF
:10086000BBFFA26BE36B9A421BD22A46314620465D
:10087000FFF711FF636A1BB104F1240000F0D8FCFC
:1008800048B14FF0E0234FF08052C3F8042DBFF37E
:100890004F8FBFF36F8F00F0AFFF012004B0BDE8B2
:1008A000F081022DE1D0019B1BB900F0A5FF0020D3
:1008B000F4E717B902A800F017FD00F09DFF00F063
:1008C000AFFA00F089FF94F84430FF2B08BF84F89A
:1008D000448094F84530FF2B08BF84F8458000F031
:1008E0008BFF01A902A800F00BFD38BB00F074FFDC
:1008F000A26BE36B9A420ED100F07EFF019904F1E6
:10090000100000F063FC2046FFF70CFF00F052FBE4
:1009100048B10127A3E700F06FFF2046FFF702FF71
:1009200000F048FBF5E74FF0E0234FF08052C3F8AA
:10093000042DBFF34F8FBFF36F8FEAE72046FFF719
:10094000F1FE00F037FBB2E72DE9FF410027044636
:100950000E46B846019200F03FFFA56BE5B1314667
:100960002046FFF7CBFE2369013DA56373B104F177
:10097000100000F05DFC48B14FF0E0234FF08052D2
:10098000C3F8042DBFF34F8FBFF36F8F00F034FF18
:10099000012004B0BDE8F081019B1BB900F02CFFE1
:1009A0000020F6E717B902A800F09EFC00F024FF33
:1009B00000F036FA00F010FF94F84430FF2B08BF27
:1009C00084F8448094F84530FF2B08BF84F84580B4
:1009D00000F012FF01A902A800F092FC00BB204623
:1009E000FFF74EFEB0B1019904F1240000F0EEFBD8
:1009F0002046FFF797FE00F0DDFA48B94FF0E023FC
:100A00004FF08052C3F8042DBFF34F8FBFF36F8FA9
:100A10000127A0E72046FFF785FE00F0CBFAF7E7B5
:100A20002046FFF77FFE00F0C5FA2046FFF728FEBC
:100A30000028EDD0B4E7000070B5B9B100230C4A2E
:100A40001C4615465668864204D105EBC403C3E92B
:100A500000100BE01BB91668002E08BF13460134C6
:100A60000A2C02F10802EDD1002BF0D170BD00BFBD
:100A70001C00002070B504460D46164600F0ACFE82
:100A800094F84430FF2B04BF002384F8443094F8DA
:100A90004530FF2B04BF002384F8453000F0ACFE46
:100AA000A36B2BB93246294604F1240000F09EFBCB
:100AB0002046BDE87040FFF735BE00002DE9F84341
:100AC000224B234C1D68234B0646D3F80080224B53
:100AD0000F46D3F8009020680430FFF7C2FD40B9FC
:100AE00022681E49D06A01220B68824023EA020371
:100AF0000B60731C14D19FB1194B21685A688A602E
:100B000090682168C860216804314160216804311F
:100B10009160226853611A6801321A60BDE8F88357
:100B200023682168AD195D6001F1040104D34846D2
:100B3000BDE8F843FFF77EBD4046FFF77BFD094B5C
:100B40001A68AA4288BF1D60E8E700BF9000002035
:100B500080010020DC000020D80000208C00002054
:100B60009800002074000020064A13681968064B9C
:100B700019B94FF0FF321A6070471268D2681268D4
:100B8000F9E700BFDC00002074000020F8B50E4C2F
:100B90000E4F0F4E236803B9F8BD00F01DFEFB6831
:100BA000DD68281DFFF75DFD3368013B3360236876
:100BB000013B236000F020FE286B00F007FF284671
:100BC00000F004FFE6E700BFAC000020B00000200A
:100BD0009400002008B5FFF7D9FFFCE72DE9F047A6
:100BE0009600074630460D469846DDF8249000F002
:100BF00071FE824618B94FF0FF30BDE8F0875020F3
:100C000000F068FE0446002800F093805022002186
:100C100000F026FF3246A5215046C4F830A000F06F
:100C20001FFF236B043E1E4426F007066DB16B1EAA
:100C300004F133020B3513F8011F02F8011F09B14B
:100C4000AB42F8D1002384F83F30089D04F1040A38
:100C5000052D28BF05255046E5622564FFF7E7FC12
:100C6000C5F1060504F11800FFF7E1FC42463946DC
:100C700030462461A561646200F08AFD2060B9F10C
:100C8000000F01D0C9F8004000F0A6FD364B374EEA
:100C90001A68374F01321A603568002D4DD1346023
:100CA0001B68012B1FD1B84640460135FFF7B4FC45
:100CB000062D08F11408F7D1DFF8B8802E4D404614
:100CC000FFF7AAFC2846FFF7A7FC2C48FFF7A4FC77
:100CD0002B48FFF7A1FC2B48FFF79EFC2A4BC3F8DB
:100CE00000802A4B1D602A4A2A491368086801338C
:100CF00013600122E36A9A4002430A6014225343BC
:100D0000F9184A689068A260E060C0F804A0C2F8D0
:100D100008A0FA5861610132FA5000F06DFD1E4BD7
:100D20001B6823B13368DA6AE36A9A4210D3012060
:100D300063E7504600F04AFE5DE7174B1A68E36A26
:100D4000002AD0D13268D26A9A4298BF3460CAE78A
:100D50004FF0E0234FF08052C3F8042DBFF34F8FC4
:100D6000BFF36F8FE3E700BF9400002080010020F5
:100D700008010020F4000020E0000020C400002052
:100D8000B000002098000020DC000020D8000020E7
:100D9000780000208C00002088000020002310B57F
:100DA000184A86B0CDE90333059303AB12F8014B23
:100DB00003F8014B002CF9D1134B5A22CDE9004323
:100DC0001248234603A9FFF709FF012815D100F0B7
:100DD00063FC012811D14FF0400383F31188BFF366
:100DE0006F8FBFF34F8F4FF0FF32094B1A60094BE3
:100DF0001860094B1C6000F04DFD084B1B6806B0E5
:100E000010BD00BF2F23000070000020D50B000094
:100E1000740000208800002090000020442300007F
:100E2000024A136801331360704700BF6C00002052
:100E3000014B1868704700BF900000202DE9F84F63
:100E4000514B1B68002B40F09880504B1C680134BC
:100E50001C605CB94E4A4F4B1168186810604E4ACE
:100E60001960136801331360FFF77EFE4B4D0020BD
:100E70002B684B4A9C42DFF82CC10FD21421DCF8BE
:100E80000030DB6A4B43D358022B474B28BF01206D
:100E90001B68002B18BF0120BDE8F88F3C4F434E64
:100EA0003B681B681BB94FF0FF332B60E6E73B68DC
:100EB000DB68DB6859688C4201D22960DEE7D3F831
:100EC0001480D3E90219C1F80890C9F80410D8F8C1
:100ED000041003F1040E71454FF0000108BFC8F87B
:100EE00004905961D8F800100139C8F80010D3F8FF
:100EF0002880B8F1000F15D0D3E90719C1F8089080
:100F0000C9F80410D8F8041003F1180A51454FF03D
:100F1000000108BFC8F804909962D8F800100139A0
:100F2000C8F800104FF00108D96AD6F8009008FA06
:100F300001F848EA0908C6F800804FF0140808FBD9
:100F400001F802EB080ADAF80490D9F808B0C3F8FF
:100F50000890C3F80CB0CBF804E0C9F808E0C3F877
:100F600014A052F80830013342F80830DCF80030A1
:100F7000DB6A994288BF012092E70D4A002013687E
:100F80000133136088E700BF6C0000209000002050
:100F9000DC000020D80000207C000020740000202D
:100FA0000801002080010020800000208C0000202B
:100FB000840000202DE9F84F00F00EFC484B1A6821
:100FC000013A1A601B682BB1002400F015FC204682
:100FD000BDE8F88F434A1268002AF5D0012514268F
:100FE0004148424C424A434FDFF80CC153E0C368CA
:100FF000DB68D3F828E0D3E90718C1F80880C8F8FF
:101000000410DEF8041003F1180949454FF00001FF
:1010100008BFCEF804809962DEF800100139CEF8DE
:101020000010D3F814E0D3E90218C1F80880C8F81A
:101030000410DEF8041003F104094945DEF800103D
:1010400008BFCEF804800139CEF80010D3F82CE0A8
:10105000D4F8008005FA0EF141EA080106FB0EF80B
:1010600002EB080A2160DAF80410D1F808B09960A0
:10107000C3F80CB0CBF80490C1F8089052F80810EF
:10108000C3F814A0013142F808103968C96A8E45C6
:1010900001D9CCF8005001680029A8D10BB1FFF7A5
:1010A00063FD164D2C6844B10127134EFFF7C6FEB1
:1010B00000B13760013CF9D12C600F4B1B68002B4D
:1010C00082D00C4B4FF080521B684FF0E023C3F8E6
:1010D000042DBFF34F8FBFF36F8F012475E700BF5F
:1010E0006C00002094000020C40000208C00002030
:1010F00008010020800100208000002084000020E2
:1011000008B550B94FF0E0234FF08052C3F8042DDA
:10111000BFF34F8FBFF36F8F08BD0021FFF780FE35
:10112000FFF7CCFCFFF746FF0028EBD0F4E7000008
:10113000214B70B51A68214B12B101221A6070BDA3
:101140001F4C1A602368216822680968126B1B6BA8
:1011500091420FD91A68B2F1A53F0BD15A68B2F18A
:10116000A53F07D19A68B2F1A53F03D1DB68B3F17F
:10117000A53F04D0216820683431FFF73DFA114BB8
:101180001B68B3FA83F31425DBB2C3F11F0305FB1D
:1011900003F20D4988184668083276680A44964278
:1011A00005FB031108BFC268466008BF42604B6878
:1011B000DB6823602368C2E76C0000208000002009
:1011C000800100208C0000200801002010B50C4692
:1011D000054B19681831FFF72DFA2046BDE810407D
:1011E0000121FFF76BBC00BF800100200F4B70B4E2
:1011F00044681D68A668EC611D68002A2E621D689F
:1012000005F1180575601D681B6805F11805A560D6
:101210009862036870BC03F1010303600CBF0846C9
:101220004FF0FF301146FFF749BC00BF800100209E
:10123000C368F0B5DB689A6AD3E90701816048604A
:10124000506803F11804A04208BF51600021996260
:101250001168013911601E4AD96A1268002A2AD120
:10126000D3E902405A69A060446054681D1DAC4235
:1012700008BF5060106801381060012215488A408C
:1012800004682243026014224A4313488618746893
:10129000A7689C60DF607D60A5605E618358013354
:1012A00083500E4B1B68DB6A994285BF01200C4BB3
:1012B00000201860F0BD0B4A50688568D8611D6237
:1012C0006C6084609A62136801331360E9E700BFC1
:1012D0006C0000208C00002008010020800100200C
:1012E00080000020C4000020034B1B680360034BF8
:1012F0001B684360704700BF7C0000209000002006
:1013000070B50D46044600F067FA0F4B19682B685C
:101310005A1C17D00D48266800686268864208D0BB
:101320008A4206D8002301242B6000F065FA20468B
:1013300070BD881A8342F5D95B1A134420462B608E
:10134000FFF7D2FF0024F0E7900000207C0000208F
:101350000122014B1A60704780000020054B1B687A
:1013600033B1054B1868B0FA80F04009400070476F
:1013700001207047880000206C000020F8B504466A
:1013800008B90020F8BD436CC16A026C013B914270
:101390004364F6D0002BF4D1051D2846FFF761F910
:1013A000114A30B90121E06A1368814023EA010340
:1013B00013600120236C1668C3F10601A16100FAD5
:1013C00003F1314311601421E3624B43074AD618FD
:1013D00071688F68A160E7607D608D60D15866613B
:1013E0000144D150CEE700BF8C000020080100204E
:1013F000914208B5416000610AD8D21A83699A42C5
:101400000DD2084B011D1868FFF714F9002008BD24
:101410009A4201D2994202D2034B011DF3E7012007
:10142000F5E700BF900100209401002070B504464C
:101430000D461646A1692B46324620462944FFF741
:10144000D7FF00B970BDA36920461D44236A9847A1
:10145000F0E700000E4B70B51B680546DB680E46D2
:10146000DC68201DFFF7FDF894F824305A0709D5F1
:10147000324629462046FFF7D9FF2046236ABDE8B9
:101480007040184723F0010384F82430F5E700BFCB
:1014900094010020F8B50546FFF7CAFC0D4E04463E
:1014A0003368834209D90C4F3B681A6852B90B4A1A
:1014B000116813603960012300E0002320462B608F
:1014C0003460F8BDDB684FF0FF311868FFF7C2FFEA
:1014D000EAE700BF84010020940100209001002071
:1014E0002DE9F0430026DFF84C81534F85B0D8F842
:1014F0000030D3F80090B9F1000F39D00024DB6838
:10150000D3F80090FFF78CFC01A8FFF7C3FF019B05
:101510000546002B49D16CBB484531D3FFF74AFD46
:1015200029464846FFF796FFCDE90166039600225B
:10153000386801A9FFF708FA0028D8D0019B002BD2
:10154000F5DB039C002CF2D0636913B1201DFFF77B
:1015500088F86846FFF79EFF019B0546013B082B74
:10156000E5D8DFE803F02525484F5E2525484F00E4
:101570000124C7E7314B1B681C68B4FA84F4640982
:1015800022463868A9EB0501FFF774FAFFF712FD50
:101590000028C9D14FF0E0234FF08052C3F8042D4A
:1015A000BFF34F8FBFF36F8FBEE7FFF703FDBBE7BE
:1015B00094F82430A16943F0010384F82430029B9D
:1015C000024619442046FFF713FF0028AFD094F8D5
:1015D000243059070AD5A36902992A46204619449E
:1015E000FFF724FF2046236A9847A0E723F0010372
:1015F00084F82430F6E794F8243023F0010384F8CB
:10160000243094E794F82430024643F0010384F830
:10161000243002990346A16101442046FFF7E8FE09
:1016200085E794F824309A07E7D4204600F0CEF9F5
:101630007DE700BF940100208C0100209001002074
:10164000F8B50F4C00F0C8F82568ADB90D4F0E4E37
:101650003846FEF7E1FF3046FEF7DEFF0B4B2A4629
:101660001F600B4B0C210A201E60FFF7CEF8206094
:1016700010B10849FFF7E0F9BDE8F84000F0BCB848
:101680008C010020AC010020980100209401002072
:10169000900100203423000007B5FFF7D1FF084B6D
:1016A000186848B1074BB4220193032306490093FD
:1016B00006480023FFF792FA03B05DF804FB00BF71
:1016C0008C0100208801002039230000E114000073
:1016D0002DE9F041804628200F4615461E4600F0B1
:1016E000F9F80446A0B1002380F82430FFF7A8FFE2
:1016F000069BC4E90676C4F800802362201DFEF72D
:1017000096FF2DB194F8243043F0040384F824307C
:101710002046BDE8F08100001FB50C4C236813B9CA
:10172000002004B010BD0028FAD00529CDE901122F
:101730000390F5DCFFF712FE0023022814BF1A46BF
:10174000069A206801A9FFF782F8EAE78C010020D9
:10175000002382B001934FF0400383F31188BFF35D
:101760006F8FBFF34F8F019B002BFCD002B07047EF
:1017700006480068006880F3088862B661B6BFF367
:101780004F8FBFF36F8F00DF00BF000008ED00E058
:101790004FF0807340F8043C054B21F0010140F804
:1017A000081C40F80C3C40F8202C4038704700BF23
:1017B00051170000074B19680868B0E8F00F80F374
:1017C0000988BFF36F8F4FF0000080F311884EF04F
:1017D0000D0E7047800100204FF0400383F3118805
:1017E000BFF36F8FBFF34F8F024A1368013313604B
:1017F000704700BF00000020034A1368013B1360DC
:101800000BB983F31188704700000020EFF30980C3
:10181000BFF36F8F0D4B1A6820E9F00F10602DE9B0
:1018200008404FF0400080F31188FFF781FC4FF033
:10183000000080F31188BDE8084019680868B0E826
:10184000F00F80F30988BFF36F8F7047800100208D
:1018500008B54FF0400383F31188BFF36F8FBFF3D8
:101860004F8FFFF7EBFA28B14FF0E0234FF0805293
:10187000C3F8042D002383F3118808BD4FF0E02343
:1018800000221A619A614CF24F325A6107221A61A2
:10189000704700004FF0E02310B50024D3F8202D4E
:1018A00042F47F02C3F8202DD3F8202D42F07F426E
:1018B000C3F8202DC3F81C4DFFF7E0FF044B1C605C
:1018C000FFF756FFFFF734FCFFF742FF204610BD3D
:1018D00000000020F8B5431E0A3363D810F0070358
:1018E00000F1080405D0A3F10902A2425AD3103036
:1018F000C41A304DFFF794FA2B68F3B92E4A2F48DB
:1019000053071FBFD11D21F0070102F54842531AAA
:101910000CBF4FF448430A4600211344083B23F010
:10192000070341600260C3E90011991AC2E900315E
:101930002B60234B1960234B1960002C37DD214E9F
:101940003168A14233D31D4A13685868A04201D2BE
:101950001F684FBB2D689D4229D01568D3F800C081
:10196000001B102805F10805C2F800C005D91F1991
:1019700078605C6043F804C0176058680A1A104920
:1019800032600C6840F00040A24238BF0A6000227A
:101990001A600D4A5860136801331360FFF70AFBA1
:1019A0002846F8BD0024A4E71A463B46CDE70025AB
:1019B000F4E700BFD0010020DC010020D4010020AA
:1019C000C8010020CC010020C401002038B5054624
:1019D00000283BD050F8043C002B37DA50F8082C94
:1019E000002A33D123F0004340F8043CA0F108045E
:1019F000FFF716FA164A55F8041C13680B441360D7
:101A0000144B1A461B689C42FBD850681518AC4210
:101A100002BF144609185160606821188B4213D127
:101A20000D4909688B4203D0596801446160196807
:101A3000A242216018BF1460084A13680133136082
:101A4000BDE83840FFF7B6BA1946F1E738BD00BF28
:101A5000CC010020D4010020D0010020C0010020D2
:101A600070B5860747D0541E002A3ED00346CAB23E
:101A700001E0013C39D303F8012B9D07F9D1032C78
:101A80002CD9CDB205EB05250F2C1A4605EB0545E3
:101A900034D9A4F1100C2CF00F0603F1100EB6444B
:101AA0004FEA1C1CC2E90055C2E9025510327245CA
:101AB000F8D10CF1010214F00C0F03EB021204F048
:101AC0000F0C13D0ACF1040323F0030304331344CD
:101AD00042F8045B9342FBD10CF003042CB1C9B271
:101AE0001C4403F8011BA342FBD170BD644613469E
:101AF000002CF4D1F9E703461446C0E7A446E1E719
:101B0000844641EA000313F0030349D1403A23D34A
:101B10000B6803604B6843608B688360CB68C3606D
:101B20000B6903614B6943618B698361CB69C36155
:101B30000B6A03624B6A43628B6A8362CB6AC3623D
:101B40000B6B03634B6B43638B6B8363CB6BC36325
:101B500040304031403ADBD230320BD30B68036067
:101B60004B6843608B688360CB68C3601030103172
:101B7000103AF3D20C3205D351F8043B40F8043B41
:101B8000043AF9D2043208D0D2071CBF11F8013B45
:101B900000F8013B01D30B8803806046704700BF0B
:101BA000082A13D38B07B1D010F00303AED0C3F1D2
:101BB0000403D21ADB071CBF11F8013B00F8013BFC
:101BC000A4D331F8023B20F8023B9FE7043AD9D373
:101BD000013A11F8013B00F8013BF9D20B78037090
:101BE0004B7843708B788370604670473D3D3D3D38
:101BF0003D3D3D3D3D3D3D3D3D3D3D3D3D3D3D3D15
:101C00003D3D3D3D3D3D3D3D3D3D3D3D3D3D3D3D04
:101C10000D0A0020204672656552544F5320E8BDDE
:101C2000AFE4BBB6E5AE9AE697B6E599A8E7A4BAE5
:101C3000E4BE8B0D0A00E5ADA6E4B9A0E8A681E7F5
:101C400082B9EFBC9A0D0A00312E20E8BDAFE4BB8B
:101C5000B6E5AE9AE697B6E599A8E59FBAE7A18002
:101C6000E6A682E5BFB50D0A00322E20E58D95E689
:101C7000ACA1E5AE9AE697B6E599A8EFBC884F6EA1
:101C8000652D73686F74EFBC890D0A00332E20E553
:101C900091A8E69C9FE5AE9AE697B6E599A8EFBCB9
:101CA00088506572696F646963EFBC890D0A0034FE
:101CB0002E20E5AE9AE697B6E599A8E59B9EE8B09A
:101CC00083E587BDE695B00D0A00352E20E5AE9A76
:101CD000E697B6E599A8E590AFE58AA8E38081E5A7
:101CE000819CE6ADA2E38081E5A48DE4BD8D0D0A63
:101CF000002020E8BDAFE4BBB6E5AE9AE697B6E5B6
:101D000099A8E789B9E782B9EFBC9A0D0A00E29C6D
:101D10009320E794B1E5AE9AE697B6E599A8E69CDC
:101D20008DE58AA1E4BBBBE58AA1E7AEA1E7908679
:101D30000D0A00E29C9320E694AFE68C81E58D9538
:101D4000E6ACA1E5928CE591A8E69C9FE6A8A1E50A
:101D5000BC8F0D0A00E29C9320E59B9EE8B083E5D2
:101D600087BDE695B0E59CA8E5AE9AE697B6E599FD
:101D7000A8E4BBBBE58AA1E4B8ADE689A7E8A18CDD
:101D80000D0A00E29C9320E58FAFE4BBA5E58AA88D
:101D9000E68081E590AFE58AA8E38081E5819CE655
:101DA000ADA2E38081E5A48DE4BD8D0D0A00E29C27
:101DB0009720E59B9EE8B083E587BDE695B0E4B843
:101DC0008DE883BDE998BBE5A19E0D0A00E29C97D2
:101DD00020E7B2BEE5BAA6E4BE9DE8B596E7B3BB80
:101DE000E7BB9FE6BBB4E7AD940D0A00E6ADA3E503
:101DF0009CA8E5889BE5BBBAE5AE9AE697B6E5995F
:101E0000A82E2E2E0D0A004F6E6553686F7454690C
:101E10006D657200506572696F64696354696D65C0
:101E2000723100506572696F64696354696D6572DF
:101E30003200E99499E8AFAFEFBC9AE5AE9AE69725
:101E4000B6E599A8E5889BE5BBBAE5A4B1E8B4A5D9
:101E5000EFBC810D0A00E29C9320E68980E69C8914
:101E6000E5AE9AE697B6E599A8E5889BE5BBBAE6A4
:101E70008890E58A9FEFBC810D0A00E6ADA3E59C42
:101E8000A8E5889BE5BBBAE6BC94E7A4BAE4BBBB73
:101E9000E58AA12E2E2E0D0A0044656D6F546173E4
:101EA0006B00E29C9320E6BC94E7A4BAE4BBBBE5DC
:101EB0008AA1E5889BE5BBBAE68890E58A9FEFBCDE
:101EC000810D0A00E590AFE58AA846726565525417
:101ED0004F53E8B083E5BAA6E599A82E2E2E0D0A39
:101EE00000E99499E8AFAFEFBC9AE8B083E5BAA6F1
:101EF000E599A8E590AFE58AA8E5A4B1E8B4A5EF17
:101F0000BC810D0A005B54696D65725D20E29C9393
:101F100020E58D95E6ACA1E5AE9AE697B6E599A8E1
:101F2000E59B9EE8B083EFBC81E8AEA1E695B03AB0
:101F300020005B54696D65725D20E6B3A8E6848F6E
:101F4000EFBC9AE58D95E6ACA1E5AE9AE697B6E5CD
:101F500099A8E58FAAE4BC9AE8A7A6E58F91E4B812
:101F600080E6ACA1EFBC810D0A005B54696D65721F
:101F7000315D20E591A8E69C9FE5AE9AE697B6E52F
:101F800099A831E59B9EE8B083EFBC8831E7A79222
:101F9000EFBC89EFBC81E8AEA1E695B03A20005BCA
:101FA00054696D6572325D20E591A8E69C9FE5AEAF
:101FB0009AE697B6E599A832E59B9EE8B083EFBC18
:101FC0008832E7A792EFBC89EFBC81E8AEA1E69525
:101FD000B03A20005B44656D6F5D20E6BC94E7A4D9
:101FE000BAE4BBBBE58AA1E590AFE58AA8EFBC8166
:101FF0000D0A000D0A5B44656D6F5D203D3D3D3D62
:102000003D3D3D3D3D3D20E6ADA5E9AAA400203D76
:102010003D3D3D3D3D3D3D3D3D0D0A005B44656D13
:102020006F5D20E590AFE58AA8E591A8E69C9FE565
:10203000AE9AE697B6E599A831EFBC8831E7A7924A
:10204000E591A8E69C9FEFBC892E2E2E0D0A005B21
:1020500044656D6F5D20E29C9320E591A8E69C9F0E
:10206000E5AE9AE697B6E599A831E590AFE58AA87E
:10207000E68890E58A9FEFBC810D0A005B44656DA0
:102080006F5D20E590AFE58AA8E591A8E69C9FE505
:10209000AE9AE697B6E599A832EFBC8832E7A792E8
:1020A000E591A8E69C9FEFBC892E2E2E0D0A005BC1
:1020B00044656D6F5D20E29C9320E591A8E69C9FAE
:1020C000E5AE9AE697B6E599A832E590AFE58AA81D
:1020D000E68890E58A9FEFBC810D0A005B44656D40
:1020E0006F5D20E590AFE58AA8E58D95E6ACA1E5AA
:1020F000AE9AE697B6E599A8EFBC8833E7A792E5D4
:10210000908EE8A7A6E58F91EFBC892E2E2E0D0AA2
:10211000005B44656D6F5D20E29C9320E58D95E644
:10212000ACA1E5AE9AE697B6E599A8E590AFE58A49
:10213000A8E68890E58A9FEFBC810D0A005B4465A4
:102140006D6F5D20E5819CE6ADA2E591A8E69C9FC0
:10215000E5AE9AE697B6E599A8322E2E2E0D0A0026
:102160005B44656D6F5D20E29C9320E591A8E69C41
:102170009FE5AE9AE697B6E599A832E5B7B2E58154
:102180009CE6ADA2EFBC810D0A005B44656D6F5DFE
:1021900020E5A48DE4BD8DE591A8E69C9FE5AE9A6F
:1021A000E697B6E599A8312E2E2E0D0A005B446500
:1021B0006D6F5D20E29C9320E591A8E69C9FE5AEC3
:1021C0009AE697B6E599A831E5B7B2E5A48DE4BDE6
:1021D0008DEFBC810D0A005B44656D6F5D20E58667
:1021E0008DE6ACA1E590AFE58AA8E591A8E69C9FB5
:1021F000E5AE9AE697B6E599A8322E2E2E0D0A0086
:102200005B44656D6F5D20E29C9320E591A8E69CA0
:102210009FE5AE9AE697B6E599A832E9878DE696EE
:10222000B0E590AFE58AA8E68890E58A9FEFBC818B
:102230000D0A005B44656D6F5D20E6BC94E7A4BAAF
:10224000E5AE8CE68890EFBC81E8A782E5AF9FE51C
:10225000AE9AE697B6E599A8E7BBA7E7BBADE8BF9E
:1022600090E8A18C2E2E2E0D0A000D0A5B44656DA0
:102270006F5D20E5BD93E5898DE7BB9FE8AEA1EFDB
:10228000BC9A0D0A005B44656D6F5D202020E58DD2
:1022900095E6ACA1E5AE9AE697B6E599A83A200096
:1022A00020E6ACA10D0A005B44656D6F5D20202027
:1022B000E591A8E69C9FE5AE9AE697B6E599A83128
:1022C0003A20005B44656D6F5D202020E591A8E613
:1022D0009C9FE5AE9AE697B6E599A8323A20005B56
:1022E00044656D6F5D20E8BF9BE585A5E7A9BAE968
:1022F00097B2E5BEAAE78EAFEFBC8CE5AE9AE69743
:10230000B6E599A8E7BBA7E7BBADE8BF90E8A18C0D
:102310002E2E2E0D0A000D0A21212120E6A088E68E
:10232000BAA2E587BAE6A380E6B58BEFBC9A00496E
:10233000444C4500546D725100546D7220537663C5
:102340000000000005000000F8B500BFF8B500BFB0
:04235000AAAAAAAAE1
:00000001FF
