:1000000000000120F5000000F1000000F1000000F8
:10001000F1000000F1000000F1000000000000000D
:10002000000000000000000000000000010E0000C1
:10003000F100000000000000590E00009D0E0000BD
:10004000F1000000F1000000F1000000F1000000EC
:10005000F1000000F1000000F1000000F1000000DC
:10006000F1000000F1000000F1000000F1000000CC
:10007000F1000000F1000000F1000000F1000000BC
:10008000F1000000F1000000F1000000F1000000AC
:10009000F1000000F1000000F1000000F10000009C
:1000A000F1000000F1000000F1000000F10000008C
:1000B000F1000000F1000000F1000000F10000007C
:1000C000F1000000F1000000F1000000F10000006C
:1000D000F1000000F1000000F1000000F10000005C
:1000E000F100000000000000F1000000F10000003D
:1000F000FEE7000008B50E4B0E48DA1C121AC11EAE
:1001000022F00302994288BF00220B4900F0ECFF65
:100110000A4B0B48DA1C121AC11E22F00302994244
:1001200088BF0022002100F08FFF00F01DF8FEE7DD
:100130000800002000000020BC1A000044C9002074
:1001400008000020024B9A699206FCD418607047A0
:1001500000C0004008B5411E11F8010F00B908BDEC
:10016000FFF7F0FFF8E7000007B54B48FFF7F2FF95
:100170004A48FFF7EFFF4A48FFF7ECFF4748FFF711
:10018000E9FF4548FFF7E6FF4648FFF7E3FF46482B
:10019000FFF7E0FF4548FFF7DDFF4548FFF7DAFFCF
:1001A0004448FFF7D7FF4448FFF7D4FF3A48FFF72A
:1001B000D1FF3A48FFF7CEFF4048FFF7CBFF374863
:1001C000FFF7C8FF3E48FFF7C5FF3E48FFF7C2FFF5
:1001D0003D48FFF7BFFF3048FFF7BCFF3B48FFF744
:1001E000B9FF3B48FFF7B6FF3A48FFF7B3FF2B488C
:1001F000FFF7B0FF2848FFF7ADFF2848FFF7AAFF39
:100200003548FFF7A7FF2548FFF7A4FF3348FFF75E
:10021000A1FF3348FFF79EFF3248FFF79BFF3248AC
:10022000FFF798FF3148FFF795FF3148FFF792FF3E
:100230003048FFF78FFF1948FFF78CFF1648FFF78C
:1002400089FF2D48FFF786FF002402234FF48072B8
:10025000CDE9003429492346294800F0D3FA012387
:100260004FF480722749009327482346019400F0F9
:10027000C9FA2648FFF76EFF0748FFF76BFF2448CF
:10028000FFF768FF0448FFF765FF00F095FB214882
:10029000FFF760FFFEE700BF09160000D411000061
:1002A000FB11000025120000371200005F12000051
:1002B000801200009E120000BC120000DD1200003F
:1002C000F512000017130000361300004F13000052
:1002D0006B1300008A130000AF130000CF1300005F
:1002E000F41300001B1400004B14000076140000EF
:1002F000A3140000D4140000051500001D15000013
:10030000D103000026150000410600002E15000054
:100310004C15000069150000F0B585B028B93020F3
:1003200005B0BDE8F040FFF70DBF6A460023164652
:100330000A24B0FBF4F5074604FB1501092F01F16F
:10034000300102F8011B2846194603F1010302D9C6
:100350000F2BEED10E21705CFFF7F4FE0139FAD2BB
:1003600005B0F0BD38B500F069FE04461248134DE3
:10037000FFF7F0FE1248FFF7EDFE4FF44840FFF79D
:10038000CBFF2846FFF7E6FE0E48FFF7E3FE2046C8
:10039000FFF7C2FF2846FFF7DDFE0B48FFF7DAFE46
:1003A000C4F54840FFF7B8FF2846FFF7D3FEBDE885
:1003B00038400648FFF7CEBE8D150000C31500007B
:1003C000B4150000CD150000DC150000E815000094
:1003D0002DE9F0417A48FFF7BDFE7A48FFF7BAFEF3
:1003E000FFF7C0FF4FF47A7000F08EFC0025764EC8
:1003F000764FDFF8DC812C463046FFF7ABFEA01CC1
:10040000FFF78AFF01353846FFF7A4FE6B1E062B67
:1004100000F2D480DFE803F004485F7688A5C200CC
:100420006C48FFF797FE642000F07AFD6A4B0446A3
:10043000186068B16948FFF78DFE2046FFF76CFF32
:100440006748FFF787FE6422AA21204600F0FCFDE2
:10045000FFF788FF4FF4FA6000F056FC082DCAD170
:100460005D4C6048FFF776FE206818B100F0BEFDD5
:10047000002323605C4C206818B100F0B7FD002316
:1004800023605A4C206818B100F0B0FD00232360AF
:10049000574C206818B100F0A9FD0023236042F2F8
:1004A000107000F031FCFAE75248FFF753FEC82005
:1004B00000F036FD4C4B044618600028C8D04E486A
:1004C000FFF748FE2046FFF727FF4548FFF742FEAB
:1004D000C822BB21B9E74948FFF73CFE962000F04F
:1004E0001FFD424B044618600028B1D04448FFF776
:1004F00031FE2046FFF710FF3948FFF72BFE96220A
:10050000CC21A2E7384C3F48FFF724FE20680028A2
:100510009ED000F06BFD00233B482360FFF71AFEDE
:100520003A48FFF717FE93E73948FFF713FE3948BB
:10053000FFF710FE4FF4967000F0F2FC2C4B0446CF
:10054000186048B13448FFF705FE3448FFF702FE53
:100550004FF49672DD2178E73148FFF7FBFD314813
:10056000DFE71D4C3048FFF7F5FD206818B100F0BB
:100570003DFD002323601D4C206818B100F036FDBE
:10058000002323601A4C206818B100F02FFD0023CF
:1005900023602648FFF7DEFD2548C2E74046FFF707
:1005A000D9FD502000F0BCFC0B4B186000283FF434
:1005B0004FAF2048FFF7CEFD1F48B2E71F48B0E716
:1005C0000C160000311600006E16000060160000C8
:1005D000801900008916000014000020AC160000ED
:1005E000091600002F1A0000100000200C00002047
:1005F00008000020D3160000F61600001D170000AA
:1006000040170000671700008D170000AB170000AF
:10061000D917000002180000391800005A1800000D
:1006200088180000A9180000E91800000B19000044
:100630002E190000BC190000DF190000161A000076
:1006400070B50B48FFF786FD00240A4E0A4D304670
:100650000134FFF77FFD2046FFF75EFE2846FFF7D7
:1006600079FDFFF77FFE40F6B83000F04DFBEEE776
:10067000601A0000821A0000601600004FF0FF327E
:1006800000F10803C0E90223436003610023036013
:10069000704700230361704730B50C68631C0AD1B2
:1006A00003695A684A6091608B6059600368086109
:1006B0000133036030BD00F108021346526815682B
:1006C000A542FAD9EDE70369D0E901128A605160C9
:1006D0005968814208BF5A600022026118680138D7
:1006E000186070472DE9F843224B234C1D68234BBB
:1006F0000646D3F80080224B0F46D3F800902068BE
:100700000430FFF7E0FF40B922681E49D06A012299
:100710000B68824023EA02030B60731C14D19FB163
:10072000194B21685A688A6090682168C8602168FE
:1007300004314160216804319160226853611A6874
:1007400001321A60BDE8F88323682168AD195D6045
:1007500001F1040104D34846BDE8F843FFF79CBF0C
:100760004046FFF799FF094B1A68AA4288BF1D60EF
:10077000E8E700BF3C0000202C010020880000209A
:1007800084000020380000204400002020000020C9
:10079000064A13681968064B19B94FF0FF321A6000
:1007A00070471268D2681268F9E700BF880000201D
:1007B00020000020F8B50E4C0E4F0F4E236803B9F1
:1007C000F8BD00F02FFBFB68DD68281DFFF77BFFFD
:1007D0003368013B33602368013B236000F032FB48
:1007E000286B00F003FC284600F000FCE6E700BFA1
:1007F000580000205C0000204000002008B5FFF7F2
:10080000D9FFFCE72DE9F0474FEA820A0746504638
:100810000E469846DDF8249000F082FB054618B994
:100820004FF0FF30BDE8F087502000F079FB044620
:10083000002800F08D8050220021AAF1040A00F067
:1008400003FC2563554425F007056EB1731E04F1C2
:1008500033020B3613F8011F02F8011F09B1B3422E
:10086000F8D1002384F83F30089E04F1040A052ED5
:1008700028BF05265046E6622664FFF70AFFC6F148
:10088000060604F11800FFF704FF424639462846E1
:100890002461A661646200F0A1FA2060B9F1000F42
:1008A00001D0C9F8004000F0BDFA364B364E1A6848
:1008B000364F01321A603568002D4DD134601B6807
:1008C000012B1FD1B84640460135FFF7D7FE062D54
:1008D00008F11408F7D1DFF8B8802E4D4046FFF735
:1008E000CDFE2846FFF7CAFE2B48FFF7C7FE2B4870
:1008F000FFF7C4FE2A48FFF7C1FE2A4BC3F8008069
:10090000294B1D60294A2A4913680868013313607E
:100910000122E36A9A4002430A6014225343F91801
:100920004A689068A260E060C0F804A0C2F808A01D
:10093000FA5861610132FA5000F084FA1D4B1B68CD
:1009400023B13368DA6AE36A9A4210D3012069E777
:10095000284600F04BFB63E7164B1A68E36A002A4F
:10096000D0D13268D26A9A4298BF3460CAE74FF059
:10097000E0234FF08052C3F8042DBFF34F8FBFF335
:100980006F8FE3E7400000202C010020B40000201E
:10099000A00000208C000020700000205C000020DF
:1009A0004400002088000020840000202400002053
:1009B0003800002034000020002310B5164A86B00D
:1009C000CDE90333059303AB12F8014B03F8014B58
:1009D000002CF9D1114B5A22CDE90043104823468F
:1009E00003A9FFF70FFF012811D14FF0400383F354
:1009F0001188BFF36F8FBFF34F8F4FF0FF32094B5A
:100A00001A60094B1860094B1C6000F069FA084B2A
:100A10001B6806B010BD00BFA81A00001C00002013
:100A2000FD07000020000020340000203C000020D2
:100A3000B01A0000024A136801331360704700BF08
:100A4000180000202DE9F84F514B1B68002B40F097
:100A50009880504B1C6801341C605CB94E4A4F4B67
:100A60001168186810604E4A1960136801331360EA
:100A7000FFF78EFE4B4D00202B684B4A9C42DFF85F
:100A80002CC10FD21421DCF80030DB6A4B43D35861
:100A9000022B474B28BF01201B68002B18BF0120E9
:100AA000BDE8F88F3C4F434E3B681B681BB94FF0C5
:100AB000FF332B60E6E73B68DB68DB6859688C42F4
:100AC00001D22960DEE7D3F81480D3E90219C1F816
:100AD0000890C9F80410D8F8041003F1040E714509
:100AE0004FF0000108BFC8F804905961D8F8001011
:100AF0000139C8F80010D3F82880B8F1000F15D0DC
:100B0000D3E90719C1F80890C9F80410D8F80410FF
:100B100003F1180A51454FF0000108BFC8F80490CE
:100B20009962D8F800100139C8F800104FF0010898
:100B3000D96AD6F8009008FA01F848EA0908C6F818
:100B400000804FF0140808FB01F802EB080ADAF8FD
:100B50000490D9F808B0C3F80890C3F80CB0CBF8EB
:100B600004E0C9F808E0C3F814A052F808300133D3
:100B700042F80830DCF80030DB6A994288BF012077
:100B800092E70D4A002013680133136088E700BF25
:100B9000180000203C000020880000208400002075
:100BA0002800002020000020B40000202C0100209C
:100BB0002C00002038000020300000202DE9F84FE4
:100BC00000F030F9484B1A68013A1A601B682BB1E3
:100BD000002400F037F92046BDE8F88F434A126838
:100BE000002AF5D0012514264148424C424A434F81
:100BF000DFF80CC153E0C368DB68D3F828E0D3E921
:100C00000718C1F80880C8F80410DEF8041003F1D2
:100C1000180949454FF0000108BFCEF804809962D9
:100C2000DEF800100139CEF80010D3F814E0D3E953
:100C30000218C1F80880C8F80410DEF8041003F1A7
:100C400004094945DEF8001008BFCEF804800139D8
:100C5000CEF80010D3F82CE0D4F8008005FA0EF19D
:100C600041EA080106FB0EF802EB080A2160DAF8F7
:100C70000410D1F808B09960C3F80CB0CBF8049018
:100C8000C1F8089052F80810C3F814A0013142F8D6
:100C900008103968C96A8E4501D9CCF8005001683E
:100CA0000029A8D10BB1FFF773FD164D2C6844B194
:100CB0000127134EFFF7C6FE00B13760013CF9D1A2
:100CC0002C600F4B1B68002B82D00C4B4FF08052D6
:100CD0001B684FF0E023C3F8042DBFF34F8FBFF321
:100CE0006F8F012475E700BF18000020400000202E
:100CF0007000002038000020B40000202C010020EB
:100D00002C0000203000002008B550B94FF0E0233F
:100D10004FF08052C3F8042DBFF34F8FBFF36F8F96
:100D200008BD0021FFF786FEFFF7DCFCFFF746FF5A
:100D30000028EBD0F4E70000134B30B51A68134BD2
:100D400012B101221A6030BD1A60114B1B68B3FA50
:100D500083F31424DBB2C3F11F0304FB03F20D4938
:100D60008818456808326D680A44954204FB0311EF
:100D700008BFC268456008BF42604B68DA68064B2E
:100D80001A601B68DFE700BF180000202C0000205D
:100D900038000020B40000202C010020002382B085
:100DA00001934FF0400383F31188BFF36F8FBFF3BC
:100DB0004F8F019B002BFCD002B0704706480068A3
:100DC000006880F3088862B661B6BFF34F8FBFF347
:100DD0006F8F00DF00BF000008ED00E04FF0807370
:100DE00040F8043C054B21F0010140F8081C40F894
:100DF0000C3C40F8202C4038704700BF9D0D00008F
:100E0000074B19680868B0E8F00F80F30988BFF352
:100E10006F8F4FF0000080F311884EF00D0E704779
:100E20002C0100204FF0400383F31188BFF36F8F34
:100E3000BFF34F8F024A136801331360704700BF3E
:100E400000000020034A1368013B13600BB983F3D1
:100E50001188704700000020EFF30980BFF36F8F07
:100E60000D4B1A6820E9F00F10602DE908404FF093
:100E7000400080F31188FFF75FFF4FF0000080F320
:100E80001188BDE8084019680868B0E8F00F80F3E1
:100E90000988BFF36F8F70472C01002008B54FF011
:100EA000400383F31188BFF36F8FBFF34F8FFFF7BA
:100EB000C9FD28B14FF0E0234FF08052C3F8042D54
:100EC000002383F3118808BD4FF0E02300221A614C
:100ED0009A614CF24F325A6107221A617047000042
:100EE0004FF0E02310B50024D3F8202D42F47F0208
:100EF000C3F8202DD3F8202D42F07F42C3F8202DD7
:100F0000C3F81C4DFFF7E0FF044B1C60FFF756FFD2
:100F1000FFF712FFFFF742FF204610BD0000002040
:100F2000F8B5431E0A334FD810F0070300F1080448
:100F300005D0A3F10902A24246D31030C41AFFF72C
:100F400079FD2548016871B94CF2F875234B244AA4
:100F500023F00703C2E90031224AC3E90025012337
:100F6000C2E900150360002C33DD1F4E3068A0423B
:100F70002FD31B4A13685968A14201D21D682DBBAB
:100F8000184DAB4225D01F68156817600A1B102A40
:100F900005F108050CD919194A605C604F68104AC0
:100FA00014461268D2F804C0BC45F9D30A60216027
:100FB0005A68801A42F000425A60002230601A607B
:100FC000FFF7FCFD2846F8BD0024B8E71A462B467B
:100FD000D1E70025F4E700BF300100204B010020DD
:100FE0003C010020340100200400002010B504461C
:100FF000F8B150F8043C002B1BDA50F8082CC2B9A9
:1010000023F0004340F8043CFFF714FD54F8041C9F
:10101000084B1A461B6858688842FAD344F8083DC2
:101020001460054ABDE8104013680B441360FFF7D5
:10103000C5BD10BD3C01002004000020014B186814
:10104000704700BF0400002070B5860747D0541ECB
:10105000002A3ED00346CAB201E0013C39D303F86E
:10106000012B9D07F9D1032C2CD9CDB205EB052519
:101070000F2C1A4605EB054534D9A4F1100C2CF0C1
:101080000F0603F1100EB6444FEA1C1CC2E90055CE
:10109000C2E9025510327245F8D10CF1010214F088
:1010A0000C0F03EB021204F00F0C13D0ACF104038D
:1010B00023F003030433134442F8045B9342FBD14F
:1010C0000CF003042CB1C9B21C4403F8011BA34269
:1010D000FBD170BD64461346002CF4D1F9E70346FA
:1010E0001446C0E7A446E1E7844641EA000313F052
:1010F000030349D1403A23D30B6803604B68436034
:101100008B688360CB68C3600B6903614B69436183
:101110008B698361CB69C3610B6A03624B6A43626B
:101120008B6A8362CB6AC3620B6B03634B6B436353
:101130008B6B8363CB6BC36340304031403ADBD26F
:1011400030320BD30B6803604B6843608B6883605D
:10115000CB68C36010301031103AF3D20C3205D393
:1011600051F8043B40F8043B043AF9D2043208D069
:10117000D2071CBF11F8013B00F8013B01D30B88DB
:1011800003806046704700BF082A13D38B07B1D095
:1011900010F00303AED0C3F10403D21ADB071CBF67
:1011A00011F8013B00F8013BA4D331F8023B20F8D1
:1011B000023B9FE7043AD9D3013A11F8013B00F80A
:1011C000013BF9D20B7803704B7843708B788370B6
:1011D000604670473D3D3D3D3D3D3D3D3D3D3D3DD6
:1011E0003D3D3D3D3D3D3D3D3D3D3D3D3D3D3D3D2F
:1011F0003D3D3D3D3D3D3D3D0D0A00202046726593
:101200006552544F5320686561705F3220E58685D2
:10121000E5AD98E58886E9858DE599A8E7A4BAE467
:10122000BE8B0D0A00E5ADA6E4B9A0E8A681E78271
:10123000B9EFBC9A0D0A00312E20686561705F32EB
:1012400020E58685E5AD98E58886E9858DE599A850
:10125000E5B7A5E4BD9CE58E9FE790860D0A0032B8
:101260002E207076506F72744D616C6C6F632829FC
:1012700020E58886E9858DE58685E5AD980D0A002F
:10128000332E2076506F727446726565282920E9E6
:10129000878AE694BEE58685E5AD980D0A00342E72
:1012A00020E58685E5AD98E7A28EE78987E997AEC8
:1012B000E9A298E6BC94E7A4BA0D0A00352E20688E
:1012C0006561705F3220E4B88E20686561705F31BF
:1012D00020E79A84E58CBAE588AB0D0A00202068E7
:1012E0006561705F3220E79A84E789B9E782B9EFD8
:1012F000BC9A0D0A00E29C9320E694AFE68C81E54F
:101300008685E5AD98E58886E9858DE5928CE98747
:101310008AE694BE0D0A00E29C9320E4BDBFE794E8
:10132000A8E69C80E4BDB3E98082E9858DE7AE97AD
:10133000E6B3950D0A00E29C9320E6AF94686561E0
:10134000705F31E69BB4E781B5E6B4BB0D0A00E2FD
:101350009C9720E4BC9AE4BAA7E7949FE58685E5CC
:10136000AD98E7A28EE789870D0A00E29C9720E4FA
:10137000B88DE59088E5B9B6E79BB8E982BBE7A9E7
:10138000BAE997B2E59D970D0A00E29C9720E6B274
:10139000A1E69C89E69C80E5B08FE58E86E58FB25C
:1013A000E7A9BAE997B2E7BB9FE8AEA10D0A002012
:1013B00020686561705F3220E4B88E2068656170D6
:1013C0005F3120E5AFB9E6AF94EFBC9A0D0A00E7B4
:1013D00089B9E680A7202020202020202020206816
:1013E0006561705F31202020202020686561705F7A
:1013F000320D0A002D2D2D2D2D2D2D2D2D2D2D2D88
:101400002D2D2D2D2D2D2D2D2D2D2D2D2D2D2D2D0C
:101410002D2D2D2D2D2D2D2D0D0A00E58685E5ADCB
:1014200098E9878AE694BE202020202020E29C971D
:1014300020E4B88DE694AFE68C8120202020E29C49
:101440009320E694AFE68C810D0A00E58685E5AD34
:1014500098E7A28EE78987202020202020E29C9711
:1014600020E697A02020202020202020E29C97200A
:10147000E69C890D0A00E59D97E59088E5B9B620C0
:10148000202020202020202D20202020202020204F
:10149000202020E29C9720E4B88DE59088E5B9B63D
:1014A0000D0A00E58886E9858DE7AE97E6B39520BD
:1014B0002020202020E7BABFE680A7E58886E985BE
:1014C0008D20202020E69C80E4BDB3E98082E98560
:1014D0008D0D0A00E98082E794A8E59CBAE699AFF1
:1014E000202020202020E99D99E68081E58886E95A
:1014F000858D20202020E7AE80E58D95E58AA8E641
:1015000080810D0A00E6ADA3E59CA8E5889BE5BBBC
:10151000BAE4BBBBE58AA12E2E2E0D0A0044656DF0
:101520006F5461736B004D6F6E69746F7200E68962
:1015300080E69C89E4BBBBE58AA1E5889BE5BBBA54
:10154000E68890E58A9FEFBC810D0A00E590AFE543
:101550008AA84672656552544F53E8B083E5BAA62F
:10156000E599A82E2E2E0D0A00E99499E8AFAFEF69
:10157000BC9AE8B083E5BAA6E599A8E590AFE58AFC
:10158000A8E5A4B1E8B4A5EFBC810D0A000D0A2DB1
:101590002D2D2D2D2D2D2D2D2D20E58685E5AD987C
:1015A000E78AB6E68081202D2D2D2D2D2D2D2D2D78
:1015B0002D0D0A00E680BBE5A086E5A4A7E5B08F67
:1015C0003A200020E5AD97E88A820D0A00E589A956
:1015D000E4BD99E5A4A7E5B08F3A2000E5B7B2E5F0
:1015E0008886E9858D3A20002D2D2D2D2D2D2D2D30
:1015F0002D2D2D2D2D2D2D2D2D2D2D2D2D2D2D2D1B
:101600002D2D2D2D2D2D2D0D0A0D0A005B44656D00
:101610006F5D20E58685E5AD98E6BC94E7A4BAE465
:10162000BBBBE58AA1E590AFE58AA8EFBC810D0AB6
:10163000000D0A5B44656D6F5D203D3D3D3D3D3DC8
:101640003D3D3D3D20E6ADA5E9AAA4313A20E5881F
:101650009DE5A78BE58685E5AD98E78AB6E68081AE
:10166000203D3D3D3D3D3D3D3D3D3D0D0A000D0ACA
:101670005B44656D6F5D203D3D3D3D3D3D3D3D3DE8
:101680003D20E6ADA5E9AAA4005B44656D6F5D2031
:10169000E58886E9858DE59D97313A203130302007
:1016A000E5AD97E88A822E2E2E0D0A005B44656D0B
:1016B0006F5D20E29C9320E59D9731E58886E98562
:1016C0008DE68890E58A9FEFBC81E59CB0E59D8022
:1016D0003A20005B44656D6F5D20E58886E9858D65
:1016E000E59D97323A2032303020E5AD97E88A8286
:1016F0002E2E2E0D0A005B44656D6F5D20E29C93DB
:1017000020E59D9732E58886E9858DE68890E58A13
:101710009FEFBC81E59CB0E59D803A20005B44656D
:101720006D6F5D20E58886E9858DE59D97333A20CC
:1017300031353020E5AD97E88A822E2E2E0D0A0035
:101740005B44656D6F5D20E29C9320E59D9733E5DA
:101750008886E9858DE68890E58A9FEFBC81E59CC7
:10176000B0E59D803A20005B44656D6F5D20E987A0
:101770008AE694BEE59D9732EFBC88E4B8ADE99760
:10178000B4E59D97EFBC892E2E2E0D0A005B4465B3
:101790006D6F5D20E29C9320E59D9732E5B7B2E93D
:1017A000878AE694BEEFBC810D0A005B44656D6FCD
:1017B0005D20E6B3A8E6848FEFBC9AE78EB0E59C87
:1017C000A8E5A086E4B8ADE69C89E7A28EE7898704
:1017D000E4BA86EFBC810D0A005B44656D6F5D2045
:1017E000E5B09DE8AF95E58886E9858DE59D973460
:1017F0003A2033303020E5AD97E88A822E2E2E0D28
:101800000A005B44656D6F5D20E68F90E7A4BAEF38
:10181000BC9AE794B1E4BA8EE7A28EE78987EFBC61
:101820008CE58FAFE883BDE58886E9858DE5A4B1B9
:10183000E8B4A5EFBC810D0A005B44656D6F5D20C7
:10184000E29C9320E59D9734E58886E9858DE688BE
:1018500090E58A9FEFBC810D0A005B44656D6F5D6A
:1018600020E8AFB4E6988EEFBC9AE8BF98E69C8972
:10187000E8B6B3E5A49FE79A84E8BF9EE7BBADE76F
:10188000A9BAE997B40D0A005B44656D6F5D20E26B
:101890009C9720E59D9734E58886E9858DE5A4B180
:1018A000E8B4A5EFBC810D0A005B44656D6F5D2057
:1018B000E58E9FE59BA0EFBC9AE58685E5AD98E7B0
:1018C000A28EE78987EFBC8CE6B2A1E69C89E8B6D8
:1018D000B3E5A49FE5A4A7E79A84E8BF9EE7BBAD64
:1018E000E59D97EFBC810D0A005B44656D6F5D203F
:1018F000E9878AE694BEE68980E69C89E589A9E4C1
:10190000BD99E59D972E2E2E0D0A005B44656D6FE7
:101910005D20E29C9320E68980E69C89E59D97E521
:10192000B7B2E9878AE694BEEFBC810D0A005B443A
:10193000656D6F5D20E6B3A8E6848FEFBC9AE899E9
:10194000BDE784B6E983BDE9878AE694BEE4BA863A
:10195000EFBC8CE4BD86E5A086E4B8ADE69C89E5E5
:10196000A49AE4B8AAE4B88DE8BF9EE7BBADE79AB5
:1019700084E7A9BAE997B2E59D97EFBC810D0A000B
:101980005B44656D6F5D20E5B09DE8AF95E58886A9
:10199000E9858DE5B08FE59D973A20383020E5AD9B
:1019A00097E88A82EFBC88E5BA94E8AFA5E688900C
:1019B000E58A9FEFBC892E2E2E0D0A005B44656DD3
:1019C0006F5D20E29C9320E5B08FE59D97E58886CA
:1019D000E9858DE68890E58A9FEFBC810D0A005B62
:1019E00044656D6F5D20E8AFB4E6988EEFBC9AE574
:1019F0008FAFE4BBA5E588A9E794A8E7A28EE789A5
:101A000087E7A9BAE997B4E58886E9858DE5B08FBF
:101A1000E59D970D0A005B44656D6F5D20E6BC9403
:101A2000E7A4BAE5AE8CE68890EFBC810D0A005BB6
:101A300044656D6F5D20E6BC94E7A4BAE4BBBBE5EA
:101A40008AA1E7BB93E69D9FEFBC8CE8BF9BE58531
:101A5000A5E7A9BAE997B2E5BEAAE78EAF0D0A00DD
:101A60005B4D6F6E69746F725D20E79B91E68EA788
:101A7000E4BBBBE58AA1E590AFE58AA8EFBC810D88
:101A80000A000D0A5B4D6F6E69746F725D203D3DFB
:101A90003D3D3D3D3D3D3D3D20E79B91E68EA7E52B
:101AA00091A8E69C9F20230049444C45000000007B
:0C1AB00005000000F8B500BFF8B500BF4D
:081ABC00AAAAAAAAF8C70000BB
:00000001FF
