:1000000000000120F5000000F1000000F1000000F8
:10001000F1000000F1000000F1000000000000000D
:10002000000000000000000000000000B51100000A
:10003000F1000000000000000D120000511200004D
:10004000F1000000F1000000F1000000F1000000EC
:10005000F1000000F1000000F1000000F1000000DC
:10006000F1000000F1000000F1000000F1000000CC
:10007000F1000000F1000000F1000000F1000000BC
:10008000F1000000F1000000F1000000F1000000AC
:10009000F1000000F1000000F1000000F10000009C
:1000A000F1000000F1000000F1000000F10000008C
:1000B000F1000000F1000000F1000000F10000007C
:1000C000F1000000F1000000F1000000F10000006C
:1000D000F1000000F1000000F1000000F10000005C
:1000E000F100000000000000F1000000F10000003D
:1000F000FEE7000008B50E4B0E48DA1C121AC11EAE
:1001000022F00302994288BF00220B4901F0C0F996
:100110000A4B0B48DA1C121AC11E22F00302994244
:1001200088BF0022002101F063F900F091F8FEE79A
:100130000800002000000020441A00003CC90020F4
:1001400008000020024B9A699206FCD418607047A0
:1001500000C0004008B5411E11F8010F00B908BDEC
:10016000FFF7F0FFF8E70000F0B500241E4889B063
:10017000FFF7F0FF0A2526461C4F39466846013432
:1001800001F0FCF9092C20D804F130038DF8073078
:100190008DF808601648FFF7DDFF6846FFF7DAFFC5
:1001A0001448FFF7D7FF144800230A226946006865
:1001B00000F09DFA012814BF10481148FFF7CAFF4C
:1001C0004FF4967000F09AFED7E7B4FBF5F303F115
:1001D000300205FB134330338DF807208DF80830CB
:1001E0008DF80960D6E700BF3816000063160000DE
:1001F0006B160000D21700000800002084160000D3
:10020000B516000070B50D4888B0FFF7A3FF0C4D80
:100210000C4C0D4E64226946286800F0E5FA01286E
:1002200009D13046FFF796FF6846FFF793FF07486E
:10023000FFF790FFEEE72046FAE700BFD116000077
:100240000800002019170000FE160000D217000059
:1002500007B53B48FFF77EFF3A48FFF77BFF3A4878
:10026000FFF778FF3748FFF775FF3548FFF772FF54
:100270003648FFF76FFF3648FFF76CFF3548FFF74A
:1002800069FF3548FFF766FF3448FFF763FF2C48E6
:10029000FFF760FF3248FFF75DFF002204210520D1
:1002A00000F003FA2F4C002220602021032000F0F0
:1002B000FCF92D4B1860236803B118B92B48FFF7E0
:1002C00049FFFEE7002401252948FFF743FF1C48AA
:1002D000FFF740FF2748FFF73DFF23468022CDE987
:1002E00000542549254800F087FBCDE9005402253C
:1002F000234680222249234800F07EFB23468022A9
:10030000214922480194009500F076FB2346802283
:100310001F49CDE900541F4800F06EFB1E48FFF74F
:1003200019FF0748FFF716FF1C48FFF713FF0448A3
:10033000FFF710FF00F03AFC1948FFF70BFFFEE74C
:10034000D21700003D17000064170000831700005B
:1003500095170000B6170000D5170000F71700002A
:10036000151800000C000020080000202D180000C7
:10037000631800007B18000093180000F1030000D0
:100380009D18000069010000A71800005504000036
:10039000B318000005020000BF180000DD180000BF
:1003A000FA180000F0B585B028B9302005B0BDE8D6
:1003B000F040FFF7C7BE6A46002316460A24B0FB8A
:1003C000F4F5074604FB1501092F01F1300102F88D
:1003D000011B2846194603F1010302D90F2BEED168
:1003E0000E21705CFFF7AEFE0139FAD205B0F0BD08
:1003F000002373B511480193FFF7ACFE104D114E69
:10040000114C019B284601330193FFF7A3FE01988D
:10041000FFF7C8FF3046FFF79DFE00230A2201A91F
:10042000206800F064F9012814BF08480848FFF765
:1004300091FEC82000F062FDE3E700BF1E19000036
:1004400046190000D21700000C0000205F190000C0
:1004500090190000F7B51248FFF77CFE114E124DBF
:10046000124F6422306801A900F0BEF9012814D1AE
:100470003846FFF76FFE0198FFF794FF0C48FFF72F
:1004800069FE019C0B486400FFF764FE2046FFF7FD
:1004900089FF0748FFF75EFEE3E72846FAE700BF5B
:1004A000AC1900000C0000200C1A0000D619000046
:1004B000D2170000F11900004FF0FF3200F10803DD
:1004C000C0E90223436003610023036070470023F7
:1004D0000361704730B50C68631C0AD103695A6820
:1004E0004A6091608B605960036808610133036062
:1004F00030BD00F10802134652681568A542FAD9CA
:10050000EDE70369D0E901128A60516059688142C0
:1005100008BF5A60002202611868013818607047ED
:1005200010B5044600F058FEA46B00F065FEB4FA66
:1005300084F0400910BD70B51646026C0446856B08
:1005400042B906689EB9806800F0C8FDA660013512
:10055000A56370BD6EB9406800F09AFF6368226CB5
:100560001344A2686360934224BF23686360002041
:10057000EDE7C06800F08CFF226CE36851429B1AE3
:100580002268E36093423EBFA3685B18E360022EDB
:10059000EDD10DB1013DEAE72846D8E703461A6CD4
:1005A000084610B462B1DC68996814448C4228BFD4
:1005B0001968DC6028BFD960D96810BC00F068BF3A
:1005C00010BC704770B5044600F006FE94F8455024
:1005D00004F124066DB2002D01DD636AB3B9FF2377
:1005E00084F8453000F008FE00F0F6FD94F8445021
:1005F00004F110066DB2002D01DD23697BB9FF23E4
:1006000084F84430BDE8704000F0F6BD304600F09C
:10061000CFFC08B100F05CFD013D6DB2DBE7304678
:1006200000F0C6FC08B100F053FD013D6DB2E2E7F9
:1006300070B50E46044610B3C06B00B3236CA3FB29
:100640000035DDB900F0C8FDD4E90F314B43226815
:10065000A563D0185B1A62601A44FF23A06084F877
:100660004430E26084F8453056B104F11000FFF7E1
:1006700023FF04F12400FFF71FFF12E0002070BDEC
:10068000236973B104F1100000F092FC48B14FF0FF
:10069000E0234FF08052C3F8042DBFF34F8FBFF318
:1006A0006F8F00F0A9FD0120E9E770B50D46064601
:1006B00010B90024204670BDA1FB0023002BF8D107
:1006C000484310F1490FF4D8483000F003FE0446C7
:1006D0000028EED04DB100F1480301212046C4E9C5
:1006E0000F652360FFF7A4FFE4E70346F5E72DE974
:1006F000FF41002704460E461D46B846019200F011
:100700006BFDA26BE36B9A421BD22A463146204610
:10071000FFF711FF636A1BB104F1240000F048FCED
:1007200048B14FF0E0234FF08052C3F8042DBFF3DF
:100730004F8FBFF36F8F00F05FFD012004B0BDE865
:10074000F081022DE1D0019B1BB900F055FD002086
:10075000F4E717B902A800F087FC00F04DFD00F0A7
:1007600063FA00F039FD94F84430FF2B08BF84F899
:10077000448094F84530FF2B08BF84F8458000F092
:100780003BFD01A902A800F07BFC38BB00F024FD72
:10079000A26BE36B9A420ED100F02EFD019904F199
:1007A000100000F0F5FB2046FFF70CFF00F000FB07
:1007B00048B10127A3E700F01FFD2046FFF702FF25
:1007C00000F0F6FAF5E74FF0E0234FF08052C3F85F
:1007D000042DBFF34F8FBFF36F8FEAE72046FFF77B
:1007E000F1FE00F0E5FAB2E72DE9FF4100270446EB
:1007F0000E46B846019200F0EFFCA56BE5B131461C
:100800002046FFF7CBFE2369013DA56373B104F1D8
:10081000100000F0CDFB48B14FF0E0234FF08052C4
:10082000C3F8042DBFF34F8FBFF36F8F00F0E4FCCC
:10083000012004B0BDE8F081019B1BB900F0DCFC95
:100840000020F6E717B902A800F00EFC00F0D4FC77
:1008500000F0EAF900F0C0FC94F84430FF2B08BF28
:1008600084F8448094F84530FF2B08BF84F8458015
:1008700000F0C2FC01A902A800F002FC00BB204667
:10088000FFF74EFEB0B1019904F1240000F080FBA7
:100890002046FFF797FE00F08BFA48B94FF0E023AF
:1008A0004FF08052C3F8042DBFF34F8FBFF36F8F0B
:1008B0000127A0E72046FFF785FE00F079FAF7E769
:1008C0002046FFF77FFE00F073FA2046FFF728FE70
:1008D0000028EDD0B4E700002DE9F843224B234C6B
:1008E0001D68234B0646D3F80080224B0F46D3F8F1
:1008F000009020680430FFF704FE40B922681E49CA
:10090000D06A01220B68824023EA02030B60731C49
:1009100014D19FB1194B21685A688A609068216888
:10092000C860216804314160216804319160226807
:1009300053611A6801321A60BDE8F88323682168A0
:10094000AD195D6001F1040104D34846BDE8F843E8
:10095000FFF7C0BD4046FFF7BDFD094B1A68AA422C
:1009600088BF1D60E8E700BF34000020240100209C
:10097000800000207C000020300000203C0000208F
:1009800018000020064A13681968064B19B94FF081
:10099000FF321A6070471268D2681268F9E700BF28
:1009A0008000002018000020F8B50E4C0E4F0F4EAE
:1009B000236803B9F8BD00F00FFCFB68DD68281D53
:1009C000FFF79FFD3368013B33602368013B2360E1
:1009D00000F012FC286B00F0E3FC284600F0E0FC7D
:1009E000E6E700BF5000002054000020380000203F
:1009F00008B5FFF7D9FFFCE72DE9F0474FEA820A77
:100A0000074650460E469846DDF8249000F062FCFA
:100A1000054618B94FF0FF30BDE8F087502000F0D0
:100A200059FC0446002800F08D8050220021AAF1D4
:100A3000040A00F0DDFC2563554425F007056EB17E
:100A4000731E04F133020B3613F8011F02F8011F65
:100A500009B1B342F8D1002384F83F30089E04F175
:100A6000040A052E28BF05265046E6622664FFF7D5
:100A70002EFDC6F1060604F11800FFF728FD4246D8
:100A8000394628462461A661646200F081FB20603B
:100A9000B9F1000F01D0C9F8004000F09DFB364BC2
:100AA000364E1A68364F01321A603568002D4DD126
:100AB00034601B68012B1FD1B84640460135FFF753
:100AC000FBFC062D08F11408F7D1DFF8B8802E4D95
:100AD0004046FFF7F1FC2846FFF7EEFC2B48FFF7F6
:100AE000EBFC2B48FFF7E8FC2A48FFF7E5FC2A4B14
:100AF000C3F80080294B1D60294A2A4913680868F9
:100B0000013313600122E36A9A4002430A6014220F
:100B10005343F9184A689068A260E060C0F804A0E6
:100B2000C2F808A0FA5861610132FA5000F064FB83
:100B30001D4B1B6823B13368DA6AE36A9A4210D30B
:100B4000012069E7284600F02BFC63E7164B1A6882
:100B5000E36A002AD0D13268D26A9A4298BF3460E0
:100B6000CAE74FF0E0234FF08052C3F8042DBFF3E3
:100B70004F8FBFF36F8FE3E7380000202401002080
:100B8000AC000020980000208400002068000020B5
:100B9000540000203C000020800000207C00002049
:100BA0001C000020300000202C000020002310B585
:100BB000164A86B0CDE90333059303AB12F8014B17
:100BC00003F8014B002CF9D1114B5A22CDE9004317
:100BD0001048234603A9FFF70FFF012811D14FF05A
:100BE000400383F31188BFF36F8FBFF34F8F4FF034
:100BF000FF32094B1A60094B1860094B1C6000F06A
:100C000049FB084B1B6806B010BD00BF301A00003E
:100C100014000020F1090000180000202C00002022
:100C200034000020381A0000024A136801331360B0
:100C3000704700BF100000202DE9F84F514B1B6892
:100C4000002B40F09880504B1C6801341C605CB94C
:100C50004E4A4F4B1168186810604E4A196013686D
:100C600001331360FFF78EFE4B4D00202B684B4A7B
:100C70009C42DFF82CC10FD21421DCF80030DB6A73
:100C80004B43D358022B474B28BF01201B68002B36
:100C900018BF0120BDE8F88F3C4F434E3B681B68EE
:100CA0001BB94FF0FF332B60E6E73B68DB68DB687E
:100CB00059688C4201D22960DEE7D3F81480D3E969
:100CC0000219C1F80890C9F80410D8F8041003F10B
:100CD000040E71454FF0000108BFC8F80490596137
:100CE000D8F800100139C8F80010D3F82880B8F1FE
:100CF000000F15D0D3E90719C1F80890C9F80410FE
:100D0000D8F8041003F1180A51454FF0000108BF4C
:100D1000C8F804909962D8F800100139C8F800109A
:100D20004FF00108D96AD6F8009008FA01F848EAAD
:100D30000908C6F800804FF0140808FB01F802EB20
:100D4000080ADAF80490D9F808B0C3F80890C3F894
:100D50000CB0CBF804E0C9F808E0C3F814A052F8CE
:100D60000830013342F80830DCF80030DB6A994281
:100D700088BF012092E70D4A0020136801331360F9
:100D800088E700BF10000020340000208000002011
:100D90007C0000202000002018000020AC00002073
:100DA0002401002024000020300000202800002022
:100DB0002DE9F84F00F010FA484B1A68013A1A6012
:100DC0001B682BB1002400F017FA2046BDE8F88F0D
:100DD000434A1268002AF5D0012514264148424CA6
:100DE000424A434FDFF80CC153E0C368DB68D3F8D5
:100DF00028E0D3E90718C1F80880C8F80410DEF825
:100E0000041003F1180949454FF0000108BFCEF85E
:100E100004809962DEF800100139CEF80010D3F892
:100E200014E0D3E90218C1F80880C8F80410DEF80D
:100E3000041003F104094945DEF8001008BFCEF89C
:100E400004800139CEF80010D3F82CE0D4F80080EB
:100E500005FA0EF141EA080106FB0EF802EB080A5A
:100E60002160DAF80410D1F808B09960C3F80CB02A
:100E7000CBF80490C1F8089052F80810C3F814A0F9
:100E8000013142F808103968C96A8E4501D9CCF899
:100E9000005001680029A8D10BB1FFF773FD164D72
:100EA0002C6844B10127134EFFF7C6FE00B137602E
:100EB000013CF9D12C600F4B1B68002B82D00C4BEE
:100EC0004FF080521B684FF0E023C3F8042DBFF3AE
:100ED0004F8FBFF36F8F012475E700BF1000002014
:100EE000380000206800002030000020AC00002006
:100EF00024010020240000202800002008B550B95B
:100F00004FF0E0234FF08052C3F8042DBFF34F8F12
:100F1000BFF36F8F08BD0021FFF786FEFFF7DCFCF3
:100F2000FFF746FF0028EBD0F4E70000134B30B585
:100F30001A68134B12B101221A6030BD1A60114BAE
:100F40001B68B3FA83F31424DBB2C3F11F0304FB61
:100F500003F20D498818456808326D680A449542C5
:100F600004FB031108BFC268456008BF42604B68BC
:100F7000DA68064B1A601B68DFE700BF100000202C
:100F80002400002030000020AC00002024010020BC
:100F900010B50C46054B19681831FFF79BFA20462F
:100FA000BDE810400121FFF797BC00BF24010020DD
:100FB000C368F0B5DB689A6AD3E9070181604860CD
:100FC000506803F11804A04208BF516000219962E3
:100FD0001168013911601E4AD96A1268002A2AD1A3
:100FE000D3E902405A69A060446054681D1DAC42B8
:100FF00008BF5060106801381060012215488A400F
:1010000004682243026014224A4313488618746815
:10101000A7689C60DF607D60A5605E6183580133D6
:1010200083500E4B1B68DB6A994285BF01200C4B35
:1010300000201860F0BD0B4A50688568D8611D62B9
:101040006C6084609A62136801331360E9E700BF43
:101050001000002030000020AC00002024010020FF
:101060002400002068000020034B1B680360034B32
:101070001B684360704700BF200000203400002040
:1010800070B50D46044600F0A7F80F4B19682B68A1
:101090005A1C17D00D48266800686268864208D03E
:1010A0008A4206D8002301242B6000F0A5F82046D0
:1010B00070BD881A8342F5D95B1A134420462B6011
:1010C000FFF7D2FF0024F0E73400002020000020CA
:1010D0000122014B1A60704724000020F8B5044635
:1010E00008B90020F8BD436CC16A026C013B914213
:1010F0004364F6D0002BF4D1051D2846FFF701FA12
:10110000114A30B90121E06A1368814023EA0103E2
:1011100013600120236C1668C3F10601A16100FA77
:1011200003F1314311601421E3624B43074AD6189F
:1011300071688F68A160E7607D608D60D1586661DD
:101140000144D150CEE700BF30000020AC000020A9
:10115000002382B001934FF0400383F31188BFF363
:101160006F8FBFF34F8F019B002BFCD002B07047F5
:1011700006480068006880F3088862B661B6BFF36D
:101180004F8FBFF36F8F00DF00BF000008ED00E05E
:101190004FF0807340F8043C054B21F0010140F80A
:1011A000081C40F80C3C40F8202C4038704700BF29
:1011B00051110000074B19680868B0E8F00F80F380
:1011C0000988BFF36F8F4FF0000080F311884EF055
:1011D0000D0E7047240100204FF0400383F3118867
:1011E000BFF36F8FBFF34F8F024A13680133136051
:1011F000704700BF00000020034A1368013B1360E2
:101200000BB983F31188704700000020EFF30980C9
:10121000BFF36F8F0D4B1A6820E9F00F10602DE9B6
:1012200008404FF0400080F31188FFF77FFE4FF039
:10123000000080F31188BDE8084019680868B0E82C
:10124000F00F80F30988BFF36F8F704724010020EF
:1012500008B54FF0400383F31188BFF36F8FBFF3DE
:101260004F8FFFF7E9FC28B14FF0E0234FF0805299
:10127000C3F8042D002383F3118808BD4FF0E02349
:1012800000221A619A614CF24F325A6107221A61A8
:10129000704700004FF0E02310B50024D3F8202D54
:1012A00042F47F02C3F8202DD3F8202D42F07F4274
:1012B000C3F8202DC3F81C4DFFF7E0FF044B1C6062
:1012C000FFF756FFFFF732FEFFF742FF204610BD43
:1012D00000000020F8B5431E0A334FD810F0070372
:1012E00000F1080405D0A3F10902A24246D3103050
:1012F000C41AFFF799FC2548016871B94CF2F875DA
:10130000234B244A23F00703C2E90031224AC3E9F0
:1013100000250123C2E900150360002C33DD1F4EB8
:101320003068A0422FD31B4A13685968A14201D2EA
:101330001D682DBB184DAB4225D01F68156817607E
:101340000A1B102A05F108050CD919194A605C60BE
:101350004F68104A14461268D2F804C0BC45F9D34D
:101360000A6021605A68801A42F000425A600022E6
:1013700030601A60FFF71CFD2846F8BD0024B8E76E
:101380001A462B46D1E70025F4E700BF28010020CC
:1013900043010020340100202C0100200400002023
:1013A00010B50446F8B150F8043C002B1BDA50F895
:1013B000082CC2B923F0004340F8043CFFF734FC8A
:1013C00054F8041C084B1A461B6858688842FAD324
:1013D00044F8083D1460054ABDE8104013680B440A
:1013E0001360FFF7E5BC10BD3401002004000020AD
:1013F00070B5860747D0541E002A3ED00346CAB2B5
:1014000001E0013C39D303F8012B9D07F9D1032CEE
:101410002CD9CDB205EB05250F2C1A4605EB054559
:1014200034D9A4F1100C2CF00F0603F1100EB644C1
:101430004FEA1C1CC2E90055C2E902551032724540
:10144000F8D10CF1010214F00C0F03EB021204F0BE
:101450000F0C13D0ACF1040323F003030433134443
:1014600042F8045B9342FBD10CF003042CB1C9B2E7
:101470001C4403F8011BA342FBD170BD6446134614
:10148000002CF4D1F9E703461446C0E7A446E1E78F
:10149000844641EA000313F0030349D1403A23D3C1
:1014A0000B6803604B6843608B688360CB68C360E4
:1014B0000B6903614B6943618B698361CB69C361CC
:1014C0000B6A03624B6A43628B6A8362CB6AC362B4
:1014D0000B6B03634B6B43638B6B8363CB6BC3639C
:1014E00040304031403ADBD230320BD30B680360DE
:1014F0004B6843608B688360CB68C36010301031E9
:10150000103AF3D20C3205D351F8043B40F8043BB7
:10151000043AF9D2043208D0D2071CBF11F8013BBB
:1015200000F8013B01D30B8803806046704700BF81
:10153000082A13D38B07B1D010F00303AED0C3F148
:101540000403D21ADB071CBF11F8013B00F8013B72
:10155000A4D331F8023B20F8023B9FE7043AD9D3E9
:10156000013A11F8013B00F8013BF9D20B78037006
:101570004B7843708B7883706046704780EA010235
:10158000844612F0030F4FD111F0030F32D14DF802
:10159000044D11F0040F51F8043B0BD0A3F10132BC
:1015A0009A4312F0803F04BF4CF8043B51F8043BCF
:1015B00016D100BF51F8044BA3F101329A4312F047
:1015C000803FA4F101320BD14CF8043BA24312F04E
:1015D000803F04BF51F8043B4CF8044BEAD023464B
:1015E0000CF8013B13F0FF0F4FEA3323F8D15DF8FD
:1015F000044B704711F0010F06D011F8012B0CF8C5
:10160000012B002A08BF704711F0020FBFD031F83C
:10161000022B12F0FF0F16BF2CF8022B8CF80020C3
:1016200012F47F4FB3D1704711F8012B0CF8012B46
:10163000002AF9D1704700BF5B53656E6465723252
:101640005D20E5AD97E7ACA6E4B8B2E58F91E980FF
:1016500081E4BBBBE58AA1E590AFE58AA8EFBC8138
:101660000D0A0048656C6C6F2023005B53656E6447
:101670006572325D20E58786E5A487E58F91E98074
:10168000813A20005B53656E646572325D20E99497
:1016900099E8AFAFEFBC9AE9989FE58897E6BBA1C0
:1016A000EFBC8CE58F91E98081E5A4B1E8B4A5EFAA
:1016B000BC810D0A005B53656E646572325D20E586
:1016C0008F91E98081E68890E58A9FEFBC810D0AC1
:1016D000005B5265636569766572325D20E5AD97A2
:1016E000E7ACA6E4B8B2E68EA5E694B6E4BBBBE5EB
:1016F0008AA1E590AFE58AA8EFBC810D0A005B5294
:1017000065636569766572325D20E694B6E588B0FA
:10171000E6B688E681AF3A20005B5265636569767C
:101720006572325D20E7AD89E5BE85E6B688E68163
:10173000AFE8B685E697B62E2E2E0D0A003D3D3D4C
:101740003D3D3D3D3D3D3D3D3D3D3D3D3D3D3D3DC9
:101750003D3D3D3D3D3D3D3D3D3D3D3D3D3D3D3DB9
:101760003D0D0A0020204672656552544F53E9989A
:101770009FE58897E9809AE4BFA1E7A4BAE4BE8B0D
:101780000D0A00E5ADA6E4B9A0E8A681E782B9EFAD
:10179000BC9A0D0A00312E20E5889BE5BBBAE9987A
:1017A0009FE588972078517565756543726561740A
:1017B0006528290D0A00322E20E58F91E98081E607
:1017C00095B0E68DAE2078517565756553656E648C
:1017D00028290D0A00332E20E68EA5E694B6E6955C
:1017E000B0E68DAE207851756575655265636569A3
:1017F000766528290D0A00342E20E4BBBBE58AA1BA
:10180000E997B4E9809AE4BFA1E4B88EE5908CE64C
:10181000ADA50D0A00E6ADA3E59CA8E5889BE5BB58
:10182000BAE9989FE588972E2E2E0D0A00E9949923
:10183000E8AFAFEFBC9AE9989FE58897E5889BE50C
:10184000BBBAE5A4B1E8B4A5EFBC81EFBC88E586DE
:1018500085E5AD98E4B88DE8B6B3EFBC9FEFBC89E1
:101860000D0A00E9989FE58897E5889BE5BBBAE6F5
:101870008890E58A9FEFBC810D0A00E6ADA3E59C48
:10188000A8E5889BE5BBBAE4BBBBE58AA12E2E2E5A
:101890000D0A00496E7453656E646572005374726C
:1018A00053656E64657200496E745265636569764E
:1018B000657200537472526563656976657200E6FD
:1018C0008980E69C89E4BBBBE58AA1E5889BE5BBF2
:1018D000BAE68890E58A9FEFBC810D0A00E590AFDB
:1018E000E58AA84672656552544F53E8B083E5BA5D
:1018F000A6E599A82E2E2E0D0A00E99499E8AFAF1F
:10190000EFBC9AE8B083E5BAA6E599A8E590AFE503
:101910008AA8E5A4B1E8B4A5EFBC810D0A005B5329
:10192000656E646572315D20E695B4E695B0E58F2D
:1019300091E98081E4BBBBE58AA1E590AFE58AA887
:10194000EFBC810D0A005B53656E646572315D20EA
:10195000E58786E5A487E58F91E980813A20005BE1
:1019600053656E646572315D20E99499E8AFAFEF1D
:10197000BC9AE9989FE58897E6BBA1EFBC8CE58F00
:1019800091E98081E5A4B1E8B4A5EFBC810D0A001E
:101990005B53656E646572315D20E58F91E98081EE
:1019A000E68890E58A9FEFBC810D0A005B52656373
:1019B0006569766572315D20E695B4E695B0E68E90
:1019C000A5E694B6E4BBBBE58AA1E590AFE58AA89D
:1019D000EFBC810D0A005B52656365697665723103
:1019E0005D20E694B6E588B0E695B0E68DAE3A2087
:1019F000005B5265636569766572315D20E5A4849C
:101A0000E79086E7BB93E69E9C3A20005B526563B5
:101A10006569766572315D20E7AD89E5BE85E6953D
:101A2000B0E68DAEE8B685E697B62E2E2E0D0A00EE
:101A300049444C450000000005000000F8B500BF17
:041A4000F8B500BF36
:081A4400AAAAAAAAF8C7000033
:00000001FF
