:1000000000000120F5000000F1000000F1000000F8
:10001000F1000000F1000000F1000000000000000D
:100020000000000000000000000000007D1400003F
:10003000F100000000000000D514000019150000B8
:10004000F1000000F1000000F1000000F1000000EC
:10005000F1000000F1000000F1000000F1000000DC
:10006000F1000000F1000000F1000000F1000000CC
:10007000F1000000F1000000F1000000F1000000BC
:10008000F1000000F1000000F1000000F1000000AC
:10009000F1000000F1000000F1000000F10000009C
:1000A000F1000000F1000000F1000000F10000008C
:1000B000F1000000F1000000F1000000F10000007C
:1000C000F1000000F1000000F1000000F10000006C
:1000D000F1000000F1000000F1000000F10000005C
:1000E000F100000000000000F1000000F10000003D
:1000F000FEE7000008B50E4B0E48DA1C121AC11EAE
:1001000022F00302994288BF00220B4901F024FB30
:100110000A4B0B48DA1C121AC11E22F00302994244
:1001200088BF0022002101F0C7FA00F01DF8FEE7A9
:1001300008000020000000201C20000080C90020D2
:1001400008000020024B9A699206FCD418607047A0
:1001500000C0004008B5411E11F8010F00B908BDEC
:10016000FFF7F0FFF8E7000007B54548FFF7F2FF9B
:100170004448FFF7EFFF4448FFF7ECFF4148FFF723
:10018000E9FF3F48FFF7E6FF4048FFF7E3FF40483D
:10019000FFF7E0FF3F48FFF7DDFF3F48FFF7DAFFDB
:1001A0003E48FFF7D7FF3648FFF7D4FF3C48FFF73C
:1001B000D1FF03220021012000F017FB394B18600A
:1001C00018B93948FFF7C6FFFEE73848FFF7C2FF06
:1001D0002B48FFF7BFFF3648FFF7BCFF012000F0B8
:1001E000A3FB344B186018B93348FFF7B3FFFEE7A1
:1001F000002402253148FFF7ADFF2148FFF7AAFF91
:100200002F48FFF7A7FF23468022CDE900542D4950
:100210002D4800F0B9FCCDE9005403252346802287
:100220002A492B4800F0B0FC2346802229492A485D
:100230000194009500F0A8FC234680222749CDE9CF
:100240000054274800F0A0FC012380222549009398
:1002500025482346019400F097FC2448FFF77AFFD5
:100260000748FFF777FF2248FFF774FF0448FFF7BE
:1002700071FF00F063FD1F48FFF76CFFFEE700BF52
:10028000072000000019000027190000491900008C
:100290005B1900007F190000A3190000CC190000B1
:1002A000F619000050000020171A0000411A000043
:1002B000621A00004C000020831A0000AD1A0000F2
:1002C000CE1A0000E61A000045030000EC1A0000F8
:1002D000A5030000F21A00000D040000F81A000047
:1002E000E1040000FE1A0000B5050000061B000036
:1002F000241B0000411B0000F0B585B028B9302058
:1003000005B0BDE8F040FFF71DBF6A460023164662
:100310000A24B0FBF4F5074604FB1501092F01F18F
:10032000300102F8011B2846194603F1010302D9E6
:100330000F2BEED10E21705CFFF704FF0139FAD2CA
:1003400005B0F0BDF8B51148FFF704FF0024104FC9
:10035000104E114D38460134FFF7FCFE2046FFF7E2
:10036000CBFF3046FFF7F6FE2846FFF7F3FE0023EB
:100370000A481A461946006800F059FA0848FFF77B
:10038000E9FE4FF4FA7000F081FEE3E7651B000020
:10039000911B0000B81B0000C91B0000500000208A
:1003A000E61B0000F8B51248FFF7D4FE0024114FF9
:1003B000114E124D3846FFF7CDFE4FF0FF31306839
:1003C00000F0C4FA0128F5D128460134FFF7C2FE37
:1003D0002046FFF791FF0A48FFF7BCFE0948FFF7E8
:1003E000B9FE642000F052FE0748FFF7B3FEE1E7D4
:1003F000061C0000321C0000500000204F1C0000B2
:1004000007200000731C0000931C00002DE9F04140
:100410002548FFF79FFE254F254EDFF89880384688
:10042000FFF798FE6421306800F090FA012839D176
:10043000214D2248FFF78EFE2C682148FFF78AFEE7
:100440002046FFF759FF1F48FFF784FE322000F0D7
:100450001DFE0A341C482C60FFF77CFE2868FFF75D
:100460004BFF1848FFF776FE1849194801F0EAF9E2
:100470001848FFF76FFE1648FFF76CFE1148FFF7AC
:1004800069FE1548FFF766FE002330681A461946D4
:1004900000F0CDF91148FFF75DFE4FF4967000F0C3
:1004A000F5FDBCE74046F6E7B31C0000E01C000089
:1004B0004C000020DB1D000048000020031D000050
:1004C0002A1D0000072000004A1D00006A1D0000D0
:1004D000080000207A1D00009A1D0000B71D0000D2
:1004E0002DE9F0412548FFF735FE254F254EDFF871
:1004F00098803846FFF72EFE6421306800F026FA17
:10050000012838D1214D2248FFF724FE2C682148CC
:10051000FFF720FE2046FFF7EFFE1F48FFF71AFE09
:100520001E2000F0B3FD01341C482C60FFF712FEC2
:100530002868FFF7E1FE1848FFF70CFE1849194834
:1005400001F080F91848FFF705FE1648FFF702FE94
:100550001148FFF7FFFD1548FFF7FCFD0023306849
:100560001A46194600F063F91148FFF7F3FDFA2027
:1005700000F08CFDBDE74046F7E700BF021E00001B
:100580002F1E00004C0000202A1F00004800002001
:10059000521E0000791E000007200000991E000076
:1005A000B91E000008000020C91E0000E91E00005E
:1005B000061F000008B51248FFF7CCFD114E124D82
:1005C000124C3046FFF7C6FD2846FFF7C3FD104B1F
:1005D0001868FFF791FE2046FFF7BCFD0D48FFF7B6
:1005E000B9FD0D48FFF7B6FD2046FFF7B3FD0B48F8
:1005F000FFF7B0FD4FF47A7000F048FDE1E700BF6F
:10060000511F0000731F0000A41F000007200000FE
:1006100048000020C11F000008000020DE1F00006D
:100620004FF0FF3200F10803C0E902234360036189
:1006300000230360704700230361704730B50C68E6
:10064000631C0AD103695A684A6091608B605960E3
:10065000036808610133036030BD00F108021346EE
:1006600052681568A542FAD9EDE70369D0E901128D
:100670008A6051605968814208BF5A600022026155
:10068000186801381860704710B5044600F008FF7C
:10069000A46B00F015FFB4FA84F0400910BD70B5EA
:1006A0001646026C0446856B42B906689EB980689E
:1006B00000F02CFEA6600135A56370BD6EB94068E0
:1006C00001F04AF86368226C1344A26863609342A5
:1006D00024BF236863600020EDE7C06801F03CF8A8
:1006E000226CE36851429B1A2268E36093423EBF4A
:1006F000A3685B18E360022EEDD10DB1013DEAE77E
:100700002846D8E770B5044600F0CAFE94F8455074
:1007100004F124066DB2002D01DD636AB3B9FF2335
:1007200084F8453000F0CCFE00F0BAFE94F8445056
:1007300004F110066DB2002D01DD23697BB9FF23A2
:1007400084F84430BDE8704000F0BABE304600F096
:10075000F7FC08B100F084FD013D6DB2DBE73046E7
:1007600000F0EEFC08B100F07BFD013D6DB2E2E768
:1007700070B50E46044610B3C06B00B3236CA3FBE8
:100780000035DDB900F08CFED4E90F314B4322680F
:10079000A563D0185B1A62601A44FF23A06084F836
:1007A0004430E26084F8453056B104F11000FFF7A0
:1007B00037FF04F12400FFF733FF12E0002070BD83
:1007C000236973B104F1100000F0BAFC48B14FF096
:1007D000E0234FF08052C3F8042DBFF34F8FBFF3D7
:1007E0006F8F00F06DFE0120E9E770B50D460646FB
:1007F00010B90024204670BDA1FB0023002BF8D1C6
:10080000484310F1490FF4D8483000F0C7FE0446C1
:100810000028EED04DB100F1480301212046C4E983
:100820000F652360FFF7A4FFE4E70346F5E72DE932
:10083000FF41002704460E461D46B846019200F0CF
:100840002FFEA26BE36B9A421BD22A46314620460A
:10085000FFF725FF636A1BB104F1240000F070FC70
:1008600048B14FF0E0234FF08052C3F8042DBFF39E
:100870004F8FBFF36F8F00F023FE012004B0BDE85F
:10088000F081022DE1D0019B1BB900F019FE002080
:10089000F4E717B902A800F0AFFC00F011FE00F079
:1008A0008BFA00F0FDFD94F84430FF2B08BF84F86C
:1008B000448094F84530FF2B08BF84F8458000F051
:1008C000FFFD01A902A800F0A3FC38BB00F0E8FD81
:1008D000A26BE36B9A420ED100F0F2FD019904F194
:1008E000100000F01DFC2046FFF70CFF00F028FB75
:1008F00048B10127A3E700F0E3FD2046FFF702FF20
:1009000000F01EFBF5E74FF0E0234FF08052C3F8F4
:10091000042DBFF34F8FBFF36F8FEAE72046FFF739
:10092000F1FE00F00DFBB2E7024610B500210120F8
:10093000FFF75BFF044638B100231A46194683606F
:100940000360C360FFF773FF204610BDF0B50025BC
:1009500004462F462E4685B0019100F0A1FDA36B01
:10096000E3B1013BA363236813B900F04BFDA06022
:10097000236973B104F1100000F0E2FB48B14FF0BD
:10098000E0234FF08052C3F8042DBFF34F8FBFF325
:100990006F8F00F095FD012005B0F0BD019B1BB9E4
:1009A00000F08EFD0020F7E717B902A800F024FC44
:1009B00000F086FD00F000FA00F072FD94F844307B
:1009C000FF2B08BF84F8446094F84530FF2B08BF24
:1009D00084F8456000F074FD01A902A800F018FC3D
:1009E00050BB2046FFF750FE00B323683BB900F030
:1009F00057FDA06800F03AFC054600F061FD019942
:100A000004F1240000F08CFB2046FFF77BFE00F091
:100A100097FA48B94FF0E0234FF08052C3F8042D05
:100A2000BFF34F8FBFF36F8F012796E72046FFF785
:100A300069FE00F085FAF7E72046FFF763FE00F055
:100A40007FFA2046FFF720FE0028EDD0002DA9D028
:100A500000F026FD616A19B1236B1968C1F1060126
:100A6000A06800F08DFC9BE72DE9F843224B234C56
:100A70001D68234B0646D3F80080224B0F46D3F85F
:100A8000009020680430FFF7F0FD40B922681E494D
:100A9000D06A01220B68824023EA02030B60731CB8
:100AA00014D19FB1194B21685A688A6090682168F7
:100AB000C860216804314160216804319160226876
:100AC00053611A6801321A60BDE8F883236821680F
:100AD000AD195D6001F1040104D34846BDE8F84357
:100AE000FFF7ACBD4046FFF7A9FD094B1A68AA42C3
:100AF00088BF1D60E8E700BF780000206801002083
:100B0000C4000020C00000207400002080000020ED
:100B10005C000020064A13681968064B19B94FF0AB
:100B2000FF321A6070471268D2681268F9E700BF96
:100B3000C40000205C000020F8B50E4C0E4F0F4E94
:100B4000236803B9F8BD00F0ABFCFB68DD68281D25
:100B5000FFF78BFD3368013B33602368013B236063
:100B600000F0AEFC286B00F07FFD284600F07CFD15
:100B7000E6E700BF94000020980000207C000020E1
:100B800008B5FFF7D9FFFCE72DE9F0474FEA820AE5
:100B9000074650460E469846DDF8249000F0FEFCCD
:100BA000054618B94FF0FF30BDE8F087502000F03F
:100BB000F5FC0446002800F08D8050220021AAF1A7
:100BC000040A00F079FD2563554425F007056EB150
:100BD000731E04F133020B3613F8011F02F8011FD4
:100BE00009B1B342F8D1002384F83F30089E04F1E4
:100BF000040A052E28BF05265046E6622664FFF744
:100C00001AFDC6F1060604F11800FFF714FD42466E
:100C1000394628462461A661646200F01DFC20600C
:100C2000B9F1000F01D0C9F8004000F039FC364B93
:100C3000364E1A68364F01321A603568002D4DD194
:100C400034601B68012B1FD1B84640460135FFF7C1
:100C5000E7FC062D08F11408F7D1DFF8B8802E4D17
:100C60004046FFF7DDFC2846FFF7DAFC2B48FFF78C
:100C7000D7FC2B48FFF7D4FC2A48FFF7D1FC2A4BBE
:100C8000C3F80080294B1D60294A2A491368086867
:100C9000013313600122E36A9A4002430A6014227E
:100CA0005343F9184A689068A260E060C0F804A055
:100CB000C2F808A0FA5861610132FA5000F000FC55
:100CC0001D4B1B6823B13368DA6AE36A9A4210D37A
:100CD000012069E7284600F0C7FC63E7164B1A6855
:100CE000E36A002AD0D13268D26A9A4298BF34604F
:100CF000CAE74FF0E0234FF08052C3F8042DBFF352
:100D00004F8FBFF36F8FE3E77C0000206801002066
:100D1000F0000020DC000020C8000020AC00002013
:100D20009800002080000020C4000020C0000020A7
:100D3000600000207400002070000020002310B527
:100D4000164A86B0CDE90333059303AB12F8014B85
:100D500003F8014B002CF9D1114B5A22CDE9004385
:100D60001048234603A9FFF70FFF012811D14FF0C8
:100D7000400383F31188BFF36F8FBFF34F8F4FF0A2
:100D8000FF32094B1A60094B1860094B1C6000F0D8
:100D9000E5FB084B1B6806B010BD00BF0A20000031
:100DA00058000020810B00005C0000207000002033
:100DB0007800002010200000024A136801331360FD
:100DC000704700BF540000202DE9F84F514B1B68BD
:100DD000002B40F09880504B1C6801341C605CB9BB
:100DE0004E4A4F4B1168186810604E4A19601368DC
:100DF00001331360FFF78EFE4B4D00202B684B4AEA
:100E00009C42DFF82CC10FD21421DCF80030DB6AE1
:100E10004B43D358022B474B28BF01201B68002BA4
:100E200018BF0120BDE8F88F3C4F434E3B681B685C
:100E30001BB94FF0FF332B60E6E73B68DB68DB68EC
:100E400059688C4201D22960DEE7D3F81480D3E9D7
:100E50000219C1F80890C9F80410D8F8041003F179
:100E6000040E71454FF0000108BFC8F804905961A5
:100E7000D8F800100139C8F80010D3F82880B8F16C
:100E8000000F15D0D3E90719C1F80890C9F804106C
:100E9000D8F8041003F1180A51454FF0000108BFBB
:100EA000C8F804909962D8F800100139C8F8001009
:100EB0004FF00108D96AD6F8009008FA01F848EA1C
:100EC0000908C6F800804FF0140808FB01F802EB8F
:100ED000080ADAF80490D9F808B0C3F80890C3F803
:100EE0000CB0CBF804E0C9F808E0C3F814A052F83D
:100EF0000830013342F80830DCF80030DB6A9942F0
:100F000088BF012092E70D4A002013680133136067
:100F100088E700BF5400002078000020C4000020B3
:100F2000C0000020640000205C000020F0000020D1
:100F30006801002068000020740000206C00002080
:100F40002DE9F84F00F0ACFA484B1A68013A1A60E4
:100F50001B682BB1002400F0B3FA2046BDE8F88FDF
:100F6000434A1268002AF5D0012514264148424C14
:100F7000424A434FDFF80CC153E0C368DB68D3F843
:100F800028E0D3E90718C1F80880C8F80410DEF893
:100F9000041003F1180949454FF0000108BFCEF8CD
:100FA00004809962DEF800100139CEF80010D3F801
:100FB00014E0D3E90218C1F80880C8F80410DEF87C
:100FC000041003F104094945DEF8001008BFCEF80B
:100FD00004800139CEF80010D3F82CE0D4F800805A
:100FE00005FA0EF141EA080106FB0EF802EB080AC9
:100FF0002160DAF80410D1F808B09960C3F80CB099
:10100000CBF80490C1F8089052F80810C3F814A067
:10101000013142F808103968C96A8E4501D9CCF807
:10102000005001680029A8D10BB1FFF773FD164DE0
:101030002C6844B10127134EFFF7C6FE00B137609C
:10104000013CF9D12C600F4B1B68002B82D00C4B5C
:101050004FF080521B684FF0E023C3F8042DBFF31C
:101060004F8FBFF36F8F012475E700BF540000203E
:101070007C000020AC00002074000020F000002064
:1010800068010020680000206C00002008B550B9FD
:101090004FF0E0234FF08052C3F8042DBFF34F8F81
:1010A000BFF36F8F08BD0021FFF786FEFFF7DCFC62
:1010B000FFF746FF0028EBD0F4E70000134B30B5F4
:1010C0001A68134B12B101221A6030BD1A60114B1D
:1010D0001B68B3FA83F31424DBB2C3F11F0304FBD0
:1010E00003F20D498818456808326D680A44954234
:1010F00004FB031108BFC268456008BF42604B682B
:10110000DA68064B1A601B68DFE700BF5400002056
:101110006800002074000020F0000020680100201A
:1011200010B50C46054B19681831FFF787FA2046B1
:10113000BDE810400121FFF797BC00BF6801002007
:10114000C368F0B5DB689A6AD3E90701816048603B
:10115000506803F11804A04208BF51600021996251
:101160001168013911601E4AD96A1268002A2AD111
:10117000D3E902405A69A060446054681D1DAC4226
:1011800008BF5060106801381060012215488A407D
:1011900004682243026014224A4313488618746884
:1011A000A7689C60DF607D60A5605E618358013345
:1011B00083500E4B1B68DB6A994285BF01200C4BA4
:1011C00000201860F0BD0B4A50688568D8611D6228
:1011D0006C6084609A62136801331360E9E700BFB2
:1011E0005400002074000020F0000020680100205E
:1011F00068000020AC000020034B1B680360034B19
:101200001B684360704700BF640000207800002026
:1012100070B50D46044600F043F90F4B19682B6872
:101220005A1C17D00D48266800686268864208D0AC
:101230008A4206D8002301242B6000F041F92046A1
:1012400070BD881A8342F5D95B1A134420462B607F
:10125000FFF7D2FF0024F0E77800002064000020B0
:101260000122014B1A60704768000020F8B504465F
:10127000002837D0224DC36A2A68D26A934236D2F8
:101280008269204E002AA1BF2A68D26AC2F10602F2
:101290008261142202FB036342699A4223D1071D33
:1012A0003846FFF7E2F9184930B90122E06A0B68C5
:1012B000824023EA02030B6001222B680868DB6A84
:1012C0009A4002430A601422E3625343F1184A68C9
:1012D0009068A260E06047609760F25861610132F7
:1012E000F2500120F8BD2B68DB6AC362F9E72B6876
:1012F000006CDB6A98422CBF00200120F2E700BF9F
:1013000068010020F000002074000020F8B50446B9
:1013100008B90020F8BD436CC16A026C013B9142E0
:101320004364F6D0002BF4D1051D2846FFF79DF944
:10133000114A30B90121E06A1368814023EA0103B0
:1013400013600120236C1668C3F10601A16100FA45
:1013500003F1314311601421E3624B43074AD6186D
:1013600071688F68A160E7607D608D60D1586661AB
:101370000144D150CEE700BF74000020F0000020EF
:10138000F8B50446002837D0036CC76A994238BFC5
:1013900019468F4230D0436C012B2DD18369174DF4
:1013A000002B4FF0140303FB07534269C162A4BF33
:1013B000C1F1060181619A421ED1061D3046FFF738
:1013C00054F90F4928B901220B68BA4023EA0203F5
:1013D0000B600122E36A08689A4002430A60142203
:1013E0005343E9184A689068A260E06046609660DE
:1013F000EA5861610132EA50F8BD00BFF0000020F8
:1014000074000020034B186810B1436C013343642F
:10141000704700BF68010020002382B001934FF0A5
:10142000400383F31188BFF36F8FBFF34F8F019B8E
:10143000002BFCD002B0704706480068006880F3BB
:10144000088862B661B6BFF34F8FBFF36F8F00DFBE
:1014500000BF000008ED00E04FF0807340F8043C4E
:10146000054B21F0010140F8081C40F80C3C40F805
:10147000202C4038704700BF19140000074B196832
:101480000868B0E8F00F80F30988BFF36F8F4FF062
:10149000000080F311884EF00D0E704768010020A7
:1014A0004FF0400383F31188BFF36F8FBFF34F8F6B
:1014B000024A136801331360704700BF0000002028
:1014C000034A1368013B13600BB983F3118870471B
:1014D00000000020EFF30980BFF36F8F0D4B1A68F7
:1014E00020E9F00F10602DE908404FF0400080F334
:1014F0001188FFF7E3FD4FF0000080F31188BDE88D
:10150000084019680868B0E8F00F80F30988BFF355
:101510006F8F70476801002008B54FF0400383F3D8
:101520001188BFF36F8FBFF34F8FFFF74DFC28B1CA
:101530004FF0E0234FF08052C3F8042D002383F3D3
:10154000118808BD4FF0E02300221A619A614CF225
:101550004F325A6107221A61704700004FF0E023B2
:1015600010B50024D3F8202D42F47F02C3F8202DBB
:10157000D3F8202D42F07F42C3F8202DC3F81C4D34
:10158000FFF7E0FF044B1C60FFF756FFFFF796FDE7
:10159000FFF742FF204610BD00000020F8B5431EB3
:1015A0000A334FD810F0070300F1080405D0A3F167
:1015B0000902A24246D31030C41AFFF7FDFB2548AA
:1015C000016871B94CF2F875234B244A23F00703E4
:1015D000C2E90031224AC3E900250123C2E900150E
:1015E0000360002C33DD1F4E3068A0422FD31B4A0E
:1015F00013685968A14201D21D682DBB184DAB423A
:1016000025D01F68156817600A1B102A05F1080508
:101610000CD919194A605C604F68104A1446126868
:10162000D2F804C0BC45F9D30A6021605A68801A18
:1016300042F000425A60002230601A60FFF780FCDE
:101640002846F8BD0024B8E71A462B46D1E7002506
:10165000F4E700BF6C010020870100207801002022
:10166000700100200400002010B50446F8B150F8C5
:10167000043C002B1BDA50F8082CC2B923F00043BD
:1016800040F8043CFFF798FB54F8041C084B1A463A
:101690001B6858688842FAD344F8083D1460054A2C
:1016A000BDE8104013680B441360FFF749BC10BD40
:1016B000780100200400002070B5860747D0541E32
:1016C000002A3ED00346CAB201E0013C39D303F8F8
:1016D000012B9D07F9D1032C2CD9CDB205EB0525A3
:1016E0000F2C1A4605EB054534D9A4F1100C2CF04B
:1016F0000F0603F1100EB6444FEA1C1CC2E9005558
:10170000C2E9025510327245F8D10CF1010214F011
:101710000C0F03EB021204F00F0C13D0ACF1040316
:1017200023F003030433134442F8045B9342FBD1D8
:101730000CF003042CB1C9B21C4403F8011BA342F2
:10174000FBD170BD64461346002CF4D1F9E7034683
:101750001446C0E7A446E1E7844641EA000313F0DB
:10176000030349D1403A23D30B6803604B684360BD
:101770008B688360CB68C3600B6903614B6943610D
:101780008B698361CB69C3610B6A03624B6A4362F5
:101790008B6A8362CB6AC3620B6B03634B6B4363DD
:1017A0008B6B8363CB6BC36340304031403ADBD2F9
:1017B00030320BD30B6803604B6843608B688360E7
:1017C000CB68C36010301031103AF3D20C3205D31D
:1017D00051F8043B40F8043B043AF9D2043208D0F3
:1017E000D2071CBF11F8013B00F8013B01D30B8865
:1017F00003806046704700BF082A13D38B07B1D01F
:1018000010F00303AED0C3F10403D21ADB071CBFF0
:1018100011F8013B00F8013BA4D331F8023B20F85A
:10182000023B9FE7043AD9D3013A11F8013B00F893
:10183000013BF9D20B7803704B7843708B7883703F
:101840006046704780EA0102844612F0030F4FD1D0
:1018500011F0030F32D14DF8044D11F0040F51F87F
:10186000043B0BD0A3F101329A4312F0803F04BF36
:101870004CF8043B51F8043B16D100BF51F8044B1F
:10188000A3F101329A4312F0803FA4F101320BD14F
:101890004CF8043BA24312F0803F04BF51F8043BD4
:1018A0004CF8044BEAD023460CF8013B13F0FF0F31
:1018B0004FEA3323F8D15DF8044B704711F0010F64
:1018C00006D011F8012B0CF8012B002A08BF704735
:1018D00011F0020FBFD031F8022B12F0FF0F16BF2C
:1018E0002CF8022B8CF8002012F47F4FB3D17047F4
:1018F00011F8012B0CF8012B002AF9D1704700BF19
:101900003D3D3D3D3D3D3D3D3D3D3D3D3D3D3D3D07
:101910003D3D3D3D3D3D3D3D3D3D3D3D3D3D3D3DF7
:101920003D3D3D3D0D0A0020204672656552544FF5
:1019300053E4BFA1E58FB7E9878FE4BDBFE794A863
:10194000E7A4BAE4BE8B0D0A00E5ADA6E4B9A0E8B1
:10195000A681E782B9EFBC9A0D0A00312E20E4BAC5
:101960008CE580BCE4BFA1E58FB7E9878F202D20EF
:10197000E4BBBBE58AA1E5908CE6ADA50D0A00327B
:101980002E20E4BA92E696A5E4BFA1E58FB7E987D9
:101990008F202D20E8B584E6BA90E4BF9DE68AA4A6
:1019A0000D0A00332E207853656D6170686F726583
:1019B00054616B652829202F207853656D6170680C
:1019C0006F72654769766528290D0A00342E20E478
:1019D000BC98E58588E7BAA7E7BBA7E689BFEFBC57
:1019E00088E4BA92E696A5E4BFA1E58FB7E9878FB0
:1019F000EFBC890D0A00E6ADA3E59CA8E5889BE550
:101A0000BBBAE4BA8CE580BCE4BFA1E58FB7E98737
:101A10008F2E2E2E0D0A00E99499E8AFAFEFBC9AF5
:101A2000E4BA8CE580BCE4BFA1E58FB7E9878FE518
:101A3000889BE5BBBAE5A4B1E8B4A5EFBC810D0A6B
:101A400000E4BA8CE580BCE4BFA1E58FB7E9878FDD
:101A5000E5889BE5BBBAE68890E58A9FEFBC810DDF
:101A60000A00E6ADA3E59CA8E5889BE5BBBAE4BA0D
:101A700092E696A5E4BFA1E58FB7E9878F2E2E2EBB
:101A80000D0A00E99499E8AFAFEFBC9AE4BA92E688
:101A900096A5E4BFA1E58FB7E9878FE5889BE5BBF5
:101AA000BAE5A4B1E8B4A5EFBC810D0A00E4BA928E
:101AB000E696A5E4BFA1E58FB7E9878FE5889BE5AA
:101AC000BBBAE68890E58A9FEFBC810D0A00E6ADBF
:101AD000A3E59CA8E5889BE5BBBAE4BBBBE58AA16E
:101AE0002E2E2E0D0A005461736B31005461736BFE
:101AF00032005461736B33005461736B34004D6F6B
:101B00006E69746F7200E68980E69C89E4BBBBE570
:101B10008AA1E5889BE5BBBAE68890E58A9FEFBC81
:101B2000810D0A00E590AFE58AA8467265655254BA
:101B30004F53E8B083E5BAA6E599A82E2E2E0D0ADC
:101B400000E99499E8AFAFEFBC9AE8B083E5BAA694
:101B5000E599A8E590AFE58AA8E5A4B1E8B4A5EFBA
:101B6000BC810D0A005B5461736B315D20E5908C84
:101B7000E6ADA5E4BA8BE4BBB6E8A7A6E58F91E491
:101B8000BBBBE58AA1E590AFE58AA8EFBC810D0A51
:101B9000000D0A5B5461736B315D203D3D3D3D3D61
:101BA0003D3D3D3D3D3D3D3D20E4BA8BE4BBB6E5CA
:101BB0008F91E7949F202300203D3D3D3D3D3D3DDD
:101BC0003D3D3D3D3D3D0D0A005B5461736B315D14
:101BD00020E58F91E98081E4BFA1E58FB7E9878F88
:101BE0002E2E2E0D0A005B5461736B315D20E4BF15
:101BF000A1E58FB7E9878FE5B7B2E58F91E98081DD
:101C0000EFBC810D0A005B5461736B325D20E5907F
:101C10008CE6ADA5E4BA8BE4BBB6E7AD89E5BE853D
:101C2000E4BBBBE58AA1E590AFE58AA8EFBC810DD6
:101C30000A005B5461736B325D20E7AD89E5BE85B8
:101C4000E4BFA1E58FB7E9878F2E2E2E0D0A005B2A
:101C50005461736B325D20E29C9320E694B6E58874
:101C6000B0E4BA8BE4BBB6EFBC81E680BBE695B0CE
:101C70003A20005B5461736B325D20E6ADA3E59CB6
:101C8000A8E5A484E79086E4BA8BE4BBB62E2E2E9A
:101C90000D0A005B5461736B325D20E4BA8BE4BBC8
:101CA000B6E5A484E79086E5AE8CE68890EFBC812B
:101CB0000D0A005B5461736B335D20E585B1E4BAB6
:101CC000ABE8B584E6BA90E4BFAEE694B9E4BBBB3A
:101CD000E58AA141E590AFE58AA8EFBC810D0A0035
:101CE0005B5461736B335D20E5B09DE8AF95E88E82
:101CF000B7E58F96E4BA92E696A5E994812E2E2E4A
:101D00000D0A005B5461736B335D20E29C9320E805
:101D10008EB7E58F96E4BA92E696A5E99481E688B7
:101D200090E58A9FEFBC810D0A005B5461736B33B1
:101D30005D20E8AFBBE58F96E585B1E4BAABE8AED0
:101D4000A1E695B0E599A83A20005B5461736B3326
:101D50005D20E58699E59B9EE585B1E4BAABE8AEEA
:101D6000A1E695B0E599A83A20005461736B332041
:101D7000776173206865726521005B5461736B3312
:101D80005D20E4BFAEE694B9E585B1E4BAABE7BC4B
:101D900093E586B2E58CBA3A20005B5461736B33ED
:101DA0005D20E9878AE694BEE4BA92E696A5E994B6
:101DB000812E2E2E0D0A005B5461736B335D20E281
:101DC0009C9320E4BA92E696A5E99481E5B7B2E93E
:101DD000878AE694BEEFBC810D0A005B5461736B89
:101DE000335D20E29C9720E88EB7E58F96E4BA92A7
:101DF000E696A5E99481E8B685E697B6EFBC810D35
:101E00000A005B5461736B345D20E585B1E4BAABC5
:101E1000E8B584E6BA90E4BFAEE694B9E4BBBBE5AE
:101E20008AA142E590AFE58AA8EFBC810D0A005B6C
:101E30005461736B345D20E5B09DE8AF95E88EB7D3
:101E4000E58F96E4BA92E696A5E994812E2E2E0DA2
:101E50000A005B5461736B345D20E29C9320E88E32
:101E6000B7E58F96E4BA92E696A5E99481E6889064
:101E7000E58A9FEFBC810D0A005B5461736B345D92
:101E800020E8AFBBE58F96E585B1E4BAABE8AEA13B
:101E9000E695B0E599A83A20005B5461736B345D18
:101EA00020E58699E59B9EE585B1E4BAABE8AEA155
:101EB000E695B0E599A83A20005461736B34207719
:101EC0006173206865726521005B5461736B345DDA
:101ED00020E4BFAEE694B9E585B1E4BAABE7BC93C4
:101EE000E586B2E58CBA3A20005B5461736B345DD1
:101EF00020E9878AE694BEE4BA92E696A5E9948141
:101F00002E2E2E0D0A005B5461736B345D20E29C13
:101F10009320E4BA92E696A5E99481E5B7B2E98701
:101F20008AE694BEEFBC810D0A005B5461736B348A
:101F30005D20E29C9720E88EB7E58F96E4BA92E6A2
:101F400096A5E99481E8B685E697B6EFBC810D0ABF
:101F5000005B4D6F6E69746F725D20E79B91E68E3A
:101F6000A7E4BBBBE58AA1E590AFE58AA8EFBC81F9
:101F70000D0A000D0A5B4D6F6E69746F725D202D46
:101F80002D2D2D2D2D2D2D2D2D20E8B584E6BA904B
:101F9000E78AB6E68081202D2D2D2D2D2D2D2D2D7E
:101FA0002D0D0A005B4D6F6E69746F725D20E585C3
:101FB000B1E4BAABE8AEA1E695B0E599A8203D2022
:101FC000005B4D6F6E69746F725D20E585B1E4BA98
:101FD000ABE7BC93E586B2E58CBA203D20005B4DB3
:101FE0006F6E69746F725D202D2D2D2D2D2D2D2D71
:101FF0002D2D2D2D2D2D2D2D2D2D2D2D2D2D2D2D11
:102000002D2D2D2D2D0D0A0D0A0049444C450000A3
:0C20100005000000F8B500BFF8B500BFE7
:08201C00AAAAAAAAF8C7000055
:00000001FF
