:1000000000000120F5000000F1000000F1000000F8
:10001000F1000000F1000000F1000000000000000D
:10002000000000000000000000000000D90F0000E8
:10003000F100000000000000311000007510000009
:10004000F1000000F1000000F1000000F1000000EC
:10005000F1000000F1000000F1000000F1000000DC
:10006000F1000000F1000000F1000000F1000000CC
:10007000F1000000F1000000F1000000F1000000BC
:10008000F1000000F1000000F1000000F1000000AC
:10009000F1000000F1000000F1000000F10000009C
:1000A000F1000000F1000000F1000000F10000008C
:1000B000F1000000F1000000F1000000F10000007C
:1000C000F1000000F1000000F1000000F10000006C
:1000D000F1000000F1000000F1000000F10000005C
:1000E000F100000000000000F1000000F10000003D
:1000F000FEE7000008B50E4B0E48DA1C121AC11EAE
:1001000022F00302994288BF00220B4901F058F9FE
:100110000A4B0B48DA1C121AC11E22F00302994244
:1001200088BF0022002101F0FBF800F01DF8FEE777
:1001300004000020000000207C20000048C90020AE
:1001400004000020024B9A699206FCD418607047A4
:1001500000C0004008B5411E11F8010F00B908BDEC
:10016000FFF7F0FFF8E7000007B54E48FFF7F2FF92
:100170004D48FFF7EFFF4D48FFF7ECFF4A48FFF708
:10018000E9FF4848FFF7E6FF4948FFF7E3FF494822
:10019000FFF7E0FF4848FFF7DDFF4848FFF7DAFFC9
:1001A0004748FFF7D7FF4748FFF7D4FF4648FFF718
:1001B000D1FF3C48FFF7CEFF3B48FFF7CBFF43485A
:1001C000FFF7C8FF3848FFF7C5FF4148FFF7C2FFF8
:1001D0004048FFF7BFFF4048FFF7BCFF3F48FFF72D
:1001E000B9FF3F48FFF7B6FF2E48FFF7B3FF3D4882
:1001F000FFF7B0FF2C48FFF7ADFF2A48FFF7AAFF33
:100200002948FFF7A7FF3848FFF7A4FF2648FFF764
:10021000A1FF3648FFF79EFF3548FFF79BFF3548A3
:10022000FFF798FF3448FFF795FF3448FFF792FF38
:100230003348FFF78FFF3348FFF78CFF3248FFF753
:1002400089FF1948FFF786FF1648FFF783FF2F48FD
:10025000FFF780FF002402234FF48072CDE90034C1
:100260002B4923462B4800F097FB01234FF4807263
:100270002949009329482346019400F08DFB284822
:10028000FFF768FF0748FFF765FF2648FFF762FFA3
:100290000448FFF75FFF00F05FFC2348FFF75AFFB9
:1002A000FEE700BF661A0000AC140000D314000083
:1002B000FD1400000F150000371500005E1500004A
:1002C0007F150000A5150000C3150000E41500000F
:1002D000FC1500001E1600003D1600005F16000011
:1002E00081160000A3160000CB160000EB160000DC
:1002F0001017000037170000681700009D17000056
:10030000C2170000ED17000018180000491800007F
:1003100061180000E10400006A180000B507000041
:100320007218000090180000AD180000F0B585B0FC
:1003300028B9302005B0BDE8F040FFF703BF6A469A
:10034000002316460A24B0FBF4F5074604FB15010A
:10035000092F01F1300102F8011B2846194603F16B
:10036000010302D90F2BEED10E21705CFFF7EAFEDC
:100370000139FAD205B0F0BD30B589B001A800F05E
:100380008DFF2948294CFFF7E5FE2948FFF7E2FEDB
:100390004FF44840FFF7CAFF2046FFF7DBFE254831
:1003A000FFF7D8FE0198FFF7C1FF2046FFF7D2FE06
:1003B0002148FFF7CFFE0598FFF7B8FF20461F4DF5
:1003C000FFF7C8FE1E48FFF7C5FE0498FFF7AEFF13
:1003D0002846FFF7BFFE1B48FFF7BCFE0298FFF759
:1003E000A5FF2046FFF7B6FE1748FFF7B3FE0398B8
:1003F000FFF79CFF2046FFF7ADFE1448FFF7AAFE6B
:100400000698FFF793FF2846FFF7A4FE1048FFF772
:10041000A1FE0798FFF78AFF2846FFF79BFE0D48CD
:10042000FFF798FE09B030BDD11800001319000085
:10043000FE1800001D19000034190000661A0000A3
:100440004B19000061190000771900008D19000098
:10045000A4190000BB19000070B500F013FF054699
:1004600000F016FF06461748174CFFF773FE1748B3
:10047000FFF770FE4FF44840FFF758FF2046FFF7A4
:1004800069FE1348FFF766FE2846FFF74FFF204638
:10049000FFF760FE0F48FFF75DFE3046FFF746FFAF
:1004A0002046FFF757FE0C48FFF754FEC5F54840BD
:1004B000FFF73CFF2046FFF74DFEBDE870400748C0
:1004C000FFF748BEE3190000131900000A1A0000E4
:1004D000191A0000281A0000371A0000451A0000F7
:1004E0002DE9F8438D48FFF735FE8D48FFF732FEC2
:1004F000FFF742FF4FF47A7000F0D6FC0025894EDA
:10050000894FDFF828822C463046FFF723FEA01CD7
:10051000FFF70CFF01353846FFF71CFE6B1E072B5B
:1005200000F2F980DFE813F008004C0063007A0065
:100530008C009F00C200DB007D48FFF70BFE6420AB
:1005400000F0DAFD7B4B0446186068B17A48FFF78B
:1005500001FE2046FFF7EAFE7848FFF7FBFD642224
:10056000AA21204600F0DCFEFFF706FF4FF4FA60F8
:1005700000F09AFC092DC6D16E4C7148FFF7EAFDD8
:10058000206818B100F034FE002323606D4C206811
:1005900018B100F02DFE002323606B4C206818B1C9
:1005A00000F026FE00232360684C206818B100F09C
:1005B0001FFE0023236042F2107000F075FCFAE782
:1005C0006348FFF7C7FDC82000F096FD5D4B044669
:1005D00018600028C8D05F48FFF7BCFD2046FFF731
:1005E000A5FE5648FFF7B6FDC822BB21B9E75A4819
:1005F000FFF7B0FD962000F07FFD534B04461860D6
:100600000028B1D05548FFF7A5FD2046FFF78EFE24
:100610004A48FFF79FFD9622CC21A2E7494C50485B
:10062000FFF798FD206800289ED000F0E1FD002330
:100630004C482360FFF78EFD4B48FFF78BFD93E797
:100640003C4C4A48FFF786FD206800288CD000F01B
:10065000CFFD002346482360FFF77CFD4548FFF7A8
:1006600079FD4548E9E74548FFF774FD4448FFF741
:1006700071FD4FF4967000F03FFD344B0446186056
:1006800090B14048FFF766FD2046FFF74FFE2B482C
:10069000FFF760FD3C48FFF75DFD3C48FFF75AFD62
:1006A0004FF49672DD215CE73948C6E7264C39489D
:1006B000FFF750FD206818B100F09AFD0023236079
:1006C000224C206818B100F093FD002323603248CB
:1006D000FFF740FD3148FFF73DFD3148ADE74046AB
:1006E000FFF738FD40F6B83000F006FDDFF8449023
:1006F0000446C9F8000060B12A48FFF72BFD2A48DC
:10070000FFF728FD204600F073FD0023C9F80030F4
:100710002AE7264891E726488FE700BF691A0000BC
:100720008E1A0000CB1A0000BD1A0000FF1E000048
:10073000E61A000010000020091B0000661A0000E5
:10074000D61F00000C00002008000020040000203C
:10075000301B0000531B00007A1B00009D1B000093
:10076000C41B0000EA1B0000081C0000731C0000F2
:100770008A1C0000A81C0000E71C0000211D0000CE
:100780004A1D0000931D0000BA1D0000F41D00006A
:10079000281E0000491E00006B1E00008E1E000077
:1007A000CE1E0000431F0000661F00009A1F0000BD
:1007B000BD1F000070B50B48FFF7CCFC00240A4EAB
:1007C0000A4D30460134FFF7C5FC2046FFF7AEFD69
:1007D0002846FFF7BFFCFFF73FFE40F6B83000F0B9
:1007E00063FBEEE70720000029200000BD1A00008F
:1007F0000C4608B50448FFF7ADFC2046FFF7AAFCFD
:100800000248FFF7A7FCFEE74F200000661A000031
:100810004FF0FF3200F10803C0E902234360036197
:1008200000230360704700230361704730B50C68F4
:10083000631C0AD103695A684A6091608B605960F1
:10084000036808610133036030BD00F108021346FC
:1008500052681568A542FAD9EDE70369D0E901129B
:100860008A6051605968814208BF5A600022026163
:1008700018680138186070472DE9F843224B234C63
:100880001D68234B0646D3F80080224B0F46D3F851
:10089000009020680430FFF7E0FF40B922681E494D
:1008A000D06A01220B68824023EA02030B60731CAA
:1008B00014D19FB1194B21685A688A6090682168E9
:1008C000C860216804314160216804319160226868
:1008D00053611A6801321A60BDE8F8832368216801
:1008E000AD195D6001F1040104D34846BDE8F84349
:1008F000FFF79CBF4046FFF799FF094B1A68AA42D1
:1009000088BF1D60E8E700BF3800002028010020F4
:1009100084000020800000203400002040000020DF
:100920001C000020064A13681968064B19B94FF0DD
:10093000FF321A6070471268D2681268F9E700BF88
:10094000840000201C000020F8B50E4C0E4F0F4E06
:10095000236803B9F8BD00F051FBFB68DD68281D72
:10096000FFF77BFF3368013B33602368013B236063
:1009700000F054FB286B00F03BFC284600F038FCEC
:10098000E6E700BF54000020580000203C00002093
:1009900008B5FFF7D9FFFCE72DE9F04796000746B9
:1009A00030460D469846DDF8249000F0A5FB8246BF
:1009B00018B94FF0FF30BDE8F087502000F09CFBE5
:1009C0000446002800F093805022002100F0A8FC8B
:1009D0003246A5215046C4F830A000F0A1FC236B9C
:1009E000043E1E4426F007066DB16B1E04F133026F
:1009F0000B3513F8011F02F8011F09B1AB42F8D102
:100A0000002384F83F30089D04F1040A052D28BF17
:100A100005255046E5622564FFF705FFC5F106058B
:100A200004F11800FFF7FFFE4246394630462461C4
:100A3000A561646200F0BEFA2060B9F1000F01D038
:100A4000C9F8004000F0DAFA364B374E1A68374FD3
:100A500001321A603568002D4DD134601B68012BBE
:100A60001FD1B84640460135FFF7D2FE062D08F1EA
:100A70001408F7D1DFF8B8802E4D4046FFF7C8FEC6
:100A80002846FFF7C5FE2C48FFF7C2FE2B48FFF7AC
:100A9000BFFE2B48FFF7BCFE2A4BC3F800802A4B51
:100AA0001D602A4A2A49136808680133136001222D
:100AB000E36A9A4002430A6014225343F9184A68D1
:100AC0009068A260E060C0F804A0C2F808A0FA58DC
:100AD00061610132FA5000F0A1FA1E4B1B6823B18C
:100AE0003368DA6AE36A9A4210D3012063E750461A
:100AF00000F07EFB5DE7174B1A68E36A002AD0D14D
:100B00003268D26A9A4298BF3460CAE74FF0E02355
:100B10004FF08052C3F8042DBFF34F8FBFF36F8F98
:100B2000E3E700BF3C00002028010020B0000020C7
:100B30009C000020880000206C000020580000204D
:100B400040000020840000208000002020000020C1
:100B50003400002030000020002310B5164A86B073
:100B6000CDE90333059303AB12F8014B03F8014BB6
:100B7000002CF9D1114B5A22CDE9004310482346ED
:100B800003A9FFF709FF012811D14FF0400383F3B8
:100B90001188BFF36F8FBFF34F8F4FF0FF32094BB8
:100BA0001A60094B1860094B1C6000F085FA084B6D
:100BB0001B6806B010BD00BF6820000018000020B0
:100BC000910900001C0000203000002038000020A7
:100BD00070200000024A136801331360704700BFA1
:100BE000140000202DE9F84F514B1B68002B40F0FA
:100BF0009880504B1C6801341C605CB94E4A4F4BC6
:100C00001168186810604E4A196013680133136048
:100C1000FFF788FE4B4D00202B684B4A9C42DFF8C3
:100C20002CC10FD21421DCF80030DB6A4B43D358BF
:100C3000022B474B28BF01201B68002B18BF012047
:100C4000BDE8F88F3C4F434E3B681B681BB94FF023
:100C5000FF332B60E6E73B68DB68DB6859688C4252
:100C600001D22960DEE7D3F81480D3E90219C1F874
:100C70000890C9F80410D8F8041003F1040E714567
:100C80004FF0000108BFC8F804905961D8F800106F
:100C90000139C8F80010D3F82880B8F1000F15D03A
:100CA000D3E90719C1F80890C9F80410D8F804105E
:100CB00003F1180A51454FF0000108BFC8F804902D
:100CC0009962D8F800100139C8F800104FF00108F7
:100CD000D96AD6F8009008FA01F848EA0908C6F877
:100CE00000804FF0140808FB01F802EB080ADAF85C
:100CF0000490D9F808B0C3F80890C3F80CB0CBF84A
:100D000004E0C9F808E0C3F814A052F80830013331
:100D100042F80830DCF80030DB6A994288BF0120D5
:100D200092E70D4A002013680133136088E700BF83
:100D300014000020380000208400002080000020E3
:100D4000240000201C000020B0000020280100200A
:100D500028000020340000202C0000202DE9F84F4E
:100D600000F04CF9484B1A68013A1A601B682BB125
:100D7000002400F053F92046BDE8F88F434A12687A
:100D8000002AF5D0012514264148424C424A434FDF
:100D9000DFF80CC153E0C368DB68D3F828E0D3E97F
:100DA0000718C1F80880C8F80410DEF8041003F131
:100DB000180949454FF0000108BFCEF80480996238
:100DC000DEF800100139CEF80010D3F814E0D3E9B2
:100DD0000218C1F80880C8F80410DEF8041003F106
:100DE00004094945DEF8001008BFCEF80480013937
:100DF000CEF80010D3F82CE0D4F8008005FA0EF1FC
:100E000041EA080106FB0EF802EB080A2160DAF855
:100E10000410D1F808B09960C3F80CB0CBF8049076
:100E2000C1F8089052F80810C3F814A0013142F834
:100E300008103968C96A8E4501D9CCF8005001689C
:100E40000029A8D10BB1FFF76DFD164D2C6844B1F8
:100E50000127134EFFF7C6FE00B13760013CF9D100
:100E60002C600F4B1B68002B82D00C4B4FF0805234
:100E70001B684FF0E023C3F8042DBFF34F8FBFF37F
:100E80006F8F012475E700BF140000203C00002094
:100E90006C00002034000020B00000202801002059
:100EA000280000202C00002008B550B94FF0E023A6
:100EB0004FF08052C3F8042DBFF34F8FBFF36F8FF5
:100EC00008BD0021FFF786FEFFF7D6FCFFF746FFBF
:100ED0000028EBD0F4E70000214B70B51A68214BD5
:100EE00012B101221A6070BD1F4C1A60236821687C
:100EF00022680968126B1B6B91420FD91A68B2F114
:100F0000A53F0BD15A68B2F1A53F07D19A68B2F15B
:100F1000A53F03D1DB68B3F1A53F04D02168206869
:100F20003431FFF765FC114B1B68B3FA83F31425CA
:100F3000DBB2C3F11F0305FB03F20D4988184668B5
:100F4000083276680A44964205FB031108BFC2685E
:100F5000466008BF42604B68DB6823602368C2E7D5
:100F60001400002028000020280100203400002068
:100F7000B0000020002382B001934FF0400383F3C0
:100F80001188BFF36F8FBFF34F8F019B002BFCD0F5
:100F900002B0704706480068006880F3088862B6AF
:100FA00061B6BFF34F8FBFF36F8F00DF00BF00004C
:100FB00008ED00E04FF0807340F8043C054B21F051
:100FC000010140F8081C40F80C3C40F8202C403847
:100FD000704700BF750F0000074B19680868B0E83C
:100FE000F00F80F30988BFF36F8F4FF0000080F39C
:100FF00011884EF00D0E7047280100204FF040037D
:1010000083F31188BFF36F8FBFF34F8F024A1368CA
:1010100001331360704700BF00000020034A1368CB
:10102000013B13600BB983F3118870470000002067
:10103000EFF30980BFF36F8F0D4B1A6820E9F00FB3
:1010400010602DE908404FF0400080F31188FFF751
:1010500043FF4FF0000080F31188BDE80840196895
:101060000868B0E8F00F80F30988BFF36F8F70470E
:101070002801002008B54FF0400383F31188BFF327
:101080006F8FBFF34F8FFFF7ADFD28B14FF0E02317
:101090004FF08052C3F8042D002383F3118808BD5C
:1010A0004FF0E02300221A619A614CF24F325A61EC
:1010B00007221A61704700004FF0E02310B50024AA
:1010C000D3F8202D42F47F02C3F8202DD3F8202D31
:1010D00042F07F42C3F8202DC3F81C4DFFF7E0FF1C
:1010E000044B1C60FFF756FFFFF7F6FEFFF742FFC9
:1010F000204610BD00000020F8B5431E0A3363D817
:1011000010F0070300F1080405D0A3F10902A24280
:101110005AD31030C41A304DFFF75CFD2B68F3B979
:101120002E4A2F4853071FBFD11D21F0070102F59A
:101130004842531A0CBF4FF448430A460021134457
:10114000083B23F0070341600260C3E90011991ACC
:10115000C2E900312B60234B1960234B1960002C2E
:1011600037DD214E3168A14233D31D4A13685868D8
:10117000A04201D21F684FBB2D689D4229D015683F
:10118000D3F800C0001B102805F10805C2F800C004
:1011900005D91F1978605C6043F804C0176058686F
:1011A0000A1A104932600C6840F00040A24238BF71
:1011B0000A6000221A600D4A5860136801331360F8
:1011C000FFF7CCFD2846F8BD0024A4E71A463B46AD
:1011D000CDE70025F4E700BF3C01002048010020D6
:1011E000400100203401002038010020300100209F
:1011F00038B5054600283BD050F8043C002B37DAC0
:1012000050F8082C002A33D123F0004340F8043C66
:10121000A0F10804FFF7DEFC164A55F8041C136819
:101220000B441360144B1A461B689C42FBD8506851
:101230001518AC4202BF14460918516060682118A5
:101240008B4213D10D4909688B4203D05968014480
:1012500061601968A242216018BF1460084A1368CF
:1012600001331360BDE83840FFF778BD1946F1E758
:1012700038BD00BF38010020400100203C010020A3
:101280002C010020014B1868704700BF3801002076
:10129000014B1868704700BF34010020F8B50446C0
:1012A000FFF798FC184B1B6843B300254FF0FF373E
:1012B0002E46164A1168994216D1FFF74FFDC4E930
:1012C0000157E660FFF79AFE114B1B682360114B34
:1012D0001B686361104B1B68A361104B1B68236183
:1012E000BDE8F840FFF79ABE5A680136954238BF0C
:1012F0001546974228BF17461B68DCE74FF0FF37BB
:101300001D461E46D9E700BF400100203C010020D9
:1013100038010020300100202C0100203401002081
:1013200070B5860747D0541E002A3ED00346CAB285
:1013300001E0013C39D303F8012B9D07F9D1032CBF
:101340002CD9CDB205EB05250F2C1A4605EB05452A
:1013500034D9A4F1100C2CF00F0603F1100EB64492
:101360004FEA1C1CC2E90055C2E902551032724511
:10137000F8D10CF1010214F00C0F03EB021204F08F
:101380000F0C13D0ACF1040323F003030433134414
:1013900042F8045B9342FBD10CF003042CB1C9B2B8
:1013A0001C4403F8011BA342FBD170BD64461346E5
:1013B000002CF4D1F9E703461446C0E7A446E1E760
:1013C000844641EA000313F0030349D1403A23D392
:1013D0000B6803604B6843608B688360CB68C360B5
:1013E0000B6903614B6943618B698361CB69C3619D
:1013F0000B6A03624B6A43628B6A8362CB6AC36285
:101400000B6B03634B6B43638B6B8363CB6BC3636C
:1014100040304031403ADBD230320BD30B680360AE
:101420004B6843608B688360CB68C36010301031B9
:10143000103AF3D20C3205D351F8043B40F8043B88
:10144000043AF9D2043208D0D2071CBF11F8013B8C
:1014500000F8013B01D30B8803806046704700BF52
:10146000082A13D38B07B1D010F00303AED0C3F119
:101470000403D21ADB071CBF11F8013B00F8013B43
:10148000A4D331F8023B20F8023B9FE7043AD9D3BA
:10149000013A11F8013B00F8013BF9D20B780370D7
:1014A0004B7843708B788370604670473D3D3D3D7F
:1014B0003D3D3D3D3D3D3D3D3D3D3D3D3D3D3D3D5C
:1014C0003D3D3D3D3D3D3D3D3D3D3D3D3D3D3D3D4C
:1014D0000D0A0020204672656552544F53206865FE
:1014E00061705F3420E58685E5AD98E58886E985FD
:1014F0008DE599A8E7A4BAE4BE8B0D0A00E5ADA678
:10150000E4B9A0E8A681E782B9EFBC9A0D0A0031E0
:101510002E20686561705F3420E58685E5AD98E52D
:101520008886E9858DE599A8E5B7A5E4BD9CE58E9B
:101530009FE790860D0A00322E20E9A696E6ACA120
:10154000E98082E9858DE7AE97E6B395EFBC8846E2
:101550006972737420466974EFBC890D0A00332EDA
:1015600020E79BB8E982BBE7A9BAE997B2E59D9766
:10157000E887AAE58AA8E59088E5B9B60D0A00349F
:101580002E2076506F72744765744865617053748D
:10159000617473282920E8AFA6E7BB86E7BB9FE804
:1015A000AEA10D0A00352E20E68A97E7A28EE789C4
:1015B00087E58C96E883BDE58A9BE6BC94E7A4BAF0
:1015C0000D0A00362E20686561705F3420E4B88E05
:1015D00020686561705F3220E79A84E58CBAE588FF
:1015E000AB0D0A002020686561705F3420E79A84A3
:1015F000E789B9E782B9EFBC9A0D0A00E29C932013
:10160000E694AFE68C81E58685E5AD98E58886E9C8
:10161000858DE5928CE9878AE694BE0D0A00E29CEE
:101620009320E4BDBFE794A8E9A696E6ACA1E980C3
:1016300082E9858DE7AE97E6B3950D0A00E29C93AB
:1016400020E887AAE58AA8E59088E5B9B6E79BB8BF
:10165000E982BBE7A9BAE997B2E59D970D0A00E2D6
:101660009C9320E4BC98E7A780E79A84E68A97E7F2
:10167000A28EE78987E58C96E883BDE58A9B0D0AF3
:1016800000E29C9320E68F90E4BE9BE8AFA6E7BB08
:1016900086E79A84E7BB9FE8AEA1E4BFA1E681AFED
:1016A0000D0A00E29C9720E6AF94686561705F3296
:1016B000E7A88DE685A2EFBC88E59088E5B9B6E598
:1016C000BC80E99480EFBC890D0A00202068656128
:1016D000705F3420E4B88E20686561705F3220E569
:1016E000AFB9E6AF94EFBC9A0D0A00E789B9E6807E
:1016F000A720202020202020202020686561705F06
:1017000032202020202020686561705F340D0A009F
:101710002D2D2D2D2D2D2D2D2D2D2D2D2D2D2D2DF9
:101720002D2D2D2D2D2D2D2D2D2D2D2D2D2D2D2DE9
:101730002D2D2D2D0D0A00E58886E9858DE7AE97C4
:10174000E6B395202020202020E69C80E4BDB3E96C
:101750008082E9858D20202020E9A696E6ACA1E9CB
:101760008082E9858D0D0A00E59D97E59088E5B9B1
:10177000B62020202020202020E29C9720E4B88D55
:10178000E59088E5B9B620202020E29C9320E887E8
:10179000AAE58AA8E59088E5B9B60D0A00E68A9719
:1017A000E7A28EE78987E58C96202020202020E57F
:1017B000BCB120202020202020202020E5BCBA0D14
:1017C0000A00E8AFA6E7BB86E7BB9FE8AEA12020F2
:1017D00020202020E29C9720E697A0202020202097
:1017E000202020E29C9320E69C890D0A00E58E864D
:1017F000E58FB2E69C80E5B08F202020202020E2FB
:101800009C9720E697A02020202020202020E29CEA
:101810009320E69C890D0A00E98082E794A8E59C64
:10182000BAE699AF202020202020E7AE80E58D95F4
:10183000E58AA8E6808120202020E9809AE794A804
:10184000E59CBAE699AF0D0A00E6ADA3E59CA8E5D4
:10185000889BE5BBBAE4BBBBE58AA12E2E2E0D0A00
:101860000044656D6F5461736B004D6F6E69746FEA
:101870007200E68980E69C89E4BBBBE58AA1E58825
:101880009BE5BBBAE68890E58A9FEFBC810D0A0014
:10189000E590AFE58AA84672656552544F53E8B0AB
:1018A00083E5BAA6E599A82E2E2E0D0A00E9949993
:1018B000E8AFAFEFBC9AE8B083E5BAA6E599A8E532
:1018C00090AFE58AA8E5A4B1E8B4A5EFBC810D0A04
:1018D000000D0A3D3D3D3D3D3D3D3D3D3D20E8AFD8
:1018E000A6E7BB86E58685E5AD98E7BB9FE8AEA198
:1018F000203D3D3D3D3D3D3D3D3D3D0D0A00E680E9
:10190000BBE5A086E5A4A7E5B08F3A2020202020E3
:1019100020200020E5AD97E88A820D0A00E5BD93FE
:10192000E5898DE589A9E4BD99E7A9BAE997B43AB3
:1019300020202000E58E86E58FB2E69C80E5B08F02
:10194000E589A9E4BD993A20202000E7A9BAE997E2
:10195000B2E59D97E695B0E9878F3A2020202020B8
:1019600000E69C80E5A4A7E7A9BAE997B2E59D97B0
:101970003A202020202000E69C80E5B08FE7A9BA1D
:10198000E997B2E59D973A202020202000E588863F
:10199000E9858DE68890E58A9FE6ACA1E695B03AA8
:1019A00020202000E9878AE694BEE68890E58A9F99
:1019B000E6ACA1E695B03A202020003D3D3D3D3DFE
:1019C0003D3D3D3D3D3D3D3D3D3D3D3D3D3D3D3D47
:1019D0003D3D3D3D3D3D3D3D3D3D3D3D3D3D0D0A9A
:1019E0000D0A000D0A2D2D2D2D2D2D2D2D2D2D20E7
:1019F000E58685E5AD98E78AB6E68081202D2D2D18
:101A00002D2D2D2D2D2D2D0D0A00E680BBE5A08658
:101A1000E5A4A7E5B08F3A2000E589A9E4BD99E5E2
:101A2000A4A7E5B08F3A2000E58E86E58FB2E69C4C
:101A300080E5B08F3A2000E5B7B2E58886E9858D6C
:101A40003A202020002D2D2D2D2D2D2D2D2D2D2D0D
:101A50002D2D2D2D2D2D2D2D2D2D2D2D2D2D2D2DB6
:101A60002D2D2D2D0D0A0D0A005B44656D6F5D2037
:101A7000E58685E5AD98E6BC94E7A4BAE4BBBBE592
:101A80008AA1E590AFE58AA8EFBC810D0A000D0A96
:101A90005B44656D6F5D203D3D3D3D3D3D3D3D3DC4
:101AA0003D20E6ADA5E9AAA4313A20E5889DE5A749
:101AB0008BE58685E5AD98E78AB6E68081203D3DD9
:101AC0003D3D3D3D3D3D3D3D0D0A000D0A5B4465FC
:101AD0006D6F5D203D3D3D3D3D3D3D3D3D3D20E645
:101AE000ADA5E9AAA4005B44656D6F5D20E588861D
:101AF000E9858DE59D97313A2031303020E5AD976D
:101B0000E88A822E2E2E0D0A005B44656D6F5D20E3
:101B1000E29C9320E59D9731E58886E9858DE688EE
:101B200090E58A9FEFBC81E59CB0E59D803A20005E
:101B30005B44656D6F5D20E58886E9858DE59D9741
:101B4000323A2032303020E5AD97E88A822E2E2EB0
:101B50000D0A005B44656D6F5D20E29C9320E59D5E
:101B60009732E58886E9858DE68890E58A9FEFBC07
:101B700081E59CB0E59D803A20005B44656D6F5D1A
:101B800020E58886E9858DE59D97333A203135300B
:101B900020E5AD97E88A822E2E2E0D0A005B446563
:101BA0006D6F5D20E29C9320E59D9733E58886E983
:101BB000858DE68890E58A9FEFBC81E59CB0E59D28
:101BC000803A20005B44656D6F5D20E9878AE6946A
:101BD000BEE59D9732EFBC88E4B8ADE997B4E59DCA
:101BE00097EFBC892E2E2E0D0A005B44656D6F5D4C
:101BF00020E29C9320E59D9732E5B7B2E9878AE61B
:101C000094BEEFBC810D0A005B44656D6F5D20E6FC
:101C1000B3A8E6848FEFBC9AE59CA8686561705F05
:101C200034E4B8ADEFBC8CE7A9BAE997B2E59D976B
:101C3000E4BC9AE4B88EE79BB8E982BBE7A9BAE9AD
:101C400097B2E59D97E59088E5B9B6EFBC88E4BD0D
:101C500086E8BF99E9878CE59D9732E4B8A4E8BE91
:101C6000B9E983BDE8A2ABE58DA0E794A8EFBC89F4
:101C70000D0A005B44656D6F5D20E9878AE694BEBE
:101C8000E59D97312E2E2E0D0A005B44656D6F5D2C
:101C900020E29C9320E59D9731E5B7B2E9878AE67B
:101CA00094BEEFBC810D0A005B44656D6F5D20E55D
:101CB00085B3E994AEEFBC9AE78EB0E59CA8E59DAC
:101CC0009731E5928CE59D9732E79A84E7A9BAE9C6
:101CD00097B2E7A9BAE997B4E79BB8E982BBE4BA3F
:101CE00086EFBC810D0A005B44656D6F5D20686501
:101CF00061705F34E4BC9AE887AAE58AA8E5B086FB
:101D0000E5AE83E4BBACE59088E5B9B6E68890E43F
:101D1000B880E4B8AAE5A4A7E59D97EFBC810D0AB9
:101D2000005B44656D6F5D20E5B09DE8AF95E5888B
:101D300086E9858DE59D97343A2033303020E5AD36
:101D400097E88A822E2E2E0D0A005B44656D6F5D2A
:101D500020E68F90E7A4BAEFBC9AE794B1E4BA8E7C
:101D6000686561705F34E79A84E59088E5B9B6E606
:101D70009CBAE588B6EFBC8CE5BA94E8AFA5E883D9
:101D8000BDE68890E58A9FE58886E9858DEFBC8170
:101D90000D0A005B44656D6F5D20E29C9320E59D1C
:101DA0009734E58886E9858DE68890E58A9FEFBCC3
:101DB00081E59CB0E59D803A20005B44656D6F5DD8
:101DC00020E8AFB4E6988EEFBC9A686561705F3426
:101DD000E68890E58A9FE59088E5B9B6E4BA86E79B
:101DE0009BB8E982BBE7A9BAE997B2E59D97EFBC3A
:101DF000810D0A005B44656D6F5D20E5AFB9E6AF0C
:101E000094686561705F32EFBC9A686561705F329B
:101E1000E697A0E6B395E5819AE588B0E8BF99E733
:101E200082B9EFBC810D0A005B44656D6F5D20E2F5
:101E30009C9720E59D9734E58886E9858DE5A4B1DA
:101E4000E8B4A5EFBC810D0A005B44656D6F5D20B1
:101E5000E9878AE694BEE68980E69C89E589A9E45B
:101E6000BD99E59D972E2E2E0D0A005B44656D6F82
:101E70005D20E29C9320E68980E69C89E59D97E5BC
:101E8000B7B2E9878AE694BEEFBC810D0A005B44D5
:101E9000656D6F5D20E6B3A8E6848FEFBC9A686538
:101EA00061705F34E4BC9AE68A8AE68980E69C89A0
:101EB000E79BB8E982BBE7A9BAE997B2E59D97E944
:101EC00083BDE59088E5B9B6EFBC810D0A005B449F
:101ED000656D6F5D20E69C80E7BB88E5BA94E8AF4E
:101EE000A5E58FAAE69C89E4B880E4B8AAE5A4A792
:101EF000E7A9BAE997B2E59D97EFBC810D0A005BAF
:101F000044656D6F5D20E9AA8CE8AF81EFBC9AE56E
:101F1000B09DE8AF95E58886E9858DE4B880E4B8A2
:101F2000AAE5BE88E5A4A7E79A84E59D97EFBC885B
:101F300033303030E5AD97E88A82EFBC892E2E2E03
:101F40000D0A005B44656D6F5D20E29C9320E5A463
:101F5000A7E59D97E58886E9858DE68890E58A9FC7
:101F6000EFBC810D0A005B44656D6F5D20E8AF81B9
:101F7000E6988EEFBC9AE68980E69C89E7A9BAE9E3
:101F800097B2E59D97E8A2ABE68890E58A9FE59039
:101F900088E5B9B6EFBC810D0A005B44656D6F5DE5
:101FA00020E29C9720E5A4A7E59D97E58886E98532
:101FB0008DE5A4B1E8B4A5EFBC810D0A005B4465D2
:101FC0006D6F5D20E6BC94E7A4BAE5AE8CE6889020
:101FD000EFBC810D0A005B44656D6F5D20E6BC942B
:101FE000E7A4BAE4BBBBE58AA1E7BB93E69D9FEFFC
:101FF000BC8CE8BF9BE585A5E7A9BAE997B2E5BE29
:10200000AAE78EAF0D0A005B4D6F6E69746F725D4B
:1020100020E79B91E68EA7E4BBBBE58AA1E590AFE4
:10202000E58AA8EFBC810D0A000D0A5B4D6F6E6951
:10203000746F725D203D3D3D3D3D3D3D3D3D3D204C
:10204000E79B91E68EA7E591A8E69C9F2023000DD3
:102050000A21212120E6A088E6BAA2E587BAE6A3F4
:1020600080E6B58BEFBC9A0049444C450000000067
:0C20700005000000F8B500BFF8B500BF87
:04207C00AAAAAAAAB8
:00000001FF
