:1000000000000120F5000000F1000000F1000000F8
:10001000F1000000F1000000F1000000000000000D
:10002000000000000000000000000000490C00007B
:10003000F100000000000000A10C0000E50C000031
:10004000F1000000F1000000F1000000F1000000EC
:10005000F1000000F1000000F1000000F1000000DC
:10006000F1000000F1000000F1000000F1000000CC
:10007000F1000000F1000000F1000000F1000000BC
:10008000F1000000F1000000F1000000F1000000AC
:10009000F1000000F1000000F1000000F10000009C
:1000A000F1000000F1000000F1000000F10000008C
:1000B000F1000000F1000000F1000000F10000007C
:1000C000F1000000F1000000F1000000F10000006C
:1000D000F1000000F1000000F1000000F10000005C
:1000E000F100000000000000F1000000F10000003D
:1000F000FEE7000008B50E4B0E48DA1C121AC11EAE
:1001000022F00302994288BF00220B4900F06AFFE7
:100110000A4B0B48DA1C121AC11E22F00302994244
:1001200088BF0022002100F00DFF00F0CFF8FEE7AD
:100130000400002000000020941400003C8D0020EA
:1001400004000020024B9A699206FCD418607047A4
:1001500000C0004008B5411E11F8010F00B908BDEC
:10016000FFF7F0FFF8E7F0B585B028B9302005B00B
:10017000BDE8F040FFF7E6BF6A46002316460A24B2
:10018000B0FBF4F5074604FB1501092F01F130011E
:1001900002F8011B2846194603F1010302D90F2B6F
:1001A000EED10E21705CFFF7CDFF0139FAD205B018
:1001B000F0BD000010B500F079FE044600F07CFEB2
:1001C0000D48FFF7C7FF0D48FFF7C4FF4FF40C4081
:1001D000FFF7C9FF0A48FFF7BDFF0A48FFF7BAFF5C
:1001E0002046FFF7C0FF0848FFF7B4FFBDE8104006
:1001F0000648FFF7AFBF00BFD0100000F7100000A7
:10020000061100001D1100002C1100003611000025
:1002100030B589B06C46224D0FCD0FC495E80F0064
:1002200084E80F001F48204DFFF794FF1F48FFF799
:1002300091FF1F481F4CFFF796FF2846FFF78AFFE4
:100240004FF42050FFF78FFF2046FFF783FF1A4837
:10025000FFF780FF1948FFF786FF2846FFF77AFF70
:100260004FF47050FFF77FFF2046FFF773FF1448ED
:10027000FFF770FF1348FFF776FF2846FFF76AFF86
:100280004FF42050FFF76FFF2046FFF763FF6846EB
:1002900000F018FE0C48FFF75DFF09B030BD00BF4D
:1002A000681400005A110000A21100008A11000019
:1002B000086400202C110000AB1100000828002069
:1002C000C311000008000020DB11000007B51F4823
:1002D000FFF740FF1E48FFF73DFF1E48FFF73AFFBC
:1002E0001B48FFF737FF1948FFF734FF1A48FFF79D
:1002F00031FF1A48FFF72EFF1948FFF72BFF194867
:10030000FFF728FF1148FFF725FFFFF781FF164889
:10031000FFF720FF002302221449CDE900231448EF
:100320004FF4807200F070F91248FFF713FF07488E
:10033000FFF710FF1048FFF70DFF0448FFF70AFF13
:1003400000F042FA0D48FFF705FFFEE757110000E5
:10035000041200002B12000055120000671200006A
:100360008F120000B4120000D8120000F01200003A
:1003700081030000F9120000111300002E13000089
:100380002DE9F0412B48FFF7E5FEFFF713FF4FF48F
:100390007A7000F0C1FB0024274E284FDFF8A080C0
:1003A00030460134FFF7D6FE2046FFF7DCFE384624
:1003B000FFF7D0FE012C03D0022C2BD0214835E0D2
:1003C0004046FFF7C7FE41F2883000F0CDFC1E4BDF
:1003D0000546186070B11D48FFF7BCFE2846FFF7C0
:1003E000C2FE1B48FFF7B6FE41F28832AA2128461A
:1003F00000F0A8FDFFF7DEFE4FF4FA6000F08CFB82
:10040000032CCDD11348FFF7A5FE42F2107000F087
:1004100083FBFAE70C4D1048FFF79CFE2868002884
:10042000E8D000F0F9FC00230C482B60FFF792FEA7
:10043000E0E700BF52130000711300008C130000AE
:100440009A1300001214000004000020BE130000E4
:10045000571100002B140000E1130000F8130000F6
:100460000C4608B50448FFF775FE2046FFF772FEFC
:100470000248FFF76FFEFEE7471400005711000027
:100480004FF0FF3200F10803C0E90223436003612B
:1004900000230360704700230361704730B50C6888
:1004A000631C0AD103695A684A6091608B60596085
:1004B000036808610133036030BD00F10802134690
:1004C00052681568A542FAD9EDE70369D0E901122F
:1004D0008A6051605968814208BF5A6000220261F7
:1004E00018680138186070472DE9F843224B234CF7
:1004F0001D68234B0646D3F80080224B0F46D3F8E5
:10050000009020680430FFF7E0FF40B922681E49E0
:10051000D06A01220B68824023EA02030B60731C3D
:1005200014D19FB1194B21685A688A60906821687C
:10053000C8602168043141602168043191602268FB
:1005400053611A6801321A60BDE8F8832368216894
:10055000AD195D6001F1040104D34846BDE8F843DC
:10056000FFF79CBF4046FFF799FF094B1A68AA4264
:1005700088BF1D60E8E700BF2C8C00201C8D002088
:10058000788C0020748C0020288C0020348C002073
:10059000108C0020064A13681968064B19B94FF0F1
:1005A000FF321A6070471268D2681268F9E700BF1C
:1005B000788C0020108C0020F8B50E4C0E4F0F4E9A
:1005C000236803B9F8BD00F051FBFB68DD68281D06
:1005D000FFF77BFF3368013B33602368013B2360F7
:1005E00000F054FB286B00F017FC284600F014FCC8
:1005F000E6E700BF488C00204C8C0020308C0020A7
:1006000008B5FFF7D9FFFCE72DE9F047960007464C
:1006100030460D469846DDF8249000F0A5FB824652
:1006200018B94FF0FF30BDE8F087502000F09CFB78
:100630000446002800F093805022002100F082FC44
:100640003246A5215046C4F830A000F07BFC236B55
:10065000043E1E4426F007066DB16B1E04F1330202
:100660000B3513F8011F02F8011F09B1AB42F8D195
:10067000002384F83F30089D04F1040A052D28BFAB
:1006800005255046E5622564FFF705FFC5F106051F
:1006900004F11800FFF7FFFE424639463046246158
:1006A000A561646200F0BEFA2060B9F1000F01D0CC
:1006B000C9F8004000F0DAFA364B374E1A68374F67
:1006C00001321A603568002D4DD134601B68012B52
:1006D0001FD1B84640460135FFF7D2FE062D08F17E
:1006E0001408F7D1DFF8B8802E4D4046FFF7C8FE5A
:1006F0002846FFF7C5FE2C48FFF7C2FE2B48FFF740
:10070000BFFE2B48FFF7BCFE2A4BC3F800802A4BE4
:100710001D602A4A2A4913680868013313600122C0
:10072000E36A9A4002430A6014225343F9184A6864
:100730009068A260E060C0F804A0C2F808A0FA586F
:1007400061610132FA5000F0A1FA1E4B1B6823B11F
:100750003368DA6AE36A9A4210D3012063E75046AD
:1007600000F05AFB5DE7174B1A68E36A002AD0D104
:100770003268D26A9A4298BF3460CAE74FF0E023E9
:100780004FF08052C3F8042DBFF34F8FBFF36F8F2C
:10079000E3E700BF308C00201C8D0020A48C0020DB
:1007A000908C00207C8C0020608C00204C8C0020E1
:1007B000348C0020788C0020748C0020148C002055
:1007C000288C0020248C0020002310B5164A86B007
:1007D000CDE90333059303AB12F8014B03F8014B4A
:1007E000002CF9D1114B5A22CDE900431048234681
:1007F00003A9FFF709FF012811D14FF0400383F34C
:100800001188BFF36F8FBFF34F8F4FF0FF32094B4B
:100810001A60094B1860094B1C6000F085FA084B00
:100820001B6806B010BD00BF601400000C8C0020D7
:1008300001060000108C0020248C00202C8C00204D
:1008400088140000024A136801331360704700BF28
:10085000088C00202DE9F84F514B1B68002B40F00D
:100860009880504B1C6801341C605CB94E4A4F4B59
:100870001168186810604E4A1960136801331360DC
:10088000FFF788FE4B4D00202B684B4A9C42DFF857
:100890002CC10FD21421DCF80030DB6A4B43D35853
:1008A000022B474B28BF01201B68002B18BF0120DB
:1008B000BDE8F88F3C4F434E3B681B681BB94FF0B7
:1008C000FF332B60E6E73B68DB68DB6859688C42E6
:1008D00001D22960DEE7D3F81480D3E90219C1F808
:1008E0000890C9F80410D8F8041003F1040E7145FB
:1008F0004FF0000108BFC8F804905961D8F8001003
:100900000139C8F80010D3F82880B8F1000F15D0CD
:10091000D3E90719C1F80890C9F80410D8F80410F1
:1009200003F1180A51454FF0000108BFC8F80490C0
:100930009962D8F800100139C8F800104FF001088A
:10094000D96AD6F8009008FA01F848EA0908C6F80A
:1009500000804FF0140808FB01F802EB080ADAF8EF
:100960000490D9F808B0C3F80890C3F80CB0CBF8DD
:1009700004E0C9F808E0C3F814A052F808300133C5
:1009800042F80830DCF80030DB6A994288BF012069
:1009900092E70D4A002013680133136088E700BF17
:1009A000088C00202C8C0020788C0020748C002077
:1009B000188C0020108C0020A48C00201C8D00209E
:1009C0001C8C0020288C0020208C00202DE9F84F62
:1009D00000F04CF9484B1A68013A1A601B682BB1B9
:1009E000002400F053F92046BDE8F88F434A12680E
:1009F000002AF5D0012514264148424C424A434F73
:100A0000DFF80CC153E0C368DB68D3F828E0D3E912
:100A10000718C1F80880C8F80410DEF8041003F1C4
:100A2000180949454FF0000108BFCEF804809962CB
:100A3000DEF800100139CEF80010D3F814E0D3E945
:100A40000218C1F80880C8F80410DEF8041003F199
:100A500004094945DEF8001008BFCEF804800139CA
:100A6000CEF80010D3F82CE0D4F8008005FA0EF18F
:100A700041EA080106FB0EF802EB080A2160DAF8E9
:100A80000410D1F808B09960C3F80CB0CBF804900A
:100A9000C1F8089052F80810C3F814A0013142F8C8
:100AA00008103968C96A8E4501D9CCF80050016830
:100AB0000029A8D10BB1FFF76DFD164D2C6844B18C
:100AC0000127134EFFF7C6FE00B13760013CF9D194
:100AD0002C600F4B1B68002B82D00C4B4FF08052C8
:100AE0001B684FF0E023C3F8042DBFF34F8FBFF313
:100AF0006F8F012475E700BF088C0020308C002028
:100B0000608C0020288C0020A48C00201C8D0020EC
:100B10001C8C0020208C002008B550B94FF0E02339
:100B20004FF08052C3F8042DBFF34F8FBFF36F8F88
:100B300008BD0021FFF786FEFFF7D6FCFFF746FF52
:100B40000028EBD0F4E70000214B70B51A68214B68
:100B500012B101221A6070BD1F4C1A60236821680F
:100B600022680968126B1B6B91420FD91A68B2F1A7
:100B7000A53F0BD15A68B2F1A53F07D19A68B2F1EF
:100B8000A53F03D1DB68B3F1A53F04D021682068FD
:100B90003431FFF765FC114B1B68B3FA83F314255E
:100BA000DBB2C3F11F0305FB03F20D498818466849
:100BB000083276680A44964205FB031108BFC268F2
:100BC000466008BF42604B68DB6823602368C2E769
:100BD000088C00201C8C00201C8D0020288C0020FC
:100BE000A48C0020002382B001934FF0400383F3D4
:100BF0001188BFF36F8FBFF34F8F019B002BFCD089
:100C000002B0704706480068006880F3088862B642
:100C100061B6BFF34F8FBFF36F8F00DF00BF0000DF
:100C200008ED00E04FF0807340F8043C054B21F0E4
:100C3000010140F8081C40F80C3C40F8202C4038DA
:100C4000704700BFE50B0000074B19680868B0E863
:100C5000F00F80F30988BFF36F8F4FF0000080F32F
:100C600011884EF00D0E70471C8D00204FF0400390
:100C700083F31188BFF36F8FBFF34F8F024A13685E
:100C800001331360704700BF00000020034A13685F
:100C9000013B13600BB983F31188704700000020FB
:100CA000EFF30980BFF36F8F0D4B1A6820E9F00F47
:100CB00010602DE908404FF0400080F31188FFF7E5
:100CC00043FF4FF0000080F31188BDE80840196829
:100CD0000868B0E8F00F80F30988BFF36F8F7047A2
:100CE0001C8D002008B54FF0400383F31188BFF33B
:100CF0006F8FBFF34F8FFFF7ADFD28B14FF0E023AB
:100D00004FF08052C3F8042D002383F3118808BDEF
:100D10004FF0E02300221A619A614CF24F325A617F
:100D200007221A61704700004FF0E02310B500243D
:100D3000D3F8202D42F47F02C3F8202DD3F8202DC4
:100D400042F07F42C3F8202DC3F81C4DFFF7E0FFAF
:100D5000044B1C60FFF756FFFFF7F6FEFFF742FF5C
:100D6000204610BD00000020F8B5431E0A3342D8CB
:100D700010F0070300F1080405D0A3F10902A24214
:100D800039D31030C41AFFF75DFD002C38DD1D4E3D
:100D90003168A14234D31C4A13685868A04201D27A
:100DA0001D6855BB194D2D689D4229D01568D3F893
:100DB00000C0001B102805F10805C2F800C005D9C5
:100DC0001F1978605C6043F804C0176058680A1AFD
:100DD0000F4932600C6840F00040A24238BF0A6000
:100DE00000221A600B4A5860136801331360FFF742
:100DF000EDFD2846F8BD0024C5E71A462B46CCE792
:100E00000025F4E72C8D0020348D0020308D00204B
:100E1000288D0020248D002038B5054600283BD0C1
:100E200050F8043C002B37DA50F8082C002A33D154
:100E300023F0004340F8043CA0F10804FFF702FD52
:100E4000164A55F8041C13680B441360144B1A46D9
:100E50001B689C42FBD850681518AC4202BF144670
:100E600009185160606821188B4213D10D49096837
:100E70008B4203D05968014461601968A242216025
:100E800018BF1460084A136801331360BDE8384086
:100E9000FFF79CBD1946F1E738BD00BF2C8D00203F
:100EA000348D0020308D0020208D0020014B1868EB
:100EB000704700BF2C8D0020014B1868704700BFA1
:100EC000288D002000222DE9F04111461446944659
:100ED000184E194F356800F1040E5EF831303BB9F9
:100EE00002B13560154B1C60154B1C60BDE8F081EC
:100EF00050F8312012F0070F07D002F1070828F050
:100F0000070813444246A3EB080309B9C7E90021C7
:100F10001344083B23F00703A3EB0208C3E900CC0A
:100F2000C2E9003805B12A601D460122444401315E
:100F3000D3E700BF308D0020348D0020288D0020A5
:100F40002C8D002070B5860747D0541E002A3ED055
:100F50000346CAB201E0013C39D303F8012B9D07D7
:100F6000F9D1032C2CD9CDB205EB05250F2C1A464F
:100F700005EB054534D9A4F1100C2CF00F0603F154
:100F8000100EB6444FEA1C1CC2E90055C2E90255D6
:100F900010327245F8D10CF1010214F00C0F03EB82
:100FA000021204F00F0C13D0ACF1040323F003037E
:100FB0000433134442F8045B9342FBD10CF0030466
:100FC0002CB1C9B21C4403F8011BA342FBD170BD74
:100FD00064461346002CF4D1F9E703461446C0E7F3
:100FE000A446E1E7844641EA000313F0030349D134
:100FF000403A23D30B6803604B6843608B6883607F
:10100000CB68C3600B6903614B6943618B69836182
:10101000CB69C3610B6A03624B6A43628B6A83626A
:10102000CB6AC3620B6B03634B6B43638B6B836352
:10103000CB6BC36340304031403ADBD230320BD30C
:101040000B6803604B6843608B688360CB68C36048
:1010500010301031103AF3D20C3205D351F8043B62
:1010600040F8043B043AF9D2043208D0D2071CBF3E
:1010700011F8013B00F8013B01D30B880380604667
:10108000704700BF082A13D38B07B1D010F00303B9
:10109000AED0C3F10403D21ADB071CBF11F8013B29
:1010A00000F8013BA4D331F8023B20F8023B9FE754
:1010B000043AD9D3013A11F8013B00F8013BF9D2C7
:1010C0000B7803704B7843708B7883706046704761
:1010D0000D0A2D2D2D2D2D2D2D2D2D2D20E5868527
:1010E000E5AD98E78AB6E68081202D2D2D2D2D2D9A
:1010F0002D2D2D2D0D0A00E680BBE5A086E5A4A7C9
:10110000E5B08F3A200020E5AD97E88A82202833A9
:10111000E4B8AAE58CBAE59F9F290D0A00E589A9E4
:10112000E4BD99E5A4A7E5B08F3A200020E5AD978E
:10113000E88A820D0A002D2D2D2D2D2D2D2D2D2DE2
:101140002D2D2D2D2D2D2D2D2D2D2D2D2D2D2D2DCF
:101150002D2D2D2D2D0D0A0D0A005B496E69745D34
:1011600020E6ADA3E59CA8E5889DE5A78BE58C96D8
:1011700020686561705F3520E58685E5AD98E58C72
:10118000BAE59F9F2E2E2E0D0A005B496E69745D95
:1011900020E58CBAE59F9F313A20E59CB0E59D8023
:1011A0003D0020E5A4A7E5B08F3D005B496E697462
:1011B0005D20E58CBAE59F9F323A20E59CB0E59D25
:1011C000803D005B496E69745D20E58CBAE59F9FA8
:1011D000333A20E59CB0E59D803D005B496E697423
:1011E0005D20E29C9320686561705F3520E5889DF5
:1011F000E5A78BE58C96E5AE8CE68890EFBC810D7B
:101200000A0D0A003D3D3D3D3D3D3D3D3D3D3D3DE1
:101210003D3D3D3D3D3D3D3D3D3D3D3D3D3D3D3DFE
:101220003D3D3D3D3D3D3D3D0D0A00202046726562
:101230006552544F5320686561705F3520E586859F
:10124000E5AD98E58886E9858DE599A8E7A4BAE437
:10125000BE8B0D0A00E5ADA6E4B9A0E8A681E78241
:10126000B9EFBC9A0D0A00312E20686561705F35B8
:1012700020E58685E5AD98E58886E9858DE599A820
:10128000E5B7A5E4BD9CE58E9FE790860D0A003288
:101290002E2076506F7274446566696E654865618C
:1012A00070526567696F6E73282920E4BDBFE794AB
:1012B000A80D0A00332E20E5A49AE99D9EE8BF9E62
:1012C000E7BBADE58685E5AD98E58CBAE59F9FE780
:1012D000AEA1E790860D0A00E6ADA3E59CA8E588DF
:1012E0009BE5BBBAE4BBBBE58AA12E2E2E0D0A00FE
:1012F00044656D6F5461736B00E4BBBBE58AA1E587
:10130000889BE5BBBAE68890E58A9FEFBC810D0A11
:1013100000E590AFE58AA84672656552544F53E8E0
:10132000B083E5BAA6E599A82E2E2E0D0A00E99401
:1013300099E8AFAFEFBC9AE8B083E5BAA6E599A803
:10134000E590AFE58AA8E5A4B1E8B4A5EFBC810DAE
:101350000A005B44656D6F5D20E6BC94E7A4BAE4C7
:10136000BBBBE58AA1E590AFE58AA8EFBC810D0A79
:10137000000D0A5B44656D6F5D203D3D3D3D3D3D8B
:101380003D3D3D3D20E6ADA5E9AAA400203D3D3D03
:101390003D3D3D3D3D3D3D0D0A005B44656D6F5D4E
:1013A00020E58886E9858DE59D97313A20353030F6
:1013B0003020E5AD97E88A822E2E2E0D0A005B4480
:1013C000656D6F5D20E29C9320E58886E9858DE65A
:1013D0008890E58A9FEFBC81E59CB0E59D803A202E
:1013E000005B44656D6F5D20E9878AE694BEE59DEC
:1013F00097312E2E2E0D0A005B44656D6F5D20E245
:101400009C9320E5B7B2E9878AE694BEEFBC810DD4
:101410000A005B44656D6F5D20E6BC94E7A4BAE505
:10142000AE8CE68890EFBC810D0A005B44656D6F61
:101430005D20E8BF9BE585A5E7A9BAE997B2E5BEBF
:10144000AAE78EAF0D0A000D0A21212120E6A0880F
:10145000E6BAA2E587BAE6A380E6B58BEFBC9A00B0
:1014600049444C45000000000864002000280000AA
:1014700008280020003C0000080000200028000090
:10148000000000000000000005000000F8B500BFEB
:04149000F8B500BFEC
:04149400AAAAAAAAAC
:00000001FF
