:1000000000000120F5000000F1000000F1000000F8
:10001000F1000000F1000000F1000000000000000D
:10002000000000000000000000000000C50F0000FC
:10003000F1000000000000001D1000006110000031
:10004000F1000000F1000000F1000000F1000000EC
:10005000F1000000F1000000F1000000F1000000DC
:10006000F1000000F1000000F1000000F1000000CC
:10007000F1000000F1000000F1000000F1000000BC
:10008000F1000000F1000000F1000000F1000000AC
:10009000F1000000F1000000F1000000F10000009C
:1000A000F1000000F1000000F1000000F10000008C
:1000B000F1000000F1000000F1000000F10000007C
:1000C000F1000000F1000000F1000000F10000006C
:1000D000F1000000F1000000F1000000F10000005C
:1000E000F100000000000000F1000000F10000003D
:1000F000FEE7000008B50E4B0E48DA1C121AC11EAE
:1001000022F00302994288BF00220B4901F028F92E
:100110000A4B0B48DA1C121AC11E22F00302994244
:1001200088BF0022002101F0CBF800F0C9FAFEE7F9
:1001300004000020000000202C1D0000488D00203D
:10014000040000200F4A0346904203D302F52052D8
:10015000904211D30C4A934203D302F5705293425A
:100160000CD30A4A93420BD309490A4802F520529C
:10017000934228BF084670470748704707487047B2
:100180000348704714640020142800201400002045
:10019000641400005C1400004C14000054140000AF
:1001A000024B9A699206FCD41860704700C0004068
:1001B00008B5411E11F8010F00B908BDFFF7F0FFA7
:1001C000F8E7F0B585B028B9302005B0BDE8F040BB
:1001D000FFF7E6BF6A46002316460A24B0FBF4F593
:1001E000074604FB1501092F01F1300102F8011B3C
:1001F0002846194603F1010302D90F2BEED10E2137
:10020000705CFFF7CDFF0139FAD205B0F0BD0000F8
:1002100038B501F009F8054601F00CF8044612481B
:10022000FFF7C6FF1148FFF7C3FF4FF40C40FFF77D
:10023000C8FF0F48FFF7BCFF0E48FFF7B9FF28467D
:100240000D4DFFF7BEFF2846FFF7B2FF0B48FFF743
:10025000AFFF2046FFF7B5FF2846FFF7A9FFBDE82F
:1002600038400748FFF7A4BF6B1400009814000043
:10027000A7140000BE140000CD140000D714000025
:10028000E61400002DE9F0417C48FFF791FFFFF7ED
:10029000BFFF4FF47A7000F0FDFD0025784E794FD6
:1002A000DFF8E48130460135FFF782FF2846FFF78B
:1002B00088FF3846FFF77CFF6B1E032B00F2DC80C3
:1002C000DFE803F0029CB5B77048FFF771FF704894
:1002D000FFF76EFF4FF47A6000F004FF6D4B0446A9
:1002E000186000287AD06C48FFF762FF2046FFF7BD
:1002F00029FFFFF75DFF6948FFF75AFF4FF47A6265
:10030000AA21204600F0DCFF6548FFF751FF41F2CB
:10031000883000F0E7FE634B04461860002861D087
:100320005D48FFF745FF2046FFF70CFFFFF740FF52
:100330005A48FFF73DFF41F28832BB21204600F0CA
:10034000BFFF5948FFF734FF4FF4FA5000F0CAFEE0
:10035000564B04461860002848D04F48FFF728FF46
:100360002046FFF7EFFEFFF723FF4C48FFF720FF83
:100370004FF4FA52CC21204600F0A2FF4C48FFF780
:1003800017FF44F6206000F0ADFE4A4B04461860AB
:1003900080B34148FFF70CFF2046FFF7D3FEFFF77D
:1003A00007FF3E48FFF704FF44F62062DD212046A8
:1003B00000F086FF4048FFF7FBFEFFF729FF4FF4F0
:1003C000FA6000F067FD052D7FF46CAF3B48FFF746
:1003D000EFFE42F2107000F05DFDFAE73848FFF7DB
:1003E000E7FE91E73648FFF7E3FEAAE73448FFF758
:1003F000DFFEC3E73248FFF7DBFEDBE73148254C81
:10040000FFF7D6FE3048FFF7D3FE206818B100F0A2
:10041000C1FE00232360234C2C48FFF7C9FE20684F
:1004200018B100F0B7FE002323602948C3E729482C
:10043000C1E74046FFF7BCFE2748FFF7B9FE274853
:10044000FFF7B6FE2648FFF7B3FE2648FFF7B0FEDB
:100450002548FFF7ADFE2548FFF7AAFE2448FFF721
:10046000A7FE2448FFF7A4FE2348FFF7A1FE234878
:10047000FFF79EFE22489EE722489CE70E150000EB
:100480002D1500004E150000121700005C1500002D
:100490009115000010000020B5150000761800002E
:1004A000BE1500000C000020E2150000080000202E
:1004B00006160000040000202B1600004E19000054
:1004C0007B170000571600008F160000A3160000CF
:1004D000B7160000E91600003B1700008717000060
:1004E000C41700000B150000F317000018180000D7
:1004F000461800007A180000A8180000D318000061
:100500000A1900003519000030B585B001A904466C
:100510001C22084624FA02F303F00F052B46092D8E
:1005200094BF30333733043A01F8013B131DF1D146
:1005300000238DF80C30FFF73BFE05B030BD000006
:100540002DE9F0434D4889B0FFF732FE4C4E4D483F
:10055000FFF72EFE4C48FFF72BFE3046FFF7D4FF87
:100560004A48FFF725FE4FF42050FFF72AFE484D7A
:100570004848FFF71DFE4848FFF71AFE2846FFF7D8
:10058000C3FF4248FFF714FE4FF47050FFF719FE07
:10059000424C4048FFF70CFE4148FFF709FE204659
:1005A000FFF7B2FF3948FFF703FE4FF42050FFF783
:1005B00008FE3848FFF7FCFD4FF470524FF420530B
:1005C000CDE903246C460022CDE901350096059360
:1005D00026462346CDE9062219689868884205D246
:1005E0001860D8685D68C3E90101DD600833002A3E
:1005F00042D0009BA268934205D90092E2686168EC
:10060000C4E90123E1602748FFF7D2FD0025DFF8A8
:100610009890DFF898801D4F48460135FFF7C8FDD8
:100620002846FFF7CEFD4046FFF7C2FD2068FFF7E2
:100630006BFF3846FFF7BCFD6068FFF7C2FD154849
:10064000FFF7B6FD032D04F10804E5D11848FFF7C4
:10065000AFFD4FF40C40FFF7B4FD1648FFF7A8FDBF
:100660001548FFF7A5FD304600F0EAFD1348FFF7F7
:100670009FFD09B0BDE8F0830122ADE76A190000D3
:100680001464002093190000AA190000C419000086
:1006900014280020CD140000CD1900001400002003
:1006A000E7190000011A0000201A0000B819000024
:1006B0002E1A00003E1A00004A1A0000801A00009C
:1006C00007B53148FFF774FD3048FFF771FD30483A
:1006D000FFF76EFD2D48FFF76BFD2B48FFF768FD18
:1006E0002C48FFF765FD2C48FFF762FD2B48FFF70C
:1006F0005FFD2B48FFF75CFD2A48FFF759FD2A48AC
:10070000FFF756FD2048FFF753FD2048FFF750FD47
:100710002648FFF74DFD1D48FFF74AFD2448FFF727
:1007200047FD2448FFF744FD2348FFF741FD2348D8
:10073000FFF73EFD2248FFF73BFD1448FFF738FD69
:100740001148FFF735FDFFF7FBFE1E48FFF730FDB0
:10075000002302221C49CDE900231C484FF480727B
:1007600000F010F91A48FFF723FD0748FFF720FDB6
:100770001848FFF71DFD0448FFF71AFD00F0E2F9E5
:100780001548FFF715FDFEE70B150000A91A00003C
:10079000D01A0000FA1A00000C1B00002E1B0000EB
:1007A000501B0000781B0000931B0000B41B0000CE
:1007B000CC1B0000F41B0000191C0000381C0000BA
:1007C000601C0000881C0000A01C000085020000C6
:1007D000A91C0000C11C0000DE1C00000C4608B56E
:1007E0000448FFF7E5FC2046FFF7E2FC0248FFF76C
:1007F000DFFCFEE7021D00000B1500004FF0FF328A
:1008000000F10803C0E90223436003610023036091
:10081000704700230361704730B50C68631C0AD130
:1008200003695A684A6091608B6059600368086187
:100830000133036030BD00F10802134652681568A9
:10084000A542FAD9EDE70369D0E901128A60516047
:100850005968814208BF5A60002202611868013855
:10086000186070472DE9F843224B234C1D68234B39
:100870000646D3F80080224B0F46D3F8009020683C
:100880000430FFF7E0FF40B922681E49D06A012218
:100890000B68824023EA02030B60731C14D19FB1E2
:1008A000194B21685A688A6090682168C86021687D
:1008B00004314160216804319160226853611A68F3
:1008C00001321A60BDE8F88323682168AD195D60C4
:1008D00001F1040104D34846BDE8F843FFF79CBF8B
:1008E0004046FFF799FF094B1A68AA4288BF1D606E
:1008F000E8E700BF388C0020288D0020848C002081
:10090000808C0020348C0020408C00201C8C002027
:10091000064A13681968064B19B94FF0FF321A607E
:1009200070471268D2681268F9E700BF848C002013
:100930001C8C0020F8B50E4C0E4F0F4E236803B9E7
:10094000F8BD00F051FBFB68DD68281DFFF77BFF59
:100950003368013B33602368013B236000F054FBA4
:10096000286B00F017FC284600F014FCE6E700BFF7
:10097000548C0020588C00203C8C002008B5FFF7D8
:10098000D9FFFCE72DE9F0479600074630460D46B3
:100990009846DDF8249000F0A5FB824618B94FF088
:1009A000FF30BDE8F087502000F09CFB0446002893
:1009B00000F093805022002100F082FC3246A521F5
:1009C0005046C4F830A000F07BFC236B043E1E446C
:1009D00026F007066DB16B1E04F133020B3513F8D8
:1009E000011F02F8011F09B1AB42F8D1002384F8BE
:1009F0003F30089D04F1040A052D28BF0525504607
:100A0000E5622564FFF705FFC5F1060504F118004E
:100A1000FFF7FFFE4246394630462461A561646215
:100A200000F0BEFA2060B9F1000F01D0C9F8004013
:100A300000F0DAFA364B374E1A68374F01321A6037
:100A40003568002D4DD134601B68012B1FD1B8468D
:100A500040460135FFF7D2FE062D08F11408F7D104
:100A6000DFF8B8802E4D4046FFF7C8FE2846FFF756
:100A7000C5FE2C48FFF7C2FE2B48FFF7BFFE2B48F0
:100A8000FFF7BCFE2A4BC3F800802A4B1D602A4AA0
:100A90002A4913680868013313600122E36A9A4007
:100AA00002430A6014225343F9184A689068A2600E
:100AB000E060C0F804A0C2F808A0FA5861610132F1
:100AC000FA5000F0A1FA1E4B1B6823B13368DA6AB2
:100AD000E36A9A4210D3012063E7504600F05AFBC4
:100AE0005DE7174B1A68E36A002AD0D13268D26AF0
:100AF0009A4298BF3460CAE74FF0E0234FF080522B
:100B0000C3F8042DBFF34F8FBFF36F8FE3E700BF30
:100B10003C8C0020288D0020B08C00209C8C002074
:100B2000888C00206C8C0020588C0020408C002089
:100B3000848C0020808C0020208C0020348C0020AD
:100B4000308C0020002310B5164A86B0CDE903335F
:100B5000059303AB12F8014B03F8014B002CF9D1BC
:100B6000114B5A22CDE900431048234603A9FFF751
:100B700009FF012811D14FF0400383F31188BFF31F
:100B80006F8FBFF34F8F4FF0FF32094B1A60094B45
:100B90001860094B1C6000F085FA084B1B6806B012
:100BA00010BD00BF1B1D0000188C00207D09000037
:100BB0001C8C0020308C0020388C0020201D000070
:100BC000024A136801331360704700BF148C002081
:100BD0002DE9F84F514B1B68002B40F09880504B8B
:100BE0001C6801341C605CB94E4A4F4B1168186890
:100BF00010604E4A1960136801331360FFF788FED6
:100C00004B4D00202B684B4A9C42DFF82CC10FD281
:100C10001421DCF80030DB6A4B43D358022B474BDE
:100C200028BF01201B68002B18BF0120BDE8F88FEA
:100C30003C4F434E3B681B681BB94FF0FF332B60A2
:100C4000E6E73B68DB68DB6859688C4201D22960C3
:100C5000DEE7D3F81480D3E90219C1F80890C9F887
:100C60000410D8F8041003F1040E71454FF0000190
:100C700008BFC8F804905961D8F800100139C8F8C5
:100C80000010D3F82880B8F1000F15D0D3E9071968
:100C9000C1F80890C9F80410D8F8041003F1180A34
:100CA00051454FF0000108BFC8F804909962D8F888
:100CB00000100139C8F800104FF00108D96AD6F8C1
:100CC000009008FA01F848EA0908C6F800804FF0D9
:100CD000140808FB01F802EB080ADAF80490D9F8C6
:100CE00008B0C3F80890C3F80CB0CBF804E0C9F81A
:100CF00008E0C3F814A052F80830013342F8083075
:100D0000DCF80030DB6A994288BF012092E70D4A87
:100D1000002013680133136088E700BF148C0020A3
:100D2000388C0020848C0020808C0020248C0020B3
:100D30001C8C0020B08C0020288D0020288C0020E6
:100D4000348C00202C8C00202DE9F84F00F04CF959
:100D5000484B1A68013A1A601B682BB1002400F056
:100D600053F92046BDE8F88F434A1268002AF5D0AF
:100D7000012514264148424C424A434FDFF80CC13A
:100D800053E0C368DB68D3F828E0D3E90718C1F85B
:100D90000880C8F80410DEF8041003F1180949456A
:100DA0004FF0000108BFCEF804809962DEF8001011
:100DB0000139CEF80010D3F814E0D3E90218C1F8D5
:100DC0000880C8F80410DEF8041003F1040949454E
:100DD000DEF8001008BFCEF804800139CEF800100C
:100DE000D3F82CE0D4F8008005FA0EF141EA0801AE
:100DF00006FB0EF802EB080A2160DAF80410D1F8BD
:100E000008B09960C3F80CB0CBF80490C1F8089012
:100E100052F80810C3F814A0013142F808103968DC
:100E2000C96A8E4501D9CCF8005001680029A8D1C3
:100E30000BB1FFF76DFD164D2C6844B10127134E21
:100E4000FFF7C6FE00B13760013CF9D12C600F4BB3
:100E50001B68002B82D00C4B4FF080521B684FF068
:100E6000E023C3F8042DBFF34F8FBFF36F8F01242E
:100E700075E700BF148C00203C8C00206C8C002097
:100E8000348C0020B08C0020288D0020288C00207D
:100E90002C8C002008B550B94FF0E0234FF0805261
:100EA000C3F8042DBFF34F8FBFF36F8F08BD002130
:100EB000FFF786FEFFF7D6FCFFF746FF0028EBD0D2
:100EC000F4E70000214B70B51A68214B12B10122E2
:100ED0001A6070BD1F4C1A60236821682268096877
:100EE000126B1B6B91420FD91A68B2F1A53F0BD15F
:100EF0005A68B2F1A53F07D19A68B2F1A53F03D174
:100F0000DB68B3F1A53F04D0216820683431FFF7D6
:100F100065FC114B1B68B3FA83F31425DBB2C3F1F4
:100F20001F0305FB03F20D498818466808327668EE
:100F30000A44964205FB031108BFC268466008BF19
:100F400042604B68DB6823602368C2E7148C002092
:100F5000288C0020288D0020348C0020B08C0020AC
:100F6000002382B001934FF0400383F31188BFF355
:100F70006F8FBFF34F8F019B002BFCD002B07047E7
:100F800006480068006880F3088862B661B6BFF35F
:100F90004F8FBFF36F8F00DF00BF000008ED00E050
:100FA0004FF0807340F8043C054B21F0010140F8FC
:100FB000081C40F80C3C40F8202C4038704700BF1B
:100FC000610F0000074B19680868B0E8F00F80F364
:100FD0000988BFF36F8F4FF0000080F311884EF047
:100FE0000D0E7047288D00204FF0400383F31188C9
:100FF000BFF36F8FBFF34F8F024A13680133136043
:10100000704700BF00000020034A1368013B1360D3
:101010000BB983F31188704700000020EFF30980BB
:10102000BFF36F8F0D4B1A6820E9F00F10602DE9A8
:1010300008404FF0400080F31188FFF743FF4FF066
:10104000000080F31188BDE8084019680868B0E81E
:10105000F00F80F30988BFF36F8F7047288D002051
:1010600008B54FF0400383F31188BFF36F8FBFF3D0
:101070004F8FFFF7ADFD28B14FF0E0234FF08052C6
:10108000C3F8042D002383F3118808BD4FF0E0233B
:1010900000221A619A614CF24F325A6107221A619A
:1010A000704700004FF0E02310B50024D3F8202D46
:1010B00042F47F02C3F8202DD3F8202D42F07F4266
:1010C000C3F8202DC3F81C4DFFF7E0FF044B1C6054
:1010D000FFF756FFFFF7F6FEFFF742FF204610BD71
:1010E00000000020F8B5431E0A3342D810F0070371
:1010F00000F1080405D0A3F10902A24239D310304F
:10110000C41AFFF75DFD002C38DD1D4E3168A14289
:1011100034D31C4A13685868A04201D21D6855BBDD
:10112000194D2D689D4229D01568D3F800C0001BC9
:10113000102805F10805C2F800C005D91F1978600C
:101140005C6043F804C0176058680A1A0F4932609F
:101150000C6840F00040A24238BF0A6000221A60CA
:101160000B4A5860136801331360FFF7EDFD284602
:10117000F8BD0024C5E71A462B46CCE70025F4E766
:10118000388D0020408D00203C8D0020348D0020C3
:10119000308D002038B5054600283BD050F8043C7F
:1011A000002B37DA50F8082C002A33D123F0004303
:1011B00040F8043CA0F10804FFF702FD164A55F878
:1011C000041C13680B441360144B1A461B689C42A2
:1011D000FBD850681518AC4202BF1446091851607C
:1011E000606821188B4213D10D4909688B4203D0E6
:1011F0005968014461601968A242216018BF1460F7
:10120000084A136801331360BDE83840FFF79CBDFE
:101210001946F1E738BD00BF388D0020408D002011
:101220003C8D00202C8D0020014B1868704700BFBA
:10123000388D0020014B1868704700BF348D0020A6
:1012400000222DE9F041114614469446184E194FDC
:10125000356800F1040E5EF831303BB902B13560FB
:10126000154B1C60154B1C60BDE8F08150F8312017
:1012700012F0070F07D002F1070828F007081344FF
:101280004246A3EB080309B9C7E900211344083B10
:1012900023F00703A3EB0208C3E900CCC2E900383E
:1012A00005B12A601D46012244440131D3E700BF45
:1012B0003C8D0020408D0020348D0020388D002092
:1012C00070B5860747D0541E002A3ED00346CAB2E6
:1012D00001E0013C39D303F8012B9D07F9D1032C20
:1012E0002CD9CDB205EB05250F2C1A4605EB05458B
:1012F00034D9A4F1100C2CF00F0603F1100EB644F3
:101300004FEA1C1CC2E90055C2E902551032724571
:10131000F8D10CF1010214F00C0F03EB021204F0EF
:101320000F0C13D0ACF1040323F003030433134474
:1013300042F8045B9342FBD10CF003042CB1C9B218
:101340001C4403F8011BA342FBD170BD6446134645
:10135000002CF4D1F9E703461446C0E7A446E1E7C0
:10136000844641EA000313F0030349D1403A23D3F2
:101370000B6803604B6843608B688360CB68C36015
:101380000B6903614B6943618B698361CB69C361FD
:101390000B6A03624B6A43628B6A8362CB6AC362E5
:1013A0000B6B03634B6B43638B6B8363CB6BC363CD
:1013B00040304031403ADBD230320BD30B6803600F
:1013C0004B6843608B688360CB68C360103010311A
:1013D000103AF3D20C3205D351F8043B40F8043BE9
:1013E000043AF9D2043208D0D2071CBF11F8013BED
:1013F00000F8013B01D30B8803806046704700BFB3
:10140000082A13D38B07B1D010F00303AED0C3F179
:101410000403D21ADB071CBF11F8013B00F8013BA3
:10142000A4D331F8023B20F8023B9FE7043AD9D31A
:10143000013A11F8013B00F8013BF9D20B78037037
:101440004B7843708B78837060467047E58CBAE5C3
:101450009F9F3100E58CBAE59F9F3200E58CBAE58D
:101460009F9F3300E69CAAE79FA5000D0A2D2D2D16
:101470002D2D2D2D2D2D2D20E8AFA6E7BB86E58641
:1014800085E5AD98E78AB6E68081202D2D2D2D2D9E
:101490002D2D2D2D2D0D0A00E680BBE5A086E5A49F
:1014A000A7E5B08F3A200020E5AD97E88A82202892
:1014B00033E4B8AAE58CBAE59F9F290D0A00E589B7
:1014C000A9E4BD99E5A4A7E5B08F3A200020E5ADD9
:1014D00097E88A820D0A00E58E86E58FB2E69C8049
:1014E000E5B08F3A20002D2D2D2D2D2D2D2D2D2DBC
:1014F0002D2D2D2D2D2D2D2D2D2D2D2D2D2D2D2D1C
:101500002D2D2D2D2D2D2D2D2D0D0A0D0A005B4479
:10151000656D6F5D20E6BC94E7A4BAE4BBBBE58AC9
:10152000A1E590AFE58AA8EFBC810D0A000D0A5B2A
:1015300044656D6F5D203D3D3D3D3D3D3D3D3D3D47
:1015400020E6BC94E7A4BAE998B6E6AEB500203D23
:101550003D3D3D3D3D3D3D3D3D0D0A005B44656DDE
:101560006F5D20E6ADA5E9AAA433EFBC9AE58886B5
:10157000E9858DE58685E5AD98EFBC8CE6B58BE811
:10158000AF95E8B7A8E58CBAE59F9F2E2E2E0D0AE1
:10159000005B44656D6F5D20E58886E9858D20E5FB
:1015A0009D9741202834303030E5AD97E88A822974
:1015B0002E2E2E2000E68890E58A9F2028005B448E
:1015C000656D6F5D20E58886E9858D20E59D9742F4
:1015D000202835303030E5AD97E88A82292E2E2E2E
:1015E00020005B44656D6F5D20E58886E9858D2070
:1015F000E59D9743202838303030E5AD97E88A8262
:10160000292E2E2E20005B44656D6F5D20E58886B7
:10161000E9858D20E59D974420283230303030E533
:10162000AD97E88A82292E2E2E20005B44656D6FCF
:101630005D20E29C9320E8B7A8E58CBAE59F9FE582
:101640008886E9858DE6ADA3E5B8B8E5B7A5E4BD24
:101650009CEFBC810D0A005B44656D6F5D20E6ADBB
:10166000A5E9AAA434EFBC9AE9878AE694BEE98387
:10167000A8E58886E58685E5AD98EFBC8CE6B58B58
:10168000E8AF95E59088E5B9B62E2E2E0D0A005BE1
:1016900044656D6F5D20E9878AE694BEE59D9741BC
:1016A0000D0A005B44656D6F5D20E9878AE694BE94
:1016B000E59D97420D0A005B44656D6F5D20E29CDD
:1016C0009320E58D95E58CBAE59F9FE58685E59DA0
:1016D00097E59088E5B9B6E6ADA3E5B8B8E5B7A556
:1016E000E4BD9CEFBC810D0A005B44656D6F5D201D
:1016F000E6ADA5E9AAA435EFBC9AE8AFA6E7BB869C
:10170000E58685E5AD98E7BB9FE8AEA12E2E2E0DB0
:101710000A005B44656D6F5D20E6ADA5E9AAA436BD
:10172000EFBC9AE6BC94E7A4BAE6B3A8E6848FE4DB
:10173000BA8BE9A1B92E2E2E0D0A005B44656D6FA0
:101740005D20E6B3A8E6848FEFBC9AE5A682E69E0C
:101750009CE4B88DE8B083E794A876506F72744427
:101760006566696E6548656170526567696F6E731D
:101770002829E4BC9AE696ADE8A880E5A4B1E8B4CF
:10178000A5EFBC810D0A005B44656D6F5D20E6B37B
:10179000A8E6848FEFBC9AE58CBAE59F9FE5BF85EC
:1017A000E9A1BBE68C89E59CB0E59D80E4BB8EE4B5
:1017B000BD8EE588B0E9AB98E68E92E5BA8FEFBCB6
:1017C000810D0A005B44656D6F5D20E6B3A8E68479
:1017D0008FEFBC9AE5BF85E9A1BBE69C894E554CCD
:1017E0004CE7BB93E69D9FE6A087E8AEB0EFBC81D7
:1017F0000D0A005B44656D6F5D20686561705F3543
:10180000E5ADA6E4B9A0E8A681E782B9E680BBE72A
:10181000BB93EFBC9A0D0A005B44656D6F5D203190
:101820002E20E694AFE68C81E5A49AE4B8AAE99D5F
:101830009EE8BF9EE7BBADE58685E5AD98E58CBA31
:10184000E59F9F0D0A005B44656D6F5D20322E2081
:10185000E5BF85E9A1BBE58588E8B083E794A87674
:10186000506F7274446566696E6548656170526553
:1018700067696F6E7328290D0A005B44656D6F5DA3
:1018800020332E20E58CBAE59F9FE68C89E59CB03D
:10189000E59D80E4BB8EE4BD8EE588B0E9AB98E6BB
:1018A0008E92E5BA8F0D0A005B44656D6F5D203442
:1018B0002E20E7BBA7E689BF686561705F34E79AB1
:1018C00084E59D97E59088E5B9B6E58A9FE883BDF4
:1018D0000D0A005B44656D6F5D20352E20E9808226
:1018E000E59088E58685E5AD98E59CB0E59D80E5C9
:1018F0008886E695A3E79A84E5B58CE585A5E5BCE1
:101900008FE7B3BBE7BB9F0D0A005B44656D6F5D5E
:1019100020362E20E58FAFE4BBA5E7BB84E5908899
:10192000E58685E983A8E5928CE5A496E983A8522B
:10193000414D0D0A005B44656D6F5D20E6BC94E788
:10194000A4BAE5AE8CE68890EFBC810D0A005B443A
:10195000656D6F5D20E8BF9BE585A5E7A9BAE997AE
:10196000B2E5BEAAE78EAF0D0A005B44656D6F5D00
:1019700020E6ADA5E9AAA431EFBC9AE5AE9AE4B998
:1019800089E58685E5AD98E58CBAE59F9F2E2E2EDC
:101990000D0A005B44656D6F5D20E58E9FE5A78BAA
:1019A000E59CB0E59D803A0D0A005B44656D6F5D76
:1019B00020E58CBAE59F9F313A20E59CB0E59D80FB
:1019C0003D30780020E5A4A7E5B08F3D005B44657D
:1019D0006D6F5D20E58CBAE59F9F323A20E59CB0A3
:1019E000E59D803D3078005B44656D6F5D20E58C42
:1019F000BAE59F9F333A20E59CB0E59D803D307865
:101A0000000D0A5B44656D6F5D20E68C89E59CB036
:101A1000E59D80E68E92E5BA8FE5908E3A0D0A003C
:101A20005B44656D6F5D20E58CBAE59F9F005B446C
:101A3000656D6F5D20E680BBE8AEA13A200020E531
:101A4000AD97E88A820D0A0D0A005B44656D6F5DF3
:101A500020E6ADA5E9AAA432EFBC9AE8B083E794EA
:101A6000A82076506F7274446566696E654865613A
:101A700070526567696F6E7328292E2E2E0D0A002D
:101A80005B44656D6F5D20E29C9320686561705FCB
:101A90003520E5889DE5A78BE58C96E68890E58A5C
:101AA0009FEFBC810D0A0D0A003D3D3D3D3D3D3D92
:101AB0003D3D3D3D3D3D3D3D3D3D3D3D3D3D3D3D56
:101AC0003D3D3D3D3D3D3D3D3D3D3D3D3D0D0A00E6
:101AD00020204672656552544F5320686561705FDF
:101AE0003520E58685E5AD98E58886E9858DE5991B
:101AF000A8E7A4BAE4BE8B0D0A00E5ADA6E4B9A040
:101B0000E8A681E782B9EFBC9A0D0A00312E206861
:101B10006561705F3520E5A49AE58CBAE59F9FE585
:101B20008685E5AD98E7AEA1E790860D0A00322ED6
:101B30002048656170526567696F6E5F7420E7BB0E
:101B400093E69E84E4BD93E4BDBFE794A80D0A002C
:101B5000332E2076506F7274446566696E654865F1
:101B60006170526567696F6E73282920E5889DE56D
:101B7000A78BE58C960D0A00342E20E8B7A8E58CDB
:101B8000BAE59F9FE58685E5AD98E58886E9858D70
:101B90000D0A00352E20E98082E794A8E59CBAE67C
:101BA00099AFE5928CE6B3A8E6848FE4BA8BE9A1FD
:101BB000B90D0A002020686561705F3520E79A84BE
:101BC000E789B9E782B9EFBC9A0D0A00E29C93203D
:101BD000E694AFE68C81E5A49AE4B8AAE99D9EE874
:101BE000BF9EE7BBADE58685E5AD98E58CBAE59F80
:101BF0009F0D0A00E29C9320E7BBA7E689BF6865BA
:101C000061705F34E79A84E59D97E59088E5B9B601
:101C1000E58A9FE883BD0D0A00E29C9320E4BDBFE6
:101C2000E794A8E9A696E6ACA1E98082E9858DE76C
:101C3000AE97E6B3950D0A00E29C9320E99C80E8FC
:101C4000A681E6898BE58AA8E5889DE5A78BE58CCA
:101C500096E58685E5AD98E58CBAE59F9F0D0A006F
:101C6000E29C9320E98082E59088E58685E5AD9841
:101C7000E59CB0E59D80E58886E695A3E79A84E734
:101C8000B3BBE7BB9F0D0A00E6ADA3E59CA8E588C2
:101C90009BE5BBBAE4BBBBE58AA12E2E2E0D0A0044
:101CA00044656D6F5461736B00E4BBBBE58AA1E5CD
:101CB000889BE5BBBAE68890E58A9FEFBC810D0A58
:101CC00000E590AFE58AA84672656552544F53E827
:101CD000B083E5BAA6E599A82E2E2E0D0A00E99448
:101CE00099E8AFAFEFBC9AE8B083E5BAA6E599A84A
:101CF000E590AFE58AA8E5A4B1E8B4A5EFBC810DF5
:101D00000A000D0A21212120E6A088E6BAA2E58773
:101D1000BAE6A380E6B58BEFBC9A0049444C450077
:0C1D200005000000F8B500BFF8B500BFDA
:041D2C00AAAAAAAA0B
:00000001FF
