:1000000000000120F5000000F1000000F1000000F8
:10001000F1000000F1000000F1000000000000000D
:100020000000000000000000000000006117000058
:10003000F100000000000000B9170000FD170000EB
:10004000F1000000F1000000F1000000F1000000EC
:10005000F1000000F1000000F1000000F1000000DC
:10006000F1000000F1000000F1000000F1000000CC
:10007000F1000000F1000000F1000000F1000000BC
:10008000F1000000F1000000F1000000F1000000AC
:10009000F1000000F1000000F1000000F10000009C
:1000A000F1000000F1000000F1000000F10000008C
:1000B000F1000000F1000000F1000000F10000007C
:1000C000F1000000F1000000F1000000F10000006C
:1000D000F1000000F1000000F1000000F10000005C
:1000E000F100000000000000F1000000F10000003D
:1000F000FEE7000008B50E4B0E48DA1C121AC11EAE
:1001000022F00302994288BF00220B4901F0CEFC85
:100110000A4B0B48DA1C121AC11E22F00302994244
:1001200088BF0022002101F071FC00F061F8FEE7B9
:1001300004000020000000208822000044C90020A4
:1001400004000020F0B5012985B001F1FF351AD077
:1001500000231A4911F8014BC4540133092B01D073
:10016000AB42F7D38AB9302201218DF800200DEB84
:100170000102184419448B4201D0AB4218D300232A
:10018000037005B0F0BD0023ECE76E4600210A279E
:10019000B2FBF7FC07FB1C24303406F8014B144675
:1001A000092C624601F10101E1D90F29F0D1DEE706
:1001B00012F8014D013300F8014BDCE7F41B00009D
:1001C000024B9A699206FCD41860704700C0004048
:1001D00008B5411E11F8010F00B908BDFFF7F0FF87
:1001E000F8E700000148FFF7F3BF00BFFE1B000067
:1001F000002407B55748FFF7EBFFFFF7F3FF56481A
:10020000FFF7E6FFFFF7EEFF5248FFF7E1FF534825
:10021000FFF7DEFF5248FFF7DBFF5248FFF7D8FF3A
:100220005148FFF7D5FF5148FFF7D2FF4948FFF784
:10023000CFFF4F48FFF7CCFF234601222146C820BD
:10024000009401F02EF94B4B186018B94A48FFF79B
:10025000BFFFFEE74948FFF7BBFF234601222146C7
:10026000C820009401F01DF9454B186018B94548A5
:10027000FFF7AEFFFEE74448FFF7AAFF23462246FA
:100280000121C820009401F00CF9404B186018B906
:100290003F48FFF79DFFFEE7042603253D48FFF793
:1002A00097FF3D48FFF794FF23464FF480723B4988
:1002B0003B480194009600F04FFB3A48FFF788FF57
:1002C00023464FF48072384938480194009500F075
:1002D00043FB3748FFF77CFF23464FF480723549D4
:1002E000CDE90064344800F037FB3448FFF770FF75
:1002F00023464FF480723249CDE90054314800F072
:100300002BFB3148FFF764FF23464FF480722F49DF
:10031000CDE900542E4800F01FFB2E48FFF758FF90
:1003200002234FF480722C4900932C4823460194F9
:1003300000F012FB2A48FFF74BFF2A48FFF748FF5F
:100340002948FFF745FF00F049FC2848FFF740FF28
:10035000FEE700BFE21E00002B1C00004D1C000049
:10036000641C0000821C00009E1C0000B91C0000E0
:10037000E21C00000C000020F81C00001E1D000004
:10038000080000203B1D0000601D0000040000204C
:100390007C1D00009C1D0000B31D0000C91D000055
:1003A00031070000CF1D0000EC1D000079060000A1
:1003B000F21D00000D1E000009060000141E0000C2
:1003C000341E0000650500003C1E00005E1E00009B
:1003D00081040000691E0000901E00003D04000022
:1003E000971E0000B21E0000C91E0000E51E00009E
:1003F000F0B585B028B9302005B0BDE8F040FFF772
:10040000DFBE6A46002316460A24B0FBF4F5074611
:1004100004FB1501092F01F1300102F8011B2846E8
:10042000194603F1010302D90F2BEED10E21705CA6
:10043000FFF7C6FE0139FAD205B0F0BDF8B50D4898
:10044000FFF7C6FE00240A250B4E0C4F0134B4FB07
:10045000F5F305FB134343B93046FFF7B9FE2046D9
:10046000FFF7C6FF3846FFF7B3FEC82000F05EFD79
:10047000ECE700BF061F00002B1F0000E21E00007B
:100480007FB52D48FFF7A4FE4FF4FA7000F04EFD43
:10049000FFF7A8FE2948FFF79BFEFFF7A3FE2848B9
:1004A000FFF796FE2748FFF793FEFFF79BFE2648CF
:1004B000FFF78EFE4124254D254E0023012228689A
:1004C0000DF103018DF8034001F020F8012809D156
:1004D0003046FFF77DFE9DF80300FFF771FE1D48D3
:1004E000FFF776FE0134E4B2462CE6D101A90023E1
:1004F0000A22286801F0AFF8044600251648FFF7E5
:1005000067FE2046FFF774FF1448FFF761FE01A95C
:10051000A5420AD10F48FFF75BFE1148FFF758FECE
:10052000002000F0F9FA04B070BD11F8010BFFF7DC
:1005300047FE0135ECE700BF481F0000691F0000BF
:100540008D1F0000C01F0000F61F000004000020E7
:1005500024200000E21E000036200000472000009A
:10056000582000002DE9F041204892B0FFF730FEFE
:100570004FF4FA7000F0DAFC00241D4FDFF87480AD
:100580001D4E01342246402102A8FFF7DBFD38460C
:10059000FFF71EFE2046FFF72BFF4046FFF718FE31
:1005A000002302A8019301F0F7FA01AB024602A969
:1005B000306801F016F8054640B11048FFF708FE14
:1005C0002846FFF715FF0E48FFF702FE4FF47A703A
:1005D00000F0ACFC042CD4D10A48FFF7F9FD002050
:1005E00000F09AFA12B0BDE8F08100BF7A20000056
:1005F00097200000E21E000008000020BC20000040
:10060000CE200000D7200000F0B51648A1B0FFF7BB
:10061000DFFD0024144F154E154D4FF0FF3380229F
:100620006946386801F017F80028F6D000F1800319
:100630000DEB03000023013400F8803C3046FFF747
:10064000C7FD2046FFF7D4FE2846FFF7C1FD094845
:10065000FFF7BEFD6846FFF7BBFD2846FFF7B8FD74
:10066000DBE700BFEC200000080000200B210000A9
:10067000E21E00002F2100002DE9FF41244B002441
:1006800093E8070004AB03E907002248FFF7A0FD49
:100690004FF4FA7000F04AFC1F4E204F204D0134F9
:1006A0003046FFF795FD2046FFF7A2FE3846FFF7DC
:1006B0008FFD0323B4FBF3F303EB430304AAE31A14
:1006C00002EB830353F80C8C404601F065FA414677
:1006D00002464FF0FF33286800F018FF804640B113
:1006E0001048FFF775FD4046FFF782FE0E48FFF702
:1006F0006FFD4FF47A7000F019FC062CCFD10B4837
:10070000FFF766FD002004B0BDE8F04100F004BA38
:10071000702200004921000063210000E21E000059
:100720000C00002082210000CE2000009321000058
:10073000F0B51448C1B0FFF74BFD0024124F134E23
:10074000134D4FF0FF334FF480726946386800F064
:1007500082FF0028F5D0002301340DF80030304628
:10076000FFF736FD2046FFF743FE2846FFF730FD32
:100770000848FFF72DFD6846FFF72AFD2846FFF7DA
:1007800027FDDEE7AF2100000C000020E42100007F
:10079000E21E0000012200000C4608B50448FFF7E5
:1007A00017FD2046FFF714FD0248FFF711FDFEE795
:1007B00018220000E21E00004FF0FF3200F1080393
:1007C000C0E90223436003610023036070470023F4
:1007D0000361704743689A684B608A605160996012
:1007E0000368086101330360704730B50C68631C0F
:1007F0000AD103695A684A6091608B605960036846
:1008000008610133036030BD00F1080213465268ED
:100810001568A542FAD9EDE70369D0E901128A60AB
:1008200051605968814208BF5A600022026118680D
:1008300001381860704700002DE9F843224B234C23
:100840001D68234B0646D3F80080224B0F46D3F891
:10085000009020680430FFF7DFFF40B922681E498E
:10086000D06A01220B68824023EA02030B60731CEA
:1008700014D19FB1194B21685A688A609068216829
:10088000C8602168043141602168043191602268A8
:1008900053611A6801321A60BDE8F8832368216841
:1008A000AD195D6001F1040104D34846BDE8F84389
:1008B000FFF79BBF4046FFF798FF094B1A68AA4213
:1008C00088BF1D60E8E700BF34000020240100203D
:1008D000800000207C000020300000203C00002030
:1008E00018000020064A13681968064B19B94FF022
:1008F000FF321A6070471268D2681268F9E700BFC9
:100900008000002018000020F8B50E4C0E4F0F4E4E
:10091000236803B9F8BD00F035FFFB68DD68281DCA
:10092000FFF77AFF3368013B33602368013B2360A4
:1009300000F038FF286B01F01FF8284601F01CF882
:10094000E6E700BF500000205400002038000020DF
:1009500008B5FFF7D9FFFCE72DE9F04796000746F9
:1009600030460D469846DDF8249000F089FF824617
:1009700018B94FF0FF30BDE8F087502000F080FF3D
:100980000446002800F093805022002101F03EF838
:100990003246A5215046C4F830A001F037F8236B49
:1009A000043E1E4426F007066DB16B1E04F13302AF
:1009B0000B3513F8011F02F8011F09B1AB42F8D142
:1009C000002384F83F30089D04F1040A052D28BF58
:1009D00005255046E5622564FFF7F9FEC5F10605D9
:1009E00004F11800FFF7F3FE424639463046246111
:1009F000A561646200F0A2FE2060B9F1000F01D091
:100A0000C9F8004000F0BEFE364B374E1A68374F2B
:100A100001321A603568002D4DD134601B68012BFE
:100A20001FD1B84640460135FFF7C6FE062D08F136
:100A30001408F7D1DFF8B8802E4D4046FFF7BCFE12
:100A40002846FFF7B9FE2C48FFF7B6FE2B48FFF704
:100A5000B3FE2B48FFF7B0FE2A4BC3F800802A4BA9
:100A60001D602A4A2A49136808680133136001226D
:100A7000E36A9A4002430A6014225343F9184A6811
:100A80009068A260E060C0F804A0C2F808A0FA581C
:100A900061610132FA5000F085FE1E4B1B6823B1E4
:100AA0003368DA6AE36A9A4210D3012063E750465A
:100AB00000F062FF5DE7174B1A68E36A002AD0D1A5
:100AC0003268D26A9A4298BF3460CAE74FF0E02396
:100AD0004FF08052C3F8042DBFF34F8FBFF36F8FD9
:100AE000E3E700BF3800002024010020AC00002014
:100AF000980000208400002068000020540000209E
:100B00003C000020800000207C0000201C00002011
:100B1000300000202C000020F8B50446274D00F0DE
:100B200031FE04B92C68261D3046FFF775FE60B90A
:100B30001423E06A224A4343D35833B9012221499E
:100B400082400B6823EA02030B60A36A1BB104F125
:100B50001800FFF761FE1C4A1C4F13680133136035
:100B60002B683A68DAB1A34219D131461848FFF729
:100B700031FE184A13680133136000F013FE3B681E
:100B800063B12B68A34209D14FF0E0234FF08052AC
:100B9000C3F8042DBFF34F8FBFF36F8FF8BD0E4A1C
:100BA0001368013B1360FFF79DFE00F0FBFD206B17
:100BB00000F0E2FE204600F0DFFEE0E72401002026
:100BC000AC000020300000201C0000202C00002081
:100BD000540000205000002038000020002310B5F1
:100BE000164A86B0CDE90333059303AB12F8014BE7
:100BF00003F8014B002CF9D1114B5A22CDE90043E7
:100C00001048234603A9FFF7A7FE012811D14FF092
:100C1000400383F31188BFF36F8FBFF34F8F4FF003
:100C2000FF32094B1A60094B1860094B1C6000F039
:100C300007FE084B1B6806B010BD00BF692200000C
:100C40001400002051090000180000202C00002092
:100C5000340000207C220000024A13680133136034
:100C6000704700BF100000202DE9F84F514B1B6862
:100C7000002B40F09880504B1C6801341C605CB91C
:100C80004E4A4F4B1168186810604E4A196013683D
:100C900001331360FFF726FE4B4D00202B684B4AB3
:100CA0009C42DFF82CC10FD21421DCF80030DB6A43
:100CB0004B43D358022B474B28BF01201B68002B06
:100CC00018BF0120BDE8F88F3C4F434E3B681B68BE
:100CD0001BB94FF0FF332B60E6E73B68DB68DB684E
:100CE00059688C4201D22960DEE7D3F81480D3E939
:100CF0000219C1F80890C9F80410D8F8041003F1DB
:100D0000040E71454FF0000108BFC8F80490596106
:100D1000D8F800100139C8F80010D3F82880B8F1CD
:100D2000000F15D0D3E90719C1F80890C9F80410CD
:100D3000D8F8041003F1180A51454FF0000108BF1C
:100D4000C8F804909962D8F800100139C8F800106A
:100D50004FF00108D96AD6F8009008FA01F848EA7D
:100D60000908C6F800804FF0140808FB01F802EBF0
:100D7000080ADAF80490D9F808B0C3F80890C3F864
:100D80000CB0CBF804E0C9F808E0C3F814A052F89E
:100D90000830013342F80830DCF80030DB6A994251
:100DA00088BF012092E70D4A0020136801331360C9
:100DB00088E700BF100000203400002080000020E1
:100DC0007C0000202000002018000020AC00002043
:100DD00024010020240000203000002028000020F2
:100DE0002DE9F84F00F0CEFC484B1A68013A1A6022
:100DF0001B682BB1002400F0D5FC2046BDE8F88F1D
:100E0000434A1268002AF5D0012514264148424C75
:100E1000424A434FDFF80CC153E0C368DB68D3F8A4
:100E200028E0D3E90718C1F80880C8F80410DEF8F4
:100E3000041003F1180949454FF0000108BFCEF82E
:100E400004809962DEF800100139CEF80010D3F862
:100E500014E0D3E90218C1F80880C8F80410DEF8DD
:100E6000041003F104094945DEF8001008BFCEF86C
:100E700004800139CEF80010D3F82CE0D4F80080BB
:100E800005FA0EF141EA080106FB0EF802EB080A2A
:100E90002160DAF80410D1F808B09960C3F80CB0FA
:100EA000CBF80490C1F8089052F80810C3F814A0C9
:100EB000013142F808103968C96A8E4501D9CCF869
:100EC000005001680029A8D10BB1FFF70BFD164DAA
:100ED0002C6844B10127134EFFF7C6FE00B13760FE
:100EE000013CF9D12C600F4B1B68002B82D00C4BBE
:100EF0004FF080521B684FF0E023C3F8042DBFF37E
:100F00004F8FBFF36F8F012475E700BF10000020E3
:100F1000380000206800002030000020AC000020D5
:100F200024010020240000202800002008B550B92A
:100F30004FF0E0234FF08052C3F8042DBFF34F8FE2
:100F4000BFF36F8F08BD0021FFF786FEFFF774FC2B
:100F5000FFF746FF0028EBD0F4E70000214B70B507
:100F60001A68214B12B101221A6070BD1F4C1A6021
:100F70002368216822680968126B1B6B91420FD9A4
:100F80001A68B2F1A53F0BD15A68B2F1A53F07D15B
:100F90009A68B2F1A53F03D1DB68B3F1A53F04D055
:100FA000216820683431FFF7F7FB114B1B68B3FA57
:100FB00083F31425DBB2C3F11F0305FB03F20D49D4
:100FC00088184668083276680A44964205FB031181
:100FD00008BFC268466008BF42604B68DB68236098
:100FE0002368C2E710000020240000202401002014
:100FF00030000020AC00002010B5044600F0C2FB19
:10100000044B1B682360044B1B686360BDE8104001
:1010100000F0C8BB2000002034000020034B1B68F8
:101020000360034B1B684360704700BF2000002033
:101030003400002070B50D46044600F0A3FB0F4BB2
:1010400019682B685A1C17D00D482668006862681A
:10105000864208D08A4206D8002301242B6000F083
:10106000A1FB204670BD881A8342F5D95B1A134450
:1010700020462B60FFF7D2FF0024F0E73400002069
:1010800020000020014B1868704700BF2401002099
:101090002DE9F843304D1F462B680446034493F86E
:1010A0004C300E46022B9046DDF820901DD0B9F151
:1010B000000F1AD0FFF7D0FD00F064FB2B6823442B
:1010C00093F84C30022B33D100F06CFB0026FFF775
:1010D00087FE56B148B94FF0E0234FF08052C3F875
:1010E000042DBFF34F8FBFF36F8F00F04BFB2FB179
:1010F0002B6804F1120253F822303B602B68234422
:1011000093F84C30022B01BF2B68012603EB8403BC
:101110009A6C12BF002622EA08029A6400222B6809
:10112000234483F84C2000F03DFB3046BDE8F883B3
:101130002B6803EB84039A6C22EA060201269A6468
:101140002B68234483F84C6000F02CFB3146484662
:10115000FFF772FBBBE700BF240100202DE9F0413F
:10116000DDF8188005460C4617461E4600F00AFBBF
:10117000B8F1000F05D004F1120355F82330C8F878
:10118000003002222B1993F84C1083F84C20731E68
:10119000C9B2032B08D8DFE803F00240474505EB4E
:1011A0008404A36C3B43A364012930D1D5E9021226
:1011B0006B698A60516059682C1DA14208BF5A6052
:1011C0001A681C49013A1A600123EA6A08689340C8
:1011D00003430B60142353431749CE187068876884
:1011E000A860EF607C608460C8586E610130C850B0
:1011F000124B1B68DB6A9A4209D94FF0E0234FF08B
:101200008052C3F8042DBFF34F8FBFF36F8F0124BB
:1012100000F0C8FA2046BDE8F08105EB8404A36C19
:101220000133C0E7022903D0123445F82470BBE72C
:101230000024EDE730000020AC0000202401002055
:10124000F0B5DDE90564EFF311854FF0400787F352
:101250001188BFF36F8FBFF34F8F26B101F11207D3
:1012600050F8277037604FF0020C471897F84C6021
:10127000013BF6B287F84CC0032B08D8DFE803F037
:1012800002434B4900EB81018B6C1A438A64012EA7
:1012900035D12B4BC26A1B68002B40D1D0E90261CB
:1012A0004369B1604E605E68071DBE4208BF596069
:1012B0001968013919600123224993400E683343AC
:1012C0000B6014235343204901EB030CDCF804604A
:1012D000D6F808E08660C0F80CE0CEF80470B7607D
:1012E000C0F814C0C8580130C850184B1B68DB6ADE
:1012F0009A4204D9012304B12360154A13600120E6
:1013000085F31188F0BD00EB81018B6C01338B6498
:10131000BDE7022E11D0123140F82120B7E70D4B66
:1013200000F1180659688F68C16107627E608E609F
:101330001968836201311960D7E70020E0E700BF38
:101340001000002030000020AC000020240100200C
:10135000240000206800002038B50D46044608B976
:10136000084B1C6800F00EFA00202C4494F84C3016
:10137000022B0ABF84F84C000446012400F012FA44
:10138000204638BD24010020826843680068134469
:10139000181A824298BF801A70472DE9F04185687B
:1013A0001746ED1A954228BF1546064680692A461B
:1013B000184488461C4600F079FBAF4205D9B06955
:1013C0007A1B08EB050100F071FBB368E01983425A
:1013D00098BFC01ABDE8F08173B50E46017F144670
:1013E000C9071A460546436813D5069901948A42EF
:1013F00013D304220DEB0201FFF7CFFF03462CB1FC
:10140000224631462846FFF7C8FF6860204602B0F2
:1014100070BD944228BF1446F1E70024F6E72DE999
:10142000F04185688846ED1A954228BF1546174653
:10143000816906462A46404619441C4600F036FBA0
:10144000AF4205D9B1697A1B08EB050000F02EFB0D
:10145000B368E019834298BFC01ABDE8F081F7B5C0
:101460001646027F1C46D20705460F4603680BD579
:1014700004220DEB0201FFF7D2FF019A03469642C8
:101480002CBF16460026043CB44228BF34462CB17B
:10149000224639462846FFF7C2FF2860204603B09F
:1014A000F0BD012AF8B506460F461CD0931E5A42DD
:1014B0005A41950016F1260F17D806F1250000F0C5
:1014C000DFF9044668B12422002100F09FFA012FC1
:1014D00038BF012704F124030136A361A660E76049
:1014E00025772046F8BD1546E4E70024F9E730B536
:1014F00082680468036841680568A542F9D1D0187C
:101500000138401A824298BF801A30BD2DE9F0435D
:10151000164687B0027F03938368D2070446884645
:1015200003F1FF332AD5371DBB422BD2002303938F
:101530002046FFF7DCFF05462B4632464146204653
:101540000097FFF749FF0546A0B12046FFF71CFFB3
:10155000E36898420ED3FFF77FFB236943B100266F
:101560002069009633463246216AFFF7F7FD26616F
:10157000FFF736FC284607B0BDE8F083B34228BF2A
:1015800033461F46039B002BD2D004A8FFF734FD3F
:101590004FF0000900F0F6F82046FFF7A8FF874259
:1015A00005461BD9216A0020FFF7D6FEFFF76AFD2A
:1015B000606100F0F7F8039B00930023206A19464E
:1015C0001A46FFF765FDC4F8149003A904A8FFF7B5
:1015D00031FD0028DED0002DAAD0ADE700F0E2F802
:1015E000F9E72DE9F3411E46037F1546DB0754BF9B
:1015F000904602F1040804460F46FFF778FF2A469A
:10160000034639462046CDF80080FFF7E5FE054643
:10161000E8B12046FFF7B8FEE368984217D3EFF32E
:1016200011874FF0400383F31188BFF36F8FBFF32F
:101630004F8F23694BB120690196002600963346EF
:101640003246216AFFF7FCFD266187F311882846A0
:1016500002B0BDE8F0812DE9F743067F9946F30714
:1016600004460F46904628D416F0040600D0C668FB
:10167000B9F1000F36D000F085F82046FFF784FE60
:10168000864205461BD200F08DF82B46424639466D
:101690002046FFF7E4FE054650B3FFF7DDFA636925
:1016A00043B100266069009633463246216AFFF74F
:1016B00055FD6661FFF794FB1BE00426D8E7216A1D
:1016C0000020FFF749FEFFF7DDFC206100F06AF81B
:1016D0000023CDF800901A461946206AFFF7D8FC7F
:1016E000002323612046FFF74FFEB0420546CCD8C9
:1016F0000025284603B0BDE8F083002382B00193A3
:101700004FF0400383F31188BFF36F8FBFF34F8F08
:10171000019B002BFCD002B0704700000648006817
:10172000006880F3088862B661B6BFF34F8FBFF3DD
:101730006F8F00DF00BF000008ED00E04FF0807306
:1017400040F8043C054B21F0010140F8081C40F82A
:101750000C3C40F8202C4038704700BFFB160000BE
:10176000074B19680868B0E8F00F80F30988BFF3E9
:101770006F8F4FF0000080F311884EF00D0E704710
:10178000240100204FF0400383F31188BFF36F8FD3
:10179000BFF34F8F024A136801331360704700BFD5
:1017A00000000020034A1368013B13600BB983F368
:1017B0001188704700000020EFF30980BFF36F8F9E
:1017C0000D4B1A6820E9F00F10602DE908404FF02A
:1017D000400080F31188FFF7C1FB4FF0000080F359
:1017E0001188BDE8084019680868B0E8F00F80F378
:1017F0000988BFF36F8F70472401002008B54FF0B0
:10180000400383F31188BFF36F8FBFF34F8FFFF750
:101810002BFA28B14FF0E0234FF08052C3F8042D8B
:10182000002383F3118808BD4FF0E02300221A61E2
:101830009A614CF24F325A6107221A6170470000D8
:101840004FF0E02310B50024D3F8202D42F47F029E
:10185000C3F8202DD3F8202D42F07F42C3F8202D6D
:10186000C3F81C4DFFF7E0FF044B1C60FFF756FF69
:10187000FFF774FBFFF741FF204610BD000000207A
:10188000F8B5431E0A3363D810F0070300F10804CB
:1018900005D0A3F10902A2425AD31030C41A304D28
:1018A000FFF7DAF92B68F3B92E4A2F4853071FBF09
:1018B000D11D21F0070102F54842531A0CBF4FF425
:1018C00048430A4600211344083B23F007034160C4
:1018D0000260C3E90011991AC2E900312B60234B61
:1018E0001960234B1960002C37DD214E3168A1426D
:1018F00033D31D4A13685868A04201D21F684FBBFA
:101900002D689D4229D01568D3F800C0001B10280F
:1019100005F10805C2F800C005D91F1978605C60A0
:1019200043F804C0176058680A1A104932600C68FE
:1019300040F00040A24238BF0A6000221A600D4AFF
:101940005860136801331360FFF74AFA2846F8BD60
:101950000024A4E71A463B46CDE70025F4E700BF84
:1019600038010020440100203C010020300100200B
:10197000340100202C01002038B5054600283BD05A
:1019800050F8043C002B37DA50F8082C002A33D1E9
:1019900023F0004340F8043CA0F10804FFF75CF991
:1019A000164A55F8041C13680B441360144B1A466E
:1019B0001B689C42FBD850681518AC4202BF144605
:1019C00009185160606821188B4213D10D490968CC
:1019D0008B4203D05968014461601968A2422160BA
:1019E00018BF1460084A136801331360BDE838401B
:1019F000FFF7F6B91946F1E738BD00BF3401002002
:101A00003C010020380100202801002070B5860725
:101A100047D0541E002A3ED00346CAB201E0013C22
:101A200039D303F8012B9D07F9D1032C2CD9CDB262
:101A300005EB05250F2C1A4605EB054534D9A4F115
:101A4000100C2CF00F0603F1100EB6444FEA1C1CCC
:101A5000C2E90055C2E9025510327245F8D10CF1C5
:101A6000010214F00C0F03EB021204F00F0C13D060
:101A7000ACF1040323F003030433134442F8045B82
:101A80009342FBD10CF003042CB1C9B21C4403F8FF
:101A9000011BA342FBD170BD64461346002CF4D158
:101AA000F9E703461446C0E7A446E1E7844641EA65
:101AB000000313F0030349D1403A23D30B680360BA
:101AC0004B6843608B688360CB68C3600B690361BC
:101AD0004B6943618B698361CB69C3610B6A0362A4
:101AE0004B6A43628B6A8362CB6AC3620B6B03638C
:101AF0004B6B43638B6B8363CB6BC3634030403171
:101B0000403ADBD230320BD30B6803604B68436042
:101B10008B688360CB68C36010301031103AF3D209
:101B20000C3205D351F8043B40F8043B043AF9D297
:101B3000043208D0D2071CBF11F8013B00F8013B6A
:101B400001D30B8803806046704700BF082A13D377
:101B50008B07B1D010F00303AED0C3F10403D21A47
:101B6000DB071CBF11F8013B00F8013BA4D331F89F
:101B7000023B20F8023B9FE7043AD9D3013A11F81F
:101B8000013B00F8013BF9D20B7803704B784370AE
:101B90008B7883706046704720F0030110F00300DB
:101BA000C0F1000051F8043B00F1040C4FEACC0CEA
:101BB0006FF000021CBF22FA0CF213434FF0010C2D
:101BC0004CEA0C2C4CEA0C4CA3EB0C0222EA03026C
:101BD00012EACC1204BF51F8043B0430F4D0C2F135
:101BE000000102EA0102B2FA82F2C2F11F0200EB26
:101BF000D2007047495352204D73672023000D0ACD
:101C00003D3D3D3D3D3D3D3D3D3D3D3D3D3D3D3D04
:101C10003D3D3D3D3D3D3D3D3D3D3D3D3D3D3D3DF4
:101C20003D3D3D3D3D3D3D3D0D0A00202046726558
:101C30006552544F53204D6573736167652042753B
:101C400066666572732044656D6F0D0A004C6561B0
:101C5000726E696E67206F626A6563746976657318
:101C60003A0D0A00312E205661726961626C65205E
:101C70006C656E677468206D657373616765730D5D
:101C80000A00322E205461736B2D746F2D746173B2
:101C90006B206D6573736167696E670D0A00332E83
:101CA000204953522D746F2D7461736B206D6573D1
:101CB000736167696E670D0A00342E204D6573737A
:101CC0006167652076732053747265616D2062755B
:101CD0006666657220636F6D70617269736F6E0DF9
:101CE0000A004372656174696E6720627566666595
:101CF00072732E2E2E0D0A004572726F722063725F
:101D0000656174696E67207461736B206D657373B0
:101D100061676520627566666572210D0A00202084
:101D20002D205461736B206D65737361676520624C
:101D30007566666572204F4B0D0A004572726F72B0
:101D4000206372656174696E6720495352206D6526
:101D5000737361676520627566666572210D0A009E
:101D600020202D20495352206D65737361676520D3
:101D7000627566666572204F4B0D0A004572726F80
:101D800072206372656174696E6720737472656135
:101D90006D20627566666572210D0A0020202D2077
:101DA00053747265616D20627566666572204F4B73
:101DB0000D0A000D0A4372656174696E67207461D3
:101DC000736B732E2E2E0D0A004D73675278002010
:101DD000202D205265636569766572207461736B8E
:101DE00020287072696F2034290D0A004D736754E2
:101DF000780020202D2053656E6465722074617315
:101E00006B20287072696F2033290D0A00495352E4
:101E10002D52780020202D204953522068616E6495
:101E20006C6572207461736B20287072696F203446
:101E3000290D0A004953522D53696D0020202D2091
:101E40004953522073696D756C61746F72207461AF
:101E5000736B20287072696F2033290D0A00537448
:101E60007265616D44656D6F0020202D2053747282
:101E700065616D206275666665722064656D6F20B0
:101E80007461736B20287072696F2033290D0A000A
:101E9000576F726B65720020202D20576F726B6533
:101EA00072207461736B20287072696F2032290D63
:101EB0000A000D0A416C6C207461736B73206372AD
:101EC0006561746564210D0A000D0A5374617274B2
:101ED000696E67207363686564756C65722E2E2E5B
:101EE0000D0A0D0A004572726F723A2073636865BD
:101EF00064756C6572207374617274206661696CBC
:101F00006564210D0A0020205B576F726B65725D5E
:101F1000204261636B67726F756E64207461736BCE
:101F200020737461727465640D0A0020205B576F22
:101F3000726B65725D2052756E6E696E672E2E2E05
:101F4000206C6F6F702023000D0A20205B53747289
:101F500065616D2D44656D6F5D205461736B2073F9
:101F60007461727465640D0A0020204D657373619D
:101F700067652042756666657220767320537472B9
:101F800065616D204275666665720D0A002D204DF3
:101F9000657373616765204275666665723A2045B0
:101FA000616368206D657373616765206861732084
:101FB0006C656E677468207072656669780D0A00DA
:101FC0002D2053747265616D204275666665723AA4
:101FD00020427974652073747265616D2C206E6F78
:101FE000206D65737361676520626F756E646172E1
:101FF0006965730D0A000D0A20205B5374726561D8
:102000006D2D44656D6F5D2053656E64696E67204C
:102010006279746573206F6E65206279206F6E65DA
:102020003A0D0A0020205B53747265616D5D205388
:10203000656E743A200020205B53747265616D5D9B
:102040002052656164200020627974657320617498
:10205000206F6E63653A20000D0A20205B53747276
:1020600065616D2D44656D6F5D2044656D6F206306
:102070006F6D706C6574650D0A000D0A20205B4958
:1020800053522D53696D5D205461736B20737461DD
:10209000727465640D0A000D0A20205B4953522DAD
:1020A00053696D5D2053696D756C6174696E67204D
:1020B000696E7465727275707420230020205B490C
:1020C00053522D53696D5D2053656E74200020625C
:1020D000797465730D0A000D0A20205B4953522D57
:1020E00053696D5D20446F6E650D0A0020205B49C9
:1020F00053522D48616E646C65725D205461736B40
:1021000020737461727465640D0A000D0A20205BEF
:102110004953522D48616E646C65725D20476F743F
:1021200020495352206D6573736167652023002039
:10213000205B4953522D48616E646C65725D20438B
:102140006F6E74656E743A200020205B53656E6478
:1021500065725D205461736B207374617274656481
:102160000D0A000D0A20205B53656E6465725D20C8
:1021700053656E64696E67206D6573736167652072
:10218000230020205B53656E6465725D2053656E8D
:102190007420000D0A20205B53656E6465725D201B
:1021A000446F6E652073656E64696E670D0A00206A
:1021B000205B52656365697665725D205461736B5F
:1021C00020737461727465642C2077616974696E20
:1021D0006720666F72206D657373616765732E2E5D
:1021E0002E0D0A000D0A20205B5265636569766535
:1021F000725D20476F74206D65737361676520237E
:102200000020205B52656365697665725D20436FCF
:102210006E74656E743A20000D0A212121205374DA
:1022200061636B206F766572666C6F773A20004849
:10223000656C6C6F004672656552544F53204D6556
:10224000737361676520427566666572004C6F6ED8
:10225000676572206D65737361676520666F7220B4
:1022600074657374696E67210049444C4500000031
:102270002F220000352200004D2200000500000042
:08228000F8B500BFF8B500BF7E
:04228800AAAAAAAAAA
:00000001FF
